:100000009DC10000CCC10000CAC10000C8C10000F1
:10001000C6C10000C4C10000C2C10000C0C10000D0
:10002000BEC10000BCC10000BAC10000B8C10000E0
:10003000B6C10000B4C10000B2C10000B0C10000F0
:10004000AEC100000C94A646AAC10000A8C10000E1
:100050000C94D446A4C10000A2C100000C94D24567
:100060009EC100000C949C450C94724598C1000000
:1000700096C1000094C1000092C1000090C1000030
:100080000C9478468CC100008AC1000088C1000031
:1000900086C1000084C1000082C1000080C1000050
:1000A0007EC100007CC100000C944A4678C100006B
:1000B00076C1000074C1000072C100000C941C469F
:1000C0006EC100006CC100006AC1000068C1000080
:1000D00066C1000064C1000062C1000060C1000090
:1000E0005EC100004E414E494E495459494E46CDDD
:1000F000CCCC3D0AD7233C17B7D13877CC2B3295DF
:1001000095E6241FB14F0A000020410000C84200BC
:10011000401C4620BCBE4CCA1B0E5AAEC59D740086
:10012000407A10F35A00A0724E18090010A5D4E8C6
:100130000000E87648170000E40B54020000CA9A59
:100140003B000000E1F505000080969800000040AB
:10015000420F000000A086010000001027000000F0
:1001600000E803000000006400000000000A000036
:100170000000000100000000002C76D888DC674FEA
:100180000823DFC1DFAE59E1B1B796E5E3E453C61A
:100190003AE651997696E8E6C28426EB898C9B6212
:1001A000ED407C6FFCEFBC9C9F40F2BAA56FA5F4BC
:1001B00090055A2AF75C936B6CF9676DC11BFCE0E4
:1001C000E40D47FEF520E6B500D0ED902E03009437
:1001D0003577050080841E080000204E0A000000CC
:1001E000C80C333333330F986E12831141EF8D21D6
:1001F00014893BE65516CFFEE6DB18D1844B381B3D
:10020000F77C1D901DA4BBE424203284725E228101
:1002100000C9F124ECA1E53D2700002100240027BE
:10022000002A002D00300033000101000004010706
:10023000010A0100002200250028002B002E0031B9
:1002400000340002010000050108010B010000203C
:10025000002300260029002C002F0032000001009E
:100260000003010601090105050505070508080841
:1002700008020202020A0A08080404040401010137
:10028000010101010103030303030303030407073F
:10029000070C0C0C0C0C0C0C0C02020202060606DD
:1002A00006060606060B0B0B0B0B0B0B0B010210C5
:1002B0002020080810204010204080020102010880
:1002C0000402010102040810204080804020100830
:1002D0000402018004020180402010080402010889
:1002E00004020101020408102040800102040810E9
:1002F00020408000000A0B02090C0D0E08070304C1
:1003000001000000000000000000000000000000EC
:1003100000000000000000000000000000000012CB
:1003200011100000000000000000000000000000AC
:1003300000000000000000000000FF4611241FBE66
:10034000CFEFD1E2DEBFCDBF00E00CBF19E0A0E0EF
:10035000B2E0E0EAF8EB00E00BBF02C007900D92BC
:10036000A030B107D9F72EE0A0E0B9E001C01D929E
:10037000AA3EB207E1F711E0CEE9D1E000E006C005
:1003800021970109802FFE010E94395BCD39D107E9
:1003900080E00807A9F70E9470470C944E5C30CEAD
:1003A0009C01803E910508F0D1C5FC018827E452EC
:1003B000FE4F8F4F0C94395BBC02C902D202DB02A4
:1003C000E402ED02A607A607A607A607A607FA02FB
:1003D00007031403A60721032A0333034003490339
:1003E00052035B0364036D03A60776037F03880350
:1003F000A607A607A60791039A03A303A607A607C5
:10040000AC03B903A607A607A607C603D303E003F8
:10041000ED03FA0307041404A607A607A6072104A0
:100420002A043304A60740044D045A04A607A6076D
:10043000A6076704740481048E049B04A804B50411
:10044000A607A607A607C204CF04DC04E904F60445
:10045000FF040805A607A607A607AD05BA05C70548
:10046000A607D405E105EE05A607A607A607FB0526
:1004700004060D06A607A607A607A607A607A60751
:10048000A60716061F062806A60731063A064306E3
:10049000A607A607A6074C0659066606A607730612
:1004A00080068D06A607A607A6079A06A706B40625
:1004B000A607C106CA06D306A607A607A607DC0636
:1004C000E506EE06A607A607A607A607A607A6073F
:1004D000A607A607A607A607A60711051E052B0552
:1004E000A607A607A607A607A607A607A607A607A4
:1004F000A607A607A607A607A607380545055205BD
:10050000A60786059305A005A607A607A6075F050B
:100510006C057905A607A607A607A607A607A607DE
:10052000A607A607A607A607A607A607A607A60763
:10053000A607A607A607A607A607A607A607A60753
:10054000A607A607A607A607A607F70600070D0732
:10055000A6071A0723073007A607A607A6073D0721
:1005600046075307A607600769077607A607A60789
:10057000A60783078C07990781E090E0A0E0B0E030
:100580008093220A9093230AA093240AB093250A09
:1005900008951092260A1092270A1092280A1092A3
:1005A000290A089510922A0A10922B0A10922C0AF6
:1005B00010922D0A089510922E0A10922F0A10926E
:1005C000300A1092310A08951092320A1092330ABA
:1005D0001092340A1092350A089583E090E0A0E06A
:1005E000B0E08093360A9093370AA093380AB0930C
:1005F000390A089588E790E0A0E0B0E080934E0AC1
:1006000090934F0AA093500AB093510A089588E737
:1006100090E0A0E0B0E08093520A9093530AA09338
:10062000540AB093550A089588E790E0A0E0B0E03E
:100630008093560A9093570AA093580AB093590A88
:10064000089510925E0A10925F0A1092600A10924A
:10065000610A08951092620A1092630A1092640A65
:100660001092650A089581E090E0A0E0B0E08093E8
:10067000660A9093670AA093680AB093690A08957E
:1006800010926A0A10926B0A10926C0A10926D0A0C
:10069000089510926E0A10926F0A1092700A1092CA
:1006A000710A08951092720A1092730A1092740AD5
:1006B0001092750A08951092760A1092770A109295
:1006C000780A1092790A089510927A0A10927B0A99
:1006D00010927C0A10927D0A089510927E0A109260
:1006E0007F0A1092800A1092810A08951092860A59
:1006F0001092870A1092880A1092890A089510921F
:100700008A0A10928B0A10928C0A10928D0A089510
:1007100010928E0A10928F0A1092900A1092910AEB
:10072000089510929E0A10929F0A1092A00A1092A9
:10073000A10A08951092A20A1092A30A1092A40A84
:100740001092A50A08951092A60A1092A70A109274
:10075000A80A1092A90A089581E090E0A0E0B0E014
:100760008093B20A9093B30AA093B40AB093B50AE7
:10077000089581E090E0A0E0B0E08093B60A909305
:10078000B70AA093B80AB093B90A08958CE291E031
:10079000A0E0B0E08093C60A9093C70AA093C80A6D
:1007A000B093C90A08958CE291E0A0E0B0E0809394
:1007B000CA0A9093CB0AA093CC0AB093CD0A0895AD
:1007C0008CE291E0A0E0B0E08093CE0A9093CF0A53
:1007D000A093D00AB093D10A08958CE291E0A0E0F2
:1007E000B0E08093D20A9093D30AA093D40AB09336
:1007F000D50A089581E090E0A0E0B0E08093D60AA9
:100800009093D70AA093D80AB093D90A089581E0AB
:1008100090E0A0E0B0E08093DA0A9093DB0AA09326
:10082000DC0AB093DD0A089581E090E0A0E0B0E03A
:100830008093DE0A9093DF0AA093E00AB093E10A66
:1008400008951092EE0A1092EF0A1092F00A109298
:10085000F10A08951092F20A1092F30A1092F40A23
:100860001092F50A089581E090E0A0E0B0E0809356
:10087000F60A9093F70AA093F80AB093F90A08953C
:1008800085E090E0A0E0B0E08093FE0A9093FF0A3C
:10089000A093000BB093010B089585E090E0A0E0D9
:1008A000B0E08093020B9093030BA093040BB093E2
:1008B000050B089589E190E0A0E0B0E08093060B7D
:1008C0009093070BA093080BB093090B089582E354
:1008D00090E0A0E0B0E08093160B9093170BA093EC
:1008E000180BB093190B089582E390E0A0E0B0E0FC
:1008F00080931A0B90931B0BA0931C0BB0931D0BB2
:10090000089582E390E0A0E0B0E080931E0B909306
:100910001F0BA093200BB093210B089582E390E06E
:10092000A0E0B0E08093220B9093230BA093240BC4
:10093000B093250B089580E991E0A0E0B0E08093AA
:10094000260B9093270BA093280BB093290B0895A7
:1009500080E991E0A0E0B0E080932A0B90932B0B0C
:10096000A0932C0BB0932D0B089580E991E0A0E0AB
:10097000B0E080932E0B90932F0BA093300BB0938D
:10098000310B089580E991E0A0E0B0E080933E0B48
:1009900090933F0BA093400BB093410B089580E9D7
:1009A00091E0A0E0B0E08093420B9093430BA093C2
:1009B000440BB093450B089580E991E0A0E0B0E0CE
:1009C0008093460B9093470BA093480BB093490B31
:1009D000089580E991E0A0E0B0E080934A0B909305
:1009E0004B0BA0934C0BB0934D0B089510924E0BF4
:1009F00010924F0B1092500B1092510B08951092C1
:100A0000520B1092530B1092540B1092550B0895E9
:100A10001092560B1092570B1092580B1092590BC4
:100A2000089581E090E0A0E0B0E08093660C9093A0
:100A3000670CA093680CB093690C089581E090E076
:100A4000A0E0B0E080936A0C90936B0CA0936C0CC8
:100A5000B0936D0C089581E090E0A0E0B0E0809349
:100A60006E0C90936F0CA093700CB093710C089562
:100A700081E090E0A0E0B0E08093A60C9093A70CFA
:100A8000A093A80CB093A90C089581E090E0A0E099
:100A9000B0E08093AA0C9093AB0CA093AC0CB093F5
:100AA000AD0C089581E090E0A0E0B0E08093AE0C42
:100AB0009093AF0CA093B00CB093B10C089582E367
:100AC00090E0A0E0B0E08093CE0C9093CF0CA09388
:100AD000D00CB093D10C089582E390E0A0E0B0E098
:100AE0008093D20C9093D30CA093D40CB093D50CDC
:100AF00008958AEF90E0A0E0B0E08093D60C909348
:100B0000D70CA093D80CB093D90C089581E090E055
:100B1000A0E0B0E08093B60C9093B70CA093B80C13
:100B2000B093B90C089581E090E0A0E0B0E080932C
:100B3000BA0C9093BB0CA093BC0CB093BD0C089561
:100B400081E090E0A0E0B0E08093BE0C9093BF0CF9
:100B5000A093C00CB093C10C089588E592E0A0E08A
:100B6000B0E08093660B9093670BA093680BB093F3
:100B7000690B089588E592E0A0E0B0E080936A0BED
:100B800090936B0BA0936C0BB0936D0B089588E55D
:100B900092E0A0E0B0E080936E0B90936F0BA09377
:100BA000700BB093710B08958FE390E0A0E0B0E07C
:100BB0008093760B9093770BA093780BB093790B7F
:100BC00008958FE390E0A0E0B0E080937A0B9093DB
:100BD0007B0BA0937C0BB0937D0B08958FE390E08B
:100BE000A0E0B0E080937E0B90937F0BA093800BEE
:100BF000B093810B089510928E0B10928F0B109270
:100C0000900B1092910B08951092920B1092930BEF
:100C10001092940B1092950B08951092960B1092CF
:100C2000970B1092980B1092990B08951092B60B97
:100C30001092B70B1092B80B1092B90B0895109246
:100C4000BA0B1092BB0B1092BC0B1092BD0B089507
:100C50001092BE0B1092BF0B1092C00B1092C10BE2
:100C600008951092C60B1092C70B1092C80B1092E9
:100C7000C90B08951092CA0B1092CB0B1092CC0B9B
:100C80001092CD0B08951092CE0B1092CF0B1092B4
:100C9000D00B1092D10B089585E090E0A0E0B0E079
:100CA0008093DE0B9093DF0BA093E00BB093E10BEE
:100CB000089585E090E0A0E0B0E08093E20B90938F
:100CC000E30BA093E40BB093E50B089585E090E06F
:100CD000A0E0B0E08093E60B9093E70BA093E80BC5
:100CE000B093E90B089584EB95E1A0E0B0E0809328
:100CF000EE0B9093EF0BA093F00BB093F10B0895D4
:100D000084EB95E1A0E0B0E08093F20B9093F30BBD
:100D1000A093F40BB093F50B089584EB95E1A0E05C
:100D2000B0E08093F60B9093F70BA093F80BB09381
:100D3000F90B089585E090E0A0E0B0E08093060C08
:100D40009093070CA093080CB093090C089585E0CC
:100D500090E0A0E0B0E080930A0C90930B0CA0937D
:100D60000C0CB0930D0C089585E090E0A0E0B0E08D
:100D700080930E0C90930F0CA093100CB093110C59
:100D800008951092160C1092170C1092180C1092D5
:100D9000190C089510921A0C10921B0C10921C0C36
:100DA00010921D0C089510921E0C10921F0C1092A0
:100DB000200C1092210C089510922E0C10922F0CE2
:100DC0001092300C1092310C08951092320C109247
:100DD000330C1092340C1092350C08951092360C8E
:100DE0001092370C1092380C1092390C0895109212
:100DF000460D1092470D1092480D1092490D08951E
:100E00008CE390E0A0E0B0E080934A0D90934B0D0E
:100E1000A0934C0DB0934D0D089581E090E0A0E0BB
:100E2000B0E080934E0D90934F0DA093500DB09372
:100E3000510D08951092560D1092570D1092580DA5
:100E40001092590D08958CE390E0A0E0B0E08093FB
:100E50005A0D90935B0DA0935C0DB0935D0D0895BA
:100E600081E090E0A0E0B0E080935E0D90935F0D94
:100E7000A093600DB093610D089510926E0D1092C5
:100E80006F0D1092700D1092710D08958CE390E02B
:100E9000A0E0B0E08093720D9093730DA093740D59
:100EA000B093750D089581E090E0A0E0B0E08093EC
:100EB000760D9093770DA093780DB093790D0895EA
:100EC00010927E0D10927F0D1092800D1092810D68
:100ED00008958CE390E0A0E0B0E08093820D9093C1
:100EE000830DA093840DB093850D089581E090E06B
:100EF000A0E0B0E08093860D9093870DA093880DBD
:100F0000B093890D08951092960D1092970D10923E
:100F1000980D1092990D08958CE390E0A0E0B0E058
:100F200080939A0D90939B0DA0939C0DB0939D0D73
:100F3000089581E090E0A0E0B0E080939E0D909352
:100F40009F0DA093A00DB093A10D0895220F331F04
:100F5000220F331FF901EE5DF54F108211821282CC
:100F6000138208958C3691050CF04EC08936910598
:100F7000CCF4863391055CF5833391059CF48C3178
:100F80009105BCF4893191056CF48E30910564F4BF
:100F90008B3091053CF4009729F097FD08C002972B
:100FA000049728F481E008950F970997D8F380E01B
:100FB0000895863291053CF4843291059CF74F9751
:100FC0000397A8F7EFCF8997079788F7EBCF84357A
:100FD000910574F4813591052CF7843491052CF436
:100FE0008D339105FCF6C797EBCF87549109ECCF71
:100FF0008E35910534F48B359105A4F6855591090C
:10100000DFCF85569109DCCF843A91051CF5813AF2
:10101000910544F68038910584F48D37910514F6D6
:10102000863791053CF4833791050CF0BBCF8F5682
:101030009109C6CF89579109C3CF803991053CF4F6
:101040008D3891050CF0AECF83589109B9CF8159F5
:101050009109B6CF803D91058CF48D3C91050CF043
:10106000A1CF8E3A91053CF48B3A91050CF09ACFC2
:10107000855A9109A5CF895C9109A2CF8A3D910536
:101080003CF4873D91050CF08DCF835D910998CF9D
:101090008D5D910995CFAF92BF92CF92DF92EF9283
:1010A000FF920F931F93CF93DF936C017B018B0112
:1010B000040F151FEB015E01AE18BF08C017D10762
:1010C00059F06991D601ED91FC910190F081E02DEC
:1010D000C6011995892B79F7C501DF91CF911F9131
:1010E0000F91FF90EF90DF90CF90BF90AF90089559
:1010F000FC01538D448D252F30E0842F90E0821B1E
:10110000930B541710F0CF96089501970895FC01A2
:10111000918D828D981761F0A28DAE0FBF2FB11DFA
:101120005D968C91928D9F5F9F73928F90E0089552
:101130008FEF9FEF0895FC01918D828D981731F00C
:10114000828DE80FF11D858D90E008958FEF9FEF60
:101150000895FC01918D228D892F90E0805C9F4F36
:10116000821B91098F739927089586EA9DE0F1DF2C
:1011700021E0892B09F420E0822F0895FC01A48D41
:10118000A80FB92FB11DA35ABF4F2C91848D90E0A9
:1011900001968F739927848FA689B7892C93A0898C
:1011A000B1898C91837080648C93938D848D981316
:1011B00006C00288F389E02D80818F7D80830895A9
:1011C000EF92FF920F931F93CF93DF93EC0181E097
:1011D000888F9B8D8C8D98131AC0E889F98980813E
:1011E00085FF15C09FB7F894EE89FF896083E88971
:1011F000F98980818370806480839FBF81E090E063
:10120000DF91CF911F910F91FF90EF900895F62EEF
:101210000B8D10E00F5F1F4F0F731127E02E8C8D89
:101220008E110BC00FB607FCFACFE889F9898081CF
:1012300085FFF5CFCE01A2DFF2CFEB8DEC0FFD2FB6
:10124000F11DE35AFF4FF0829FB7F8940B8FEA89A4
:10125000FB8980818062D0CF682F86EA9DE0B0CF85
:10126000CF93DF93EC01888D8823B1F0AA89BB89E5
:10127000E889F9898C9185FD03C0808186FD0CC0C9
:101280000FB607FCF7CF8C9185FFF2CF808185FFE9
:10129000EDCFCE0173DFEACFDF91CF91089580E0EB
:1012A00090E0892B21F061DF81110E94000080E035
:1012B00090E0892B49F080E090E0892B29F00E9492
:1012C000000081110E94000080E090E0892B49F02D
:1012D00080E090E0892B29F00E94000081110E949B
:1012E000000080E090E0892B49F080E090E0892BBD
:1012F00029F00E94000081110C9400000895815093
:10130000823108F05AC0E82FF0E08827E557F64F01
:101310008F4F0C94395BAB09AF099D09A309A7094D
:10132000DD09B209B809BC09C209C609CA09D00950
:10133000D409DD09D809DE09E209809180008F77A0
:10134000809380000895809180008F7DF9CF8091F7
:101350008000877FF5CF84B58F7784BD089584B5ED
:101360008F7DFBCF8091B0008F778093B000089580
:101370008091B0008F7DF9CF809190008F7780931E
:1013800090000895809190008F7DF9CF809190001A
:10139000877FF5CF8091A0008F778093A00008957C
:1013A0008091A0008F7DF9CF8091A000877FF5CF3D
:1013B000809120018F7780932001089580912001F2
:1013C0008F7DF9CF80912001877FF5CFCF93DF9379
:1013D000282F30E0F901ED50FD4F8491F901E355DC
:1013E000FD4FD491F901E959FD4FC491CC2399F0F7
:1013F000811185DFEC2FF0E0EE0FFF1FE35BFD4F67
:10140000A591B491EC91ED2381E090E009F480E0A6
:10141000DF91CF91089580E090E0FACF1F93CF93B2
:10142000DF93282F30E0F901ED50FD4F8491F90151
:10143000E355FD4FD491F901E959FD4FC491CC23F7
:10144000A1F0162F81115BDFEC2FF0E0EE0FFF1FF4
:10145000ED5CFD4FA591B4918FB7F894EC9111110B
:1014600008C0D095DE23DC938FBFDF91CF911F9111
:101470000895DE2BF8CFCF93DF9390E0FC01E35586
:10148000FD4F249189599D4FFC0184918823C9F017
:1014900090E0880F991FFC01E75EFD4FA591B49184
:1014A000FC01ED5CFD4FC591D49161110DC09FB75A
:1014B000F8948C91209582238C938881282328830B
:1014C0009FBFDF91CF910895623051F49FB7F89498
:1014D0003C91822F809583238C93E8812E2BEFCF34
:1014E0008FB7F894EC912E2B2C938FBFEACF8230DC
:1014F000910538F0880F991F880F991F059701975C
:10150000F1F708953FB7F894809116099091170963
:10151000A0911809B091190926B5A89B05C02F3FC5
:1015200019F00196A11DB11D3FBFBA2FA92F982F09
:101530008827BC01CD01620F711D811D911D42E004
:10154000660F771F881F991F4A95D1F708958F92CC
:101550009F92AF92BF92CF92DF92EF92FF926B0178
:101560007C01D0DF4B015C01C114D104E104F10422
:10157000B1F0C8DF681979098A099B09683E734090
:101580008105910588F321E0C21AD108E108F1082C
:1015900088EE880E83E0981EA11CB11CE5CFFF9059
:1015A000EF90DF90CF90BF90AF909F908F90089575
:1015B0002FB7F89460911209709113098091140962
:1015C000909115092FBF0895CF92DF92EF92FF926D
:1015D000CF93DF93EC01603282E07807CCF5653B76
:1015E000710514F064EB70E0898128E830E0281B75
:1015F000310987FD3395220F331F220F331F6901F5
:10160000330FEE08FF088A8128E532E0281B3109F4
:1016100087FD3395220F331F220F331F032E000C3B
:10162000440B550B2C193D094E095F09DB0177FF6F
:1016300002C0B0E0A0E00E94CE5924EB30E040E0D0
:1016400050E00E94A859C20ED31EE41EF51EB6013A
:10165000E881E03370F5298188E890E0821B9109E8
:1016600027FD9395880F991F880F991F6817790791
:101670007CF02A8188E592E0821B910927FD9395F1
:10168000880F991F880F991F681779070CF4CB01F1
:101690000297880F991F4FB7F8942E2F30E0F90169
:1016A000EE0FFF1FE20FF31FED5BF14F928381837B
:1016B0004FBFDF91CF91FF90EF90DF90CF900895D3
:1016C0001F93CF93DF93EC01162F8881803308F0AE
:1016D0004DC061E0812FCFDE8881282F30E0F901F5
:1016E000EE0FFF1FE20FF31FED5BF14F1F736081E1
:1016F000607C612B608319821A822CE0622F0E9429
:101700001A5B829FB001112430E020E0AB01420F50
:10171000531FFA01EE0FFF1FE40FF51FED5BF14FB2
:10172000908196FD16C02F5F3F4F2C30310571F729
:10173000813009F51092800082E080938100109240
:10174000850010928400B19A80916F00826080932E
:101750006F00E8818E2F90E0FC01EE0FFF1FE80F75
:10176000F91FED5BF14F8081806480838881DF9178
:10177000CF911F910895823061F410929000809370
:101780009100109295001092940088BB8093710094
:10179000E0CF833069F41092A00082E08093A10032
:1017A0001092A5001092A40089BB80937200D1CF43
:1017B0008111CFCF1092200182E0809321011092FD
:1017C0002501109224018ABB80937300C2CFAF928F
:1017D000BF92CF92DF92EF92FF920F931F93CF931E
:1017E000DF936B017A01EC01C35FD64F28813CE0A7
:1017F000389F8001399F100D1124A090D30EB12C79
:1018000027FF1FC0FB011182108288818F5F8883B0
:1018100088819801280F311D87FD3A95F6012A1518
:101820003B051CF488818C30BCF180819181049649
:1018300080349C4908F471C0F6018081918104963E
:101840006EC088819801280F311D87FD3A952A15B1
:101850003B05DCF68881A801480F511D87FD5A958C
:10186000FA01EE0FFF1FE40FF51FED5BF14F8081D2
:1018700086FFCBCF8881F801E80FF11D87FDFA952F
:10188000CF01EE0FFF1FE80FF91FED5BF14F8081D5
:1018900060E08F73C3DDB9CF808191812881A80179
:1018A000420F511D27FD5A959A01FA01EE0FFF1FB5
:1018B000E20FF31FED5BF14F21813281820F931F05
:1018C000F7019183808388819801280F311D87FD5E
:1018D0003A95F901EE0FFF1FE20FF31FED5BF14F99
:1018E000808186FF21C08881080F111D87FD1A9510
:1018F000F801EE0FFF1FE00FF11FED5BF14F80814C
:1019000061E08F73DF91CF911F910F91FF90EF9066
:10191000DF90CF90BF90AF9081CD80E49CE9F7013C
:10192000918380838FEF8883DF91CF911F910F91F7
:10193000FF90EF90DF90CF90BF90AF9008950F93FE
:101940001F93CF93DF938B01EA01AB014150510903
:101950004534510508F0E9C02230310508F0E5C0F2
:1019600046E4429FF001439FF00D1124E80FF91F58
:10197000E60FF71F81E080836C2F232B09F4D2C080
:1019800061E0802F78DD209749F460E0802F46DD0C
:10199000CE01DF91CF911F910F910895CF3FD105D7
:1019A00011F461E0BFC0F801ED50FD4FE491E1504A
:1019B000E23108F0B2C0F0E08827EE51F34F8F4FCC
:1019C0000C94395BF40CFB0C000D0A0D140D8D0DFD
:1019D0001E0D260D2E0D380D420D4C0D5B0D650DA7
:1019E0008D0D6F0D790D830D84B5806884BDC7BDE5
:1019F000D0E0C0E0CDCF84B5806284BDC8BDF8CF53
:101A000080918000806880938000D0938900C0938B
:101A10008800EECF80918000806280938000D09318
:101A20008B00C0938A00E4CF80918000886080930F
:101A30008000D0938D00C0938C00DACF8091B000ED
:101A400080688093B000C093B300D2CF8091B00083
:101A500080628093B000C093B400CACF80919000A0
:101A6000806880939000D0939900C0939800C0CF75
:101A700080919000806280939000D0939B00C093EF
:101A80009A00B6CF80919000886080939000D093A8
:101A90009D00C0939C00ACCF8091A0008068809393
:101AA000A0008091A0008F7B8093A000D093A9001C
:101AB000C093A8009DCF8091A00080628093A00079
:101AC000D093AB00C093AA0093CF8091A000886010
:101AD0008093A000D093AD00C093AC0089CF8091DB
:101AE0002001806880932001D0932901C0932801B0
:101AF0007FCF80912001806280932001D0932B01C1
:101B0000C0932A0175CF80912001886080932001C5
:101B1000D0932D01C0932C016BCF60E0C038D1056C
:101B20000CF03FCF802F7ADC63CFC1E0D0E030CF24
:101B3000CF93DF93D0E0C0E0CE0114DA882319F010
:101B4000CE010E94D0012196C13ED105A9F7DF91B7
:101B5000CF910895CF93DF93EC01888137DC21E0AA
:101B6000892B09F420E02C878C8130DC21E0892B43
:101B700009F420E02E878C8D9D8D0197D1F48A8108
:101B800025DC21E0892B09F420E02D878E811EDCE5
:101B900021E0892B09F420E02F879C858D859817FB
:101BA00029F08E85281711F09A878B87DF91CF91C6
:101BB00008958C858A872B87F9CF0F93FC01928536
:101BC000908783858187A48DB58D119721F4621745
:101BD00021F0401711F0628743878385882381F0C5
:101BE000828591110FC0882359F080899189A2893B
:101BF000B3890197A109B109808B918BA28BB38B1B
:101C00000F9108958111FCCF80899189A289B389B0
:101C10000196A11DB11DF0CF4F925F926F927F92FE
:101C20008F929F92AF92BF92CF92DF92EF92FF92EC
:101C3000CF93DF93EC016C897D898E899F89888899
:101C40009988AA88BB88CE8CDF8C0D2C000CEE08FE
:101C5000FF08603127E272078105910529F0161609
:101C6000170618061906ACF0A7019601C501B401C4
:101C70000E940B5BDF91CF91FF90EF90DF90CF90B0
:101C8000BF90AF909F908F907F906F905F904F909C
:101C900008950E947C5820E030E44CE156E40E9414
:101CA0006A5A2B013C01488E598E6A8E7B8EC50183
:101CB000B4010E947C58A30192010E94DB584B01A1
:101CC0005C01C701B6010E947C589B01AC01C501B3
:101CD000B4010E94DB580E94D25ACCCFFC01118281
:101CE0001082138212821582148217821682108645
:101CF0001186128613861486158616861786108A14
:101D0000118A128A138A108E118E128E138E158EDE
:101D1000148E178E168E10A211A212A213A214A254
:101D200015A216A217A210A611A612A613A614A6F3
:101D300015A681E090E097A786A780E197E2A0E052
:101D4000B0E0848B958BA68BB78B08952F923F9232
:101D50004F925F926F927F928F929F92AF92BF92BB
:101D6000CF92DF92EF92FF920F931F93CF93DF9367
:101D700000D01F92CDB7DEB79C838B834B015A01F5
:101D80001901FA82E982FA014080518062807380F1
:101D900020E030E0A901C301B2010E94035B1816E4
:101DA00074F4F6012081318142815381C301B20173
:101DB0000E94055AF5016083718382839383F80141
:101DC0004080518062807380F401A68DB78D208998
:101DD0003189428953890E94CE596B017C01EB8184
:101DE000FC81EC58FF4F8081882309F440C0C41463
:101DF000D504E604F7040CF440C0F801C082D18297
:101E0000E282F3828B819C81865B9F4F9C838B83D4
:101E1000FC0180819181A281B381F1018083918352
:101E2000A283B383E981FA8180819181892B41F07A
:101E3000C401F2DEEB81FC81608371838283938332
:101E40000F900F900F900F90DF91CF911F910F91F6
:101E5000FF90EF90DF90CF90BF90AF909F908F90CA
:101E60007F906F905F904F903F902F9008954C140B
:101E70005D046E047F040CF0C0CFF50140805180FA
:101E80006280738020E030E04AEF56E4C301B20183
:101E90000E94765887FFB1CF20E030E040E85FE352
:101EA000C301B2010E94065AF501608371838283E7
:101EB0009383A3CF889A0895889808958E9A089559
:101EC0008E980895EBE0F1E080818860808308952A
:101ED000EBE0F1E08081877F80830895149A089574
:101EE0001498089560E0FC01838598CA60E0FC01C5
:101EF000858194CA61E0FC01838590CA61E0FC01A0
:101F000085818CCACF93DF93EC01FC01E358FF4F2E
:101F10001082379781E0808360E08D817FDA8F8542
:101F20009889892B29F060E08B85DF91CF9176CA63
:101F3000DF91CF910895CF93DF93EC018B8946DA3F
:101F40002E892817190621F48F89DF91CF910895E2
:101F500080E0FBCFCF93DF93EC01898937DA2E89BC
:101F60002817190621F48F89DF91CF91089580E019
:101F7000FBCFCF93DF93EC018F8199AD61E091119D
:101F800001C060E04BDA8D859AAD992321F09BADBD
:101F900061E0911101C060E0DF91CF913FCACF9322
:101FA000DF93EC018F8199AD60E0911101C061E098
:101FB00035DA8D859AAD992321F09BAD60E09111C2
:101FC00001C061E0DF91CF9129CACF93DF93EC018B
:101FD00061E0898523DA8AAD882319F061E08F8575
:101FE0001DDAC558DF4F1882DF91CF910895CF9346
:101FF000DF93EC01FC01E058FC4F1082EE58F10930
:102000008081811103C0CE014096DFDFFE01ED50DB
:10201000FD4F8081811104C0CE0182569F4FD5DFD4
:10202000FE01EC50FD4F8081811104C0CE01845D22
:102030009E4FCBDF64E670E080E090E0DF91CF91CF
:1020400086CACF93DF93EC0160E08985E7D98AAD3A
:10205000882319F060E08F85E1D9C558DF4F81E012
:102060008883DF91CF910895CF92DF92EF92FF9214
:102070000F931F93CF93DF93FC01DC01AA5BBF4F4B
:102080004D935D936D937C93139714964D935D934D
:102090006D937C93139714960D931D932D933C93FE
:1020A0001397EC01CE5ADF4FE8826297888188232C
:1020B00051F090AD911150C037FF54C01D921D9248
:1020C0001D921C921397EF01CF5BDF4F488159811E
:1020D0006A817B81141615061606170644F52496A8
:1020E0009881992321F10D911D912D913C91139788
:1020F0006801790137FF07C0CC24DD247601C01ABE
:10210000D10AE20AF30A4C155D056E057F057CF4E1
:1021100037FF07C070956095509541955F4F6F4FA1
:102120007F4F4D935D936D937C931397892FDF01C0
:10213000A15ABF4F1D921D921D921C921397ED58EC
:10214000FF4F91E09083DF91CF911F910F91FF900E
:10215000EF90DF90CF900895101611061206130627
:102160000CF4ACCF80E0AFCF0F931F93CF93DF93EE
:10217000EC01062F8D8981110DC0CE01EBDE182FE9
:10218000CE01D9DE0111182F812FDF91CF911F9140
:102190000F910895CE01CFDE182FCE01DBDEF2CFF6
:1021A000CF93DF93EC01FC01E159FF4F80819181D6
:1021B000A281B3810196A11DB11D80839183A28369
:1021C000B3833E9681E08083AE01465B5F4FFA01A8
:1021D00080819181A281B3819E012C583F4FF901EA
:1021E0002081222309F440C00196A11DB11DFA01EE
:1021F00080839183A283B383FE01E058FF4F208147
:102200003181C901959587958C0F9D1F329701905B
:10221000F081E02D20FF08C0DC012D913C91E20F00
:10222000F31F0190F081E02D19958F859889892BF6
:10223000F9F0FE01EC57FF4F20813181C9019595DE
:1022400087958C0F9D1FCE57DF4FE881F98120FFC6
:1022500008C0DC012D913C91E20FF31F0190F08149
:10226000E02DDF91CF9119940197A109B109BFCF5A
:10227000DF91CF9108958F929F92AF92BF92CF92AC
:10228000DF92EF92FF920F931F93CF93DF93EC01B6
:10229000FC01E15AFF4F60817181828193810E942C
:1022A0007A586B017C016CAD7DAD8EAD9FAD0E9407
:1022B0007C589B01AC0160E074E284E799E40E94E1
:1022C0006A5A4B015C01FE01E559FF4F6081718143
:1022D000828193810E947A589B01AC01C501B401AF
:1022E0000E946A5A4B015C018E010D591F4F20E07C
:1022F00030E040E05FE30E94DB58A70196010E94B6
:10230000065A0E94D75AF8016083718382839383AF
:10231000C959DF4FA5019401C701B6010E94065AB1
:102320000E94D75A688379838A839B83DF91CF91F8
:102330001F910F91FF90EF90DF90CF90BF90AF90E3
:102340009F908F9008950F931F93CF93DF93FC017D
:10235000E358FF4F20812223B9F07E97008111813D
:1023600022813381389640815181628173810417C3
:1023700015072607370710F1EC01C4DDCE01DF9108
:10238000CF911F910F9177CFFC01ED58FF4F208126
:102390002223A1F074970081118122813381349628
:1023A0004081518162817381041715072607370721
:1023B00028F0DF91CF911F910F91F2CEDF91CF9155
:1023C0001F910F910895FC01ED58FF4F20812223AA
:1023D00061F0749780819181A281B3810196A11DE2
:1023E000B11D80839183A283B38308950F931F93BC
:1023F000FC01EE5AFF4F2081211112C03897008155
:1024000011812281338134964081518162817381AF
:1024100004171507260737073CF41F910F91BFCD0E
:10242000FC0120AD2111F9CF1F910F91A2CDFC012C
:102430001382128214828CE291E0A0E0B0E0808FDF
:10244000918FA28FB38F848F958FA68FB78F42E322
:1024500050E060E070E040A351A362A373A344A3E3
:1024600055A366A377A340A751A762A773A784A724
:1024700095A7A6A7B7A780AB91ABA2ABB3AB88E7F4
:1024800090E0A0E0B0E084AB95ABA6ABB7AB10AEEC
:1024900011AE12AE13AE84E690E0A0E0B0E084AFDF
:1024A00095AFA6AFB7AFDF01A05CBF4F1C921196EE
:1024B0001D921D921D921C92139714961C921196B8
:1024C0001D921D921D921C92139714961D921D929F
:1024D0001D921C92139714961D921D921D921C9290
:1024E000139714961C9211961D921D921D921C9288
:1024F000139714961D921D921D921C921397149679
:102500001D921D921D921C92139714961D921D925E
:102510001D921C92139714961D921D921D921C924F
:10252000139714961D921D921D921C921397149648
:102530001D921D921D921C92139714961D921D922E
:102540001D921C92139714961C9211961C92119630
:102550001C9211961C9211961C9211961C92119627
:102560001C9211961C9211961C9211961C92119617
:102570001C92168215821086178212861186148686
:10258000138616861586108A1786128A118A148A6F
:10259000138A11968EE79FE011969C938E93129664
:1025A00011961C921E9212968AE79FE011969C93B8
:1025B0008E93129611961C921E92129686E79FE0B9
:1025C00011969C938E93129611961C921E921296BF
:1025D00082E79FE08D939C93E457FF4F1182108216
:1025E000089508958FEF9FEF089508950895089531
:1025F00008950895089508950895089508950895F3
:1026000008950895089508950895089508950895E2
:102610000895089580910B0990910C09892B41F43C
:1026200081E090E00E94FD5290930C0980930B0989
:1026300080910B0990910C0908950F931F93CF93EC
:10264000DF938B01E7DFF801C2A1D3A1868D978DBF
:102650008530910519F14CF40497A9F090E080E0E1
:10266000DF91CF911F910F91089586309105F9F078
:102670000B97A1F76BE070E08DED9EE021D8BE01D5
:102680008DED9EE008C064E070E084ED9EE018D817
:10269000BE0184ED9EE00E94E40AE0CF65E070E0B8
:1026A00087ED9EE00DD8BE0187ED9EE0F4CF66E099
:1026B00070E08AED9EE004D8BE018AED9EE0EBCF8B
:1026C0008091070990910809892BA9F48CE890E082
:1026D0000E94FD52FC0131969C012A5B3F4F1192F2
:1026E000DF01AB5BBF4F1C92E217F307C1F790937A
:1026F00008098093070980910709909108090895B6
:102700004F925F926F927F92AF92BF92CF92DF9281
:10271000EF92FF920F931F93CF93DF93EB01D0DFE4
:102720008C01CAA8DBA84EA45FA468A879A8AEA0B3
:10273000BFA0EE8CFF8C4AA15BA19601B701FFD828
:10274000C301B2010E94A70A9601A501B701C80101
:10275000F6D890E080E0DF91CF911F910F91FF902C
:10276000EF90DF90CF90BF90AF907F906F905F9091
:102770004F900895CF93DF93EB01A2DF6AA98E8D6E
:102780000E943B0A90E080E0DF91CF910895CF93C3
:10279000DF93EB0195DF2AA93BA94AA15BA16E8DCE
:1027A0007F8DCDD890E080E0DF91CF91089580912A
:1027B000000990910109892BE1F585E390E00E94E1
:1027C000FD52FC0181E090E0A0E0B0E080839183C5
:1027D000A283B38384839583A683B78380879187FD
:1027E000A287B3871586148616861786108A118AE3
:1027F000128A138A148A158A168A178A108E118EE5
:10280000138E128E12A213A214A215A217A216A240
:1028100010A611A612A613A614A615A616A617A6EC
:1028200010AA11AA12AA13AA14AAF0930109E093FC
:10283000000980910009909101090895CF93DF93D9
:10284000B6DFEC0183E00E94E60921E0892B09F460
:1028500020E02C8FACDFEC0182E00E94E60921E051
:10286000892B09F420E02D8FA2DFEC018EE00E947D
:10287000E60921E0892B09F420E02E8F98DFEC0196
:102880008FE00E94E60921E0892B09F420E02F8FD8
:102890008EDFEC0182E10E94E60921E0892B09F438
:1028A00020E028A384DFEC0183E10E94E60921E017
:1028B000892B09F420E029A3DF91CF91089577DFD8
:1028C000BDCF75DFFC0114AA90E080E00895FC0103
:1028D00001900020E9F73197AF01481B590BBC016B
:1028E00086EA9DE00C944B088F929F92AF92BF9224
:1028F0000F931F93CF93DF93CDB7DEB7A1970FB69A
:10290000F894DEBF0FBECDBF19A2423008F44AE0F2
:102910008E010F5D1F4F842E912CB12CA12CA5018F
:1029200094010E94D459E62FB901CA01EA30ECF4AF
:10293000E05DD801EE938D01232B242B252B79F715
:1029400090E080E0109711F0CD01C1DFA1960FB6A5
:10295000F894DEBF0FBECDBFDF91CF911F910F91D5
:10296000BF90AF909F908F900895E95CE2CFAFCF7A
:10297000882319F088E598E0FACF81E598E0FCCF4C
:10298000FC0180819181009711F00C949953089576
:102990000C9499530C9499530C9499530C94995307
:1029A0000C9499530C9499530C9499530C949953F7
:1029B0000C9499530C9499530C9499530C949953E7
:1029C0000C9499530C9499530C9499530C949953D7
:1029D0000C9499530C9499530C9499530C949953C7
:1029E0000C9499530C9499530C949953CF92DF9271
:1029F000EF92FF92CF93DF9397FF18C06B017C019A
:102A00008DE20E942C09EC0166277727CB016C1917
:102A10007D098E099F094AE067DF8C0F9D1FDF91BA
:102A2000CF91FF90EF90DF90CF9008954AE0DF9133
:102A3000CF91FF90EF90DF90CF9056CFBC01990FD0
:102A4000880B990BD3CFCF93DF93EC018DEA93E002
:102A50008EDF6AA17BA18CA19DA1C8DF82EA94E0F0
:102A6000DF91CF9184CF0F931F93CF93DF938C018E
:102A7000EB018FE893E07BDF8EE397E078DFF801EE
:102A800080810E942C09CE01D9DF91DEDF91CF91A8
:102A90001F910F91D8CFEF92FF920F931F93CF9377
:102AA000DF93182F092F7B016115710569F50E94CD
:102AB000E60931E020E0019709F030E0C32FD22F82
:102AC00082E0E816F10408F045C080EB93E04FDFA8
:102AD0008EE397E04CDF84EB93E049DF812F902F6A
:102AE000ADDF8EE397E043DF8DEF98E040DFCE016E
:102AF000A5DF5DDEA8DF90E080E0DF91CF911F9140
:102B00000F91FF90EF900895D0E0C0E06130710523
:102B1000B9F6812F163310F08AEC810F20917B00DB
:102B2000982F9870277F922B90937B0087708064FA
:102B300080937C0080917A00806480937A008091F9
:102B40007A0086FDFCCF80917800C0917900DC2F5F
:102B5000C82FB6CF81E090E0D0CF0F931F93CF93D3
:102B6000DF93FC012081318121153105C1F1EC0198
:102B7000822F0E94E60921E0892B09F420E02B87AF
:102B80006A85261701F11E821F82188619860E811A
:102B90001F81288539858A819B81AC81BD81081779
:102BA00019072A073B07DCF081E0682788810E942B
:102BB0000E0A86DD70E060E088819981DF91CF9117
:102BC0001F910F9168CF8E819F81A885B98501964D
:102BD000A11DB11D8E839F83A887B987D8CFDF91B0
:102BE000CF911F910F910895CF93DF93EB0168DD93
:102BF0006AA97BA98E8D9F8D4EDF90E080E0DF91EA
:102C0000CF910895CF92DF92EF92FF92CF93DF930F
:102C1000EB01CB010E94B207882351F1FE01EE0FB8
:102C2000FF1FEE0FFF1FEE5DF54FC080D180E280E9
:102C3000F38086EB93E09BDE8EE397E098DE84EBF7
:102C400093E095DECE01FADE8EE397E090DE8DEF25
:102C500098E08DDEC701B601C9DEA9DDF4DE90E0A3
:102C600080E0DF91CF91FF90EF90DF90CF900895BB
:102C70008AEB93E07CDEF3CF0F931F93CF93DF9328
:102C80008C01D0E0C0E0CE010E94B207882319F089
:102C9000BE01C801B7DF2196C13ED105A1F7DF9182
:102CA000CF911F910F9108958CED93E060DE80E449
:102CB00092E05DDE88E092E05ADE81EE93E057DE3E
:102CC00076DDC1DE90E080E00895CF93DF93EC01E4
:102CD0008BEE93E04CDE8FEE93E049DE8C8D48DE88
:102CE00083EF93E044DE8D8D43DE87EF93E03FDE9C
:102CF0008E8D3EDE8BEF93E03ADE8F8D39DE8FEFE7
:102D000093E035DE88A134DE83E094E030DE89A1F3
:102D10002FDECE01DF91CF9196CE49DDD6CF87E071
:102D200094E025DE44DD8ADD42DDCFDFC9DC70E0E2
:102D300060E088E090E0AFDEC3DC70E060E089E056
:102D400090E0A9DEBDDC70E060E08AE090E0A3DE08
:102D5000B7DC70E060E08DE090E09DDE90E080E028
:102D600008952F923F924F925F926F927F928F922F
:102D70009F92AF92BF92CF92DF92EF92FF920F930A
:102D80001F93CF93DF93CDB7DEB762970FB6F8945A
:102D9000DEBF0FBECDBF1C017C012AE4E20EF11C98
:102DA000D7014D915D916D917C91FC01E25BFF4FEC
:102DB000FE87ED8780819181A281B3814101F2E597
:102DC0008F0E911CF4012081B2966F0181010B5886
:102DD0001F4F2223E1F1F10120ADF601208321E014
:102DE000F8012083411551056105710591F4208199
:102DF000F101E559FF4F6F01F101222309F44FC0A2
:102E000044A055A066A077A0F6014082518262825C
:102E1000738291012A5B3F4F3A8B298BF9014080E5
:102E2000518062807380235D3F4F590148165906D7
:102E30006A067B06CCF5481759076A077B07F4F149
:102E4000D4018C9181113AC0D5011C9240C121E07E
:102E5000481759076A077B070CF020E0F60120832A
:102E60005A016B0177FF07C0AA24BB246501A41A8D
:102E7000B50AC60AD70A2C013D01B7FF07C0442492
:102E800055243201481A590A6A0A7B0A21E0A4141F
:102E9000B504C604D7040CF0A3CF20E0A1CF40A016
:102EA00051A062A073A0B0CF84159505A605B70503
:102EB0003CF684179507A607B70714F6F50180813D
:102EC000882311F2D4018C9181110DC0F40180810D
:102ED0008111BACFD8016C9181E06827C10144D932
:102EE0008111B2CF05C060E0C1013ED98111EECFA2
:102EF000D10158962D913D914D915C915B9729831D
:102F00003A834B835C83F8018081811105C1D10133
:102F10009C968D919D910D90BC91A02D8D839E834B
:102F2000AF83B887D10190962D913D914D915C91E1
:102F3000939729873A874B875C87ED85FE8580814B
:102F40009181A281B381F701C080D180E280F380BA
:102F5000E989FA894081518162817381F101E958DF
:102F6000FF4F1082319610823101F9E76F0E711C0C
:102F7000F3011082910126583F4FF90110823296D9
:102F800010824C015D01841A950AA60AB70AB7FEA1
:102F900008C0B094A09490948094811C911CA11CB2
:102FA000B11C481759076A077B070CF0C9C0C41A3F
:102FB000D50AE60AF70AD501C401B595A7959795F4
:102FC00087958D879E87AF87B88B810104581F4FE7
:102FD0008C149D04AE04BF0408F0B7C0D1019896CC
:102FE0000D90BC91A02DBA8BA98B81E0F901808353
:102FF000D8018C93F1018481882309F45CC00E947C
:10300000D80AD10112960D911C91012E000C220BB1
:10301000330B601B710B820B930B693E7340810570
:10302000910508F448C00E94D80AF10173836283B5
:103030008EE094E09CDC82E194E099DC60E070E05A
:10304000CB01D4DC88E194E092DCC701B601CEDC90
:103050008EE194E08CDCC501B401C8DC84E294E02C
:1030600086DC4AE06D857E858F8598893DDC8BE224
:1030700094E07DDC6D817E818F819885B7DC81E372
:1030800094E075DC69857A858B859C85AFDC87E368
:1030900094E06DDC69817A818B819C81A7DC8DE372
:1030A00094E065DC8EE397E062DC89899A89C6DC6E
:1030B00082EA94E05CDCF101E559FF4F29893A8905
:1030C000C901B0E0A0E080839183A283B38360E074
:1030D000C1014AD8882339F0F101E65BFF4F108225
:1030E00011821282138262960FB6F894DEBF0FBE71
:1030F000CDBFDF91CF911F910F91FF90EF90DF90A7
:10310000CF90BF90AF909F908F907F906F905F9087
:103110004F903F902F900895F101848D958DA68D4D
:10312000B78D29813A814B815C8182179307A4076F
:10313000B5070CF0ECCE89839A83AB83BC83E7CED2
:10314000C81AD90AEA0AFB0A36CF2D853E854F8573
:1031500058892C153D054E055F0508F450C08D813A
:103160009E81AF81B8858C159D05AE05BF0544F4E1
:10317000A981BA811196BA8BA98B81E0F30137CF6F
:10318000C701B6010E947C582B013C016D817E81F4
:103190008F8198850E947C589B01AC01C301B201CC
:1031A0000E946A5A2B013C0169817A818B819C8142
:1031B00029853A854B855C85621B730B840B950BC7
:1031C0000E947C589B01AC01C301B2010E94DB58F4
:1031D0002B013C0169857A858B859C850E947C58F2
:1031E0009B01AC01C301B2010E94065A0E94D25A4F
:1031F0007A8B698B81E0F101E958FF4FF8CED50158
:10320000C4012D813E814F815885821B930BA40BF5
:10321000B50BC816D906EA06FB065CF449815A814B
:103220004E5F5F4F5A8B498B81E0F101E758FF4FAA
:10323000DECEC501B4016C197D098E099F090E947B
:103240007C582B013C016D817E818F8198850E9485
:103250007C589B01AC01C301B2010E946A5A2B0148
:103260003C0169817A818B819C8129853A854B85D6
:103270005C85621B730B840B950B0E947C589B0131
:10328000AC01C301B2010E94DB582B013C016985EE
:103290007A858B859C850E947C589B01AC01C3017B
:1032A000B2010E94065A0E94D25A7A8B698B81E041
:1032B000F101E858FF4F9BCE4F925F926F927F9241
:1032C0008F929F92AF92BF92CF92DF92EF92FF9236
:1032D0000F931F93CF936B017C01742EAC019B0164
:1032E0000E94075B882391F083E494E0CF911F91C3
:1032F0000F91FF90EF90DF90CF90BF90AF909F9095
:103300008F907F906F905F904F90E1CA4601570178
:10331000E894B7F82FEF3FEF4FE75FE7C501B4013F
:103320000E94075B81110DC02FEF3FEF4FE75FE772
:10333000C501B4010E94765818161CF487E494E085
:10334000D5CF2FEF3FEF4FE75FE4C701B6010E94F3
:10335000035B18161CF48BE494E0C8CF2FEF3FEF0B
:103360004FE75FECC701B6010E94765887FDF3CFA7
:1033700020E030E0A901C701B6010E94765810E0B4
:1033800000E087FF08C08DE20E942C098C01F7FA4B
:10339000F094F7F8F094C0E060E070E080E09FE324
:1033A0007C1641F020E030E040E251E40E946A5A8D
:1033B000CF5FF6CFA70196010E94065A2B013C0170
:1033C0000E94D75A4B015C014AE08EDA7C01E00E84
:1033D000F11ECC23A9F1C501B4010E947A589B01CA
:1033E000AC01C301B2010E94055A4B015C018EE29F
:1033F0000E942C09E80EF91EC15010F120E030E0C7
:1034000040E251E4C501B4010E94DB582B013C01AC
:103410000E94D75A4B01B12CA12C4AE0C501B4013E
:1034200063DAE80EF91EC501B4010E947A589B01C7
:10343000AC01C301B2010E94055A4B015C01DCCF13
:10344000C701CF911F910F91FF90EF90DF90CF9028
:10345000BF90AF909F908F907F906F905F904F90B4
:1034600008958F929F92AF92BF92CF92DF92EF9288
:10347000FF920F931F93CF93DF93EC018BE492E0C5
:1034800076DA84E694E073DA6E0186E4C81A8EEF89
:10349000D80AC6010E940C0E0E947C584B015C01A8
:1034A000FE01ED5EFC4F60817181828193810E94FB
:1034B0007C589B01AC01C501B4010E946A5A42E0EC
:1034C000FBDE84E794E053DA7E01E6E1EE1AEEEFEC
:1034D000FE0AC7010E940C0E0E947C584B015C0141
:1034E000FE01E95EFC4F60817181828193810E94BF
:1034F0007C589B01AC01C501B4010E946A5A42E0AC
:10350000DBDE84E894E033DA8E01065E1D4FC801ED
:103510000E940C0E0E947C584B015C01C55EDC4F82
:10352000688179818A819B810E947C589B01AC01D2
:10353000C501B4010E946A5A42E0BEDE38D983DA7E
:1035400087E492E014DA84E694E011DAF601A68DBD
:10355000B78D20893189428953890E94CE5946DA34
:1035600084E794E004DAF701A68DB78D20893189CC
:10357000428953890E94CE5939DA84E894E0F7D918
:10358000F801A68DB78D20893189428953890E941F
:10359000CE592CDA0CD9DF91CF911F910F91FF906A
:1035A000EF90DF90CF90BF90AF909F908F904BCADD
:1035B000CF92DF92EF92FF92CF93DF93EC0188815D
:1035C0009981AA81BB81181619061A061B0644F0B8
:1035D00081E090E0A0E0B0E088839983AA83BB8378
:1035E0008C819D81AE81BF81181619061A061B06B3
:1035F00044F081E090E0A0E0B0E08C839D83AE8356
:10360000BF8388859985AA85BB85181619061A0671
:103610001B0644F081E090E0A0E0B0E08887998745
:10362000AA87BB878FE494E0A2D984E694E09FD96F
:103630006E857F85888999890E947C586B017C0101
:10364000688179818A819B810E947C589B01AC01B1
:10365000C701B6010E946A5A42E02EDE84E794E078
:1036600086D96A897B898C899D890E947C586B01E7
:103670007C016C817D818E819F810E947C589B01A1
:10368000AC01C701B6010E946A5A42E015DE84E827
:1036900094E06DD96E897F89888D998D0E947C58C0
:1036A0006B017C01688579858A859B850E947C58A1
:1036B0009B01AC01C701B6010E946A5A42E0FCDDE1
:1036C000CE01DF91CF91FF90EF90DF90CF90BBC9FB
:1036D0006ED86EDF90E080E00895CF92DF92EF9297
:1036E000FF920F931F93CF93DF938C016A017B01AD
:1036F000EC01CC0FDD1F642FCE010E949A5999274F
:10370000F7FC9A958F2D7E2D6D2DCE0101960E948E
:103710009A590D5811090330110588F4B7019927FA
:1037200077FD9095892FCE0144960E949A596F2D6E
:10373000772788279927CE0145960E949A5990E0CD
:1037400080E0DF91CF911F910F91FF90EF90DF907C
:10375000CF9008954F925F926F927F928F929F9237
:10376000AF92BF92CF92DF92EF92FF920F931F938F
:10377000CF93DF938C01EC01CC0FDD1FCE010E94B3
:103780009259882E912CB12CA12CCE0101960E9429
:103790009259C82ED12CF12CE12C0D58110903306F
:1037A000110508F05AC0CE0144960E949259482E45
:1037B000512C712C612CCE0145960E949259082FF4
:1037C00010E030E020E08FEF4816510461047104EE
:1037D00029F50F3F11052105310501F58FEF8816F9
:1037E0009104A104B104C9F58FEFC816D104E10416
:1037F000F10499F56FEF7FEFCB01DF91CF911F912E
:103800000F91FF90EF90DF90CF90BF90AF909F907F
:103810008F907F906F905F904F90089500381105C2
:10382000210531053CF7FE2CED2CDC2CCC24C70106
:10383000B601680D791D8A1D9B1D32015524442453
:10384000640D751D861D971D302F22271127002717
:10385000600F711F821F931FD0CF00E010E098010E
:10386000412C512C320180E8C816D104E104F10446
:10387000D4F2C0CFEF92FF920F931F93CF93DF93B9
:103880008091050990910609892B51F586E090E019
:103890000E94FD527C0190E080E05CDF1616170666
:1038A00054F1C7010E94980DD0E0C0E0CE010E9403
:1038B000B207882369F0FE01EE0FFF1FEE0FFF1F16
:1038C000EE5DF54F4081518162817381CE0105DF4C
:1038D0002196C639D10551F7F0920609E092050903
:1038E0008091050990910609DF91CF911F910F9169
:1038F000FF90EF90089583E090E02CDF6130710538
:103900008105910531F502E21AE0D0E0C0E0CE0178
:103910000E94B2078823B1F0CE011CDFF80160835A
:103920007183828393836F3F7F4F8F4F9F4F51F4FB
:10393000CE010E94D001F8014081518162817381E2
:10394000CE01CBDE21960C5F1F4FC13ED105F9F6AB
:10395000C3CFC7010E94980DBFCFCF92DF92EF92E5
:10396000FF920F931F93CF93DF937C016B018A012A
:10397000E90180DFF601EE0FFF1FEE0FFF1FEE5D86
:10398000F54F80819181F7019183808373DF000F70
:10399000111F000F111FF801EE5DF54F81E040810E
:1039A000518162817381413051056105710509F0D2
:1039B00080E0F70182875EDFCC0FDD1FCC0FDD1FBB
:1039C000CE5DD54F88819981AA81BB81F701828321
:1039D0009383A483B5831682178210861186DF91A4
:1039E000CF911F910F91FF90EF90DF90CF900895AE
:1039F000CF93DF93EC012AEC30E04BEC50E069EC24
:103A000070E0ABDF2EEC30E04FEC50E06DEC70E09E
:103A1000CE010C96A2DF24ED30E045ED50E063EDE1
:103A200070E0CE01489699DF28ED30E049ED50E096
:103A300067ED70E0CE01849690DF2EED30E04FED23
:103A400050E06DED70E0CE01C096DF91CF9185CF53
:103A5000CF93DF938091090990910A09892BA1F4F2
:103A60008CE390E00E94FD52EC01198218821D86C1
:103A70001C86198E188E1DA21CA219AA18AAB8DFBE
:103A8000D0930A09C09309098091090990910A0904
:103A9000DF91CF9108952F923F924F925F926F9254
:103AA0007F928F929F92AF92BF92CF92DF92EF92CE
:103AB000FF920F931F93CF93DF93EC01DBDEFE01A8
:103AC000E75BFC4F8091DE0B9091DF0B918380834D
:103AD000D1DEFE01E55BFC4F8091E20B9091E30BA0
:103AE00091838083C7DEFE01E35BFC4F8091E60B90
:103AF0009091E70B91838083BDDE8E01015B1C4FAB
:103B00006091060C7091070C8091080C9091090C43
:103B10000E947C58F8016083718382839383AADEBC
:103B20001E01FDEA2F1AFCEF3F0A60910A0C70910A
:103B30000B0C80910C0C90910D0C0E947C58F101A3
:103B4000608371838283938395DE20E030E048ECCC
:103B500052E4F80160817181828193810E946A5AE6
:103B60002B013C0120E030E048EC52E4F10160819F
:103B70007181828193810E946A5A4B015C0160913C
:103B80000E0C70910F0C8091100C9091110C0E94F2
:103B90007C5820E030E048EC52E40E946A5A6B0105
:103BA0007C012AE037ED43E25CE3C301B2010E94ED
:103BB000035B18160CF02BC120E030E046EC52E419
:103BC000C301B2010E94765887FD06C0412C512CDA
:103BD00056EC652E52E4752EF801408251826282C5
:103BE00073822AE037ED43E25CE3C501B4010E9431
:103BF000035B18160CF014C120E030E046EC52E4F0
:103C0000C501B4010E94765887FD06C0812C912C15
:103C100036ECA32E32E4B32EF10180829182A2828F
:103C2000B3822AE037ED43E25CE3C701B6010E94AC
:103C3000035B18160CF0FDC020E030E046EC52E4C7
:103C4000C701B6010E94765887FD06C0C12CD12C51
:103C500096ECE92E92E4F92EFE01E95AFC4FC0825F
:103C6000D182E282F38206DE8091C60B9091C70B6F
:103C7000FE01E25AFC4F91838083FCDD8091CA0BE8
:103C80009091CB0BFE01E05AFC4F91838083F2DDD3
:103C90008091CE0B9091CF0BFE01EE59FC4F91839A
:103CA0008083E8DD8091EE0B9091EF0BA091F00BFB
:103CB000B091F10BFE01EC59FC4F80839183A283FC
:103CC000B383D8DD8091F20B9091F30BA091F40BAC
:103CD000B091F50BFE01E859FC4F80839183A283DC
:103CE000B383C8DD8091F60B9091F70BA091F80B90
:103CF000B091F90BFE01E459FC4F80839183A283BC
:103D0000B383B8DD8091160C9091170CFE01E05939
:103D1000FC4F91838083AEDD80911A0C90911B0C37
:103D2000FE01EE58FC4F91838083A4DD80911E0C30
:103D300090911F0CFE01EC58FC4F918380839ADD1B
:103D400080912E0C90912F0CFE01EA58FC4F91832C
:103D5000808390DD8091320C9091330CFE01E85805
:103D6000FC4F9183808386DD8091360C9091370CD7
:103D7000FE01E658FC4F918380837CDD8091B60B79
:103D80009091B70BA091B80BB091B90BFE01E55A19
:103D9000FC4F0197A105B10509F054C081E0808373
:103DA00069DD8091BA0B9091BB0BA091BC0BB091D7
:103DB000BD0BFE01E45AFC4F0197A105B10509F0C6
:103DC00043C081E0808356DD8091BE0B9091BF0B94
:103DD000A091C00BB091C10BC35ADC4F0197A10554
:103DE000B105A1F581E08883DF91CF911F910F91FB
:103DF000FF90EF90DF90CF90BF90AF909F908F900B
:103E00007F906F905F904F903F902F9008954AE081
:103E1000442E47ED542E43E2642E4CE3742EDCCE48
:103E20002AE0822E27ED922E23E2A22E2CE3B22E40
:103E3000F3CE8AE0C82E87EDD82E83E2E82E8CE3FD
:103E4000F82E0ACF1082ACCF1082BDCF1882CCCF13
:103E50002F923F924F925F926F927F928F929F929A
:103E6000AF92BF92CF92DF92EF92FF920F931F9388
:103E7000CF93DF93CDB7DEB76F970FB6F894DEBF61
:103E80000FBECDBF9B8F8A8FF5DCEA8DFB8DEB5982
:103E9000FD4F81E04091EE0A5091EF0A6091F00AE7
:103EA0007091F10A452B462B472B09F480E0808363
:103EB000E1DCEA8DFB8DEA59FD4F81E04091F20A89
:103EC0005091F30A6091F40A7091F50A452B462B44
:103ED000472B09F480E08083CDDCEA8DFB8DE95926
:103EE000FD4F81E04091F60A5091F70A6091F80A7F
:103EF0007091F90A452B462B472B09F480E080830B
:103F0000B9DC80913E0B90913F0BA091400BB0919A
:103F1000410BEA8DFB8DE859FD4F80839183A2838D
:103F2000B383A8DC8091420B9091430BA091440B8A
:103F3000B091450BEA8DFB8DE459FD4F8083918351
:103F4000A283B38397DC8091460B9091470BA0919D
:103F5000480BB091490BEA8DFB8DE059FD4F8083F2
:103F60009183A283B38386DC80913E0B90913F0BBB
:103F7000A091400BB091410BEA8DFB8DEC58FD4FA9
:103F800080839183A283B38375DC8091420B9091EF
:103F9000430BA091440BB091450BEA8DFB8DE85883
:103FA000FD4F80839183A283B38364DC80914A0BAD
:103FB00090914B0BA0914C0BB0914D0BEA8DFB8D6A
:103FC000E458FD4F80839183A283B38353DC8091B7
:103FD000160B9091170BA091180BB091190BEA8D4D
:103FE000FB8DE457FD4F80839183A283B38342DC32
:103FF00080911A0B90911B0BA0911C0BB0911D0B83
:10400000EA8DFB8DE057FD4F80839183A283B383BC
:1040100031DC80911E0B90911F0BA091200BB09171
:10402000210BEA8DFB8DEC56FD4F80839183A2839B
:10403000B38320DC8091160B9091170BA091180B85
:10404000B091190BEA8DFB8DE856FD4F808391836B
:10405000A283B3830FDC80911A0B90911B0BA0916C
:104060001C0BB0911D0BEA8DFB8DE456FD4F808338
:104070009183A283B383FEDB8091220B9091230B6B
:10408000A091240BB091250BEA8DFB8DE056FD4FDE
:1040900080839183A283B383EDDB8091260B909183
:1040A000270BA091280BB091290BEA8DFB8DEC55C5
:1040B000FD4F80839183A283B383DCDB80912A0B45
:1040C00090912B0BA0912C0BB0912D0BEA8DFB8DB9
:1040D000E855FD4F80839183A283B383CBDB80912E
:1040E0002E0B90912F0BA091300BB091310BEA8DDC
:1040F000FB8DE455FD4F80839183A283B383BADBAC
:104100008091C60A9091C70AA091C80AB091C90AC5
:10411000EA8DFB8DE055FD4F80839183A283B383AD
:10412000A9DB8091CA0A9091CB0AA091CC0AB091E8
:10413000CD0AEA8DFB8DEC54FD4F80839183A283E1
:10414000B38398DB8091CE0A9091CF0AA091D00AD8
:10415000B091D10AEA8DFB8DE854FD4F80839183A5
:10416000A283B38387DB8091C60A9091C70AA0918E
:10417000C80AB091C90AEA8DFB8DE454FD4F8083D3
:104180009183A283B38376DB8091CA0A9091CB0A94
:10419000A091CC0AB091CD0AEA8DFB8DE054FD4F81
:1041A00080839183A283B38365DB8091D20A90914F
:1041B000D30AA091D40AB091D50AEA8DFB8DEC53B5
:1041C000FD4F80839183A283B38354DBEA8DFB8D03
:1041D000E853FD4F81E020919E0A30919F0A2130E3
:1041E000310509F080E0808345DBEA8DFB8DE753E4
:1041F000FD4F81E02091A20A3091A30A21303105C0
:1042000009F080E0808336DBEA8DFB8DE653FD4FBD
:1042100081E02091A60A3091A70A2130310509F0EA
:1042200080E0808327DBEA8DFB8DE250FD4F81E04B
:104230004091760A5091770A6091780A7091790AD4
:10424000452B462B472B09F480E0808313DBEA8D56
:10425000FB8DE150FD4F81E040917A0A50917B0A3D
:1042600060917C0A70917D0A452B462B472B09F4FF
:1042700080E08083FFDAEA8DFB8DFD5F81E0409175
:104280007E0A50917F0A6091800A7091810A452BC5
:10429000462B472B09F480E08083ECDAEA8DFB8D16
:1042A000EF5FFC4F81E040914E0B50914F0B6091BE
:1042B000500B7091510B452B462B472B09F480E096
:1042C0008083D8DAEA8DFB8DEE5FFC4F81E0409170
:1042D000520B5091530B6091540B7091550B452B21
:1042E000462B472B09F480E08083C4DAEA8DFB8DEE
:1042F000ED5FFC4F81E04091560B5091570B609160
:10430000580B7091590B452B462B472B09F480E035
:104310008083B0DAEA8DFB8DEC5FFC4F81E0209169
:10432000860A3091870A2130310509F080E08083C8
:10433000A1DAEA8DFB8DEB5FFC4F81E020918A0AC8
:1043400030918B0A2130310509F080E0808392DAC8
:10435000EA8DFB8DEA5FFC4F81E020918E0A30915F
:104360008F0A2130310509F080E0808383DA809163
:104370004E0A90914F0AA091500AB091510AEA8DCD
:10438000FB8DE95FFC4F80839183A283B38372DA54
:104390008091520A9091530AA091540AB091550A03
:1043A000EA8DFB8DE55FFC4F80839183A283B3830D
:1043B00061DA8091560A9091570AA091580AB091FB
:1043C000590AEA8DFB8DE15FFC4F80839183A283C4
:1043D000B38350DAEA8DFB8DEE50FD4F81E04091C2
:1043E0005E0A50915F0A6091600A7091610A452BE4
:1043F000462B472B09F480E080833CDAEA8DFB8D65
:10440000ED50FD4F81E04091620A5091630A609146
:10441000640A7091650A452B462B472B09F480E00E
:10442000808328DAEA8DFB8DEC50FD4F81E04091CE
:10443000660A5091670A6091680A7091690A452B73
:10444000462B472B09F480E0808314DA8091560CC8
:104450009091570CA091580CB091590CEA8DFB8D9E
:10446000E553FD4F80839183A283B38303DA809168
:104470005A0C90915B0CA0915C0CB0915D0CEA8D94
:10448000FB8DE153FD4F80839183A283B383F2D9E7
:1044900080915E0C90915F0CA091600CB091610CCA
:1044A000EA8DFB8DED52FD4F80839183A283B38310
:1044B000E1D9EA8DFB8DEB50FD4F81E02091B60AEA
:1044C0003091B70A2130310509F080E08083EA8D10
:1044D000FB8DEA50FD4F1082EA8DFB8DE950FD4FB8
:1044E0001082C8D9EA8DFB8DE850FD4F81E0209104
:1044F000B20A3091B30A2130310509F080E080839F
:10450000EA8DFB8DE750FD4F1082EA8DFB8DE65062
:10451000FD4F1082AFD9EA8DFB8DE550FD4F81E054
:104520002091D60A3091D70A2130310509F080E078
:104530008083A0D9EA8DFB8DE450FD4F81E020916E
:10454000DA0A3091DB0A2130310509F080E08083FE
:1045500091D9EA8DFB8DE350FD4F81E02091DE0A79
:104560003091DF0A2130310509F080E0808382D963
:10457000EA8DFB8DE952FD4F81E02091660C309170
:10458000670C2130310509F080E0808373D9EA8D12
:10459000FB8DE852FD4F81E020916A0C30916B0C4D
:1045A0002130310509F080E0808364D9EA8DFB8DEC
:1045B000E752FD4F81E020916E0C30916F0C21305D
:1045C000310509F080E0808355D98091A60C909147
:1045D000A70CA091A80CB091A90CEA8DFB8DE65216
:1045E000FD4F80839183A283B38344D98091AA0C29
:1045F0009091AB0CA091AC0CB091AD0CEA8DFB8D01
:10460000E252FD4F80839183A283B38333D980919B
:10461000AE0C9091AF0CA091B00CB091B10CEA8DA2
:10462000FB8DEE51FD4F80839183A283B38322D90A
:104630008091D60C9091D70CA091D80CB091D90C48
:10464000EA8DFB8DEA51FD4F80839183A283B38372
:1046500011D98091D60C9091D70CA091D80CB09123
:10466000D90CEA8DFB8DE651FD4F80839183A283A7
:10467000B38300D98091D60C9091D70CA091D80C1F
:10468000B091D90CEA8DFB8DE251FD4F808391836F
:10469000A283B383EFD80A8D1B8D0D5E1C4F8091D2
:1046A000FE0A9091FF0AA091000BB091010BF80156
:1046B00080839183A283B383DDD8EA8CFB8CF9EEEF
:1046C000EF1AFCEFFF0A8091020B9091030BA0916F
:1046D000040BB091050BF70180839183A283B38310
:1046E000C9D88091060B9091070BA091080BB0914F
:1046F000090BCA8CDB8CF5EECF1AFCEFDF0AF60152
:1047000080839183A283B383F801408151816281C8
:104710007381141615061606170644F041E050E0A2
:1047200060E070E04083518362837383F7014081CE
:10473000518162817381141615061606170644F01E
:1047400041E050E060E070E0408351836283738316
:10475000181619061A061B064CF081E090E0A0E03E
:10476000B0E0F60180839183A283B3830E94D713C4
:10477000FC01D6018D909D90AD90BC90D7014D91DC
:104780005D916D917C91D8010D911D912D913C9180
:104790000083118322833383448355836683778325
:1047A00080869186A286B386EA8DFB8D7096FA8309
:1047B000E983EA8DFB8DE952FD4F80808B82EA8D83
:1047C000FB8DE553FD4F4081518162817381EA8DFC
:1047D000FB8DE550FD4F90809D82EA8DFB8DEC5F57
:1047E000FC4FA080AC82EA8DFB8DEB50FD4FB0807A
:1047F000B986EA8DFB8DE850FD4F20812A87EA8D2E
:10480000FB8DEF5FFC4F80818E87EA8DFB8DE25040
:10481000FD4F90819A8BEA8DFB8DE853FD4F2080F0
:10482000EA8DFB8DEB59FD4F3080EA8DFB8DE95F02
:10483000FC4F0081118122813381EA8DFB8DE0558F
:10484000FD4F80819181A281B381EA8DFB8DEC5572
:10485000FD4FC080D180E280F380EA8DFB8DE4576C
:10486000FD4F80809180A280B380EA8DFB8DE85956
:10487000FD4F4080518062807380EA8DFB8D40A6A1
:1048800051A662A673A680AA91AAA2AAB3AA84AFCF
:1048900095AFA6AFB7AF44A655A666A677A684AADD
:1048A00095AAA6AAB7AAE05CFF4F80839183A28352
:1048B000B383AA8DBB8DD896CD92DD92ED92FC92FA
:1048C000DB97FD01EC5BFF4F008311832283338371
:1048D0003496308231962082EA899596EC939597AA
:1048E000FE859696FC9396978C8097968C9280E4A2
:1048F00090E0A0E0B0E0EA8DFB8DE45BFF4F8083A9
:104900009183A283B383EA8DFB8DE65BFF4F9A848C
:104910009082EA8DFB8DE55BFF4FA984A082EA8D32
:10492000FB8DE05BFF4FBD80B082EA8DFB8DEF5ABF
:10493000FF4F4083518362837383EA8DFB8DEB5A73
:10494000FF4F2B812083AA8DBB8D55968D919C9115
:1049500056978633910509F096C28AE59FE0FD01DE
:10496000E257FF4F918380833296118210828CE54B
:104970009FE0369691838083329611821082EA8D71
:10498000FB8D838D948D4A97D1F48EE69FE0EE5691
:10499000FF4F91838083EA8DFB8DEC56FF4F118290
:1049A000108280E79FE0EA8DFB8DE656FF4F9183F2
:1049B0008083EA8DFB8DE456FF4F118210820A8DB1
:1049C0001B8D02561F4FEA8DFB8DE852FD4F8080F4
:1049D0008B82EA8DFB8DE153FD4F80819181A28115
:1049E000B3818D839E83AF83B887EA8DFB8DE450BE
:1049F000FD4F90819C83EA8DFB8DEB5FFC4FA08186
:104A0000A987EA8DFB8DEA50FD4FB081BA87EA8D08
:104A1000FB8DE750FD4F80808E86EA8DFB8DEE5F2B
:104A2000FC4F2080EA8DFB8DE150FD4F3080EA8DF8
:104A3000FB8DE753FD4F3081EA8DFB8DEA59FD4F29
:104A40002081EA8DFB8DE55FFC4FC080D180E28044
:104A5000F380EA8DFB8DEC54FD4F80819181A28122
:104A6000B381EA8DFB8DE855FD4F80809180A28057
:104A7000B380EA8DFB8DE057FD4F4081518162810B
:104A80007381EA8DFB8DE459FD4F40805180628037
:104A90007380F801408E518E628E738E40A351A3B5
:104AA00062A373A384A795A7A6A7B7A7448E558E24
:104AB000668E778E44A355A366A377A380AB91AB94
:104AC000A2ABB3AB80A691A6A2A6B3A6C4AAD5AA50
:104AD000E6AAF7AA20AF31AF358A268A8984878A69
:104AE00080E490E0A0E0B0E084AF95AFA6AFB7AFB0
:104AF0008E8482AE9A8493AEEA8DFB8DE252FF4F94
:104B0000AC80A082EA8DFB8DE152FF4F8D819E81AA
:104B1000AF81B88580839183A283B383EA8DFB8DB7
:104B2000ED51FF4F9B819083D80115968D919C91FB
:104B30008633910509F0D9C18AE59FE0EA8DFB8DA6
:104B4000E45EFE4F91838083EA8DFB8DE25EFE4F33
:104B5000118210828CE59FE0EA8DFB8DEC5DFE4FAB
:104B600091838083EA8DFB8DEA5DFE4F1182108276
:104B7000F801838594854A97E1F48EE69FE0EA8DFB
:104B8000FB8DE05EFE4F91838083EA8DFB8DEE5DB1
:104B9000FE4F1182108280E79FE0EA8DFB8DE85D79
:104BA000FE4F91838083EA8DFB8DE65DFE4F11827F
:104BB0001082EA8CFB8CF4EDEF1AFEEFFF0AEA8D0F
:104BC000FB8DE752FD4F80808B82EA8DFB8DED528D
:104BD000FD4F80819181A281B3818D839E83AF83BC
:104BE000B887EA8DFB8DE350FD4F90819C83EA8D61
:104BF000FB8DEA5FFC4F3080EA8DFB8DE950FD4F65
:104C0000A081A987EA8DFB8DE650FD4F2080EA8DBB
:104C1000FB8DED5FFC4FC080EA8DFB8DFD5FD0808A
:104C2000EA8DFB8DE653FD4F3081EA8DFB8DE9590E
:104C3000FD4F2081EA8DFB8DE15FFC4F80809180EC
:104C4000A280B3808A869B86AC86BD86EA8DFB8D6A
:104C5000EC53FD4F80819181A281B3818E879F8724
:104C6000A88BB98BEA8DFB8DE854FD4F8080918035
:104C7000A280B3808C8E9D8EAE8EBF8EEA8DFB8D12
:104C8000E455FD4F80819181A281B3818A8B9B8BFA
:104C9000AC8BBD8BEA8DFB8DE056FD4F8081918101
:104CA000A281B381EA8DFB8DEC56FD4F408051808F
:104CB00062807380EA8DFB8DE458FD4F4081518105
:104CC00062817381EA8DFB8DE059FD4F8080918078
:104CD000A280B380F701808E918EA28EB38E40A207
:104CE00051A262A273A28C8C9D8CAE8CBF8C84A6C8
:104CF00095A6A6A6B7A6448F558F668F778F84A3F7
:104D000095A3A6A3B7A38E849F84A888B98880AAF8
:104D100091AAA2AAB3AA8A889B88AC88BD8880A6DB
:104D200091A6A2A6B3A68A849B84AC84BD8484AADF
:104D300095AAA6AAB7AA20AF31AFD58AC68A378A64
:104D400080E490E0A0E0B0E084AF95AFA6AFB7AF4D
:104D500022AE898483AEEA8DFB8DE459FE4F9C80A0
:104D60009082EA8DFB8DE359FE4F8D819E81AF814C
:104D7000B88580839183A283B383EA8DFB8DEF583E
:104D8000FE4F9B819083D70115968D919C91863320
:104D9000910509F0D2C08AE59FE0EA8DFB8DE655CA
:104DA000FE4F91838083EA8DFB8DE455FE4F118287
:104DB00010828CE59FE0EA8DFB8DEE54FE4F9183CF
:104DC0008083EA8DFB8DEC54FE4F11821082F70137
:104DD000838594854A97E1F48EE69FE0EA8DFB8D0A
:104DE000E255FE4F91838083EA8DFB8DE055FE4FA7
:104DF0001182108280E79FE0EA8DFB8DEA54FE4F1E
:104E000091838083EA8DFB8DE854FE4F11821082DE
:104E1000EA8DFB8DEE50FD4F8081882309F4B5C0EB
:104E200089819A810E942110EA8DFB8DED50FD4F02
:104E30008081882309F4AEC0C8010E9421108A8DA8
:104E40009B8D8C509D4FDC018C91882309F4A6C06A
:104E5000C7016F960FB6F894DEBF0FBECDBFDF91CE
:104E6000CF911F910F91FF90EF90DF90CF90BF9067
:104E7000AF909F908F907F906F905F904F903F90FA
:104E80002F900C9421108C339105D9F48EE59FE07E
:104E9000EA8DFB8DE257FF4F91838083EA8DFB8D76
:104EA000E057FF4F1182108280E69FE0EA8DFB8D74
:104EB000EA56FF4F91838083EA8DFB8DE856FF4FC2
:104EC0005CCD8E9709F05BCD82E69FE0EA8DFB8D8D
:104ED000E257FF4F91838083EA8DFB8DE057FF4FB0
:104EE0001182108288E69FE0E1CF8C33910589F42E
:104EF0008EE59FE0EA8DFB8DE45EFE4F918380831B
:104F0000EA8DFB8DE25EFE4F1182108280E69FE00B
:104F100023CE8E9709F02CCE82E69FE0EA8DFB8DA2
:104F2000E45EFE4F91838083EA8DFB8DE25EFE4F4F
:104F30001182108288E69FE00FCE8C33910589F4B0
:104F40008EE59FE0EA8DFB8DE655FE4F91838083D1
:104F5000EA8DFB8DE455FE4F1182108280E69FE0C2
:104F60002ACF8E9709F033CF82E69FE0EA8DFB8D42
:104F7000E655FE4F91838083EA8DFB8DE455FE4F0D
:104F80001182108288E69FE016CF89819A810E9463
:104F9000E50F4ACFC8010E94E50F51CFC7016F96B8
:104FA0000FB6F894DEBF0FBECDBFDF91CF911F913A
:104FB0000F91FF90EF90DF90CF90BF90AF909F90B8
:104FC0008F907F906F905F904F903F902F900C94B8
:104FD000E50FAF92BF92CF92DF92EF92FF920F93C5
:104FE0001F93CF93DF93EC0186E390E09E8B8D8B34
:104FF00087E390E0988F8F8B86E290E09A8F898F7D
:105000008AE190E09C8F8B8F8CE190E09E8F8D8F5A
:1050100088E190E098A38F8F83E090E09AA389A322
:1050200082E090E09CA38BA3FE01E256FF4F8CE34D
:1050300090E0968385838DE390E09087878388E373
:1050400090E0928781871486138616861586108ACB
:1050500017868EE090E0928B818B8FE090E0948BAE
:10506000838BE257FF4F8EE290E09683858380E347
:1050700090E0908787838EE390E092878187148603
:10508000138616861586108A178682E190E0928B29
:10509000818B83E190E0948B838BED5CFE4F1182DA
:1050A0001082329611821082329611821082CE01C5
:1050B0000E94281FCE010E944B1D6E0186E4C81A73
:1050C0008EEFD80AAA24A394B12CF601B7A6A6A6FF
:1050D0007E01F6E1EF1AFEEFFF0A84E090E0F701AF
:1050E00097A786A78E01065E1D4F88E090E0F80125
:1050F00097A786A780E190E0F6019183808381E104
:1051000090E0958384838FE190E09383828381E2B2
:1051100090E097838683C6010E94AA0DF6018285DE
:1051200080878385818787E190E0F7019183808381
:1051300089E190E09583848383E290E09383828386
:1051400085E290E097838683C7010E94AA0DF7014C
:1051500082858087838581878BE190E0F801918348
:1051600080838DE190E09583848387E290E0938350
:10517000828389E290E097838683C8010E94AA0D0A
:10518000F8018285808783858187E45AFE4F80817C
:10519000918172974081518162817381369720811C
:1051A0003181F601358F248F448B558B668B778B3D
:1051B000019709F044C08FEF9FEF978F868FFE0114
:1051C000E858FC4F808191817097408151816281C4
:1051D0007381389720813181F701358F248F448B7B
:1051E000558B668B778B019769F58FEF9FEF978FC4
:1051F000868FFE01E658FC4F808191813E97408169
:10520000518162817381CE59DC4F28813981F80147
:10521000358F248F448B558B668B778B0197A9F440
:105220008FEF9FEF978F868FDF91CF911F910F9117
:10523000FF90EF90DF90CF90BF90AF900895B78E22
:10524000A68EBDCF81E090E0D2CF81E090E0EACFA2
:105250008F929F92AF92BF92CF92DF92EF92FF9286
:10526000CF93DF937B010E943A1CEC01F70182A0EF
:1052700093A0A4A0B5A0C68CD78CE0A0F1A08A8191
:105280009B818F30F7E29F070CF049C001969B830A
:105290008A838C819D818F3027E292070CF042C077
:1052A00096012B7F215531092330310558F09601A5
:1052B0002B5531092330310528F02A543109233088
:1052C000310518F401969D838C83C6010E94B207B4
:1052D000882359F1F601EE0FFF1FEE0FFF1FEE5D61
:1052E000F54F80829182A282B382B501A401C601EA
:1052F0000E946D1BB601CE010E9402160E94281D5D
:105300000E94F81C90E080E0DF91CF91FF90EF9039
:10531000DF90CF90BF90AF909F908F9008951B82A9
:105320001A82B7CF1D821C82D0CF8AEB93E00E94F5
:10533000B714E4CFCF93DF93EB010E943A1C6E8D3C
:105340007F8D0E94021690E080E0DF91CF9108955A
:105350000E943A1C0E943C1683E594E00E94B71418
:105360000E94D7130E94231590E080E008950F93C8
:105370001F93CF93DF93EC0188819981009759F0B7
:105380002A813B812617370730F081E0DF91CF91EA
:105390001F910F9108958B016F5F7F4F0E94555BA6
:1053A000009759F0998388831B830A832C813D8160
:1053B000232B59F7FC011082E8CF80E0E7CF0F9351
:1053C0001F93CF93DF93EC018B01D1DF28813981CB
:1053D000811112C02115310519F0C9010E9499539C
:1053E000198218821D821C821B821A82CE01DF91D3
:1053F000CF911F910F9108951D830C8364EA74E08F
:10540000C9010E94475CF2CFCF93DF93FC01E25BBE
:10541000FD4F408151814115510501F1EC01CE5AFA
:10542000DD4F28813981865B9D4F24173507E8F4CD
:10543000FC01808191810097A1F0820F931FFC01F4
:1054400080818A3031F08D3069F482EA94E00E94E4
:10545000B71488819981019699838883DF91CF91D0
:10546000089580E00E942C09F4CF70E060E0A7DF8F
:1054700019821882F3CF0F931F93CF93DF93EC0120
:105480008C01025B1D4FF80180819181892B19F0FD
:10549000CE01BADFF8CFDF91CF911F910F91089520
:1054A0002F923F924F925F926F927F928F929F9234
:1054B000AF92BF92CF92DF92EF92FF920F931F9322
:1054C000CF93DF93CDB7DEB7CE58D1090FB6F8949E
:1054D000DEBF0FBECDBF8C01FC0110821182128293
:1054E0001382148215821682178210861186128604
:1054F000138614861586168617864C01F0E18F0EEA
:10550000911CC4010E94171268018EE9C80ED11CBB
:10551000C6010E9417127801E4EDEE1AEEEFFE0AC2
:10552000C7010E9417125801F6E4AF1AFEEFBF0A36
:10553000C5010E946E0E380186E1681A8EEF780A66
:10554000C3010E946E0E2801E6EE4E1AEDEF5E0AD0
:10555000C2010E946E0EF801E65BFD4F11821082BF
:10556000138212821582148270E060E0CF0127DF7F
:10557000F801E05BFD4F1182108232961182108299
:1055800032961182108232961182108232961082E7
:1055900011821282138234961082319610823196D3
:1055A00010823196118210823296118210823296C8
:1055B00011821082329610823196108231961082BA
:1055C00031961082118212821382349610821182D7
:1055D00012821382349610821182128213823496C0
:1055E00010821182128213823496108211821282EA
:1055F00013823496108211821282138234961082A2
:1056000011821282138234961082118212821382C6
:105610003496108211821282138234961082118283
:10562000128213823496108211821282138234966F
:105630001082118212821382349610821182128299
:105640001382349610821182128213823496108251
:105650001182128213823496108211821282138276
:105660003496108211821282138234961082118233
:10567000128213823496108211821282138234961F
:105680001082118212821382349610821182128249
:105690001382349610821182128213823496108201
:1056A0001182128213823496108211821282138226
:1056B0003496108231961082319610823196108283
:1056C0001182128213823496108211821282138206
:1056D000349610821182128213823496108231968F
:1056E000108231961082D801A652BD4F8CE0E7E1BE
:1056F000F2E001900D928A95E1F7D801AA51BD4FD1
:105700008CE0E3E2F2E001900D928A95E1F7F80176
:10571000EE50FD4F108231961082319610823196F4
:105720001082319610823196108231961082319615
:105730001082319610823196108231961082319605
:1057400010823196108231961082319610823196F5
:1057500010823196108231961082319610823196E5
:105760001082319610823196108211821282138239
:105770003496108211821282138234961082118222
:1057800012821382D801AD5EBC4F8CE0EFE2F2E0F2
:1057900001900D928A95E1F7F801E15EFC4F1082CD
:1057A0001182128213823496108211821282138225
:1057B00034961082118212821382349611821082E2
:1057C00032961182108232961182108232961082A5
:1057D00011821282138234961082118212821382F5
:1057E00034961082118212821382349610821182B2
:1057F000128213823496108211821282138234969E
:105800001082118212821382349611821082329693
:105810001182108232961182108232961082118289
:10582000128213823496108211821282138234966D
:105830001082118212821382349610823196108265
:105840003196108231961182108232961182108226
:105850003296118210823296108211821282138245
:105860003496108211821282138234961082118231
:105870001282138234961182108232961182108223
:1058800032961182108232961182108232961182E3
:1058900010823296118210823296118210823296D4
:1058A000118210821801F0E82F1AFCEF3F0AF10173
:1058B0001082319611821082329611821082CE01AE
:1058C00001960E9417128EE8FE013196D4010190D4
:1058D0000D928A95E1F7CE0101960E9417128EE88B
:1058E000FE013196D60101900D928A95E1F7CE0125
:1058F00001960E9417128EE8FE013196D7010190A1
:105900000D928A95E1F788E5F801808B89E5F6012B
:1059100080838AE5F7018083CE0101960E946E0E96
:1059200080E3FE013196D50101900D928A95E1F751
:10593000CE0101960E946E0E80E3FE013196D301E6
:1059400001900D928A95E1F7CE0101960E946E0EAC
:1059500080E3FE013196D20101900D928A95E1F724
:10596000C80137DBF1011082C257DF4F0FB6F89440
:10597000DEBF0FBECDBFDF91CF911F910F91FF9082
:10598000EF90DF90CF90BF90AF909F908F907F90DF
:105990006F905F904F903F902F900895CF93DF933B
:1059A0008091030990910409892B51F485E893E0D3
:1059B0000E94FD52EC0174DDD0930409C0930309E9
:1059C0008091030990910409DF91CF9108950F937D
:1059D000CF93DF9380910209811159C081E08093B8
:1059E0000209DCDFEC0106B126B1409100016091B3
:1059F00000010295017026FB222720F9417066956F
:105A0000617086549E4F0E94DD0D06B126B140B1F3
:105A100060B1017022FB222720F943FB442740F9A3
:105A200066956170CE0186519E4F0E94DD0D02B3D6
:105A300022B340B160B1017022FB222720F9441F3C
:105A40004427441F65FB662760F9CE01865E9D4FA3
:105A50000E94DD0DCE0140960E94E311CE018256D8
:105A60009F4F0E94E311CE01845D9E4F0E94E3117F
:105A7000C85ADD4F88819981AA81BB810196A11DF9
:105A8000B11D88839983AA83BB8310920209DF9199
:105A9000CF910F910895CF93DF93EB0120E030E099
:105AA00040E85FE36A817B818C819D810E9476580A
:105AB000811113C087E594E00E94B7146FDFFC01E9
:105AC000E65AFF4F108211821282138286549E4F33
:105AD000FC01108A118A128A138A20E030E040E823
