:100000009DC10000CCC10000CAC10000C8C10000F1
:10001000C6C10000C4C10000C2C10000C0C10000D0
:10002000BEC10000BCC10000BAC10000B8C10000E0
:10003000B6C10000B4C10000B2C10000B0C10000F0
:10004000AEC100000C94B54DAAC10000A8C10000CB
:100050000C94E34DA4C10000A2C100000C94E14C3B
:100060009EC100000C94AB4C0C94814C98C10000D4
:1000700096C1000094C1000092C1000090C1000030
:100080000C94874D8CC100008AC1000088C100001B
:1000900086C1000084C1000082C1000080C1000050
:1000A0007EC100007CC100000C94594D78C1000055
:1000B00076C1000074C1000072C100000C942B4D89
:1000C0006EC100006CC100006AC1000068C1000080
:1000D00066C1000064C1000062C1000060C1000090
:1000E0005EC100004E414E494E495459494E46CDDD
:1000F000CCCC3D0AD7233C17B7D13877CC2B3295DF
:1001000095E6241FB14F0A000020410000C84200BC
:10011000401C4620BCBE4CCA1B0E5AAEC59D740086
:10012000407A10F35A00A0724E18090010A5D4E8C6
:100130000000E87648170000E40B54020000CA9A59
:100140003B000000E1F505000080969800000040AB
:10015000420F000000A086010000001027000000F0
:1001600000E803000000006400000000000A000036
:100170000000000100000000002C76D888DC674FEA
:100180000823DFC1DFAE59E1B1B796E5E3E453C61A
:100190003AE651997696E8E6C28426EB898C9B6212
:1001A000ED407C6FFCEFBC9C9F40F2BAA56FA5F4BC
:1001B00090055A2AF75C936B6CF9676DC11BFCE0E4
:1001C000E40D47FEF520E6B500D0ED902E03009437
:1001D0003577050080841E080000204E0A000000CC
:1001E000C80C333333330F986E12831141EF8D21D6
:1001F00014893BE65516CFFEE6DB18D1844B381B3D
:10020000F77C1D901DA4BBE424203284725E228101
:1002100000C9F124ECA1E53D2700002200250028BB
:10022000002B002E003100340002010000050108FF
:10023000010B01000020002300260029002C002FC4
:100240000032000001000003010601090100000A5C
:100250000B02090C0D0E080703040100000000004A
:10026000000000000000000000000000000000008E
:10027000000000000000000000121110000000004B
:10028000000000000000000000000000000000006E
:1002900000000000002100240027002A002D00306B
:1002A00000330001010000040107010A01010210EE
:1002B0002020080810204010204080020102010880
:1002C0000402010102040810204080804020100830
:1002D0000402018004020180402010080402010889
:1002E00004020101020408102040800102040810E9
:1002F00020408005050505070508080808020202D8
:10030000020A0A08080404040401010101010101B0
:10031000010303030303030303040707070C0C0C87
:100320000C0C0C0C0C02020202060606060606065F
:10033000060B0B0B0B0B0B0B0B000E4E11241FBEF1
:10034000CFEFD1E2DEBFCDBF00E00CBF19E0A0E0EF
:10035000B2E0ECEBFBEC00E00BBF02C007900D92AB
:10036000A03AB107D9F723E1A0EAB9E001C01D9294
:10037000AD3AB207E1F711E0CEE9D1E000E006C006
:1003800021970109802FFE010E94C764CD39D10752
:1003900080E00807A9F70E94E4500C94DC6530CE99
:1003A0009C01803E910508F0ADC5FC018827E45210
:1003B000FE4F8F4F0C94C764BC02C902D202DB020D
:1003C000E402ED0282078207820782078207FA02AF
:1003D00007031403820721032A033303400349035D
:1003E00052035B0364036D03820776037F03880374
:1003F00082078207820791039A03A3038207820779
:10040000AC03B903820782078207C603D303E00364
:10041000ED03FA0303040C04820782078207150424
:100420001E0427048207340441044E048207820715
:1004300082075B046804750482048F049C04A90489
:10044000820782078207B604C304D004DD04EA04ED
:10045000F304FC0482078207820789059605A30539
:100460008207B005BD05CA05820782078207D70546
:10047000E005E90582078207820782078207820773
:100480008207F205FB05040682070D0616061F0605
:1004900082078207820728063506420682074F0632
:1004A0005C06690682078207820776068306900645
:1004B00082079D06A606AF06820782078207B80656
:1004C000C106CA068207820782078207820782075F
:1004D0008207820782078207820705050E05170536
:1004E00082078207820782078207820782078207C4
:1004F0008207820782078207820720052D053A05B9
:1005000082076E0577058005820782078207470507
:1005100054056105820782078207820782078207E6
:100520008207820782078207820782078207820783
:100530008207820782078207820782078207820773
:1005400082078207820782078207D306DC06E90654
:100550008207F606FF060C07820782078207190743
:1005600022072F0782073C074507520782078207A9
:1005700082075F076807750781E090E0A0E0B0E0C0
:100580008093C40A9093C50AA093C60AB093C70A81
:1005900008951092C80A1092C90A1092CA0A1092BD
:1005A000CB0A08951092CC0A1092CD0A1092CE0A6E
:1005B0001092CF0A08951092D00A1092D10A109288
:1005C000D20A1092D30A08951092D40A1092D50A32
:1005D0001092D60A1092D70A089583E090E0A0E026
:1005E000B0E08093D80A9093D90AA093DA0AB09326
:1005F000DB0A089588E790E0A0E0B0E08093F00A7D
:100600009093F10AA093F20AB093F30A089588E751
:1006100090E0A0E0B0E08093F40A9093F50AA093F4
:10062000F60AB093F70A089588E790E0A0E0B0E0FA
:100630008093F80A9093F90AA093FA0AB093FB0A00
:1006400008951092000B1092010B1092020B109261
:10065000030B08951092040B1092050B1092060BD9
:100660001092070B089581E090E0A0E0B0E0809345
:10067000080B9093090BA0930A0BB0930B0B0895F2
:1006800010920C0B10920D0B10920E0B10920F0B80
:1006900008951092100B1092110B1092120B1092E1
:1006A000130B08951092140B1092150B1092160B49
:1006B0001092170B08951092180B1092190B1092AC
:1006C0001A0B10921B0B089510921C0B10921D0B0D
:1006D00010921E0B10921F0B08951092200B109277
:1006E000210B1092220B1092230B08951092280BCD
:1006F0001092290B10922A0B10922B0B0895109236
:100700002C0B10922D0B10922E0B10922F0B089584
:100710001092300B1092310B1092320B1092330B5F
:1007200008951092400B1092410B1092420B1092C0
:10073000430B08951092440B1092450B1092460BF8
:100740001092470B08951092480B1092490B10928B
:100750004A0B10924B0B089581E090E0A0E0B0E0CE
:100760008093540B9093550BA093560BB093570B5B
:10077000089581E090E0A0E0B0E08093580B909362
:10078000590BA0935A0BB0935B0B08958CE291E048
:10079000A0E0B0E08093680B9093690BA0936A0B84
:1007A000B0936B0B08958CE291E0A0E0B0E08093F1
:1007B0006C0B90936D0BA0936E0BB0936F0B089521
:1007C0008CE291E0A0E0B0E08093700B9093710B0D
:1007D000A093720BB093730B08958CE291E0A0E0AC
:1007E000B0E08093740B9093750BA093760BB0934D
:1007F000770B08951092780B1092790B10927A0B68
:1008000010927B0B089510927C0B10927D0B10922E
:100810007E0B10927F0B08951092800B1092810B2B
:100820001092820B1092830B08951092900B1092ED
:10083000910B1092920B1092930B08951092940BBF
:100840001092950B1092960B1092970B089581E0E1
:1008500090E0A0E0B0E08093980B9093990BA09368
:100860009A0BB0939B0B089585E090E0A0E0B0E078
:100870008093A00B9093A10BA093A20BB093A30B1A
:10088000089585E090E0A0E0B0E08093A40B909301
:10089000A50BA093A60BB093A70B089589E190E058
:1008A000A0E0B0E08093A80B9093A90BA093AA0BB3
:1008B000B093AB0B089582E390E0A0E0B0E08093AA
:1008C000B80B9093B90BA093BA0BB093BB0B0895E0
:1008D00082E390E0A0E0B0E08093BC0B9093BD0B6E
:1008E000A093BE0BB093BF0B089582E390E0A0E00D
:1008F000B0E08093C00B9093C10BA093C20BB09358
:10090000C30B089582E390E0A0E0B0E08093C40BB5
:100910009093C50BA093C60BB093C70B089582E3C9
:1009200090E0A0E0B0E08093C80B9093C90BA09337
:10093000CA0BB093CB0B089582E390E0A0E0B0E047
:100940008093CC0B9093CD0BA093CE0BB093CF0B99
:10095000089582E390E0A0E0B0E08093D00B909304
:10096000D10BA093D20BB093D30B089580E991E003
:10097000A0E0B0E08093E00B9093E10BA093E20B3A
:10098000B093E30B089580E991E0A0E0B0E080939C
:10099000E40B9093E50BA093E60BB093E70B08955F
:1009A00080E991E0A0E0B0E08093E80B9093E90B40
:1009B000A093EA0BB093EB0B089580E991E0A0E0DF
:1009C000B0E08093EC0B9093ED0BA093EE0BB09303
:1009D000EF0B08951092F00B1092F10B1092F20BA6
:1009E0001092F30B08951092F40B1092F50B1092E5
:1009F000F60B1092F70B08951092F80B1092F90B6A
:100A00001092FA0B1092FB0B08951092080D1092A1
:100A1000090D10920A0D10920B0D089510920C0DF5
:100A200010920D0D10920E0D10920F0D0895109250
:100A3000100D1092110D1092120D1092130D0895B9
:100A400083E090E0A0E0B0E08093480D9093490DE2
:100A5000A0934A0DB0934B0D089583E090E0A0E081
:100A6000B0E080934C0D90934D0DA0934E0DB0933C
:100A70004F0D089583E090E0A0E0B0E08093500D2A
:100A80009093510DA093520DB093530D08958AE0A9
:100A900090E0A0E0B0E08093700D9093710DA09372
:100AA000720DB093730D08958AE090E0A0E0B0E07D
:100AB0008093740D9093750DA093760DB093770D80
:100AC00008958AE090E0A0E0B0E08093780D9093E4
:100AD000790DA0937A0DB0937B0D08951092580D67
:100AE0001092590D10925A0D10925B0D08951092AC
:100AF0005C0D10925D0D10925E0D10925F0D0895C9
:100B00001092600D1092610D1092620D1092630DA3
:100B1000089588E592E0A0E0B0E08093080C9093FF
:100B2000090CA0930A0CB0930B0C089588E592E091
:100B3000A0E0B0E080930C0C90930D0CA0930E0CF1
:100B4000B0930F0C089588E592E0A0E0B0E08093A8
:100B5000100C9093110CA093120CB093130C0895E9
:100B60008EE190E0A0E0B0E08093180C9093190C17
:100B7000A0931A0CB0931B0C08958EE190E0A0E0B6
:100B8000B0E080931C0C90931D0CA0931E0CB093AE
:100B90001F0C08958EE190E0A0E0B0E08093200C5F
:100BA0009093210CA093220CB093230C08951092E3
:100BB000300C1092310C1092320C1092330C0895BC
:100BC0001092340C1092350C1092360C1092370C97
:100BD00008951092380C1092390C10923A0C109221
:100BE0003B0C08951092580C1092590C10925A0C0C
:100BF00010925B0C089510925C0C10925D0C109298
:100C00005E0C10925F0C08951092600C1092610CB3
:100C10001092620C1092630C08951092680C10925E
:100C2000690C10926A0C10926B0C089510926C0C67
:100C300010926D0C10926E0C10926F0C0895109221
:100C4000700C1092710C1092720C1092730C08952B
:100C500085E090E0A0E0B0E08093800C9093810C60
:100C6000A093820CB093830C089585E090E0A0E0FF
:100C7000B0E08093840C9093850CA093860CB09385
:100C8000870C089585E090E0A0E0B0E08093880CA8
:100C90009093890CA0938A0CB0938B0C089584EBED
:100CA00095E1A0E0B0E08093900C9093910CA0931C
:100CB000920CB093930C089584EB95E1A0E0B0E022
:100CC0008093940C9093950CA093960CB093970CF2
:100CD000089584EB95E1A0E0B0E08093980C9093A8
:100CE000990CA0939A0CB0939B0C089585E090E02A
:100CF000A0E0B0E08093A80C9093A90CA093AA0C5C
:100D0000B093AB0C089585E090E0A0E0B0E0809354
:100D1000AC0C9093AD0CA093AE0CB093AF0C0895B7
:100D200085E090E0A0E0B0E08093B00C9093B10C2F
:100D3000A093B20CB093B30C08951092B80C10921B
:100D4000B90C1092BA0C1092BB0C08951092BC0C06
:100D50001092BD0C1092BE0C1092BF0C0895109210
:100D6000C00C1092C10C1092C20C1092C30C0895CA
:100D70001092D00C1092D10C1092D20C1092D30C75
:100D800008951092D40C1092D50C1092D60C10929B
:100D9000D70C08951092D80C1092D90C1092DA0C3E
:100DA0001092DB0C08951092E80D1092E90D10924C
:100DB000EA0D1092EB0D08958CE390E0A0E0B0E016
:100DC0008093EC0D9093ED0DA093EE0DB093EF0D8D
:100DD000089581E090E0A0E0B0E08093F00D909362
:100DE000F10DA093F20DB093F30D08951092F80D4C
:100DF0001092F90D1092FA0D1092FB0D08958CE3EC
:100E000090E0A0E0B0E08093FC0D9093FD0DA093E6
:100E1000FE0DB093FF0D089581E090E0A0E0B0E0FA
:100E20008093000E9093010EA093020EB093030ED8
:100E300008951092100E1092110E1092120E109230
:100E4000130E08958CE390E0A0E0B0E08093140EC0
:100E50009093150EA093160EB093170E089581E08F
:100E600090E0A0E0B0E08093180E9093190EA0934C
:100E70001A0EB0931B0E08951092200E1092210EA0
:100E80001092220E1092230E08958CE390E0A0E0C1
:100E9000B0E08093240E9093250EA093260EB0937D
:100EA000270E089581E090E0A0E0B0E08093280E46
:100EB0009093290EA0932A0EB0932B0E08951092B2
:100EC000380E1092390E10923A0E10923B0E089581
:100ED0008CE390E0A0E0B0E080933C0E90933D0E58
:100EE000A0933E0EB0933F0E089581E090E0A0E005
:100EF000B0E08093400E9093410EA093420EB093C9
:100F0000430E0895220F331F220F331FF901EC53B4
:100F1000F54F108211821282138208958C3691054A
:100F20000CF04EC089369105CCF4863391055CF502
:100F3000833391059CF48C319105BCF48931910582
:100F40006CF48E30910564F48B3091053CF400977D
:100F500029F097FD08C00297049728F481E00895CE
:100F60000F970997D8F380E00895863291053CF4F5
:100F7000843291059CF74F970397A8F7EFCF899795
:100F8000079788F7EBCF8435910574F48135910587
:100F90002CF7843491052CF48D339105FCF6C7971A
:100FA000EBCF87549109ECCF8E35910534F48B3516
:100FB0009105A4F685559109DFCF85569109DCCFBF
:100FC000843A91051CF5813A910544F680389105E3
:100FD00084F48D37910514F6863791053CF48337F8
:100FE00091050CF0BBCF8F569109C6CF8957910957
:100FF000C3CF803991053CF48D3891050CF0AECF0C
:1010000083589109B9CF81599109B6CF803D910597
:101010008CF48D3C91050CF0A1CF8E3A91053CF4F7
:101020008B3A91050CF09ACF855A9109A5CF895C2E
:101030009109A2CF8A3D91053CF4873D91050CF0C2
:101040008DCF835D910998CF8D5D910995CFAF923A
:10105000BF92CF92DF92EF92FF920F931F93CF93A5
:10106000DF936C017B018B01040F151FEB015E0107
:10107000AE18BF08C017D10759F06991D601ED919C
:10108000FC910190F081E02DC6011995892B79F72B
:10109000C501DF91CF911F910F91FF90EF90DF90ED
:1010A000CF90BF90AF900895FC01538D448D252FB4
:1010B00030E0842F90E0821B930B541710F0CF96F2
:1010C000089501970895FC01918D828D981761F024
:1010D000A28DAE0FBF2FB11D5D968C91928D9F5F3B
:1010E0009F73928F90E008958FEF9FEF0895FC011A
:1010F000918D828D981731F0828DE80FF11D858DCD
:1011000090E008958FEF9FEF0895FC01918D228D5F
:10111000892F90E0805C9F4F821B91098F739927E4
:10112000089589E49EE0F1DF21E0892B09F420E0B5
:10113000822F0895FC01A48DA80FB92FB11DA35AC9
:10114000BF4F2C91848D90E001968F739927848FE7
:10115000A689B7892C93A089B1898C91837080640A
:101160008C93938D848D981306C00288F389E02DAB
:1011700080818F7D80830895EF92FF920F931F935C
:10118000CF93DF93EC0181E0888F9B8D8C8D98133A
:101190001AC0E889F989808185FF15C09FB7F89446
:1011A000EE89FF896083E889F98980818370806492
:1011B00080839FBF81E090E0DF91CF911F910F91DD
:1011C000FF90EF900895F62E0B8D10E00F5F1F4FEC
:1011D0000F731127E02E8C8D8E110BC00FB607FCFC
:1011E000FACFE889F989808185FFF5CFCE01A2DFAA
:1011F000F2CFEB8DEC0FFD2FF11DE35AFF4FF08284
:101200009FB7F8940B8FEA89FB8980818062D0CFE9
:10121000682F89E49EE0B0CFCF93DF93EC01888DF7
:101220008823B1F0AA89BB89E889F9898C9185FD69
:1012300003C0808186FD0CC00FB607FCF7CF8C91F0
:1012400085FFF2CF808185FFEDCFCE0173DFEACF3E
:10125000DF91CF91089580E090E0892B21F061DF4C
:1012600081110E94000080E090E0892B49F080E02D
:1012700090E0892B29F00E94000081110E9400005B
:1012800080E090E0892B49F080E090E0892B29F004
:101290000E94000081110E94000080E090E0892BF4
:1012A00049F080E090E0892B29F00E940000811134
:1012B0000C94000008958150823108F05AC0E82F44
:1012C000F0E08827E959F64F8F4F0C94C7648709DF
:1012D0008B0979097F098309B9098E09940998094D
:1012E0009E09A209A609AC09B009B909B409BA094D
:1012F000BE09809180008F7780938000089580914F
:1013000080008F7DF9CF80918000877FF5CF84B5F5
:101310008F7784BD089584B58F7DFBCF8091B00019
:101320008F778093B00008958091B0008F7DF9CFC2
:10133000809190008F778093900008958091900025
:101340008F7DF9CF80919000877FF5CF8091A000AD
:101350008F778093A00008958091A0008F7DF9CFB2
:101360008091A000877FF5CF809120018F778093B7
:1013700020010895809120018F7DF9CF8091200177
:10138000877FF5CFCF93DF93282F30E0F901E35B20
:10139000FD4F8491F901E355FD4FD491F901ED50D2
:1013A000FD4FC491CC2399F0811185DFEC2FF0E043
:1013B000EE0FFF1FED5CFD4FA591B491EC91ED2375
:1013C00081E090E009F480E0DF91CF91089580E022
:1013D00090E0FACF1F93CF93DF93282F30E0F901ED
:1013E000E35BFD4F8491F901E355FD4FD491F90181
:1013F000ED50FD4FC491CC23A1F0162F81115BDF7E
:10140000EC2FF0E0EE0FFF1FE75EFD4FA591B491CA
:101410008FB7F894EC91111108C0D095DE23DC93BE
:101420008FBFDF91CF911F910895DE2BF8CFCF931F
:10143000DF9390E0FC01E355FD4F24918D509D4FCB
:10144000FC0184918823C9F090E0880F991FFC016A
:10145000ED56FD4FA591B491FC01E75EFD4FC5919E
:10146000D49161110DC09FB7F8948C91209582237F
:101470008C938881282328839FBFDF91CF91089583
:10148000623051F49FB7F8943C91822F809583236A
:101490008C93E8812E2BEFCF8FB7F894EC912E2B05
:1014A0002C938FBFEACFCF938CB58C608CBD8CB55D
:1014B0008F7D8CBD8CB58C7F8CBD8DB58E7F8DBDA9
:1014C000CFB7F8948091480E811123C0E8E2F3E091
:1014D0008491E2EEF2E09491E82FF0E0EE0FFF1F2E
:1014E000ED56FD4FA591B491EC91E92319F461E01B
:1014F00085E370DF61E085E39ADF8CB580618CBDA8
:101500008CB580648CBD61E084E391DF61E083E3AE
:101510008EDF8091480E8F5F8093480ECFBFCF91B2
:1015200008958230910538F0880F991F880F991F10
:1015300005970197F1F708953FB7F8948091B609A0
:101540009091B709A091B809B091B90926B5A89BA7
:1015500005C02F3F19F00196A11DB11D3FBFBA2F45
:10156000A92F982F8827BC01CD01620F711D811D05
:10157000911D42E0660F771F881F991F4A95D1F78A
:1015800008958F929F92AF92BF92CF92DF92EF9287
:10159000FF926B017C01D0DF4B015C01C114D104CF
:1015A000E104F104B1F0C8DF681979098A099B09DF
:1015B000683E73408105910588F321E0C21AD10885
:1015C000E108F10888EE880E83E0981EA11CB11C8A
:1015D000E5CFFF90EF90DF90CF90BF90AF909F90BE
:1015E0008F9008952FB7F8946091B2097091B30964
:1015F0008091B4099091B5092FBF0895CF92DF92E1
:10160000EF92FF92CF93DF93EC01603282E0780794
:10161000CCF5653B710514F064EB70E0898128E836
:1016200030E0281B310987FD3395220F331F220F2D
:10163000331F6901330FEE08FF088A8128E532E085
:10164000281B310987FD3395220F331F220F331FCB
:10165000032E000C440B550B2C193D094E095F0954
:10166000DB0177FF02C0B0E0A0E00E945C6324EBE6
:1016700030E040E050E00E943663C20ED31EE41E0C
:10168000F51EB601E881E03370F5298188E890E025
:10169000821B910927FD9395880F991F880F991F29
:1016A000681779077CF02A8188E592E0821B91090E
:1016B00027FD9395880F991F880F991F6817790741
:1016C0000CF4CB010297880F991F4FB7F8942E2F77
:1016D00030E0F901EE0FFF1FE20FF31FE25CF04F65
:1016E000928381834FBFDF91CF91FF90EF90DF9086
:1016F000CF9008951F93CF93DF93EC01162F88812D
:10170000803308F04DC061E0812F91DE8881282F61
:1017100030E0F901EE0FFF1FE20FF31FE25CF04F24
:101720001F736081607C612B608319821A822CE0B8
:10173000622F0E94A864829FB001112430E020E053
:10174000AB01420F531FFA01EE0FFF1FE40FF51F0D
:10175000E25CF04F908196FD16C02F5F3F4F2C301A
:10176000310571F7813009F51092800082E0809395
:1017700081001092850010928400B19A80916F00D0
:10178000826080936F00E8818E2F90E0FC01EE0F65
:10179000FF1FE80FF91FE25CF04F808180648083B7
:1017A0008881DF91CF911F910895823061F410926A
:1017B000900080939100109295001092940088BB45
:1017C00080937100E0CF833069F41092A00082E032
:1017D0008093A1001092A5001092A40089BB809371
:1017E0007200D1CF8111CFCF1092200182E080937F
:1017F000210110922501109224018ABB809373006D
:10180000C2CFAF92BF92CF92DF92EF92FF920F932F
:101810001F93CF93DF936B017A01EC01C355D64F31
:1018200028813CE0389F8001399F100D1124A09041
:10183000CE0FB12C27FF1FC0FB01118210828881BF
:101840008F5F888388819801280F311D87FD3A9525
:10185000F6012A153B051CF488818C30BCF180818F
:101860009181049680349C4908F471C0F60180810E
:10187000918104966EC088819801280F311D87FDE3
:101880003A952A153B05DCF68881A801480F511DC1
:1018900087FD5A95FA01EE0FFF1FE40FF51FE25C7A
:1018A000F04F808186FFCBCF8881F801E80FF11DD2
:1018B00087FDFA95CF01EE0FFF1FE80FF91FE25CDD
:1018C000F04F808160E08F7385DDB9CF8081918199
:1018D0002881A801420F511D27FD5A959A01FA014E
:1018E000EE0FFF1FE20FF31FE25CF04F2181328108
:1018F000820F931FF7019183808388819801280FBD
:10190000311D87FD3A95F901EE0FFF1FE20FF31F1E
:10191000E25CF04F808186FF21C08881080F111D95
:1019200087FD1A95F801EE0FFF1FE00FF11FE25C33
:10193000F04F808161E08F73DF91CF911F910F9104
:10194000FF90EF90DF90CF90BF90AF9043CD80E4B9
:101950009CE9F701918380838FEF8883DF91CF919A
:101960001F910F91FF90EF90DF90CF90BF90AF90BD
:1019700008958EBD00000DB407FEFDCF8EB508950D
:10198000DF92EF92FF920F931F93CF93DF93EC01BF
:10199000D62E122F032FF42EE52E60E088851ADD57
:1019A0008D2D8068E6DF89878E2DE3DF8F2DE1DFC7
:1019B000802FDFDF812FDDDF61E088850BDD89850A
:1019C000DF91CF911F910F91FF90EF90DF900895DD
:1019D000FF920F931F93CF93DF93EC01F62E8A01B2
:1019E00062DD60E08885F6DC8F2DC3DF898780E0CB
:1019F000C0DF80E0BEDF80E0BCDF80E0BADF61E016
:101A00008885E8DC60E08885E5DC8F2DB2DF89879A
:101A100080E0AFDF90E0B0E0A0E0BA2FA92F982FD0
:101A20008827F80180839183A283B38380E0A1DFBC
:101A3000F8014081518162817381482B762F652F97
:101A4000542F4427408351836283738380E091DF66
:101A5000F8014081518162817381482B762F652F77
:101A6000542F4427408351836283738380E081DF56
:101A7000F8014081518162817381482B40835183F9
:101A80006283738361E08885A5DC8985DF91CF91CE
:101A90001F910F91FF9008952F923F924F925F9266
:101AA0007F928F929F92AF92BF92CF92DF92EF92EE
:101AB000FF920F931F93CF93DF9300D01F92CDB768
:101AC000DEB76C01762E49015A0117012801AE01DB
:101AD0004F5F5F4F7DDF89819A81AB81BC81882612
:101AE0009926AA26BB26A50194012E213321402345
:101AF0005521282739274A275B27672DC60140DF54
:101B0000F60181850F900F900F900F90DF91CF918C
:101B10001F910F91FF90EF90DF90CF90BF90AF900B
:101B20009F908F907F905F904F903F902F9008955F
:101B3000EF92FF920F931F93CF93DF93EC01E12C71
:101B4000F12C8701E394062E04C0EE0CFF1C001F4D
:101B5000111F0A94D2F7242F30E050E040E004C077
:101B6000220F331F441F551F6A95D2F760E0CE0144
:101B700093DF8985DF91CF911F910F91FF90EF90B7
:101B80000895CF93DF93EC0161E0888550DC61E03C
:101B9000888520DC88DC60E088851CDC80E0E9DE6C
:101BA000898780E0E6DE80E0E4DE80E0E2DE80E05F
:101BB000E0DE61E08885DF91CF910CCC4F925F929F
:101BC0006F927F928F929F92BF92CF92DF92EF920D
:101BD000FF920F931F93CF93DF93EC017B014A0198
:101BE0006901B02ECEDF88E0E816F10409F46FC178
:101BF0000CF049C182E0E816F10409F45EC184E00A
:101C0000E816F10409F45EC1EA94EF2809F044C132
:101C100088E090E0A0E0B0E0582F44273327222747
:101C2000E12CF12C00E01FE06CE6CE0135DFB401C1
:101C300090E080E00E94086225ED34E045E352E444
:101C40000E94696220E030E04AE754E40E94F863B1
:101C500028EB3EE145E05EE30E9469622B013C0116
:101C600026E636E646EA5EE30E94F86320E030E0CE
:101C700040E85FE30E9493630E946564603180F4F2
:101C80002CEE31E548E35EE3C301B2010E94F86344
:101C900020E030E040E85FE30E9493630E946564C7
:101CA000862F8F71262F30E050E040E0542F432FD5
:101CB000322F222722273F7144275527282B60E106
:101CC000CE015EDEB11017C141E060E0CE0130DF31
:101CD0001FE0E12EF12C00E010E023E030E040E0D6
:101CE00050E06CE6CE01D8DE10E7E12EF12C00E0EA
:101CF00010E020E430E040E050E06CE6CE01CCDEC5
:101D000010E8E12EF12C00E010E020E830E040E0A7
:101D100050E06CE6CE01C0DEE12C10E8F12E01E0CF
:101D200010E020E030E041E050E06CE6CE01B4DEAF
:101D3000E12C10E4F12E00E010E020E030E0A901F9
:101D40006CE6CE01A9DE1FE0E12EF12C00E010E0F0
:101D500021E030E040E050E06CE6CE019DDEE12C79
:101D6000F12C8701F39420E032E040E050E06CE693
:101D7000CE0192DEE12C10E2F12E00E010E020E036
:101D800030E240E050E06CE6CE0186DE2FEF3FEF20
:101D9000A90163E1CE01F4DD2FEF3FEF4FE050E00A
:101DA00064E1CE01EDDD20E137E240E050E065E1A5
:101DB000CE01E6DDE12CF12C08E010E020E030E07F
:101DC00048E050E06CE6CE0167DEE12CF12C04E047
:101DD00010E020E030E044E050E06CE6CE015CDE54
:101DE0001FE0E12EF12C00E010E028E030E040E0C0
:101DF00050E06CE6CE0150DEE12CF12C8701EA9434
:101E000024E630E040E050E06EE6CE0145DEE12C15
:101E1000F12C0FEF13E020E030E048E050E06EE6F8
:101E2000CE013ADE20E137E240E050E065E1CE014C
:101E3000A7DD41E065E0CE017BDE41E06BE0CE0155
:101E400077DE0D2C000CEE08FF08A60133272227B1
:101E5000E12CF12C01E010E06CE6CE011DDE64E621
:101E600070E080E090E0DF91CF911F910F91FF90A3
:101E7000EF90DF90CF90BF909F908F907F906F906A
:101E80005F904F907ECB80E2E816F10451F144F46C
:101E900080E1E816F10401F180E090E0DC01BCCEC5
:101EA00080E4E816F10411F180E8E816F104A1F7E6
:101EB00081E090E0A0E0B0E0AFCE87E090E0A0E06D
:101EC000B0E0AACE86E090E0A0E0B0E0A5CE85E04C
:101ED00090E0A0E0B0E0A0CE84E090E0A0E0B0E030
:101EE0009BCE83E090E0A0E0B0E096CE82E090E070
:101EF000A0E0B0E091CE1FE0E12EF12C00E010E078
:101F000023E030E040E050E06CE6CE01C5DDE12C9E
:101F100010E8F12E01E010E020E030E840E050E071
:101F20006CE6CE01B9DD10E7E12EF12C00E010E007
:101F300020E030E0A9016CE6CE01AEDD10E8E12E34
:101F4000F12C00E010E020E030E0A9016CE6CE01C9
:101F5000A3DDE12CF12C00E010E120E030E040E0D6
:101F600050E16CE6CE0198DDE12C10E4F12E00E0AA
:101F700010E020E030E0A9016CE6CE018DDD40E00C
:101F800060E0CE01D5DDE12CF12C08E010E020E08E
:101F900030E0A9016CE6CE017FDDE12CF12C04E0FC
:101FA00010E020E030E0A9016CE6CE0175DDE12C07
:101FB000F12C870120E030E044E050E060E7CE0102
:101FC0006BDD20E030E0A90160E7CE0165DDE12CAA
:101FD000FF24FA940FEF1FEF20E031E040E050E0E3
:101FE00060E7CE0159DDE12CF12C8701EA9420E86D
:101FF00030E040E050E060E7CE014EDD41E062E0DD
:10200000CE0196DD40E065E0CE0192DD40E06BE080
:10201000CE018EDDE12CF12C01E010E020E030E07B
:10202000A9011ACF0F931F93CF93DF938B01EA017E
:10203000AB01415051094534510508F0E9C0223047
:10204000310508F0E5C046E4429FF001439FF00DE2
:102050001124E80FF91FE60FF71F81E080836C2F32
:10206000232B09F4D2C061E0802FE1D9209749F4F5
:1020700060E0802FAFD9CE01DF91CF911F910F91FA
:102080000895CF3FD10511F461E0BFC0F801E35BD3
:10209000FD4FE491E150E23108F0B2C0F0E0882752
:1020A000EB5AFF4E8F4F0C94C76467106E1073107D
:1020B0007D108710001191109910A110AB10B51070
:1020C000BF10CE10D8100011E210EC10F61084B53D
:1020D000806884BDC7BDD0E0C0E0CDCF84B580624C
:1020E00084BDC8BDF8CF8091800080688093800057
:1020F000D0938900C0938800EECF809180008062E9
:1021000080938000D0938B00C0938A00E4CF8091AD
:102110008000886080938000D0938D00C0938C00F5
:10212000DACF8091B00080688093B000C093B30094
:10213000D2CF8091B00080628093B000C093B40091
:10214000CACF80919000806880939000D0939900CE
:10215000C0939800C0CF80919000806280939000DF
:10216000D0939B00C0939A00B6CF80919000886076
:1021700080939000D0939D00C0939C00ACCF809141
:10218000A00080688093A0008091A0008F7B809346
:10219000A000D093A900C093A8009DCF8091A0007B
:1021A00080628093A000D093AB00C093AA0093CF2D
:1021B0008091A00088608093A000D093AD00C09370
:1021C000AC0089CF80912001806880932001D0935A
:1021D0002901C09328017FCF8091200180628093E4
:1021E0002001D0932B01C0932A0175CF809120014B
:1021F000886080932001D0932D01C0932C016BCF78
:1022000060E0C038D1050CF03FCF802FE3D863CF1A
:10221000C1E0D0E030CFCF93DF93D0E0C0E0CE017B
:102220000E948E07882319F0CE010E94D0012196CA
:10223000C13ED105A1F7DF91CF9108954F925F92F2
:102240006F927F928F929F92AF92BF92CF92DF92C6
:10225000EF92FF92CF93DF93EC016C897D898E8999
:102260009F8988889988AA88BB88CE8CDF8C0D2CA2
:10227000000CEE08FF08603127E272078105910526
:1022800029F01616170618061906ACF0A7019601D4
:10229000C501B4010E949964DF91CF91FF90EF9046
:1022A000DF90CF90BF90AF909F908F907F906F9076
:1022B0005F904F9008950E940A6220E030E44CE164
:1022C00056E40E94F8632B013C01488E598E6A8EB9
:1022D0007B8EC501B4010E940A62A30192010E9493
:1022E00069624B015C01C701B6010E940A629B0151
:1022F000AC01C501B4010E9469620E946064CCCF48
:10230000FC011182108213821282158214821782BC
:1023100016821086118612861386148615861686F6
:102320001786108A118A128A138A108E118E128EC5
:10233000138E158E148E178E168E10A211A212A255
:1023400013A214A215A216A217A210A611A612A6D5
:1023500013A614A615A681E090E097A786A780E1B2
:1023600097E2A0E0B0E0848B958BA68BB78B0895A5
:102370004F925F926F927F928F929F92AF92BF9295
:10238000CF92DF92EF92FF920F931F93CF93DF9341
:10239000EC014B018A015901CD88DE88EF88F88C69
:1023A0002601370144245524662481E07822FE0169
:1023B000ED57FF4F608171818281938124E630E087
:1023C00040E050E00E946263672B682B692BF1F4B8
:1023D0008C859D859F878E878A859B859D878C8729
:1023E000888599859B878A878E819F819987888731
:1023F000F80160817181828193810E9460647F8392
:102400006E83F801108211821282138245284628B9
:10241000472859F4F7FC09C0CC24DD24EE24FEE75C
:10242000FF22CD28CE28CF2881F020E030E040E800
:102430005FE3F80160817181828193810E949463DE
:10244000F8016083718382839383C25ADF4F88814E
:102450009981AA81BB81F50180839183A283B38393
:1024600088819981AA81BB81F401808B918BA28B99
:10247000B38BDF91CF911F910F91FF90EF90DF9081
:10248000CF90BF90AF909F908F907F906F905F9014
:102490004F900895889A0895889808958E9A08957F
:1024A0008E980895EBE0F1E0808188608083089544
:1024B000EBE0F1E08081877F80830895149A08958E
:1024C0001498089560E0FC01878D0C94EA0960E09F
:1024D000FC01818D0C94EA0961E0FC01878D0C946C
:1024E000EA0961E0FC01818D0C94EA09CF93DF9346
:1024F000EC01FC01EF56FF4F1082379781E080839B
:1025000060E0898D0E94EA098BA19CA1892B31F0A2
:1025100060E08F8DDF91CF910C94EA09DF91CF912C
:102520000895CF93DF93EC018FA10E94C2092AA5E1
:102530002817190621F48BA5DF91CF91089580E02B
:10254000FBCFCF93DF93EC018DA10E94C2092AA596
:102550002817190621F48BA5DF91CF91089580E00B
:10256000FBCFCF93DF93EC018B8DFE01E35BFF4F3D
:10257000908161E0911101C060E00E94EA0989A1A7
:10258000FE01E25BFF4F9081992331F0C15BDF4F89
:10259000988161E0911101C060E0DF91CF910C94CE
:1025A000EA09CF93DF93EC018B8DFE01E35BFF4FD4
:1025B000908160E0911101C061E00E94EA0989A167
:1025C000FE01E25BFF4F9081992331F0C15BDF4F49
:1025D000988160E0911101C061E0DF91CF910C948E
:1025E000EA09CF93DF93EC0161E08D8D0E94EA0947
:1025F000FE01E25BFF4F8081882321F061E08BA127
:102600000E94EA09C157DF4F1882DF91CF910895E8
:10261000CF93DF93EC01FC01E454FC4F1082EE58A1
:10262000F1098081811103C0CE014096DADFFE01FD
:10263000E15DFC4F8081811104C0CE018E549F4F1B
:10264000D0DFFE01E05DFC4F8081811104C0CE012E
:102650008C5A9E4FC6DF64E670E080E090E0DF9128
:10266000CF910C94C10ACF93DF93EC0160E08D8D84
:102670000E94EA09FE01E25BFF4F8081882321F07E
:1026800060E08BA10E94EA09C157DF4F81E0888397
:10269000DF91CF9108958F929F92AF92BF92CF9288
:1026A000DF92EF92FF920F931F93CF93FC01E65AB4
:1026B000FF4F4083518362837383349640835183F9
:1026C0006283738334960083118322833383DC0116
:1026D000AA59BF4FEC925297CC91CC2351F0189746
:1026E0004C91411152C037FF56C0108211821282A4
:1026F0001382DC01AB5ABF4F4D915D916D917C917E
:102700001397141615061606170634F514963C9101
:10271000332311F1C080D180E280F380460157015C
:10272000F7FE07C08824992454018C189D08AE0830
:10273000BF08481559056A057B0574F4F7FE07C004
:1027400070956095509541955F4F6F4F7F4F4083D7
:10275000518362837383C32FFC01ED58FF4F1082B6
:1027600011821282138289579F4F31E0FC0130831E
:102770008C2FCF911F910F91FF90EF90DF90CF9012
:10278000BF90AF909F908F9008951016110612067B
:1027900013060CF4AACFC0E0ACCF0F931F93CF93D6
:1027A000DF93EC01062F89A581110DC0CE01C9DE92
:1027B000182FCE01B6DE0111182F812FDF91CF9196
:1027C0001F910F910895CE01ACDE182FCE01B9DE16
:1027D000F2CFCF93DF93EC01FC01ED57FF4F8081E7
:1027E0009181A281B3810196A11DB11D8083918346
:1027F000A283B3833E9681E08083AE01425A5F4F4D
:10280000FA0180819181A281B3819E0128573F4FB7
:10281000F9012081222309F440C00196A11DB11DB8
:10282000FA0180839183A283B383FE01EC56FF4FAC
:1028300020813181C901959587958C0F9D1F329715
:102840000190F081E02D20FF08C0DC012D913C912A
:10285000E20FF31F0190F081E02D19958BA19CA14F
:10286000892BF9F0FE01E856FF4F20813181C90123
:10287000959587958C0F9D1FCA56DF4FE881F9818A
:1028800020FF08C0DC012D913C91E20FF31F019065
:10289000F081E02DDF91CF9119940197A109B10941
:1028A000BFCFDF91CF9108958F929F92AF92BF9249
:1028B000CF92DF92EF92FF920F931F93CF93DF930C
:1028C000EC01FC01ED58FF4F6081718182819381A1
:1028D0000E9408626B017C01FE01E05BFF4F60819A
:1028E0007181828193810E940A629B01AC0160E048
:1028F00074E284E799E40E94F8634B015C01FE01F5
:10290000E158FF4F60817181828193810E9408624A
:102910009B01AC01C501B4010E94F8634B015C014D
:102920008E0109581F4F20E030E040E05FE30E9435
:102930006962A70196010E9494630E946564F80190
:102940006083718382839383C558DF4FA50194010F
:10295000C701B6010E9494630E946564688379830D
:102960008A839B83DF91CF911F910F91FF90EF900E
:10297000DF90CF90BF90AF909F908F9008950F936E
:102980001F93CF93DF93FC01EF56FF4F208122234B
:10299000B9F07E9700811181228133813896408180
:1029A000518162817381041715072607370710F1DB
:1029B000EC019CDDCE01DF91CF911F910F9174CF7F
:1029C000FC01E957FF4F20812223A1F07497008179
:1029D00011812281338134964081518162817381DA
:1029E000041715072607370728F0DF91CF911F91AD
:1029F0000F91EFCEDF91CF911F910F910895FC01C0
:102A0000E957FF4F2081222361F0749780819181E3
:102A1000A281B3810196A11DB11D80839183A28300
:102A2000B38308950F931F93FC01EA59FF4F208150
:102A3000211112C03897008111812281338134968F
:102A4000408151816281738104171507260737077A
:102A50004CF41F910F91A5CDFC01E45BFF4F208149
:102A60002111F7CF1F910F917CCDAC014B5E5F4FD1
:102A70006FE6FC01808191810C94E80CAF92BF92CB
:102A8000CF92DF92EF92FF920F931F93CF93DF933A
:102A9000EC016B015A0179019A01AB01B701888100
:102AA00099818CD88C81883531F49501A601B701C4
:102AB0008A819B8183D8DF91CF911F910F91FF90E5
:102AC000EF90DF90CF90BF90AF900895CF93DF93BA
:102AD000EC018C818835A9F584E590E199838883A0
:102AE00083E390E19B838A8381E792E1FE01EE56C6
:102AF000FF4F918380833296118210828CE692E19F
:102B000032969183808332961182108287E692E119
:102B100032969183808332961182108282E692E10E
:102B200032969183808332961182108288819981B6
:102B300028D88C81883589F48A819B81DF91CF9157
:102B400020C8893529F489E490E199838883CCCF22
:102B50008A3551F68EE390E1F8CFDF91CF91089559
:102B6000CF93DF93FC01DC0116968AE0ED01199208
:102B70008A95E9F781E0808B818B138A128A148A07
:102B8000158A168A178A108E8CE291E0A0E0B0E0D8
:102B900084A795A7A6A7B7A780AB91ABA2ABB3AB11
:102BA00042E350E060E070E044AB55AB66AB77AB1E
:102BB00040AF51AF62AF73AF44AF55AF66AF77AFC1
:102BC000EF01C05CDF4F88839983AA83BB8324967F
:102BD00088839983AA83BB83DF01A85BBF4F48E743
:102BE00050E060E070E04D935D936D937C9313979C
:102BF00014961C9211961C9211961C9211961C927E
:102C0000119644E650E060E070E04D935D936D9363
:102C10007C93139714961C9211961D921D921D92EF
:102C20001C92139714961C9211961D921D921D9240
:102C30001C92139714961D921D921D921C9213972D
:102C400014961D921D921D921C92139714961C921D
:102C500011961D921D921D921C92139714961D920F
:102C60001D921D921C92139714961D921D921D92F7
:102C70001C92139714961D921D921D921C921397ED
:102C800014961D921D921D921C92139714961D92DC
:102C90001D921D921C92139714961D921D921D92C7
:102CA0001C92139714961D921D921D921C921397BD
:102CB00014961C9211961C9211961C9211961C92BD
:102CC00011961C9211961C9211961C9211961C92B0
:102CD00011961C9211961C9211961C92128E118EB6
:102CE000148E138E168E158E10A2178E12A211A29C
:102CF00014A213A216A215A210A617A2119681E77C
:102D000092E111969C938E93129611961C921E92AC
:102D100012968CE692E111969C938E9312961196E0
:102D20001C921E92129687E692E111969C938E93C6
:102D3000129611961C921E92129682E692E18D9343
:102D40009C93E056FF4F11821082DF91CF9108953E
:102D500008958FEF9FEF08950895089508950895B9
:102D6000089508950895089508950895089508957B
:102D7000089508950895089508950895089508956B
:102D800008958091AB099091AC09892B41F481E0C1
:102D900090E00E948B5C9093AC098093AB0980918A
:102DA000AB099091AC0908950F931F93CF93DF93D4
:102DB0008B01E7DFF801C2A1D3A1868D978D853005
:102DC000910529F14CF40497B1F090E080E0DF9197
:102DD000CF911F910F9108958630910511F10B97B6
:102DE000A1F76BE070E088ED9FE00E947A0BBE01D6
:102DF00088ED9FE009C064E070E08FEC9FE00E94E6
:102E00007A0BBE018FEC9FE00E94FE0ADECF65E0E8
:102E100070E082ED9FE00E947A0BBE0182ED9FE0A0
:102E2000F3CF66E070E085ED9FE00E947A0BBE0173
:102E300085ED9FE0E9CF8091A7099091A809892BA2
:102E4000A9F48CE890E00E948B5CFC0131969C0117
:102E50002A5B3F4F1192DF01AB5BBF4F1C92E21721
:102E6000F307C1F79093A8098093A7098091A70958
:102E70009091A80908954F925F926F927F92AF92BE
:102E8000BF92CF92DF92EF92FF920F931F93CF9357
:102E9000DF93EB01D0DF8C01CAA8DBA84EA45FA4AE
:102EA00068A879A8AEA0BFA0EE8CFF8C4AA15BA158
:102EB0009601B701B7D8C301B2010E94C10A9601B9
:102EC000A501B701C801AED890E080E0DF91CF91B5
:102ED0001F910F91FF90EF90DF90CF90BF90AF9038
:102EE0007F906F905F904F900895CF93DF93EB01A9
:102EF000A2DF6AA98E8D0E94170A90E080E0DF9120
:102F0000CF910895CF93DF93EB0195DF2AA93BA9D9
:102F10004AA15BA16E8D7F8D85D890E080E0DF9126
:102F2000CF9108958091A0099091A109892BE1F595
:102F300085E390E00E948B5CFC0181E090E0A0E0E2
:102F4000B0E080839183A283B38384839583A68337
:102F5000B78380879187A287B387158614861686E4
:102F60001786108A118A128A138A148A158A168A79
:102F7000178A108E118E138E128E12A213A214A213
:102F800015A217A216A210A611A612A613A614A681
:102F900015A616A617A610AA11AA12AA13AA14AA51
:102FA000F093A109E093A0098091A0099091A10953
:102FB0000895CF93DF93B6DFEC0185E40E94C20948
:102FC00021E0892B09F420E02C8FACDFEC0184E4B4
:102FD0000E94C20921E0892B09F420E02D8FA2DF95
:102FE000EC0183E40E94C20921E0892B09F420E06E
:102FF0002E8F98DFEC0182E40E94C20921E0892B28
:1030000009F420E02F8F8EDFEC0181E40E94C209D9
:1030100021E0892B09F420E028A384DFEC0180E47F
:103020000E94C20921E0892B09F420E029A3DF9145
:10303000CF91089577DFBDCF75DFFC0114AA90E032
:1030400080E00895FC0101900020E9F73197AF017D
:10305000481B590BBC0189E49EE00C9427088F9211
:103060009F92AF92BF920F931F93CF93DF93CDB7F1
:10307000DEB7A1970FB6F894DEBF0FBECDBF19A281
:10308000423008F44AE08E010F5D1F4F842E912CD0
:10309000B12CA12CA50194010E946263E62FB90115
:1030A000CA01EA30ECF4E05DD801EE938D01232BE8
:1030B000242B252B79F790E080E0109711F0CD01BB
:1030C000C1DFA1960FB6F894DEBF0FBECDBFDF9172
:1030D000CF911F910F91BF90AF909F908F900895C7
:1030E000E95CE2CFAFCF882319F08CEF98E0FACFFC
:1030F00085EF98E0FCCFFC0180819181009711F071
:103100000C94275D08950C94275D0C94275D0C9416
:10311000275D0C94275D0C94275D0C94275D0C941F
:10312000275D0C94275D0C94275D0C94275D0C940F
:10313000275D0C94275D0C94275D0C94275D0C94FF
:10314000275D0C94275D0C94275D0C94275D0C94EF
:10315000275D0C94275D0C94275D0C94275D0C94DF
:10316000275DCF92DF92EF92FF92CF93DF9397FF8D
:1031700018C06B017C018DE20E940809EC016627F2
:103180007727CB016C197D098E099F094AE067DF1B
:103190008C0F9D1FDF91CF91FF90EF90DF90CF902C
:1031A00008954AE0DF91CF91FF90EF90DF90CF90AC
:1031B00056CFBC01990F880B990BD3CFCF93DF93D8
:1031C000EC018DEA93E08EDF6AA17BA18CA19DA129
:1031D000C8DF82EA94E0DF91CF9184CF0F931F93F1
:1031E000CF93DF938C01EB018FE893E07BDF84E9E1
:1031F00097E078DFF80184810E940809CE01D9DFC9
:1032000091DEDF91CF911F910F91D8CFEF92FF9276
:103210000F931F93CF93DF93182F092F7B01611515
:10322000710569F50E94C20931E020E0019709F0BB
:1032300030E0C32FD22F82E0E816F10408F045C039
:1032400080EB93E04FDF84E997E04CDF84EB93E081
:1032500049DF812F902FADDF84E997E043DF8FE1D5
:1032600097E040DFCE01A5DF5DDEA8DF90E080E0E3
:10327000DF91CF911F910F91FF90EF900895D0E0D3
:10328000C0E061307105B9F6812F163310F08AEC79
:10329000810F20917B00982F9870277F922B90931D
:1032A0007B008770806480937C0080917A008064CA
:1032B00080937A0080917A0086FDFCCF809178001F
:1032C000C0917900DC2FC82FB6CF81E090E0D0CF3D
:1032D0000F931F93CF93DF93FC0120813181211540
:1032E0003105C1F1EC01822F0E94C20921E0892B36
:1032F00009F420E02B876A85261701F11E821F82C0
:10330000188619860E811F81288539858A819B81BF
:10331000AC81BD81081719072A073B07DCF081E063
:10332000682788810E94EA0986DD70E060E0888174
:103330009981DF91CF911F910F9168CF8E819F81ED
:10334000A885B9850196A11DB11D8E839F83A8878D
:10335000B987D8CFDF91CF911F910F910895CF9367
:10336000DF93EB0168DD6AA97BA98E8D9F8D4EDF0F
:1033700090E080E0DF91CF910895CF92DF92EF92BD
:10338000FF92CF93DF93EB01CB010E948E0788233E
:1033900051F1FE01EE0FFF1FEE0FFF1FEC53F54F33
:1033A000C080D180E280F38086EB93E09BDE84E9ED
:1033B00097E098DE84EB93E095DECE01FADE84E9B7
:1033C00097E090DE8FE197E08DDEC701B601C9DEA0
:1033D000A9DDF4DE90E080E0DF91CF91FF90EF90E7
:1033E000DF90CF9008958AEB93E07CDEF3CF0F93CC
:1033F0001F93CF93DF938C01D0E0C0E0CE010E94F9
:103400008E07882319F0BE01C801B7DF2196C13E9F
:10341000D105A1F7DF91CF911F910F9108958CED08
:1034200093E060DE80E492E05DDE88E092E05ADEC8
:1034300081EE93E057DE76DDC1DE90E080E0089516
:10344000CF93DF93EC018BEE93E04CDE8FEE93E0B5
:1034500049DE8C8D48DE83EF93E044DE8D8D43DEC4
:1034600087EF93E03FDE8E8D3EDE8BEF93E03ADE1A
:103470008F8D39DE8FEF93E035DE88A134DE83E077
:1034800094E030DE89A12FDECE01DF91CF9196CE80
:1034900049DDD6CF87E094E025DE44DD8ADD42DDDC
:1034A000CFDFC9DC70E060E088E090E0AFDEC3DC35
:1034B00070E060E089E090E0A9DEBDDC70E060E0F3
:1034C0008AE090E0A3DEB7DC70E060E08DE090E0A1
:1034D0009DDE90E080E008954F925F926F927F9220
:1034E0008F929F92AF92BF92CF92DF92EF92FF9214
:1034F0000F931F93CF936B017C01742EAC019B0142
:103500000E949564882391F08EE094E0CF911F9102
:103510000F91FF90EF90DF90CF90BF90AF909F9072
:103520008F907F906F905F904F908CCD46015701A8
:10353000E894B7F82FEF3FEF4FE75FE7C501B4011D
:103540000E94956481110DC02FEF3FEF4FE75FE7B9
:10355000C501B4010E94046218161CF482E194E0D3
:10356000D5CF2FEF3FEF4FE75FE4C701B6010E94D1
:10357000916418161CF486E194E0C8CF2FEF3FEF5A
:103580004FE75FECC701B6010E94046287FDF3CFED
:1035900020E030E0A901C701B6010E94046210E0FA
:1035A00000E087FF08C08DE20E9408098C01F7FA4D
:1035B000F094F7F8F094C0E060E070E080E09FE302
:1035C0007C1641F020E030E040E251E40E94F863D4
:1035D000CF5FF6CFA70196010E9494632B013C01B7
:1035E0000E9465644B015C014AE039DD7C01E00E1C
:1035F000F11ECC23A9F1C501B4010E9408629B0110
:10360000AC01C301B2010E9493634B015C018EE2E5
:103610000E940809E80EF91EC15010F120E030E0C8
:1036200040E251E4C501B4010E9469622B013C01F2
:103630000E9465644B01B12CA12C4AE0C501B40184
:103640000EDDE80EF91EC501B4010E9408629B015F
:10365000AC01C301B2010E9493634B015C01DCCF5A
:10366000C701CF911F910F91FF90EF90DF90CF9006
:10367000BF90AF909F908F907F906F905F904F9092
:1036800008958F929F92AF92BF92CF92DF92EF9266
:10369000FF920F931F93CF93DF93EC018BE492E0A3
:1036A00021DD84E694E01EDD6E018AE0C81A8EEF0B
:1036B000D80AC6010E941E110E940A624B015C01D9
:1036C000FE01E15BFC4F60817181828193810E94E8
:1036D0000A629B01AC01C501B4010E94F86342E09B
:1036E000FBDE84E794E0FEDC7E01EAEDEE1AEDEF0E
:1036F000FE0AC7010E941E110E940A624B015C0172
:10370000FE01ED5AFC4F60817181828193810E949C
:103710000A629B01AC01C501B4010E94F86342E05A
:10372000DBDE84E894E0DEDC8E010A5A1D4FC8011E
:103730000E941E110E940A624B015C01C95ADC4FB3
:10374000688179818A819B810E940A629B01AC0118
:10375000C501B4010E94F86342E0BEDEE3DB2EDD6A
:1037600087E492E0BFDC84E694E0BCDCF601A68D41
:10377000B78D20893189428953890E945C63F1DCCD
:1037800084E794E0AFDCF701A68DB78D20893189FD
:10379000428953890E945C63E4DC84E894E0A2DC03
:1037A000F801A68DB78D20893189428953890E94FD
:1037B0005C63D7DCB7DBDF91CF911F910F91FF9056
:1037C000EF90DF90CF90BF90AF909F908F90F6CC0E
:1037D000CF92DF92EF92FF92CF93DF93EC0188813B
:1037E0009981AA81BB81181619061A061B0644F096
:1037F00081E090E0A0E0B0E088839983AA83BB8356
:103800008C819D81AE81BF81181619061A061B0690
:1038100044F081E090E0A0E0B0E08C839D83AE8333
:10382000BF8388859985AA85BB85181619061A064F
:103830001B0644F081E090E0A0E0B0E08887998723
:10384000AA87BB878AE194E04DDC84E694E04ADCF9
:103850006E857F85888999890E940A626B017C0147
:10386000688179818A819B810E940A629B01AC01F7
:10387000C701B6010E94F86342E02EDE84E794E0BF
:1038800031DC6A897B898C899D890E940A626B017F
:103890007C016C817D818E819F810E940A629B01E7
:1038A000AC01C701B6010E94F86342E015DE84E86E
:1038B00094E018DC6E897F89888D998D0E940A6258
:1038C0006B017C01688579858A859B850E940A62E7
:1038D0009B01AC01C701B6010E94F86342E0FCDD28
:1038E000CE01DF91CF91FF90EF90DF90CF9066CC2B
:1038F00019DB6EDF90E080E008952F923F924F92A7
:103900005F926F927F928F929F92AF92BF92CF926F
:10391000DF92EF92FF920F931F93CF93DF93CDB778
:10392000DEB762970FB6F894DEBF0FBECDBF1C01A5
:103930007C012EE5E20EF11CD7014D915D916D9158
:103940007C91FC01EE59FF4FFE87ED8780819181CC
:10395000A281B3814101F6E68F0E911CF401208112
:10396000B2965F01810107571F4F222309F440C01F
:103970006101FCE4CF0ED11CF6012081F50120830A
:1039800021E0F8012083411551056105710591F48D
:103990002081F101E158FF4F6F01F101222309F469
:1039A0004FC040AC51AC62AC73ACF6014082518266
:1039B000628273829101265A3F4F3A8B298BF9011B
:1039C0004080518062807380235D3F4F59014816CB
:1039D00059066A067B06CCF5481759076A077B0724
:1039E000F4F1D4018C9181113AC0D5011C9242C1ED
:1039F00021E0481759076A077B070CF020E0F50122
:103A000020835A016B0177FF07C0AA24BB246501FC
:103A1000A41AB50AC60AD70A2C013D01B7FF07C090
:103A2000442455243201481A590A6A0A7B0A21E0C3
:103A3000A414B504C604D7040CF0A3CF20E0A1CF92
:103A400044A855A866A877A8B0CF84159505A60503
:103A5000B7053CF684179507A607B70714F6F501D6
:103A60008081882311F2D4018C9181110EC0F40160
:103A700080818111BACFD8016C9181E06827C101A2
:103A80000E94CD138111B1CF06C060E0C1010E9438
:103A9000CD138111ECCFD1019C962D913D914D918B
:103AA0005C919F9729833A834B835C83F8018081E3
:103AB000811106C1F101E05CFF4F80819181A281FB
:103AC000B3818D839E83AF83B887D101D4962D9126
:103AD0003D914D915C91D79729873A874B875C87B9
:103AE000ED85FE8580819181A281B381F701C0803F
:103AF000D180E280F380E989FA8940815181628135
:103B00007381F101E557FF4F108231961082310128
:103B1000FDE86F0E711CF3011082910122573F4F97
:103B2000F9011082329610824C015D01841A950AC7
:103B3000A60AB70AB7FE08C0B094A09490948094E7
:103B4000811C911CA11CB11C481759076A077B07EF
:103B50000CF0CAC0C41AD50AE60AF70AD501C40196
:103B6000B595A795979587958D879E87AF87B88BD5
:103B7000810100571F4F8C149D04AE04BF0408F050
:103B8000B8C0D101DC960D90BC91A02DBA8BA98B49
:103B900081E0F9018083D8018C93F1018489882325
:103BA00009F45CC00E94F20AD10152960D911C9159
:103BB000012E000C220B330B601B710B820B930B3D
:103BC000693E73408105910508F448C00E94F20ADD
:103BD000F101738B628B8EE194E084DA82E294E0EF
:103BE00081DA60E070E0CB01BCDA88E294E07ADA56
:103BF000C701B601B6DA8EE294E074DAC501B40109
:103C0000B0DA84E394E06EDA4AE06D857E858F85D4
:103C1000988925DA8BE394E065DA6D817E818F8166
:103C200098859FDA81E494E05DDA69857A858B85F1
:103C30009C8597DA87E494E055DA69817A818B81F3
:103C40009C818FDA8DE494E04DDA84E997E04ADADA
:103C500089899A89AEDA82EA94E044DAF101E1587E
:103C6000FF4F29893A89C901B0E0A0E080839183A0
:103C7000A283B38360E0C1010E94CD13882339F091
:103C8000F101E25AFF4F1082118212821382629672
:103C90000FB6F894DEBF0FBECDBFDF91CF911F915D
:103CA0000F91FF90EF90DF90CF90BF90AF909F90DB
:103CB0008F907F906F905F904F903F902F900895DE
:103CC000F10180A991A9A2A9B3A929813A814B81C7
:103CD0005C8182179307A407B5070CF0EBCE8983AC
:103CE0009A83AB83BC83E6CEC81AD90AEA0AFB0AD8
:103CF00035CF2D853E854F8558892C153D054E05C0
:103D00005F0508F450C08D819E81AF81B8858C1508
:103D10009D05AE05BF0544F4A981BA811196BA8B01
:103D2000A98B81E0F30136CFC701B6010E940A6278
:103D30002B013C016D817E818F8198850E940A62F2
:103D40009B01AC01C301B2010E94F8632B013C014D
:103D500069817A818B819C8129853A854B855C8537
:103D6000621B730B840B950B0E940A629B01AC01D2
:103D7000C301B2010E9469622B013C0169857A8509
:103D80008B859C850E940A629B01AC01C301B20134
:103D90000E9494630E9460647A8B698B81E0F101D8
:103DA000E557FF4FF7CED501C4012D813E814F81EC
:103DB0005885821B930BA40BB50BC816D906EA06CF
:103DC000FB065CF449815A814E5F5F4F5A8B498BE9
:103DD00081E0F101E357FF4FDDCEC501B4016C195D
:103DE0007D098E099F090E940A622B013C016D81A9
:103DF0007E818F8198850E940A629B01AC01C3017C
:103E0000B2010E94F8632B013C0169817A818B81A8
:103E10009C8129853A854B855C85621B730B840BDD
:103E2000950B0E940A629B01AC01C301B2010E9482
:103E300069622B013C0169857A858B859C850E948E
:103E40000A629B01AC01C301B2010E9494630E940B
:103E500060647A8B698B81E0F101E457FF4F9ACE61
:103E6000CF92DF92EF92FF920F931F93CF93DF9346
:103E70008C016A017B01EC01CC0FDD1F642FCE01A8
:103E80000E9428639927F7FC9A958F2D7E2D6D2D22
:103E9000CE0101960E9428630D58110903301105C7
:103EA00088F4B701992777FD9095892FCE01449624
:103EB0000E9428636F2D772788279927CE01459682
:103EC0000E94286390E080E0DF91CF911F910F91D5
:103ED000FF90EF90DF90CF9008954F925F926F9296
:103EE0007F928F929F92AF92BF92CF92DF92EF928A
:103EF000FF920F931F93CF93DF938C01EC01CC0FB4
:103F0000DD1FCE010E942063882E912CB12CA12CA4
:103F1000CE0101960E942063C82ED12CF12CE12CF9
:103F20000D5811090330110508F05AC0CE0144960E
:103F30000E942063482E512C712C612CCE01459695
:103F40000E942063082F10E030E020E08FEF481639
:103F500051046104710429F50F3F11052105310554
:103F600001F58FEF88169104A104B104C9F58FEF14
:103F7000C816D104E104F10499F56FEF7FEFCB018E
:103F8000DF91CF911F910F91FF90EF90DF90CF9035
:103F9000BF90AF909F908F907F906F905F904F9069
:103FA000089500381105210531053CF7FE2CED2C54
:103FB000DC2CCC24C701B601680D791D8A1D9B1D20
:103FC000320155244424640D751D861D971D302F24
:103FD000222711270027600F711F821F931FD0CF48
:103FE00000E010E09801412C512C320180E8C81605
:103FF000D104E104F104D4F2C0CFEF92FF920F9309
:104000001F93CF93DF938091A5099091A609892BE7
:1040100051F586E090E00E948B5C7C0190E080E0AE
:104020005CDF1616170654F1C7010E940B11D0E091
:10403000C0E0CE010E948E07882369F0FE01EE0FDA
:10404000FF1FEE0FFF1FEC53F54F4081518162813E
:104050007381CE0105DF2196C639D10551F7F09263
:10406000A609E092A5098091A5099091A609DF9182
:10407000CF911F910F91FF90EF90089583E090E012
:104080002CDF613071058105910531F504EC1AE0F2
:10409000D0E0C0E0CE010E948E078823B1F0CE01AF
:1040A0001CDFF80160837183828393836F3F7F4FAE
:1040B0008F4F9F4F51F4CE010E94D001F8014081F3
:1040C000518162817381CE01CBDE21960C5F1F4F3F
:1040D000C13ED105F9F6C3CFC7010E940B11BFCF76
:1040E000CF92DF92EF92FF920F931F93CF93DF93C4
:1040F0007C016B018A01E90180DFF601EE0FFF1FF1
:10410000EE0FFF1FEC53F54F80819181F7019183F2
:10411000808373DF000F111F000F111FF801EC5394
:10412000F54F81E0408151816281738141305105B9
:104130006105710509F080E0F70182875EDFCC0F31
:10414000DD1FCC0FDD1FCC53D54F88819981AA810B
:10415000BB81F70182839383A483B5831682178280
:1041600010861186DF91CF911F910F91FF90EF90F4
:10417000DF90CF900895CF93DF93EC012AEC30E0ED
:104180004BEC50E069EC70E0ABDF2EEC30E04FEC34
:1041900050E06DEC70E0CE010C96A2DF24ED30E033
:1041A00045ED50E063ED70E0CE01489699DF28EDD3
:1041B00030E049ED50E067ED70E0CE01849690DF8D
:1041C0002EED30E04FED50E06DED70E0CE01C09689
:1041D000DF91CF9185CFCF93DF938091A909909103
:1041E000AA09892BA1F48CE390E00E948B5CEC017E
:1041F000198218821D861C86198E188E1DA21CA27B
:1042000019AA18AAB8DFD093AA09C093A909809166
:10421000A9099091AA09DF91CF9108950F931F9357
:10422000CF93DF93EC01E9DEFE01EB57FC4F809169
:10423000800C9091810C91838083DFDEFE01E95731
:10424000FC4F8091840C9091850C91838083D5DE06
:10425000FE01E757FC4F8091880C9091890C918367
:104260008083CBDE8E0105571C4F6091A80C7091A6
:10427000A90C8091AA0C9091AB0C0E940A62F801E3
:104280006083718382839383B8DE0C5F1F4F6091DC
:10429000AC0C7091AD0C8091AE0C9091AF0C0E9463
:1042A0000A62F8016083718382839383A6DE0C5FC8
:1042B0001F4F6091B00C7091B10C8091B20C909135
:1042C000B30C0E940A62F801608371838283938336
:1042D00094DEFE01E656FC4F8091680C9091690CCB
:1042E000918380838ADEFE01E456FC4F80916C0C42
:1042F00090916D0C9183808380DEFE01E256FC4F2D
:104300008091700C9091710C9183808376DEFE0118
:10431000E056FC4F8091900C9091910CA091920CE2
:10432000B091930C80839183A283B38366DEFE01F8
:10433000EC55FC4F8091940C9091950CA091960CAB
:10434000B091970C80839183A283B38356DEFE01E4
:10435000E855FC4F8091980C9091990CA0919A0C83
:10436000B0919B0C80839183A283B38346DEFE01D0
:10437000E455FC4F8091B80C9091B90C91838083E7
:104380003CDEFE01E255FC4F8091BC0C9091BD0CCF
:104390009183808332DEFE01E055FC4F8091C00C9A
:1043A0009091C10C9183808328DEFE01EE54FC4F76
:1043B0008091D00C9091D10C918380831EDEFE0100
:1043C000EC54FC4F8091D40C9091D50C9183808358
:1043D00014DEFE01EA54FC4F8091D80C9091D90C68
:1043E000918380830ADE8091580C9091590CA091A2
:1043F0005A0CB0915B0CFE01E956FC4F0197A105E8
:10440000B10551F581E08083F8DD80915C0C9091DD
:104410005D0CA0915E0CB0915F0CFE01E856FC4F64
:104420000197A105B105D1F481E08083E6DD80919B
:10443000600C9091610CA091620CB091630CC75616
:10444000DC4F0197A105B10559F481E08883DF9124
:10445000CF911F910F9108951082D6CF1082E6CF91
:104460001882F5CF2F923F924F925F926F927F9278
:104470008F929F92AF92BF92CF92DF92EF92FF9274
:104480000F931F93CF93DF93CDB7DEB76F970FB620
:10449000F894DEBF0FBECDBF9B8F8A8FAEDDEA8D55
:1044A000FB8DEF55FD4F81E04091900B5091910BAA
:1044B0006091920B7091930B452B462B472B09F47F
:1044C00080E080839ADDEA8DFB8DEE55FD4F81E023
:1044D0004091940B5091950B6091960B7091970BB6
:1044E000452B462B472B09F480E0808386DDEA8D3F
:1044F000FB8DED55FD4F81E04091980B5091990B4C
:1045000060919A0B70919B0B452B462B472B09F41E
:1045100080E0808372DD8091E00B9091E10BA091AF
:10452000E20BB091E30BEA8DFB8DEC55FD4F8083E0
:104530009183A283B38361DD8091E40B9091E50BBD
:10454000A091E60BB091E70BEA8DFB8DE855FD4F8E
:1045500080839183A283B38350DD8091E80B909197
:10456000E90BA091EA0BB091EB0BEA8DFB8DE455C2
:10457000FD4F80839183A283B3833FDD8091E00B65
:104580009091E10BA091E20BB091E30BEA8DFB8DD2
:10459000E055FD4F80839183A283B3832EDD80910C
:1045A000E40B9091E50BA091E60BB091E70BEA8D3F
:1045B000FB8DEC54FD4F80839183A283B3831DDD7B
:1045C0008091EC0B9091ED0BA091EE0BB091EF0B65
:1045D000EA8DFB8DE854FD4F80839183A283B383E2
:1045E0000CDD8091B80B9091B90BA091BA0BB091F2
:1045F000BB0BEA8DFB8DE853FD4F80839183A28333
:10460000B383FBDC8091BC0B9091BD0BA091BE0BE2
:10461000B091BF0BEA8DFB8DE453FD4F80839183F6
:10462000A283B383EADC8091C00B9091C10BA0916F
:10463000C20BB091C30BEA8DFB8DE053FD4F80831D
:104640009183A283B383D9DC8091B80B9091B90B8D
:10465000A091BA0BB091BB0BEA8DFB8DEC52FD4FD4
:1046600080839183A283B383C8DC8091BC0B90913B
:10467000BD0BA091BE0BB091BF0BEA8DFB8DE85234
:10468000FD4F80839183A283B383B7DC8091C40BF9
:104690009091C50BA091C60BB091C70BEA8DFB8D15
:1046A000E452FD4F80839183A283B383A6DC809183
:1046B000C80B9091C90BA091CA0BB091CB0BEA8D9E
:1046C000FB8DE052FD4F80839183A283B38395DC01
:1046D0008091CC0B9091CD0BA091CE0BB091CF0BD4
:1046E000EA8DFB8DEC51FD4F80839183A283B383D0
:1046F00084DC8091D00B9091D10BA091D20BB09122
:10470000D30BEA8DFB8DE851FD4F80839183A2830B
:10471000B38373DC8091680B9091690BA0916A0B55
:10472000B0916B0BEA8DFB8DE451FD4F808391833B
:10473000A283B38362DC80916C0B90916D0BA0918E
:104740006E0BB0916F0BEA8DFB8DE051FD4F8083B6
:104750009183A283B38351DC8091700B9091710B94
:10476000A091720BB091730BEA8DFB8DEC50FD4F55
:1047700080839183A283B38340DC8091680B909106
:10478000690BA0916A0BB0916B0BEA8DFB8DE85021
:10479000FD4F80839183A283B3832FDC80916C0BC8
:1047A00090916D0BA0916E0BB0916F0BEA8DFB8D0C
:1047B000E450FD4F80839183A283B3831EDC8091FC
:1047C000740B9091750BA091760BB091770BEA8DDD
:1047D000FB8DFD5F80839183A283B3830EDCEA8D22
:1047E000FB8DEC5FFC4F81E02091400B3091410B41
:1047F0002130310509F080E08083FFDBEA8DFB8DFD
:10480000EB5FFC4F81E02091440B3091450B213050
:10481000310509F080E08083F0DBEA8DFB8DEA5FF3
:10482000FC4F81E02091480B3091490B213031053C
:1048300009F080E08083E1DBEA8DFB8DE65CFC4FD4
:1048400081E04091180B5091190B60911A0B7091F7
:104850001B0B452B462B472B09F480E08083CDDBD7
:10486000EA8DFB8DE55CFC4F81E040911C0B509183
:104870001D0B60911E0B70911F0B452B462B472B78
:1048800009F480E08083B9DBEA8DFB8DE45CFC4FAA
:1048900081E04091200B5091210B6091220B70918F
:1048A000230B452B462B472B09F480E08083A5DBA7
:1048B000EA8DFB8DE35CFC4F81E04091F00B509161
:1048C000F10B6091F20B7091F30B452B462B472BAC
:1048D00009F480E0808391DBEA8DFB8DE25CFC4F84
:1048E00081E04091F40B5091F50B6091F60B7091C3
:1048F000F70B452B462B472B09F480E080837DDBAB
:10490000EA8DFB8DE15CFC4F81E04091F80B50910A
:10491000F90B6091FA0B7091FB0B452B462B472B43
:1049200009F480E0808369DBEA8DFB8DE05CFC4F5D
:1049300081E02091280B3091290B2130310509F0BD
:1049400080E080835ADBEA8DFB8DEF5BFC4F81E0DA
:1049500020912C0B30912D0B2130310509F080E096
:1049600080834BDBEA8DFB8DEE5BFC4F81E0209179
:10497000300B3091310B2130310509F080E080831C
:104980003CDB8091F00A9091F10AA091F20AB0917B
:10499000F30AEA8DFB8DED5BFC4F80839183A2834C
:1049A000B3832BDB8091F40A9091F50AA091F60A6B
:1049B000B091F70AEA8DFB8DE95BFC4F8083918310
:1049C000A283B3831ADB8091F80A9091F90AA0912F
:1049D000FA0AB091FB0AEA8DFB8DE55BFC4F808300
:1049E0009183A283B38309DBEA8DFB8DE25DFC4FEB
:1049F00081E04091000B5091010B6091020B70918E
:104A0000030B452B462B472B09F480E08083F5DA16
:104A1000EA8DFB8DE15DFC4F81E04091040B5091EC
:104A2000050B6091060B7091070B452B462B472B0E
:104A300009F480E08083E1DAEA8DFB8DE05DFC4FD4
:104A400081E04091080B5091090B60910A0B709125
:104A50000B0B452B462B472B09F480E08083CDDAE6
:104A60008091F80C9091F90CA091FA0CB091FB0C8C
:104A7000EA8DFB8DE95FFC4F80839183A283B38332
:104A8000BCDA8091FC0C9091FD0CA091FE0CB091D1
:104A9000FF0CEA8DFB8DE55FFC4F80839183A28341
:104AA000B383ABDA8091000D9091010DA091020DBE
:104AB000B091030DEA8DFB8DE15FFC4F8083918304
:104AC000A283B3839ADAEA8DFB8DEF5CFC4F81E021
:104AD0002091580B3091590B2130310509F080E0BD
:104AE0008083EA8DFB8DEE5CFC4F1082EA8DFB8D9E
:104AF000ED5CFC4F108281DAEA8DFB8DEC5CFC4FA3
:104B000081E02091540B3091550B2130310509F093
:104B100080E08083EA8DFB8DEB5CFC4F1082EA8D98
:104B2000FB8DEA5CFC4F108268DAEA8DFB8DE95C54
:104B3000FC4F81E02091780B3091790B21303105C9
:104B400009F080E0808359DAEA8DFB8DE85CFC4F48
:104B500081E020917C0B30917D0B2130310509F0F3
:104B600080E080834ADAEA8DFB8DE75CFC4F81E0D0
:104B70002091800B3091810B2130310509F080E0CC
:104B800080833BDAEA8DFB8DED5EFC4F81E0209166
:104B9000080D3091090D2130310509F080E0808346
:104BA0002CDAEA8DFB8DEC5EFC4F81E020910C0D40
:104BB00030910D0D2130310509F080E080831DDA40
:104BC000EA8DFB8DEB5EFC4F81E02091100D309162
:104BD000110D2130310509F080E080830EDA8091DB
:104BE000480D9091490DA0914A0DB0914B0DEA8D61
:104BF000FB8DEA5EFC4F80839183A283B383FDD952
:104C000080914C0D90914D0DA0914E0DB0914F0D96
:104C1000EA8DFB8DE65EFC4F80839183A283B38394
:104C2000ECD98091500D9091510DA091520DB09101
:104C3000530DEA8DFB8DE25EFC4F80839183A2834E
:104C4000B383DBD98091780D9091790DA0917A0D85
:104C5000B0917B0DEA8DFB8DEE5DFC4F80839183DF
:104C6000A283B383CAD98091780D9091790DA091D8
:104C70007A0DB0917B0DEA8DFB8DEA5DFC4F808350
:104C80009183A283B383B9D98091780D9091790DE6
:104C9000A0917A0DB0917B0DEA8DFB8DE65DFC4F06
:104CA00080839183A283B383A8D90A8D1B8D015B76
:104CB0001C4F8091A00B9091A10BA091A20BB091E1
:104CC000A30BF80180839183A283B38396D9EA8CE6
:104CD000FB8CFDEAEF1AFCEFFF0A8091A40B909188
:104CE000A50BA091A60BB091A70BF7018083918330
:104CF000A283B38382D98091A80B9091A90BA09134
:104D0000AA0BB091AB0BCA8CDB8CF9EACF1AFCEF83
:104D1000DF0AF60180839183A283B383F801408187
:104D2000518162817381141615061606170644F028
:104D300041E050E060E070E0408351836283738320
:104D4000F7014081518162817381141615061606A0
:104D5000170644F041E050E060E070E0408351838A
:104D600062837383181619061A061B064CF081E03D
:104D700090E0A0E0B0E0F60180839183A283B3834A
:104D80000E949217FC01D6018D909D90AD90BC9031
:104D9000D7014D915D916D917C91D8010D911D913F
:104DA0002D913C9100831183228333834483558367
:104DB0006683778380869186A286B386EA8DFB8D93
:104DC0007096FA83E983EA8DFB8DED5EFC4F80805F
:104DD0008B82EA8DFB8DE95FFC4F408051806280C1
:104DE0007380EA8DFB8DE95CFC4F90809A86EA8D9A
:104DF000FB8DE05CFC4FA080AC82EA8DFB8DEF5C0C
:104E0000FC4FB080BD82EA8DFB8DEC5CFC4F2081B5
:104E10002E83EA8DFB8DE35CFC4F80818E87EA8DCB
:104E2000FB8DE65CFC4F90819A8BEA8DFB8DEC5FED
:104E3000FC4F2080EA8DFB8DEF55FD4F3080EA8DD1
:104E4000FB8DED5BFC4F80809180A280B380EA8D6A
:104E5000FB8DE451FD4F80819181A281B381EA8D68
:104E6000FB8DE052FD4FC080D180E280F380EA8D5F
:104E7000FB8DE853FD4F4081518162817381EA8D42
:104E8000FB8DEC55FD4F0081118122813381EA8D2C
:104E9000FB8D04AF15AF26AF37AFEC5BFF4F408300
:104EA000518362837383EA8DFB8DE05BFF4F8083C8
:104EB0009183A283B383EA8DFB8DE05CFF4F008377
:104EC000118322833383EA8DFB8DE85BFF4F4083A0
:104ED000518362837383EA8DFB8DEC5AFF4F80838D
:104EE0009183A283B383EA8DFB8DE45BFF4FC08285
:104EF000D182E282F382EA8DFB8DE85AFF4F8082F5
:104F00009182A282B382EA8DFB8DE45AFF4F3082F8
:104F1000EA8DFB8DE35AFF4F2082EA89AA8DBB8D73
:104F2000D996EC93D997FE85DA96FC93DA978C8024
:104F3000DB968C9280E490E0A0E0B0E0EA8DFB8DFF
:104F4000E05AFF4F80839183A283B383EA8DFB8D68
:104F5000E25AFF4F9E809082EA8DFB8DE15AFF4F0F
:104F6000AD80A082EA8DFB8DEC59FF4FBA84B082F0
:104F7000EA8DFB8DEB59FF4F408251826282738232
:104F8000EA8DFB8DE759FF4F2B812083AA8DBB8DC6
:104F900099968D919C919A978633910509F0E6C276
:104FA0008AE492E1FD01EE55FF4F918380833296B2
:104FB000118210828CE492E136969183808332963E
:104FC00011821082EA8DFB8D87A590A94A97D1F4B2
:104FD0008EE592E1EA55FF4F91838083EA8DFB8D48
:104FE000E855FF4F1182108280E692E1EA8DFB8D39
:104FF000E255FF4F91838083EA8DFB8DE055FF4F93
:10500000118210820A8D1B8D0E541F4FEA8DFB8D6D
:10501000EC5EFC4F80808B82EA8DFB8DE55FFC4F60
:1050200080819181A281B3818A879B87AC87BD876C
:10503000EA8DFB8DE85CFC4F90819C83EA8DFB8DB3
:10504000EF5BFC4FA081AD83EA8DFB8DEE5CFC4FE6
:10505000B081BE83EA8DFB8DEB5CFC4F80808E8639
:10506000EA8DFB8DE25CFC4F2080EA8DFB8DE55CD8
:10507000FC4F3080EA8DFB8DEB5FFC4F3081EA8D79
:10508000FB8DEE55FD4F2081EA8DFB8DE95BFC4FDA
:105090004081518162817381EA8DFB8DE051FD4F2A
:1050A00080819181A281B381EA8DFB8DEC51FD4F0E
:1050B000C080D180E280F380EA8DFB8DE453FD4F08
:1050C00080809180A280B380EA8DFB8DE855FD4FF2
:1050D0004080518062807380F80144A655A666A680
:1050E00077A684AA95AAA6AAB7AAEA8DFB8DEE5048
:1050F000FF4F80839183A283B383F80140AA51AA12
:1051000062AA73AA80AE91AEA2AEB3AEEA8DFB8D59
:10511000EA50FF4F80839183A283B383D801DC964A
:10512000CD92DD92ED92FC92DF97EA8DFB8DE650F9
:10513000FF4F4083518362837383EA8DFB8DE2507E
:10514000FF4F2083EA8DFB8DE150FF4F308399960E
:105150003C9299979A962C929A97ED819B96EC9314
:1051600080E490E0A0E0B0E0EA8DFB8DEE5FFE4FC2
:1051700080839183A283B383EA8DFB8DF3958E8424
:105180008082EA8DFB8DEF5FFE4F9E809082EA8DDC
:10519000FB8DEA5FFE4FAC80A082EA8DFB8DE95F5C
:1051A000FE4F8A859B85AC85BD8580839183A283D4
:1051B000B383EA8DFB8DE55FFE4F9B819083D80121
:1051C00059968D919C918633910509F001C28AE42C
:1051D00092E1EA8DFB8DEC5BFE4F91838083EA8D3B
:1051E000FB8DEA5BFE4F118210828CE492E1EA8D26
:1051F000FB8DE45BFE4F91838083EA8DFB8DE25B48
:10520000FE4F11821082F801878D90A14A97E1F438
:105210008EE592E1EA8DFB8DE85BFE4F9183808302
:10522000EA8DFB8DE65BFE4F1182108280E692E1F3
:10523000EA8DFB8DE05BFE4F91838083EA8DFB8DD1
:10524000EE5AFE4F11821082EA8CFB8CFCEAEF1AB8
:10525000FEEFFF0AEA8DFB8DEB5EFC4F80808B82B8
:10526000EA8DFB8DE15FFC4F80819181A281B3814A
:105270008A879B87AC87BD87EA8DFB8DE75CFC4FF7
:1052800090819C83EA8DFB8DEE5BFC4F3080EA8D34
:10529000FB8DED5CFC4FA081AD83EA8DFB8DEA5C5C
:1052A000FC4F2080EA8DFB8DE15CFC4FC080EA8DD5
:1052B000FB8DE45CFC4FD080EA8DFB8DEA5FFC4FF8
:1052C0003081EA8DFB8DED55FD4F2081EA8DFB8D00
:1052D000E55BFC4F80809180A280B3808E829F82AC
:1052E000A886B986EA8DFB8DFD5F80819181A281C0
:1052F000B3818E879F87A88BB98BEA8DFB8DEC508D
:10530000FD4F80809180A280B3808C8E9D8EAE8E6A
:10531000BF8EEA8DFB8DE851FD4F80819181A28186
:10532000B3818A8B9B8BAC8BBD8BEA8DFB8DE4525A
:10533000FD4F80819181A281B381EA8DFB8DE05385
:10534000FD4F4080518062807380EA8DFB8DE85470
:10535000FD4F4081518162817381EA8DFB8DE4555F
:10536000FD4F80809180A280B380F70184A695A62E
:10537000A6A6B7A644AA55AA66AA77AAEA8DFB8D67
:10538000EC56FE4F8C8C9D8CAE8CBF8C80829182B3
:10539000A282B382F70140AB51AB62AB73AB80AF7B
:1053A00091AFA2AFB3AFEA8DFB8DE856FE4F8E846E
:1053B0009F84A888B98880829182A282B3828A89D8
:1053C0009B89AC89BD89F70184AF95AFA6AFB7AF14
:1053D000EA8DFB8DE456FE4F8E809F80A884B984B1
:1053E00080829182A282B382EA8DFB8DE056FE4FCD
:1053F0002083EA8DFB8DEF55FE4F3083D7019996C0
:10540000DC9299979A96CC929A979B963C9280E4DC
:1054100090E0A0E0B0E0EA8DFB8DEC55FE4F80837C
:105420009183A283B383EA8DFB8DEE55FE4F2082DC
:10543000EA8DFB8DED55FE4FBD81B083EA8DFB8D6E
:10544000E855FE4F8C808082EA8DFB8DE755FE4F3C
:105450008A859B85AC85BD8580839183A283B38338
:10546000EA8DFB8DE355FE4F9B819083D7015996C2
:105470008D919C918633910509F0D2C08AE492E126
:10548000EA8DFB8DEA51FE4F91838083EA8DFB8D7F
:10549000E851FE4F118210828CE492E1EA8DFB8D7F
:1054A000E251FE4F91838083EA8DFB8DE051FE4FE8
:1054B00011821082F701878D90A14A97E1F48EE561
:1054C00092E1EA8DFB8DE651FE4F91838083EA8D58
:1054D000FB8DE451FE4F1182108280E692E1EA8D4D
:1054E000FB8DEE50FE4F91838083EA8DFB8DEC5057
:1054F000FE4F11821082EA8DFB8DE25DFC4F8081B0
:10550000882309F4B5C089819A810E943313EA8DFA
:10551000FB8DE15DFC4F8081882309F4AEC0C8019A
:105520000E9433138A8D9B8D805D9C4FDC018C9192
:10553000882309F4A6C0C7016F960FB6F894DEBFA2
:105540000FBECDBFDF91CF911F910F91FF90EF90D4
:10555000DF90CF90BF90AF909F908F907F906F9093
:105560005F904F903F902F900C9433138C339105A4
:10557000D9F48EE492E1EA8DFB8DEE55FF4F9183D5
:105580008083EA8DFB8DEC55FF4F1182108280E500
:1055900092E1EA8DFB8DE655FF4F91838083EA8D82
:1055A000FB8DE455FF4F0CCD8E9709F00BCD82E5B6
:1055B00092E1EA8DFB8DEE55FF4F91838083EA8D5A
:1055C000FB8DEC55FF4F1182108288E592E1E1CF0F
:1055D0008C33910589F48EE492E1EA8DFB8DEC5BCE
:1055E000FE4F91838083EA8DFB8DEA5BFE4F118233
:1055F000108280E592E1FBCD8E9709F004CE82E522
:1056000092E1EA8DFB8DEC5BFE4F91838083EA8D06
:10561000FB8DEA5BFE4F1182108288E592E1E7CDB7
:105620008C33910589F48EE492E1EA8DFB8DEA5189
:10563000FE4F91838083EA8DFB8DE851FE4F1182EE
:10564000108280E592E12ACF8E9709F033CF82E570
:1056500092E1EA8DFB8DEA51FE4F91838083EA8DC2
:10566000FB8DE851FE4F1182108288E592E116CF42
:1056700089819A810E94F1124ACFC8010E94F112D9
:1056800051CFC7016F960FB6F894DEBF0FBECDBFE6
:10569000DF91CF911F910F91FF90EF90DF90CF900E
:1056A000BF90AF909F908F907F906F905F904F9042
:1056B0003F902F900C94F112AF92BF92CF92DF9255
:1056C000EF92FF920F931F93CF93DF93EC018AE148
:1056D00090E09AA789A78BE190E09CA78BA789E12E
:1056E00090E09EA78DA78FE090E098AB8FA78EE10A
:1056F00090E09AAB89AB8EE090E09CAB8BAB85E4FD
:1057000090E09EAB8DAB84E490E098AF8FABFE0150
:10571000EE54FF4F80E290E0928F818F81E290E023
:10572000948F838F8FE190E0968F858F10A2178ED4
:1057300012A211A214A213A283E490E096A385A35F
:1057400082E490E090A787A3EE55FF4F83E290E0BC
:10575000928F818F84E290E0948F838F82E290E039
:10576000968F858F10A2178E12A211A214A213A2D7
:1057700081E490E096A385A380E490E090A787A3BE
:10578000E95BFE4F118210823296118210823296AE
:1057900011821082CE010E943222CE010E940E217F
:1057A000CE018A509E4F41E050E0FC0157A746A72A
:1057B000DE01AA5DBD4F24E030E09F963C932E931E
:1057C0009E975E01FAEAAF1AFDEFBF0A28E030E0CB
:1057D000F50137A726A72FEF3FEFFC013183208388
:1057E00035832483338322833783268362856087CE
:1057F0006385618711963C932E9315963C932E9367
:10580000149713963C932E93129717963C932E93CE
:1058100016971A966C911A9718966C9318971B9670
:105820006C911B9719966C931997F501318320831E
:10583000358324833383228337832683628560877D
:1058400063856187BE016E547C4FFB01608171816D
:105850008E0100561C4FF801C080D180E280F38099
:1058600006501109F80100811181FC01158F048F88
:10587000C48AD58AE68AF78A6130710509F04EC07C
:10588000378F268FCE018C549C4FFC0180819181F3
:105890009E012C553C4FF9014081518162817381F9
:1058A00028503109F901208131815D963C932E9376
:1058B0005C9754964D935D936D937C9357970197A6
:1058C00081F58FEF9FEF5F969C938E935E97DE013D
:1058D000AA54BC4F8D919C9111971E974D915D914B
:1058E0006D917C91C256DC4F28813981F501358F4D
:1058F000248F448B558B668B778B0197A9F48FEFA0
:105900009FEF978F868FDF91CF911F910F91FF901F
:10591000EF90DF90CF90BF90AF900895578F468F54
:10592000B1CF81E090E0CFCF81E090E0EACFBF92AD
:10593000CF92DF92EF92FF920F931F93CF93DF935B
:10594000EC010E94FD1FE090100CF090110C0E94E1
:10595000FD1FC090200CD090210C0E94FD1FB09024
:10596000380C1091390C0E94FD1F01E08091600DF0
:105970009091610D019709F000E02B2D312F121647
:10598000130614F021E030E0A601B701CE018C5AD5
:105990009E4F0E943E15DF91CF911F910F91FF9076
:1059A000EF90DF90CF90BF900895BF92CF92DF929B
:1059B000EF92FF920F931F93CF93DF93EC010E941E
:1059C000FD1FE0900C0CF0900D0C0E94FD1FC0908C
:1059D0001C0CD0901D0C0E94FD1FB090340C109137
:1059E000350C0E94FD1F01E080915C0D90915D0DD2
:1059F000019709F000E02B2D312F1216130614F039
:105A000021E030E0A601B701CE018E549F4F0E94E5
:105A10003E15DF91CF911F910F91FF90EF90DF9096
:105A2000CF90BF900895BF92CF92DF92EF92FF92F6
:105A30000F931F93CF93DF93EC010E94FD1FE09023
:105A4000080CF090090C0E94FD1FC090180CD0901B
:105A5000190C0E94FD1FB090300C1091310C0E9467
:105A6000FD1F01E08091580D9091590D019709F0AB
:105A700000E02B2D312F1216130614F021E030E038
:105A8000A601B701CE0140960E943E15DF91CF914D
:105A90001F910F91FF90EF90DF90CF90BF900895EE
:105AA0008F929F92AF92BF92CF92DF92EF92FF922E
:105AB000CF93DF937B010E94FD1FEC01F70182A0D1
:105AC00093A0A4A0B5A0C68CD78CE0A0F1A08A8139
:105AD0009B818F30F7E29F070CF049C001969B83B2
