:100000009DC10000CCC10000CAC10000C8C10000F1
:10001000C6C10000C4C10000C2C10000C0C10000D0
:10002000BEC10000BCC10000BAC10000B8C10000E0
:10003000B6C10000B4C10000B2C10000B0C10000F0
:10004000AEC100000C940A4DAAC10000A8C1000076
:100050000C94384DA4C10000A2C100000C94364C91
:100060009EC100000C94004C0C94D64B98C100002B
:1000700096C1000094C1000092C1000090C1000030
:100080000C94DC4C8CC100008AC1000088C10000C7
:1000900086C1000084C1000082C1000080C1000050
:1000A0007EC100007CC100000C94AE4C78C1000001
:1000B00076C1000074C1000072C100000C94804C35
:1000C0006EC100006CC100006AC1000068C1000080
:1000D00066C1000064C1000062C1000060C1000090
:1000E0005EC100004E414E494E495459494E46CDDD
:1000F000CCCC3D0AD7233C17B7D13877CC2B3295DF
:1001000095E6241FB14F0A000020410000C84200BC
:10011000401C4620BCBE4CCA1B0E5AAEC59D740086
:10012000407A10F35A00A0724E18090010A5D4E8C6
:100130000000E87648170000E40B54020000CA9A59
:100140003B000000E1F505000080969800000040AB
:10015000420F000000A086010000001027000000F0
:1001600000E803000000006400000000000A000036
:100170000000000100000000002C76D888DC674FEA
:100180000823DFC1DFAE59E1B1B796E5E3E453C61A
:100190003AE651997696E8E6C28426EB898C9B6212
:1001A000ED407C6FFCEFBC9C9F40F2BAA56FA5F4BC
:1001B00090055A2AF75C936B6CF9676DC11BFCE0E4
:1001C000E40D47FEF520E6B500D0ED902E03009437
:1001D0003577050080841E080000204E0A000000CC
:1001E000C80C333333330F986E12831141EF8D21D6
:1001F00014893BE65516CFFEE6DB18D1844B381B3D
:10020000F77C1D901DA4BBE424203284725E228101
:1002100000C9F124ECA1E53D2700002200250028BB
:10022000002B002E003100340002010000050108FF
:10023000010B01000020002300260029002C002FC4
:100240000032000001000003010601090100000A5C
:100250000B02090C0D0E080703040100000000004A
:10026000000000000000000000000000000000008E
:10027000000000000000000000121110000000004B
:10028000000000000000000000000000000000006E
:1002900000000000002100240027002A002D00306B
:1002A00000330001010000040107010A01010210EE
:1002B0002020080810204010204080020102010880
:1002C0000402010102040810204080804020100830
:1002D0000402018004020180402010080402010889
:1002E00004020101020408102040800102040810E9
:1002F00020408005050505070508080808020202D8
:10030000020A0A08080404040401010101010101B0
:10031000010303030303030303040707070C0C0C87
:100320000C0C0C0C0C02020202060606060606065F
:10033000060B0B0B0B0B0B0B0B00634D11241FBE9D
:10034000CFEFD1E2DEBFCDBF00E00CBF1AE0A0E0EE
:10035000B2E0E6E6FAEC00E00BBF02C007900D92B7
:10036000A232B107D9F724E1A2E2BAE001C01D929E
:10037000AF32B207E1F711E0CEE9D1E000E006C00C
:1003800021970109802FFE010E941C64CD39D107FD
:1003900080E00807A9F70E9439500C94316530CEEF
:1003A0009C01803E910508F0ADC5FC018827E45210
:1003B000FE4F8F4F0C941C64BC02C902D202DB02B8
:1003C000E402ED0282078207820782078207FA02AF
:1003D00007031403820721032A033303400349035D
:1003E00052035B0364036D03820776037F03880374
:1003F00082078207820791039A03A3038207820779
:10040000AC03B903820782078207C603D303E00364
:10041000ED03FA0303040C04820782078207150424
:100420001E0427048207340441044E048207820715
:1004300082075B046804750482048F049C04A90489
:10044000820782078207B604C304D004DD04EA04ED
:10045000F304FC0482078207820789059605A30539
:100460008207B005BD05CA05820782078207D70546
:10047000E005E90582078207820782078207820773
:100480008207F205FB05040682070D0616061F0605
:1004900082078207820728063506420682074F0632
:1004A0005C06690682078207820776068306900645
:1004B00082079D06A606AF06820782078207B80656
:1004C000C106CA068207820782078207820782075F
:1004D0008207820782078207820705050E05170536
:1004E00082078207820782078207820782078207C4
:1004F0008207820782078207820720052D053A05B9
:1005000082076E0577058005820782078207470507
:1005100054056105820782078207820782078207E6
:100520008207820782078207820782078207820783
:100530008207820782078207820782078207820773
:1005400082078207820782078207D306DC06E90654
:100550008207F606FF060C07820782078207190743
:1005600022072F0782073C074507520782078207A9
:1005700082075F076807750781E090E0A0E0B0E0C0
:100580008093460B9093470BA093480BB093490B75
:10059000089510924A0B10924B0B10924C0B109234
:1005A0004D0B089510924E0B10924F0B1092500B62
:1005B0001092510B08951092520B1092530B1092FF
:1005C000540B1092550B08951092560B1092570B26
:1005D0001092580B1092590B089583E090E0A0E020
:1005E000B0E080935A0B90935B0BA0935C0BB0939D
:1005F0005D0B089588E790E0A0E0B0E08093720B77
:100600009093730BA093740BB093750B089588E7C8
:1006100090E0A0E0B0E08093760B9093770BA093EE
:10062000780BB093790B089588E790E0A0E0B0E0F4
:1006300080937A0B90937B0BA0937C0BB0937D0BF4
:1006400008951092820B1092830B1092840B1092DB
:10065000850B08951092860B1092870B1092880BD1
:100660001092890B089581E090E0A0E0B0E08093C3
:100670008A0B90938B0BA0938C0BB0938D0B0895EA
:1006800010928E0B10928F0B1092900B1092910B78
:1006900008951092920B1092930B1092940B10925B
:1006A000950B08951092960B1092970B1092980B41
:1006B0001092990B089510929A0B10929B0B109226
:1006C0009C0B10929D0B089510929E0B10929F0B05
:1006D0001092A00B1092A10B08951092A20B1092F1
:1006E000A30B1092A40B1092A50B08951092AA0BC5
:1006F0001092AB0B1092AC0B1092AD0B08951092B0
:10070000AE0B1092AF0B1092B00B1092B10B08957C
:100710001092B20B1092B30B1092B40B1092B50B57
:1007200008951092C20B1092C30B1092C40B10923A
:10073000C50B08951092C60B1092C70B1092C80BF0
:100740001092C90B08951092CA0B1092CB0B109205
:10075000CC0B1092CD0B089581E090E0A0E0B0E0CA
:100760008093D60B9093D70BA093D80BB093D90B53
:10077000089581E090E0A0E0B0E08093DA0B9093E0
:10078000DB0BA093DC0BB093DD0B08958CE291E0C2
:10079000A0E0B0E08093EA0B9093EB0BA093EC0BFE
:1007A000B093ED0B08958CE291E0A0E0B0E080936F
:1007B000EE0B9093EF0BA093F00BB093F10B089519
:1007C0008CE291E0A0E0B0E08093F20B9093F30B09
:1007D000A093F40BB093F50B08958CE291E0A0E0A8
:1007E000B0E08093F60B9093F70BA093F80BB093C7
:1007F000F90B08951092FA0B1092FB0B1092FC0B60
:100800001092FD0B08951092FE0B1092FF0B1092A8
:10081000000C1092010C08951092020C1092030C1F
:100820001092040C1092050C08951092120C109264
:10083000130C1092140C1092150C08951092160CB3
:100840001092170C1092180C1092190C089581E058
:1008500090E0A0E0B0E080931A0C90931B0CA09362
:100860001C0CB0931D0C089585E090E0A0E0B0E072
:100870008093220C9093230CA093240CB093250C0E
:10088000089585E090E0A0E0B0E08093260C90937E
:10089000270CA093280CB093290C089589E190E0CF
:1008A000A0E0B0E080932A0C90932B0CA0932C0C2A
:1008B000B0932D0C089582E390E0A0E0B0E0809327
:1008C0003A0C90933B0CA0933C0CB0933D0C0895D4
:1008D00082E390E0A0E0B0E080933E0C90933F0C68
:1008E000A093400CB093410C089582E390E0A0E007
:1008F000B0E08093420C9093430CA093440CB093CF
:10090000450C089582E390E0A0E0B0E08093460CAF
:100910009093470CA093480CB093490C089582E340
:1009200090E0A0E0B0E080934A0C90934B0CA09331
:100930004C0CB0934D0C089582E390E0A0E0B0E041
:1009400080934E0C90934F0CA093500CB093510C8D
:10095000089582E390E0A0E0B0E08093520C909381
:10096000530CA093540CB093550C089580E991E07A
:10097000A0E0B0E08093620C9093630CA093640CB1
:10098000B093650C089580E991E0A0E0B0E0809319
:10099000660C9093670CA093680CB093690C089553
:1009A00080E991E0A0E0B0E080936A0C90936B0C3A
:1009B000A0936C0CB0936D0C089580E991E0A0E0D9
:1009C000B0E080936E0C90936F0CA093700CB0937A
:1009D000710C08951092720C1092730C1092740C9A
:1009E0001092750C08951092760C1092770C10925C
:1009F000780C1092790C089510927A0C10927B0C5E
:100A000010927C0C10927D0C089510928A0D109219
:100A10008B0D10928C0D10928D0D089510928E0DED
:100A200010928F0D1092900D1092910D08951092CA
:100A3000920D1092930D1092940D1092950D0895B1
:100A400083E090E0A0E0B0E08093CA0D9093CB0DDE
:100A5000A093CC0DB093CD0D089583E090E0A0E07D
:100A6000B0E08093CE0D9093CF0DA093D00DB093B6
:100A7000D10D089583E090E0A0E0B0E08093D20D26
:100A80009093D30DA093D40DB093D50D08958AE023
:100A900090E0A0E0B0E08093F20D9093F30DA0936E
:100AA000F40DB093F50D08958AE090E0A0E0B0E079
:100AB0008093F60D9093F70DA093F80DB093F90D78
:100AC00008958AE090E0A0E0B0E08093FA0D909362
:100AD000FB0DA093FC0DB093FD0D08951092DA0D5F
:100AE0001092DB0D1092DC0D1092DD0D0895109226
:100AF000DE0D1092DF0D1092E00D1092E10D0895C1
:100B00001092E20D1092E30D1092E40D1092E50D9B
:100B1000089588E592E0A0E0B0E080938A0C90937D
:100B20008B0CA0938C0CB0938D0C089588E592E00B
:100B3000A0E0B0E080938E0C90938F0CA093900C6B
:100B4000B093910C089588E592E0A0E0B0E0809326
:100B5000920C9093930CA093940CB093950C0895E1
:100B60008EE190E0A0E0B0E080939A0C90939B0C13
:100B7000A0939C0CB0939D0C08958EE190E0A0E0B2
:100B8000B0E080939E0C90939F0CA093A00CB09328
:100B9000A10C08958EE190E0A0E0B0E08093A20C5B
:100BA0009093A30CA093A40CB093A50C089510925D
:100BB000B20C1092B30C1092B40C1092B50C0895B4
:100BC0001092B60C1092B70C1092B80C1092B90C8F
:100BD00008951092BA0C1092BB0C1092BC0C10929B
:100BE000BD0C08951092DA0C1092DB0C1092DC0C04
:100BF0001092DD0C08951092DE0C1092DF0C109212
:100C0000E00C1092E10C08951092E20C1092E30CAB
:100C10001092E40C1092E50C08951092EA0C1092D8
:100C2000EB0C1092EC0C1092ED0C08951092EE0C5F
:100C30001092EF0C1092F00C1092F10C089510929B
:100C4000F20C1092F30C1092F40C1092F50C089523
:100C500085E090E0A0E0B0E08093020D9093030D5A
:100C6000A093040DB093050D089585E090E0A0E0F9
:100C7000B0E08093060D9093070DA093080DB093FC
:100C8000090D089585E090E0A0E0B0E080930A0DA2
:100C900090930B0DA0930C0DB0930D0D089584EB64
:100CA00095E1A0E0B0E08093120D9093130DA09316
:100CB000140DB093150D089584EB95E1A0E0B0E01C
:100CC0008093160D9093170DA093180DB093190DE6
:100CD000089584EB95E1A0E0B0E080931A0D909325
:100CE0001B0DA0931C0DB0931D0D089585E090E0A1
:100CF000A0E0B0E080932A0D90932B0DA0932C0DD3
:100D0000B0932D0D089585E090E0A0E0B0E08093D1
:100D10002E0D90932F0DA093300DB093310D0895AB
:100D200085E090E0A0E0B0E08093320D9093330D29
:100D3000A093340DB093350D089510923A0D109292
:100D40003B0D10923C0D10923D0D089510923E0DFA
:100D500010923F0D1092400D1092410D0895109287
:100D6000420D1092430D1092440D1092450D0895BE
:100D70001092520D1092530D1092540D1092550D69
:100D800008951092560D1092570D1092580D109212
:100D9000590D089510925A0D10925B0D10925C0D32
:100DA00010925D0D089510926A0E10926B0E1092C3
:100DB0006C0E10926D0E08958CE390E0A0E0B0E010
:100DC00080936E0E90936F0EA093700EB093710E81
:100DD000089581E090E0A0E0B0E08093720E9093DF
:100DE000730EA093740EB093750E089510927A0E40
:100DF00010927B0E10927C0E10927D0E08958CE363
:100E000090E0A0E0B0E080937E0E90937F0EA093E0
:100E1000800EB093810E089581E090E0A0E0B0E0F4
:100E20008093820E9093830EA093840EB093850ED0
:100E300008951092920E1092930E1092940E1092AA
:100E4000950E08958CE390E0A0E0B0E08093960EBC
:100E50009093970EA093980EB093990E089581E009
:100E600090E0A0E0B0E080939A0E90939B0EA09348
:100E70009C0EB0939D0E08951092A20E1092A30E98
:100E80001092A40E1092A50E08958CE390E0A0E0BD
:100E9000B0E08093A60E9093A70EA093A80EB093F7
:100EA000A90E089581E090E0A0E0B0E08093AA0E42
:100EB0009093AB0EA093AC0EB093AD0E089510922C
:100EC000BA0E1092BB0E1092BC0E1092BD0E089579
:100ED0008CE390E0A0E0B0E08093BE0E9093BF0E54
:100EE000A093C00EB093C10E089581E090E0A0E001
:100EF000B0E08093C20E9093C30EA093C40EB09343
:100F0000C50E0895220F331F220F331FF901EA5B2C
:100F1000F44F108211821282138208958C3691054B
:100F20000CF04EC089369105CCF4863391055CF502
:100F3000833391059CF48C319105BCF48931910582
:100F40006CF48E30910564F48B3091053CF400977D
:100F500029F097FD08C00297049728F481E00895CE
:100F60000F970997D8F380E00895863291053CF4F5
:100F7000843291059CF74F970397A8F7EFCF899795
:100F8000079788F7EBCF8435910574F48135910587
:100F90002CF7843491052CF48D339105FCF6C7971A
:100FA000EBCF87549109ECCF8E35910534F48B3516
:100FB0009105A4F685559109DFCF85569109DCCFBF
:100FC000843A91051CF5813A910544F680389105E3
:100FD00084F48D37910514F6863791053CF48337F8
:100FE00091050CF0BBCF8F569109C6CF8957910957
:100FF000C3CF803991053CF48D3891050CF0AECF0C
:1010000083589109B9CF81599109B6CF803D910597
:101010008CF48D3C91050CF0A1CF8E3A91053CF4F7
:101020008B3A91050CF09ACF855A9109A5CF895C2E
:101030009109A2CF8A3D91053CF4873D91050CF0C2
:101040008DCF835D910998CF8D5D910995CFAF923A
:10105000BF92CF92DF92EF92FF920F931F93CF93A5
:10106000DF936C017B018B01040F151FEB015E0107
:10107000AE18BF08C017D10759F06991D601ED919C
:10108000FC910190F081E02DC6011995892B79F72B
:10109000C501DF91CF911F910F91FF90EF90DF90ED
:1010A000CF90BF90AF900895FC01538D448D252FB4
:1010B00030E0842F90E0821B930B541710F0CF96F2
:1010C000089501970895FC01918D828D981761F024
:1010D000A28DAE0FBF2FB11D5D968C91928D9F5F3B
:1010E0009F73928F90E008958FEF9FEF0895FC011A
:1010F000918D828D981731F0828DE80FF11D858DCD
:1011000090E008958FEF9FEF0895FC01918D228D5F
:10111000892F90E0805C9F4F821B91098F739927E4
:1011200008958BEC9EE0F1DF21E0892B09F420E0AB
:10113000822F0895FC01A48DA80FB92FB11DA35AC9
:10114000BF4F2C91848D90E001968F739927848FE7
:10115000A689B7892C93A089B1898C91837080640A
:101160008C93938D848D981306C00288F389E02DAB
:1011700080818F7D80830895EF92FF920F931F935C
:10118000CF93DF93EC0181E0888F9B8D8C8D98133A
:101190001AC0E889F989808185FF15C09FB7F89446
:1011A000EE89FF896083E889F98980818370806492
:1011B00080839FBF81E090E0DF91CF911F910F91DD
:1011C000FF90EF900895F62E0B8D10E00F5F1F4FEC
:1011D0000F731127E02E8C8D8E110BC00FB607FCFC
:1011E000FACFE889F989808185FFF5CFCE01A2DFAA
:1011F000F2CFEB8DEC0FFD2FF11DE35AFF4FF08284
:101200009FB7F8940B8FEA89FB8980818062D0CFE9
:10121000682F8BEC9EE0B0CFCF93DF93EC01888DED
:101220008823B1F0AA89BB89E889F9898C9185FD69
:1012300003C0808186FD0CC00FB607FCF7CF8C91F0
:1012400085FFF2CF808185FFEDCFCE0173DFEACF3E
:10125000DF91CF91089580E090E0892B21F061DF4C
:1012600081110E94000080E090E0892B49F080E02D
:1012700090E0892B29F00E94000081110E9400005B
:1012800080E090E0892B49F080E090E0892B29F004
:101290000E94000081110E94000080E090E0892BF4
:1012A00049F080E090E0892B29F00E940000811134
:1012B0000C94000008958150823108F05AC0E82F44
:1012C000F0E08827E959F64F8F4F0C941C6487098A
:1012D0008B0979097F098309B9098E09940998094D
:1012E0009E09A209A609AC09B009B909B409BA094D
:1012F000BE09809180008F7780938000089580914F
:1013000080008F7DF9CF80918000877FF5CF84B5F5
:101310008F7784BD089584B58F7DFBCF8091B00019
:101320008F778093B00008958091B0008F7DF9CFC2
:10133000809190008F778093900008958091900025
:101340008F7DF9CF80919000877FF5CF8091A000AD
:101350008F778093A00008958091A0008F7DF9CFB2
:101360008091A000877FF5CF809120018F778093B7
:1013700020010895809120018F7DF9CF8091200177
:10138000877FF5CFCF93DF93282F30E0F901E35B20
:10139000FD4F8491F901E355FD4FD491F901ED50D2
:1013A000FD4FC491CC2399F0811185DFEC2FF0E043
:1013B000EE0FFF1FED5CFD4FA591B491EC91ED2375
:1013C00081E090E009F480E0DF91CF91089580E022
:1013D00090E0FACF1F93CF93DF93282F30E0F901ED
:1013E000E35BFD4F8491F901E355FD4FD491F90181
:1013F000ED50FD4FC491CC23A1F0162F81115BDF7E
:10140000EC2FF0E0EE0FFF1FE75EFD4FA591B491CA
:101410008FB7F894EC91111108C0D095DE23DC93BE
:101420008FBFDF91CF911F910895DE2BF8CFCF931F
:10143000DF9390E0FC01E355FD4F24918D509D4FCB
:10144000FC0184918823C9F090E0880F991FFC016A
:10145000ED56FD4FA591B491FC01E75EFD4FC5919E
:10146000D49161110DC09FB7F8948C91209582237F
:101470008C938881282328839FBFDF91CF91089583
:10148000623051F49FB7F8943C91822F809583236A
:101490008C93E8812E2BEFCF8FB7F894EC912E2B05
:1014A0002C938FBFEACFCF938CB58C608CBD8CB55D
:1014B0008F7D8CBD8CB58C7F8CBD8DB58E7F8DBDA9
:1014C000CFB7F8948091CA0E811123C0E8E2F3E00F
:1014D0008491E2EEF2E09491E82FF0E0EE0FFF1F2E
:1014E000ED56FD4FA591B491EC91E92319F461E01B
:1014F00085E370DF61E085E39ADF8CB580618CBDA8
:101500008CB580648CBD61E084E391DF61E083E3AE
:101510008EDF8091CA0E8F5F8093CA0ECFBFCF91AE
:1015200008958230910538F0880F991F880F991F10
:1015300005970197F1F708953FB7F8948091380A1D
:101540009091390AA0913A0AB0913B0A26B5A89B1E
:1015500005C02F3F19F00196A11DB11D3FBFBA2F45
:10156000A92F982F8827BC01CD01620F711D811D05
:10157000911D42E0660F771F881F991F4A95D1F78A
:1015800008958F929F92AF92BF92CF92DF92EF9287
:10159000FF926B017C01D0DF4B015C01C114D104CF
:1015A000E104F104B1F0C8DF681979098A099B09DF
:1015B000683E73408105910588F321E0C21AD10885
:1015C000E108F10888EE880E83E0981EA11CB11C8A
:1015D000E5CFFF90EF90DF90CF90BF90AF909F90BE
:1015E0008F9008952FB7F8946091340A7091350A5E
:1015F0008091360A9091370A2FBF0895CF92DF92DB
:10160000EF92FF92CF93DF93EC01603282E0780794
:10161000CCF5653B710514F064EB70E0898128E836
:1016200030E0281B310987FD3395220F331F220F2D
:10163000331F6901330FEE08FF088A8128E532E085
:10164000281B310987FD3395220F331F220F331FCB
:10165000032E000C440B550B2C193D094E095F0954
:10166000DB0177FF02C0B0E0A0E00E94B16224EB92
:1016700030E040E050E00E948B62C20ED31EE41EB8
:10168000F51EB601E881E03370F5298188E890E025
:10169000821B910927FD9395880F991F880F991F29
:1016A000681779077CF02A8188E592E0821B91090E
:1016B00027FD9395880F991F880F991F6817790741
:1016C0000CF4CB010297880F991F4FB7F8942E2F77
:1016D00030E0F901EE0FFF1FE20FF31FE054F04F6F
:1016E000928381834FBFDF91CF91FF90EF90DF9086
:1016F000CF9008951F93CF93DF93EC01162F88812D
:10170000803308F04DC061E0812F91DE8881282F61
:1017100030E0F901EE0FFF1FE20FF31FE054F04F2E
:101720001F736081607C612B608319821A822CE0B8
:10173000622F0E94FD63829FB001112430E020E0FF
:10174000AB01420F531FFA01EE0FFF1FE40FF51F0D
:10175000E054F04F908196FD16C02F5F3F4F2C3024
:10176000310571F7813009F51092800082E0809395
:1017700081001092850010928400B19A80916F00D0
:10178000826080936F00E8818E2F90E0FC01EE0F65
:10179000FF1FE80FF91FE054F04F808180648083C1
:1017A0008881DF91CF911F910895823061F410926A
:1017B000900080939100109295001092940088BB45
:1017C00080937100E0CF833069F41092A00082E032
:1017D0008093A1001092A5001092A40089BB809371
:1017E0007200D1CF8111CFCF1092200182E080937F
:1017F000210110922501109224018ABB809373006D
:10180000C2CFAF92BF92CF92DF92EF92FF920F932F
:101810001F93CF93DF936B017A01EC01C15DD54F2C
:1018200028813CE0389F8001399F100D1124A09041
:101830005010B12C27FF1FC0FB011182108288813C
:101840008F5F888388819801280F311D87FD3A9525
:10185000F6012A153B051CF488818C30BCF180818F
:101860009181049680349C4908F471C0F60180810E
:10187000918104966EC088819801280F311D87FDE3
:101880003A952A153B05DCF68881A801480F511DC1
:1018900087FD5A95FA01EE0FFF1FE40FF51FE05484
:1018A000F04F808186FFCBCF8881F801E80FF11DD2
:1018B00087FDFA95CF01EE0FFF1FE80FF91FE054E7
:1018C000F04F808160E08F7385DDB9CF8081918199
:1018D0002881A801420F511D27FD5A959A01FA014E
:1018E000EE0FFF1FE20FF31FE054F04F2181328112
:1018F000820F931FF7019183808388819801280FBD
:10190000311D87FD3A95F901EE0FFF1FE20FF31F1E
:10191000E054F04F808186FF21C08881080F111D9F
:1019200087FD1A95F801EE0FFF1FE00FF11FE0543D
:10193000F04F808161E08F73DF91CF911F910F9104
:10194000FF90EF90DF90CF90BF90AF9043CD80E4B9
:101950009CE9F701918380838FEF8883DF91CF919A
:101960001F910F91FF90EF90DF90CF90BF90AF90BD
:1019700008958EBD00000DB407FEFDCF8EB508950D
:10198000DF92EF92FF920F931F93CF93DF93EC01BF
:10199000D62E122F032FF42EE52E60E088851ADD57
:1019A0008D2D8068E6DF89878E2DE3DF8F2DE1DFC7
:1019B000802FDFDF812FDDDF61E088850BDD89850A
:1019C000DF91CF911F910F91FF90EF90DF900895DD
:1019D000FF920F931F93CF93DF93EC01F62E8A01B2
:1019E00062DD60E08885F6DC8F2DC3DF898780E0CB
:1019F000C0DF80E0BEDF80E0BCDF80E0BADF61E016
:101A00008885E8DC60E08885E5DC8F2DB2DF89879A
:101A100080E0AFDF90E0B0E0A0E0BA2FA92F982FD0
:101A20008827F80180839183A283B38380E0A1DFBC
:101A3000F8014081518162817381482B762F652F97
:101A4000542F4427408351836283738380E091DF66
:101A5000F8014081518162817381482B762F652F77
:101A6000542F4427408351836283738380E081DF56
:101A7000F8014081518162817381482B40835183F9
:101A80006283738361E08885A5DC8985DF91CF91CE
:101A90001F910F91FF9008952F923F924F925F9266
:101AA0007F928F929F92AF92BF92CF92DF92EF92EE
:101AB000FF920F931F93CF93DF9300D01F92CDB768
:101AC000DEB76C01762E49015A0117012801AE01DB
:101AD0004F5F5F4F7DDF89819A81AB81BC81882612
:101AE0009926AA26BB26A50194012E213321402345
:101AF0005521282739274A275B27672DC60140DF54
:101B0000F60181850F900F900F900F90DF91CF918C
:101B10001F910F91FF90EF90DF90CF90BF90AF900B
:101B20009F908F907F905F904F903F902F9008955F
:101B3000EF92FF920F931F93CF93DF93EC0184E01A
:101B4000689FF0011124E058FD4FE080F180028190
:101B50001381062E04C0EE0CFF1C001F111F0A94F7
:101B6000D2F7242F30E050E040E004C0220F331FB2
:101B7000441F551F6A95D2F76CE6CE018DDF89852B
:101B8000DF91CF911F910F91FF90EF900895EF9209
:101B9000FF920F931F93CF93DF93EC01E12CF12C75
:101BA0008701E394062E04C0EE0CFF1C001F111FDA
:101BB0000A94D2F7242F30E050E040E004C0220F16
:101BC000331F441F551F6A95D2F760E0CE0164DFD2
:101BD0008985DF91CF911F910F91FF90EF9008952C
:101BE000CF93DF93EC0161E0888521DC61E088859B
:101BF000F1DB59DC60E08885EDDB80E0BADE8987C7
:101C000080E0B7DE80E0B5DE80E0B3DE80E0B1DE0C
:101C100061E08885DF91CF91DDCB8F929F92AF926B
:101C2000BF92DF92EF92FF920F931F93CF93DF93B8
:101C3000EC017B015A01D22ED3DF45E088E0E816A3
:101C4000F10439F17CF447E082E0E816F10409F18F
:101C500046E084E0E816F104E1F0EA94EF2869F444
:101C600048E017C043E080E2E816F10491F03CF44C
:101C700044E080E1E816F10461F040E00AC042E08F
:101C800080E4E816F10429F041E080E8E816F10468
:101C9000A1F768E1CE014CDFB50190E080E00E9441
:101CA0005D6125ED34E045E352E40E94BE6120E031
:101CB00030E04AE754E40E944D6328EB3EE145E002
:101CC0005EE30E94BE614B015C0126E636E646EA11
:101CD0005EE30E944D6320E030E040E85FE30E9455
:101CE000E8620E94BA63603180F42CEE31E548E38B
:101CF0005EE3C501B4010E944D6320E030E040E89E
:101D00005FE30E94E8620E94BA63862F8F71262FDC
:101D100030E050E040E0542F432F322F222722277B
:101D20003F7144275527282B60E1CE0129DE0111A0
:101D30007DC041E060E0CE012ADF43E060E0CE01FB
:101D4000F7DE44E064E0CE01F3DE41E067E0CE017F
:101D5000EFDE42E06FE0CE01EBDE40E06EE0CE0170
:101D6000E7DE41E060E0CE01E3DE42E068E0CE0184
:101D7000DFDE41E06DE0CE01DBDE2FEF3FEFA901BA
:101D800063E1CE01FDDD2FEF3FEF4FE050E064E176
:101D9000CE01F6DD20E137E240E050E065E1CE0122
:101DA000EFDD41E063E1CE01C3DE41E062E1CE015F
:101DB000BFDE48E060E0CE01BBDEE12CF12C870104
:101DC000EA9424E630E040E050E06EE6CE0164DEC6
:101DD000E12CF12C0FEF13E020E030E048E050E080
:101DE0006EE6CE0159DE20E137E240E050E065E1E9
:101DF000CE01C6DD41E065E0CE01C9DE41E06BE029
:101E0000CE01C5DE4D2D60E1CE0192DE64E670E0CC
:101E100080E090E0DF91CF911F910F91FF90EF90C4
:101E2000DF90BF90AF909F908F90ABCB43E060E08E
:101E3000CE017EDE41E06FE0CE017ADE40E064E07C
:101E4000CE0176DE40E067E0CE0172DE41E06CE17B
:101E5000CE016EDE40E06EE0CE016ADE40E060E082
:101E6000CE0195DE40E063E1CE0162DE40E062E15A
:101E7000CE015EDEE12CF12C870120E030E044E071
:101E800050E060E7CE0108DE20E030E0A90160E725
:101E9000CE0102DEE12CFF24FA940FEF1FEF20E0C9
:101EA00031E040E050E060E7CE01F6DDE12CF12CBE
:101EB0008701EA9420E830E040E050E060E7CE019E
:101EC000EBDD41E062E0CE0162DE40E065E0CE01A4
:101ED0005EDE40E06BE0CE015ADE40E094CF0F932F
:101EE0001F93CF93DF938B01EA01AB01415051095E
:101EF0004534510508F0E9C02230310508F0E5C04D
:101F000046E4429FF001439FF00D1124E80FF91FB2
:101F1000E60FF71F81E080836C2F232B09F4D2C0DA
:101F200061E0802F84DA209749F460E0802F52DA54
:101F3000CE01DF91CF911F910F910895CF3FD10531
:101F400011F461E0BFC0F801E35BFD4FE491E150A3
:101F5000E23108F0B2C0F0E08827EE54F04F8F4F26
:101F60000C941C64C40FCB0FD00FDA0FE40F5D107C
:101F7000EE0FF60FFE0F081012101C102B1035106C
:101F80005D103F104910531084B5806884BDC7BDF3
:101F9000D0E0C0E0CDCF84B5806284BDC8BDF8CFAD
:101FA00080918000806880938000D0938900C093E6
:101FB0008800EECF80918000806280938000D09373
:101FC0008B00C0938A00E4CF80918000886080936A
:101FD0008000D0938D00C0938C00DACF8091B00048
:101FE00080688093B000C093B300D2CF8091B000DE
:101FF00080628093B000C093B400CACF80919000FB
:10200000806880939000D0939900C0939800C0CFCF
:1020100080919000806280939000D0939B00C09349
:102020009A00B6CF80919000886080939000D09302
:102030009D00C0939C00ACCF8091A00080688093ED
:10204000A0008091A0008F7B8093A000D093A90076
:10205000C093A8009DCF8091A00080628093A000D3
:10206000D093AB00C093AA0093CF8091A00088606A
:102070008093A000D093AD00C093AC0089CF809135
:102080002001806880932001D0932901C09328010A
:102090007FCF80912001806280932001D0932B011B
:1020A000C0932A0175CF8091200188608093200120
:1020B000D0932D01C0932C016BCF60E0C038D105C7
:1020C0000CF03FCF802F86D963CFC1E0D0E030CF76
:1020D000CF93DF93D0E0C0E0CE010E948E0788232B
:1020E00019F0CE010E94D0012196C13ED105A1F781
:1020F000DF91CF9108954F925F926F927F928F926E
:102100009F92AF92BF92CF92DF92EF92FF92CF93C6
:10211000DF93EC016C897D898E899F8988889988F5
:10212000AA88BB88CE8CDF8C0D2C000CEE08FF0833
:10213000603127E272078105910529F0161617060E
:1021400018061906ACF0A7019601C501B4010E945A
:10215000EE63DF91CF91FF90EF90DF90CF90BF9033
:10216000AF909F908F907F906F905F904F90089569
:102170000E945F6120E030E44CE156E40E944D6330
:102180002B013C01488E598E6A8E7B8EC501B401AD
:102190000E945F61A30192010E94BE614B015C013C
:1021A000C701B6010E945F619B01AC01C501B4018A
:1021B0000E94BE610E94B563CCCFFC0111821082E7
:1021C000138212821582148217821682108611865B
:1021D000128613861486158616861786108A118A2B
:1021E000128A138A108E118E128E138E158E148EF3
:1021F000178E168E10A211A212A213A214A215A25B
:1022000016A217A210A611A612A613A614A615A60A
:1022100081E090E097A786A780E197E2A0E0B0E098
:10222000848B958BA68BB78B08954F925F926F929C
:102230007F928F929F92AF92BF92CF92DF92EF9256
:10224000FF920F931F93CF93DF93EC014B018A0111
:102250005901CD88DE88EF88F88C260137014424A7
:102260005524662481E07822FE01ED57FF4F6081FE
:1022700071818281938124E630E040E050E00E9449
:10228000B762672B682B692BF1F48C859D859F873E
:102290008E878A859B859D878C87888599859B8776
:1022A0008A878E819F8199878887F80160817181F3
:1022B000828193810E94B5637F836E83F8011082CF
:1022C00011821282138245284628472859F4F7FCC8
:1022D00009C0CC24DD24EE24FEE7FF22CD28CE2841
:1022E000CF2881F020E030E040E85FE3F801608132
:1022F0007181828193810E94E962F8016083718318
:1023000082839383C25ADF4F88819981AA81BB81DE
:10231000F50180839183A283B38388819981AA8107
:10232000BB81F401808B918BA28BB38BDF91CF911A
:102330001F910F91FF90EF90DF90CF90BF90AF90E3
:102340009F908F907F906F905F904F900895889AA4
:102350000895889808958E9A08958E980895EBE0D0
:10236000F1E08081886080830895EBE0F1E0808176
:10237000877F80830895149A08951498089560E0E3
:10238000FC01878D27C860E0FC01818D23C861E0D6
:10239000FC01878D1FC861E0FC01818D1BC8CF93B4
:1023A000DF93EC01FC01EF56FF4F1082379781E07D
:1023B000808360E0898D0ED88BA19CA1892B29F0A8
:1023C00060E08F8DDF91CF9105C8DF91CF910895A7
:1023D000CF93DF93EC018FA10E94C2092AA5281791
:1023E000190621F48BA5DF91CF91089580E0FBCFF2
:1023F000CF93DF93EC018DA10E94C2092AA5281773
:10240000190621F48BA5DF91CF91089580E0FBCFD1
:10241000CF93DF93EC018B8DFE01E35BFF4F908147
:1024200061E0911101C060E00E94EA0989A1FE010A
:10243000E25BFF4F9081992331F0C15BDF4F9881C0
:1024400061E0911101C060E0DF91CF910C94EA0945
:10245000CF93DF93EC018B8DFE01E35BFF4F908107
:1024600060E0911101C061E00E94EA0989A1FE01CA
:10247000E25BFF4F9081992331F0C15BDF4F988180
:1024800060E0911101C061E0DF91CF910C94EA0905
:10249000CF93DF93EC0161E08D8D0E94EA09FE018C
:1024A000E25BFF4F8081882321F061E08BA10E94D5
:1024B000EA09C157DF4F1882DF91CF910895CF937A
:1024C000DF93EC01FC01E454FC4F1082EE58F1095B
:1024D0008081811103C0CE014096DADFFE01E15D0B
:1024E000FC4F8081811104C0CE018E549F4FD0DFFC
:1024F000FE01E05DFC4F8081811104C0CE018C5A49
:102500009E4FC6DF64E670E080E090E0DF91CF91FF
:1025100038C8CF93DF93EC0160E08D8D0E94EA090B
:10252000FE01E25BFF4F8081882321F060E08BA1F8
:102530000E94EA09C157DF4F81E08883DF91CF9184
:1025400008958F929F92AF92BF92CF92DF92EF92B7
:10255000FF920F931F93CF93FC01E65AFF4F4083E6
:102560005183628373833496408351836283738380
:1025700034960083118322833383DC01AA59BF4F31
:10258000EC925297CC91CC2351F018974C91411179
:1025900052C037FF56C01082118212821382DC01B2
:1025A000AB5ABF4F4D915D916D917C91139714166D
:1025B00015061606170634F514963C91332311F1CF
:1025C000C080D180E280F38046015701F7FE07C04A
:1025D0008824992454018C189D08AE08BF0848151A
:1025E00059056A057B0574F4F7FE07C07095609580
:1025F000509541955F4F6F4F7F4F4083518362836A
:102600007383C32FFC01ED58FF4F10821182128299
:10261000138289579F4F31E0FC0130838C2FCF917B
:102620001F910F91FF90EF90DF90CF90BF90AF90F0
:102630009F908F90089510161106120613060CF441
:10264000AACFC0E0ACCF0F931F93CF93DF93EC01E1
:10265000062F89A581110DC0CE01CADE182FCE012B
:10266000B7DE0111182F812FDF91CF911F910F91AC
:102670000895CE01ADDE182FCE01BADEF2CFCF9392
:10268000DF93EC01FC01ED57FF4F80819181A28126
:10269000B3810196A11DB11D80839183A283B38371
:1026A0003E9681E08083AE01425A5F4FFA018081FD
:1026B0009181A281B3819E0128573F4FF90120816A
:1026C000222309F440C00196A11DB11DFA018083A7
:1026D0009183A283B383FE01EC56FF4F20813181A9
:1026E000C901959587958C0F9D1F32970190F081B8
:1026F000E02D20FF08C0DC012D913C91E20FF31F7B
:102700000190F081E02D19958BA19CA1892BF9F006
:10271000FE01E856FF4F20813181C90195958795CB
:102720008C0F9D1FCA56DF4FE881F98120FF08C03A
:10273000DC012D913C91E20FF31F0190F081E02D1F
:10274000DF91CF9119940197A109B109BFCFDF9112
:10275000CF9108958F929F92AF92BF92CF92DF92C6
:10276000EF92FF920F931F93CF93DF93EC01FC0145
:10277000ED58FF4F60817181828193810E945D617C
:102780006B017C01FE01E05BFF4F60817181828102
:1027900093810E945F619B01AC0160E074E284E779
:1027A00099E40E944D634B015C01FE01E158FF4F2B
:1027B00060817181828193810E945D619B01AC0186
:1027C000C501B4010E944D634B015C018E010958A3
:1027D0001F4F20E030E040E05FE30E94BE61A701B0
:1027E00096010E94E9620E94BA63F80160837183D6
:1027F00082839383C558DF4FA5019401C701B601B9
:102800000E94E9620E94BA63688379838A839B830A
:10281000DF91CF911F910F91FF90EF90DF90CF90BC
:10282000BF90AF909F908F9008950F931F93CF9379
:10283000DF93FC01EF56FF4F20812223B9F07E97F2
:1028400000811181228133813896408151816281DA
:102850007381041715072607370710F1EC019FDD78
:10286000CE01DF91CF911F910F9174CFFC01E957F9
:10287000FF4F20812223A1F07497008111812281D2
:102880003381349640815181628173810417150729
:102890002607370728F0DF91CF911F910F91EFCED8
:1028A000DF91CF911F910F910895FC01E957FF4FE0
:1028B0002081222361F0749780819181A281B3816C
:1028C0000196A11DB11D80839183A283B3830895D6
:1028D0000F931F93FC01EA59FF4F2081211112C071
:1028E0003897008111812281338134964081518152
:1028F0006281738104171507260737074CF41F916F
:102900000F91A6CDFC01E45BFF4F20812111F7CF91
:102910001F910F917DCDAC014B5E5F4F6FE6FC01C7
:102920008081918155C8AF92BF92CF92DF92EF9292
:10293000FF920F931F93CF93DF93EC016B015A012A
:1029400079019A01AB01B7018881998166D98C819F
:10295000883531F49501A601B7018A819B815DD943
:10296000DF91CF911F910F91FF90EF90DF90CF906B
:10297000BF90AF900895CF93DF93EC018C818835A1
:10298000A9F586ED90E19983888385EB90E19B839F
:102990008A838BEC91E1FE01EE56FF4F9183808399
:1029A00032961182108287EC91E132969183808376
:1029B00032961182108283EC91E13296918380836A
:1029C0003296118210828FEB91E13296918380834F
:1029D0003296118210828881998102D98C81883542
:1029E00089F48A819B81DF91CF91FAC8893529F4D6
:1029F0008BEC90E199838883CCCF8A3551F680ECBB
:102A000090E1F8CFDF91CF910895CF93DF93FC0150
:102A1000DC0116968AE0ED0119928A95E9F781E0CA
:102A2000808B818B138A128A148A158A168A178AD8
:102A3000108E8CE291E0A0E0B0E084A795A7A6A755
:102A4000B7A780AB91ABA2ABB3AB42E350E060E081
:102A500070E044AB55AB66AB77AB40AF51AF62AF04
:102A600073AF44AF55AF66AF77AFEF01C05CDF4FD8
:102A700088839983AA83BB83249688839983AA83B6
:102A8000BB83DF01A85BBF4F48E750E060E070E028
:102A90004D935D936D937C93139714961C921196AE
:102AA0001C9211961C9211961C92119644E650E0CD
:102AB00060E070E04D935D936D937C931397149653
:102AC0001C9211961D921D921D921C9213971496A2
:102AD0001C9211961D921D921D921C921397149692
:102AE0001D921D921D921C92139714961D921D9279
:102AF0001D921C92139714961C9211961D921D9272
:102B00001D921C92139714961D921D921D921C9259
:102B1000139714961D921D921D921C921397149652
:102B20001D921D921D921C92139714961D921D9238
:102B30001D921C92139714961D921D921D921C9229
:102B4000139714961D921D921D921C921397149622
:102B50001D921D921D921C92139714961C92119611
:102B60001C9211961C9211961C9211961C92119611
:102B70001C9211961C9211961C9211961C92119601
:102B80001C9211961C92128E118E148E138E168E1C
:102B9000158E10A2178E12A211A214A213A216A2B1
:102BA00015A210A617A211968BEC91E111969C9399
:102BB0008E93129611961C921E92129687EC91E1BA
:102BC00011969C938E93129611961C921E921296B9
:102BD00083EC91E111969C938E93129611961C9220
:102BE0001E9212968FEB91E18D939C93E056FF4FCE
:102BF00011821082DF91CF91089508958FEF9FEF9A
:102C000008950895089508950895089508950895DC
:102C100008950895089508950895089508950895CC
:102C200008950895089508950895089580912D0AAE
:102C300090912E0A892B41F481E090E00E94E05BA4
:102C400090932E0A80932D0A80912D0A90912E0A3E
:102C500008950F931F93CF93DF938B01E7DFF80164
:102C6000C2A1D3A1868D978D8530910529F14CF4B1
:102C70000497B1F090E080E0DF91CF911F910F9128
:102C800008958630910511F10B97A1F76BE070E084
:102C90008AE590E10E947A0BBE018AE590E109C0C5
:102CA00064E070E081E590E10E947A0BBE0181E56D
:102CB00090E10E94FE0ADECF65E070E084E590E1DD
:102CC0000E947A0BBE0184E590E1F3CF66E070E0EC
:102CD00087E590E10E947A0BBE0187E590E1E9CF9C
:102CE0008091290A90912A0A892BA9F48CE890E016
:102CF0000E94E05BFC0131969C012A5B3F4F1192E0
:102D0000DF01AB5BBF4F1C92E217F307C1F7909353
:102D10002A0A8093290A8091290A90912A0A089503
:102D20004F925F926F927F92AF92BF92CF92DF925B
:102D3000EF92FF920F931F93CF93DF93EB01D0DFBE
:102D40008C01CAA8DBA84EA45FA468A879A8AEA08D
:102D5000BFA0EE8CFF8C4AA15BA19601B701BFD842
:102D6000C301B2010E94C10A9601A501B701C801C1
:102D7000B6D890E080E0DF91CF911F910F91FF9046
:102D8000EF90DF90CF90BF90AF907F906F905F906B
:102D90004F900895CF93DF93EB01A2DF6AA98E8D48
:102DA0000E94170A90E080E0DF91CF910895CF93C1
:102DB000DF93EB0195DF2AA93BA94AA15BA16E8DA8
:102DC0007F8D8DD890E080E0DF91CF910895809144
:102DD000220A9091230A892BE1F585E390E00E9475
:102DE000E05BFC0181E090E0A0E0B0E080839183B3
:102DF000A283B38384839583A683B78380879187D7
:102E0000A287B3871586148616861786108A118ABC
:102E1000128A138A148A158A168A178A108E118EBE
:102E2000138E128E12A213A214A215A217A216A21A
:102E300010A611A612A613A614A615A616A617A6C6
:102E400010AA11AA12AA13AA14AAF093230AE093B3
:102E5000220A8091220A9091230A0895CF93DF934A
:102E6000B6DFEC0185E40E94C20921E0892B09F458
:102E700020E02C8FACDFEC0184E40E94C20921E049
:102E8000892B09F420E02D8FA2DFEC0183E40E945E
:102E9000C20921E0892B09F420E02E8F98DFEC0194
:102EA00082E40E94C20921E0892B09F420E02F8FDF
:102EB0008EDFEC0181E40E94C20921E0892B09F434
:102EC00020E028A384DFEC0180E40E94C20921E015
:102ED000892B09F420E029A3DF91CF91089577DFB2
:102EE000BDCF75DFFC0114AA90E080E00895FC01DD
:102EF00001900020E9F73197AF01481B590BBC0145
:102F00008BEC9EE00C9427088F929F92AF92BF9219
:102F10000F931F93CF93DF93CDB7DEB7A1970FB673
:102F2000F894DEBF0FBECDBF19A2423008F44AE0CC
:102F30008E010F5D1F4F842E912CB12CA12CA50169
:102F400094010E94B762E62FB901CA01EA30ECF49D
:102F5000E05DD801EE938D01232B242B252B79F7EF
:102F600090E080E0109711F0CD01C1DFA1960FB67F
:102F7000F894DEBF0FBECDBFDF91CF911F910F91AF
:102F8000BF90AF909F908F900895E95CE2CFAFCF54
:102F9000882319F08DE799E0FACF86E799E0FCCF16
:102FA000FC0180819181009711F00C947C5C089564
:102FB0000C947C5C0C947C5C0C947C5C0C947C5C31
:102FC0000C947C5C0C947C5C0C947C5C0C947C5C21
:102FD0000C947C5C0C947C5C0C947C5C0C947C5C11
:102FE0000C947C5C0C947C5C0C947C5C0C947C5C01
:102FF0000C947C5C0C947C5C0C947C5C0C947C5CF1
:103000000C947C5C0C947C5C0C947C5CCF92DF9286
:10301000EF92FF92CF93DF9397FF18C06B017C0173
:103020008DE20E940809EC0166277727CB016C1915
:103030007D098E099F094AE067DF8C0F9D1FDF9194
:10304000CF91FF90EF90DF90CF9008954AE0DF910D
:10305000CF91FF90EF90DF90CF9056CFBC01990FAA
:10306000880B990BD3CFCF93DF93EC018EE294E0E2
:103070008EDF6AA17BA18CA19DA1C8DF83E295E0D0
:10308000DF91CF9184CF0F931F93CF93DF938C0168
:10309000EB0180E194E07BDF85E198E078DFF801E7
:1030A00084810E940809CE01D9DF91DEDF91CF91A2
:1030B0001F910F91D8CFEF92FF920F931F93CF9351
:1030C000DF93182F092F7B016115710569F50E94A7
:1030D000C20931E020E0019709F030E0C32FD22F80
:1030E00082E0E816F10408F045C081E394E04FDF88
:1030F00085E198E04CDF85E394E049DF812F902F54
:10310000ADDF85E198E043DF80EA97E040DFCE0164
:10311000A5DF5DDEA8DF90E080E0DF91CF911F9119
:103120000F91FF90EF900895D0E0C0E061307105FD
:10313000B9F6812F163310F08AEC810F20917B00B5
:10314000982F9870277F922B90937B0087708064D4
:1031500080937C0080917A00806480937A008091D3
:103160007A0086FDFCCF80917800C0917900DC2F39
:10317000C82FB6CF81E090E0D0CF0F931F93CF93AD
:10318000DF93FC012081318121153105C1F1EC0172
:10319000822F0E94C20921E0892B09F420E02B87AD
:1031A0006A85261701F11E821F82188619860E81F4
:1031B0001F81288539858A819B81AC81BD81081753
:1031C00019072A073B07DCF081E0682788810E9405
:1031D000EA0986DD70E060E088819981DF91CF9116
:1031E0001F910F9168CF8E819F81A885B985019627
:1031F000A11DB11D8E839F83A887B987D8CFDF918A
:10320000CF911F910F910895CF93DF93EB0168DD6C
:103210006AA97BA98E8D9F8D4EDF90E080E0DF91C3
:10322000CF910895CF92DF92EF92FF92CF93DF93E9
:10323000EB01CB010E948E07882351F1FE01EE0FB6
:10324000FF1FEE0FFF1FEA5BF44FC080D180E280CA
:10325000F38087E394E09BDE85E198E098DE85E3E8
:1032600094E095DECE01FADE85E198E090DE80EA1A
:1032700097E08DDEC701B601C9DEA9DDF4DE90E07E
:1032800080E0DF91CF91FF90EF90DF90CF90089595
:103290008BE394E07CDEF3CF0F931F93CF93DF9308
:1032A0008C01D0E0C0E0CE010E948E07882319F087
:1032B000BE01C801B7DF2196C13ED105A1F7DF915C
:1032C000CF911F910F9108958DE594E060DE80E429
:1032D00092E05DDE88E092E05ADE82E694E057DE1E
:1032E00076DDC1DE90E080E00895CF93DF93EC01BE
:1032F0008CE694E04CDE80E794E049DE8C8D48DE7D
:1033000084E794E044DE8D8D43DE88E794E03FDE81
:103310008E8D3EDE8CE794E03ADE8F8D39DE80E8DC
:1033200094E035DE88A134DE84E894E030DE89A1C3
:103330002FDECE01DF91CF9196CE49DDD6CF88E842
:1033400094E025DE44DD8ADD42DDCFDFC9DC70E0BC
:1033500060E088E090E0AFDEC3DC70E060E089E030
:1033600090E0A9DEBDDC70E060E08AE090E0A3DEE2
:10337000B7DC70E060E08DE090E09DDE90E080E002
:1033800008954F925F926F927F928F929F92AF9229
:10339000BF92CF92DF92EF92FF920F931F93CF9342
:1033A0006B017C01742EAC019B010E94EA638823AF
:1033B00091F08FE894E0CF911F910F91FF90EF90E3
:1033C000DF90CF90BF90AF909F908F907F906F9045
:1033D0005F904F908CCD46015701E894B7F82FEFDE
:1033E0003FEF4FE75FE7C501B4010E94EA63811137
:1033F0000DC02FEF3FEF4FE75FE7C501B4010E941B
:10340000596118161CF483E994E0D5CF2FEF3FEFF4
:103410004FE75FE4C701B6010E94E66318161CF48B
:1034200087E994E0C8CF2FEF3FEF4FE75FECC7018C
:10343000B6010E94596187FDF3CF20E030E0A90179
:10344000C701B6010E94596110E000E087FF08C083
:103450008DE20E9408098C01F7FAF094F7F8F094D5
:10346000C0E060E070E080E09FE37C1641F020E087
:1034700030E040E251E40E944D63CF5FF6CFA701F8
:1034800096010E94E9622B013C010E94BA634B0144
:103490005C014AE039DD7C01E00EF11ECC23A9F18C
:1034A000C501B4010E945D619B01AC01C301B20181
:1034B0000E94E8624B015C018EE20E940809E80E5E
:1034C000F91EC15010F120E030E040E251E4C501A6
:1034D000B4010E94BE612B013C010E94BA634B0102
:1034E000B12CA12C4AE0C501B4010EDDE80EF91E95
:1034F000C501B4010E945D619B01AC01C301B20131
:103500000E94E8624B015C01DCCFC701CF911F91A3
:103510000F91FF90EF90DF90CF90BF90AF909F9072
:103520008F907F906F905F904F9008958F929F92B1
:10353000AF92BF92CF92DF92EF92FF920F931F93C1
:10354000CF93DF93EC018CE492E021DD85EE94E0F3
:103550001EDD6E018AE0C81A8EEFD80AC6010E94ED
:103560007B100E945F614B015C01FE01E15BFC4F3F
:1035700060817181828193810E945F619B01AC01B6
:10358000C501B4010E944D6342E0FBDE85EF94E08B
:10359000FEDC7E01EAEDEE1AEDEFFE0AC7010E94A5
:1035A0007B100E945F614B015C01FE01ED5AFC4FF4
:1035B00060817181828193810E945F619B01AC0176
:1035C000C501B4010E944D6342E0DBDE85E095E079
:1035D000DEDC8E010A5A1D4FC8010E947B100E943A
:1035E0005F614B015C01C95ADC4F688179818A8136
:1035F0009B810E945F619B01AC01C501B4010E94E7
:103600004D6342E0BEDEE3DB2EDD88E492E0BFDC0A
:1036100085EE94E0BCDCF601A68DB78D208931895A
:10362000428953890E94B162F1DC85EF94E0AFDCFE
:10363000F701A68DB78D20893189428953890E946F
:10364000B162E4DC85E095E0A2DCF801A68DB78DDF
:1036500020893189428953890E94B162D7DCB7DB66
:10366000DF91CF911F910F91FF90EF90DF90CF905E
:10367000BF90AF909F908F90F6CCCF92DF92EF9259
:10368000FF92CF93DF93EC0188819981AA81BB815E
:10369000181619061A061B0644F081E090E0A0E017
:1036A000B0E088839983AA83BB838C819D81AE819E
:1036B000BF81181619061A061B0644F081E090E037
:1036C000A0E0B0E08C839D83AE83BF83888599851D
:1036D000AA85BB85181619061A061B0644F081E058
:1036E00090E0A0E0B0E088879987AA87BB878BE944
:1036F00094E04DDC85EE94E04ADC6E857F85888918
:1037000099890E945F616B017C01688179818A815E
:103710009B810E945F619B01AC01C701B6010E94C1
:103720004D6342E02EDE85EF94E031DC6A897B89CF
:103730008C899D890E945F616B017C016C817D8118
:103740008E819F810E945F619B01AC01C701B60120
:103750000E944D6342E015DE85E095E018DC6E893D
:103760007F89888D998D0E945F616B017C016885DE
:1037700079858A859B850E945F619B01AC01C701A9
:10378000B6010E944D6342E0FCDDCE01DF91CF9196
:10379000FF90EF90DF90CF9066CC19DB6EDF90E06A
:1037A00080E008952F923F924F925F926F927F92A6
:1037B0008F929F92AF92BF92CF92DF92EF92FF9241
:1037C0000F931F93CF93DF93CDB7DEB762970FB6FA
:1037D000F894DEBF0FBECDBF1C017C012EE5E20ECA
:1037E000F11CD7014D915D916D917C91FC01EE59D9
:1037F000FF4FFE87ED8780819181A281B3814101D6
:10380000F6E68F0E911CF4012081B2965F018101D2
:1038100007571F4F222309F440C06101FCE4CF0E7B
:10382000D11CF6012081F501208321E0F8012083DD
:10383000411551056105710591F42081F101E158AF
:10384000FF4F6F01F101222309F44FC040AC51AC8E
:1038500062AC73ACF6014082518262827382910144
:10386000265A3F4F3A8B298BF90140805180628064
:103870007380235D3F4F5901481659066A067B063F
:10388000CCF5481759076A077B07F4F1D4018C91EE
:1038900081113AC0D5011C9242C121E04817590755
:1038A0006A077B070CF020E0F50120835A016B01C9
:1038B00077FF07C0AA24BB246501A41AB50AC60A6B
:1038C000D70A2C013D01B7FF07C04424552432011B
:1038D000481A590A6A0A7B0A21E0A414B504C604EE
:1038E000D7040CF0A3CF20E0A1CF44A855A866A828
:1038F00077A8B0CF84159505A605B7053CF68417C3
:103900009507A607B70714F6F5018081882311F201
:10391000D4018C9181110EC0F40180818111BACF44
:10392000D8016C9181E06827C1010E9423138111A5
:10393000B1CF06C060E0C1010E9423138111ECCF1A
:10394000D1019C962D913D914D915C919F9729833A
:103950003A834B835C83F8018081811106C1F101B8
:10396000E05CFF4F80819181A281B3818D839E8332
:10397000AF83B887D101D4962D913D914D915C9143
:10398000D79729873A874B875C87ED85FE858081AD
:103990009181A281B381F701C080D180E280F38060
:1039A000E989FA894081518162817381F101E5578A
:1039B000FF4F1082319610823101FDE86F0E711CAD
:1039C000F3011082910122573F4FF9011082329684
:1039D00010824C015D01841A950AA60AB70AB7FE47
:1039E00008C0B094A09490948094811C911CA11C58
:1039F000B11C481759076A077B070CF0CAC0C41AE4
:103A0000D50AE60AF70AD501C401B595A795979599
:103A100087958D879E87AF87B88B810100571F4F91
:103A20008C149D04AE04BF0408F0B8C0D101DC962C
:103A30000D90BC91A02DBA8BA98B81E0F9018083F8
:103A4000D8018C93F1018489882309F45CC00E9419
:103A5000F20AD10152960D911C91012E000C220BFD
:103A6000330B601B710B820B930B693E7340810516
:103A7000910508F448C00E94F20AF101738B628B31
:103A80008FE994E084DA83EA94E081DA60E070E020
:103A9000CB01BCDA89EA94E07ADAC701B601B6DA7A
:103AA0008FEA94E074DAC501B401B0DA85EB94E0F2
:103AB0006EDA4AE06D857E858F85988925DA8CEBF4
:103AC00094E065DA6D817E818F8198859FDA82EC42
:103AD00094E05DDA69857A858B859C8597DA88EC38
:103AE00094E055DA69817A818B819C818FDA8EEC42
:103AF00094E04DDA85E198E04ADA89899A89AEDA6C
:103B000083E295E044DAF101E158FF4F29893A89CF
:103B1000C901B0E0A0E080839183A283B38360E019
:103B2000C1010E942313882339F0F101E25AFF4FAB
:103B3000108211821282138262960FB6F894DEBF51
:103B40000FBECDBFDF91CF911F910F91FF90EF90EE
:103B5000DF90CF90BF90AF909F908F907F906F90AD
:103B60005F904F903F902F900895F10180A991A907
:103B7000A2A9B3A929813A814B815C81821793075D
:103B8000A407B5070CF0EBCE89839A83AB83BC8383
:103B9000E6CEC81AD90AEA0AFB0A35CF2D853E853A
:103BA0004F8558892C153D054E055F0508F450C01A
:103BB0008D819E81AF81B8858C159D05AE05BF05B1
:103BC00044F4A981BA811196BA8BA98B81E0F301E3
:103BD00036CFC701B6010E945F612B013C016D81A8
:103BE0007E818F8198850E945F619B01AC01C3013A
:103BF000B2010E944D632B013C0169817A818B8166
:103C00009C8129853A854B855C85621B730B840BEF
:103C1000950B0E945F619B01AC01C301B2010E9440
:103C2000BE612B013C0169857A858B859C850E944C
:103C30005F619B01AC01C301B2010E94E9620E9475
:103C4000B5637A8B698B81E0F101E557FF4FF7CEC1
:103C5000D501C4012D813E814F815885821B930B74
:103C6000A40BB50BC816D906EA06FB065CF449811D
:103C70005A814E5F5F4F5A8B498B81E0F101E357C8
:103C8000FF4FDDCEC501B4016C197D098E099F0976
:103C90000E945F612B013C016D817E818F8198853F
:103CA0000E945F619B01AC01C301B2010E944D63A0
:103CB0002B013C0169817A818B819C8129853A8520
:103CC0004B855C85621B730B840B950B0E945F61B7
:103CD0009B01AC01C301B2010E94BE612B013C01FA
:103CE00069857A858B859C850E945F619B01AC010B
:103CF000C301B2010E94E9620E94B5637A8B698BAD
:103D000081E0F101E457FF4F9ACECF92DF92EF921C
:103D1000FF920F931F93CF93DF938C016A017B0176
:103D2000EC01CC0FDD1F642FCE010E947D6299272C
:103D3000F7FC9A958F2D7E2D6D2DCE0101960E9458
:103D40007D620D5811090330110588F4B7019927D8
:103D500077FD9095892FCE0144960E947D626F2D4C
:103D6000772788279927CE0145960E947D6290E0AB
:103D700080E0DF91CF911F910F91FF90EF90DF9046
:103D8000CF9008954F925F926F927F928F929F9201
:103D9000AF92BF92CF92DF92EF92FF920F931F9359
:103DA000CF93DF938C01EC01CC0FDD1FCE010E947D
:103DB0007562882E912CB12CA12CCE0101960E9407
:103DC0007562C82ED12CF12CE12C0D58110903304D
:103DD000110508F05AC0CE0144960E947562482E23
:103DE000512C712C612CCE0145960E947562082FD2
:103DF00010E030E020E08FEF4816510461047104B8
:103E000029F50F3F11052105310501F58FEF8816C2
:103E10009104A104B104C9F58FEFC816D104E104DF
:103E2000F10499F56FEF7FEFCB01DF91CF911F91F7
:103E30000F91FF90EF90DF90CF90BF90AF909F9049
:103E40008F907F906F905F904F900895003811058C
:103E5000210531053CF7FE2CED2CDC2CCC24C701D0
:103E6000B601680D791D8A1D9B1D3201552444241D
:103E7000640D751D861D971D302F222711270027E1
:103E8000600F711F821F931FD0CF00E010E09801D8
:103E9000412C512C320180E8C816D104E104F10410
:103EA000D4F2C0CFEF92FF920F931F93CF93DF9383
:103EB0008091270A9091280A892B51F586E090E09D
:103EC0000E94E05B7C0190E080E05CDF1616170644
:103ED00054F1C7010E946810D0E0C0E0CE010E94FA
:103EE0008E07882369F0FE01EE0FFF1FEE0FFF1F04
:103EF000EA5BF44F4081518162817381CE0105DF1D
:103F00002196C639D10551F7F092280AE092270A86
:103F10008091270A9091280ADF91CF911F910F91EC
:103F2000FF90EF90089583E090E02CDF6130710501
:103F30008105910531F506E41BE0D0E0C0E0CE013B
:103F40000E948E078823B1F0CE011CDFF801608348
:103F50007183828393836F3F7F4F8F4F9F4F51F4C5
:103F6000CE010E94D001F8014081518162817381AC
:103F7000CE01CBDE21960C5F1F4FC13ED105F9F675
:103F8000C3CFC7010E946810BFCFCF92DF92EF92DC
:103F9000FF920F931F93CF93DF937C016B018A01F4
:103FA000E90180DFF601EE0FFF1FEE0FFF1FEA5B56
:103FB000F44F80819181F7019183808373DF000F3B
:103FC000111F000F111FF801EA5BF44F81E04081DF
:103FD000518162817381413051056105710509F09C
:103FE00080E0F70182875EDFCC0FDD1FCC0FDD1F85
:103FF000CA5BD44F88819981AA81BB81F7018283F2
:104000009383A483B5831682178210861186DF916D
:10401000CF911F910F91FF90EF90DF90CF90089577
:10402000CF93DF93EC012AEC30E04BEC50E069ECED
:1040300070E0ABDF2EEC30E04FEC50E06DEC70E068
:10404000CE010C96A2DF24ED30E045ED50E063EDAB
:1040500070E0CE01489699DF28ED30E049ED50E060
:1040600067ED70E0CE01849690DF2EED30E04FEDED
:1040700050E06DED70E0CE01C096DF91CF9185CF1D
:10408000CF93DF9380912B0A90912C0A892BA1F476
:104090008CE390E00E94E05BEC01198218821D869F
:1040A0001C86198E188E1DA21CA219AA18AAB8DF88
:1040B000D0932C0AC0932B0A80912B0A90912C0A42
:1040C000DF91CF9108950F931F93CF93DF93EC016E
:1040D000E9DEFE01EB57FC4F8091020D9091030D3C
:1040E00091838083DFDEFE01E957FC4F8091060D4E
:1040F0009091070D91838083D5DEFE01E757FC4F39
:1041000080910A0D90910B0D91838083CBDE8E01FF
:1041100005571C4F60912A0D70912B0D80912C0D2D
:1041200090912D0D0E945F61F801608371838283FD
:104130009383B8DE0C5F1F4F60912E0D70912F0D91
:104140008091300D9091310D0E945F61F801608384
:10415000718382839383A6DE0C5F1F4F6091320DC3
:104160007091330D8091340D9091350D0E945F61F7
:10417000F801608371838283938394DEFE01E656A7
:10418000FC4F8091EA0C9091EB0C918380838ADE46
:10419000FE01E456FC4F8091EE0C9091EF0C918360
:1041A000808380DEFE01E256FC4F8091F20C9091FC
:1041B000F30C9183808376DEFE01E056FC4F809104
:1041C000120D9091130DA091140DB091150D8083D7
:1041D0009183A283B38366DEFE01EC55FC4F809190
:1041E000160D9091170DA091180DB091190D8083A7
:1041F0009183A283B38356DEFE01E855FC4F809184
:104200001A0D90911B0DA0911C0DB0911D0D808376
:104210009183A283B38346DEFE01E455FC4F809177
:104220003A0D90913B0D918380833CDEFE01E25577
:10423000FC4F80913E0D90913F0D9183808332DE43
:10424000FE01E055FC4F8091420D9091430D91830A
:10425000808328DEFE01EE54FC4F8091520D909138
:10426000530D918380831EDEFE01EC54FC4F809140
:10427000560D9091570D9183808314DEFE01EA5410
:10428000FC4F80915A0D90915B0D918380830ADEE3
:104290008091DA0C9091DB0CA091DC0CB091DD0CDC
:1042A000FE01E956FC4F0197A105B10551F581E0EA
:1042B0008083F8DD8091DE0C9091DF0CA091E00C02
:1042C000B091E10CFE01E856FC4F0197A105B10544
:1042D000D1F481E08083E6DD8091E20C9091E30CE3
:1042E000A091E40CB091E50CC756DC4F0197A105F5
:1042F000B10559F481E08883DF91CF911F910F912F
:1043000008951082D6CF1082E6CF1882F5CF2F9273
:104310003F924F925F926F927F928F929F92AF9255
:10432000BF92CF92DF92EF92FF920F931F93CF93A2
:10433000DF93CDB7DEB76F970FB6F894DEBF0FBE31
:10434000CDBF9B8F8A8FAEDDEA8DFB8DEF55FD4F84
:1043500081E04091120C5091130C6091140C7091FB
:10436000150C452B462B472B09F480E080839ADD02
:10437000EA8DFB8DEE55FD4F81E04091160C50917A
:10438000170C6091180C7091190C452B462B472B7C
:1043900009F480E0808386DDEA8DFB8DED55FD4FCD
:1043A00081E040911A0C50911B0C60911C0C709193
:1043B0001D0C452B462B472B09F480E0808372DDD2
:1043C0008091620C9091630CA091640CB091650C8B
:1043D000EA8DFB8DEC55FD4F80839183A283B383DF
:1043E00061DD8091660C9091670CA091680CB09192
:1043F000690CEA8DFB8DE855FD4F80839183A28384
:10440000B38350DD80916A0C90916B0CA0916C0C81
:10441000B0916D0CEA8DFB8DE455FD4F8083918347
:10442000A283B3833FDD8091620C9091630CA091D5
:10443000640CB091650CEA8DFB8DE055FD4F8083D7
:104440009183A283B3832EDD8091660C9091670CDB
:10445000A091680CB091690CEA8DFB8DEC54FD4F76
:1044600080839183A283B3831DDD80916E0C909134
:104470006F0CA091700CB091710CEA8DFB8DE8541B
:10448000FD4F80839183A283B3830CDD80913A0C2E
:1044900090913B0CA0913C0CB0913D0CEA8DFB8DB2
:1044A000E853FD4F80839183A283B383FBDC80912B
:1044B0003E0C90913F0CA091400CB091410CEA8DC4
:1044C000FB8DE453FD4F80839183A283B383EADCA9
:1044D0008091420C9091430CA091440CB091450CFA
:1044E000EA8DFB8DE053FD4F80839183A283B383DC
:1044F000D9DC80913A0C90913B0CA0913C0CB0918E
:104500003D0CEA8DFB8DEC52FD4F80839183A2839D
:10451000B383C8DC80913E0C90913F0CA091400C7D
:10452000B091410CEA8DFB8DE852FD4F8083918361
:10453000A283B383B7DC8091460C9091470CA09185
:10454000480CB091490CEA8DFB8DE452FD4F8083FD
:104550009183A283B383A6DC80914A0C90914B0C8B
:10456000A0914C0CB0914D0CEA8DFB8DE052FD4FAB
:1045700080839183A283B38395DC80914E0C9091CC
:104580004F0CA091500CB091510CEA8DFB8DEC5169
:10459000FD4F80839183A283B38384DC8091520C8E
:1045A0009091530CA091540CB091550CEA8DFB8D59
:1045B000E851FD4F80839183A283B38373DC8091A4
:1045C000EA0B9091EB0BA091EC0BB091ED0BEA8D07
:1045D000FB8DE451FD4F80839183A283B38362DC22
:1045E0008091EE0B9091EF0BA091F00BB091F10B3D
:1045F000EA8DFB8DE051FD4F80839183A283B383CD
:1046000051DC8091F20B9091F30BA091F40BB091DF
:10461000F50BEA8DFB8DEC50FD4F80839183A283D7
:10462000B38340DC8091EA0B9091EB0BA091EC0BF3
:10463000B091ED0BEA8DFB8DE850FD4F80839183A7
:10464000A283B3832FDC8091EE0B9091EF0BA091AE
:10465000F00BB091F10BEA8DFB8DE450FD4F8083A0
:104660009183A283B3831EDC8091F60B9091F70BAC
:10467000A091F80BB091F90BEA8DFB8DFD5F808363
:104680009183A283B3830EDCEA8DFB8DEC5FFC4F3C
:1046900081E02091C20B3091C30B2130310509F02C
:1046A00080E08083FFDBEA8DFB8DEB5FFC4F81E0D8
:1046B0002091C60B3091C70B2130310509F080E005
:1046C0008083F0DBEA8DFB8DEA5FFC4F81E0209177
:1046D000CA0B3091CB0B2130310509F080E080838B
:1046E000E1DBEA8DFB8DE65CFC4F81E040919A0BAB
:1046F00050919B0B60919C0B70919D0B452B462B11
:10470000472B09F480E08083CDDBEA8DFB8DE55CEF
:10471000FC4F81E040919E0B50919F0B6091A00B4C
:104720007091A10B452B462B472B09F480E0808329
:10473000B9DBEA8DFB8DE45CFC4F81E04091A20B7C
:104740005091A30B6091A40B7091A50B452B462BA8
:10475000472B09F480E08083A5DBEA8DFB8DE35CC9
:10476000FC4F81E04091720C5091730C6091740C7D
:104770007091750C452B462B472B09F480E0808304
:1047800091DBEA8DFB8DE25CFC4F81E04091760C81
:104790005091770C6091780C7091790C452B462BD9
:1047A000472B09F480E080837DDBEA8DFB8DE15CA3
:1047B000FC4F81E040917A0C50917B0C60917C0C15
:1047C00070917D0C452B462B472B09F480E08083AC
:1047D00069DBEA8DFB8DE05CFC4F81E02091AA0B48
:1047E0003091AB0B2130310509F080E080835ADB3A
:1047F000EA8DFB8DEF5BFC4F81E02091AE0B309199
:10480000AF0B2130310509F080E080834BDBEA8D6E
:10481000FB8DEE5BFC4F81E02091B20B3091B30B2E
:104820002130310509F080E080833CDB8091720B00
:104830009091730BA091740BB091750BEA8DFB8D69
:10484000ED5BFC4F80839183A283B3832BDB80914C
:10485000760B9091770BA091780BB091790BEA8D44
:10486000FB8DE95BFC4F80839183A283B3831ADBCA
:1048700080917A0B90917B0BA0917C0BB0917D0B7A
:10488000EA8DFB8DE55BFC4F80839183A283B3832C
:1048900009DBEA8DFB8DE25DFC4F81E04091820BEC
:1048A0005091830B6091840B7091850B452B462BA7
:1048B000472B09F480E08083F5DAEA8DFB8DE15D1A
:1048C000FC4F81E04091860B5091870B6091880BE3
:1048D0007091890B452B462B472B09F480E0808390
:1048E000E1DAEA8DFB8DE05DFC4F81E040918A0BBF
:1048F00050918B0B60918C0B70918D0B452B462B3F
:10490000472B09F480E08083CDDA80917A0D909175
:104910007B0DA0917C0DB0917D0DEA8DFB8DE95F43
:10492000FC4F80839183A283B383BCDA80917E0D98
:1049300090917F0DA091800DB091810DEA8DFB8D3E
:10494000E55FFC4F80839183A283B383ABDA8091D0
:10495000820D9091830DA091840DB091850DEA8D0B
:10496000FB8DE15FFC4F80839183A283B3839ADA4E
:10497000EA8DFB8DEF5CFC4F81E02091DA0B3091EA
:10498000DB0B2130310509F080E08083EA8DFB8D5F
:10499000EE5CFC4F1082EA8DFB8DED5CFC4F1082CB
:1049A00081DAEA8DFB8DEC5CFC4F81E02091D60B27
:1049B0003091D70B2130310509F080E08083EA8DFA
:1049C000FB8DEB5CFC4F1082EA8DFB8DEA5CFC4FAB
:1049D000108268DAEA8DFB8DE95CFC4F81E0209162
:1049E000FA0B3091FB0B2130310509F080E0808318
:1049F00059DAEA8DFB8DE85CFC4F81E02091FE0BDB
:104A00003091FF0B2130310509F080E080834ADAD4
:104A1000EA8DFB8DE75CFC4F81E02091020C309128
:104A2000030C2130310509F080E080833BDAEA8D08
:104A3000FB8DED5EFC4F81E020918A0D30918B0D56
:104A40002130310509F080E080832CDAEA8DFB8D7E
:104A5000EC5EFC4F81E020918E0D30918F0D213066
:104A6000310509F080E080831DDAEA8DFB8DEB5E75
:104A7000FC4F81E02091920D3091930D2130310552
:104A800009F080E080830EDA8091CA0D9091CB0D01
:104A9000A091CC0DB091CD0DEA8DFB8DEA5EFC4F5F
:104AA00080839183A283B383FDD98091CE0D9091B1
:104AB000CF0DA091D00DB091D10DEA8DFB8DE65EAA
:104AC000FC4F80839183A283B383ECD98091D20D74
:104AD0009091D30DA091D40DB091D50DEA8DFB8DA1
:104AE000E25EFC4F80839183A283B383DBD9809104
:104AF000FA0D9091FB0DA091FC0DB091FD0DEA8D8A
:104B0000FB8DEE5DFC4F80839183A283B383CAD972
:104B10008091FA0D9091FB0DA091FC0DB091FD0DCF
:104B2000EA8DFB8DEA5DFC4F80839183A283B38382
:104B3000B9D98091FA0D9091FB0DA091FC0DB09127
:104B4000FD0DEA8DFB8DE65DFC4F80839183A28392
:104B5000B383A8D90A8D1B8D015B1C4F8091220C59
:104B60009091230CA091240CB091250CF801808326
:104B70009183A283B38396D9EA8CFB8CFDEAEF1A6A
:104B8000FCEFFF0A8091260C9091270CA091280C35
:104B9000B091290CF70180839183A283B38382D9DA
:104BA00080912A0C90912B0CA0912C0CB0912D0C83
:104BB000CA8CDB8CF9EACF1AFCEFDF0AF60180839E
:104BC0009183A283B383F801408151816281738113
:104BD000141615061606170644F041E050E060E092
:104BE00070E04083518362837383F7014081518178
:104BF00062817381141615061606170644F041E00B
:104C000050E060E070E04083518362837383181644
:104C100019061A061B064CF081E090E0A0E0B0E017
:104C2000F60180839183A283B3830E94E716FC017F
:104C3000D6018D909D90AD90BC90D7014D915D9126
:104C40006D917C91D8010D911D912D913C91008326
:104C500011832283338344835583668377838086DD
:104C60009186A286B386EA8DFB8D7096FA83E983DE
:104C7000EA8DFB8DED5EFC4F80808B82EA8DFB8D93
:104C8000E95FFC4F4080518062807380EA8DFB8D2C
:104C9000E95CFC4F90809A86EA8DFB8DE05CFC4FCE
:104CA000A080AC82EA8DFB8DEF5CFC4FB080BD82B2
:104CB000EA8DFB8DEC5CFC4F20812E83EA8DFB8D11
:104CC000E35CFC4F80818E87EA8DFB8DE65CFC4FB8
:104CD00090819A8BEA8DFB8DEC5FFC4F2080EA8DF2
:104CE000FB8DEF55FD4F3080EA8DFB8DED5BFC4F6A
:104CF00080809180A280B380EA8DFB8DE451FD4FCE
:104D000080819181A281B381EA8DFB8DE052FD4FBC
:104D1000C080D180E280F380EA8DFB8DE853FD4FA7
:104D20004081518162817381EA8DFB8DEC55FD4F8D
:104D30000081118122813381EA8DFB8D04AF15AF93
:104D400026AF37AFEC5BFF4F4083518362837383A1
:104D5000EA8DFB8DE05BFF4F80839183A283B38359
:104D6000EA8DFB8DE05CFF4F008311832283338348
:104D7000EA8DFB8DE85BFF4F408351836283738331
:104D8000EA8DFB8DEC5AFF4F80839183A283B3831E
:104D9000EA8DFB8DE45BFF4FC082D182E282F38219
:104DA000EA8DFB8DE85AFF4F80829182A282B38206
:104DB000EA8DFB8DE45AFF4F3082EA8DFB8DE35A7A
:104DC000FF4F2082EA89AA8DBB8DD996EC93D997A3
:104DD000FE85DA96FC93DA978C80DB968C9280E4E1
:104DE00090E0A0E0B0E0EA8DFB8DE05AFF4F8083B9
:104DF0009183A283B383EA8DFB8DE25AFF4F9E809D
:104E00009082EA8DFB8DE15AFF4FAD80A082EA8D42
:104E1000FB8DEC59FF4FBA84B082EA8DFB8DEB59C4
:104E2000FF4F4082518262827382EA8DFB8DE75987
:104E3000FF4F2B812083AA8DBB8D99968D919C91DC
:104E40009A978633910509F0E6C287EA91E1FD0160
:104E5000EE55FF4F9183808332961182108289EA4A
:104E600091E1369691838083329611821082EA8D89
:104E7000FB8D87A590A94A97D1F48BEB91E1EA5578
:104E8000FF4F91838083EA8DFB8DE855FF4F1182A0
:104E900010828DEB91E1EA8DFB8DE255FF4F9183FE
:104EA0008083EA8DFB8DE055FF4F118210820A8DC1
:104EB0001B8D0E541F4FEA8DFB8DEC5EFC4F8080E6
:104EC0008B82EA8DFB8DE55FFC4F80819181A28111
:104ED000B3818A879B87AC87BD87EA8DFB8DE85CB1
:104EE000FC4F90819C83EA8DFB8DEF5BFC4FA08192
:104EF000AD83EA8DFB8DEE5CFC4FB081BE83EA8D05
:104F0000FB8DEB5CFC4F80808E86EA8DFB8DE25C36
:104F1000FC4F2080EA8DFB8DE55CFC4F3080EA8DF4
:104F2000FB8DEB5FFC4F3081EA8DFB8DEE55FD4F25
:104F30002081EA8DFB8DE95BFC4F408151816281CC
:104F40007381EA8DFB8DE051FD4F80819181A281BB
:104F5000B381EA8DFB8DEC51FD4FC080D180E280A2
:104F6000F380EA8DFB8DE453FD4F80809180A28019
:104F7000B380EA8DFB8DE855FD4F40805180628003
:104F80007380F80144A655A666A677A684AA95AABA
:104F9000A6AAB7AAEA8DFB8DEE50FF4F80839183BE
:104FA000A283B383F80140AA51AA62AA73AA80AE71
:104FB00091AEA2AEB3AEEA8DFB8DEA50FF4F808377
:104FC0009183A283B383D801DC96CD92DD92ED92DA
:104FD000FC92DF97EA8DFB8DE650FF4F40835183B3
:104FE00062837383EA8DFB8DE250FF4F2083EA8D4D
:104FF000FB8DE150FF4F308399963C9299979A969A
:105000002C929A97ED819B96EC9380E490E0A0E03F
:10501000B0E0EA8DFB8DEE5FFE4F80839183A2832B
:10502000B383EA8DFB8DF3958E848082EA8DFB8DB0
:10503000EF5FFE4F9E809082EA8DFB8DEA5FFE4F10
:10504000AC80A082EA8DFB8DE95FFE4F8A859B854F
:10505000AC85BD8580839183A283B383EA8DFB8D6C
:10506000E55FFE4F9B819083D80159968D919C916D
:105070008633910509F001C287EA91E1EA8DFB8D43
:10508000EC5BFE4F91838083EA8DFB8DEA5BFE4FE4
:105090001182108289EA91E1EA8DFB8DE45BFE4F7B
:1050A00091838083EA8DFB8DE25BFE4F118210823B
:1050B000F801878D90A14A97E1F48BEB91E1EA8D9D
:1050C000FB8DE85BFE4F91838083EA8DFB8DE65B71
:1050D000FE4F118210828DEB91E1EA8DFB8DE05B3A
:1050E000FE4F91838083EA8DFB8DEE5AFE4F118235
:1050F0001082EA8CFB8CFCEAEF1AFEEFFF0AEA8DC5
:10510000FB8DEB5EFC4F80808B82EA8DFB8DE15F37
:10511000FC4F80819181A281B3818A879B87AC8774
:10512000BD87EA8DFB8DE75CFC4F90819C83EA8D07
:10513000FB8DEE5BFC4F3080EA8DFB8DED5CFC4F10
:10514000A081AD83EA8DFB8DEA5CFC4F2080EA8D67
:10515000FB8DE15CFC4FC080EA8DFB8DE45CFC4F75
:10516000D080EA8DFB8DEA5FFC4F3081EA8DFB8DAC
:10517000ED55FD4F2081EA8DFB8DE55BFC4F808076
:105180009180A280B3808E829F82A886B986EA8DA4
:10519000FB8DFD5F80819181A281B3818E879F8786
:1051A000A88BB98BEA8DFB8DEC50FD4F80809180F0
:1051B000A280B3808C8E9D8EAE8EBF8EEA8DFB8DCD
:1051C000E851FD4F80819181A281B3818A8B9B8BB5
:1051D000AC8BBD8BEA8DFB8DE452FD4F80819181BC
:1051E000A281B381EA8DFB8DE053FD4F4080518059
:1051F00062807380EA8DFB8DE854FD4F40815181C0
:1052000062817381EA8DFB8DE455FD4F8080918032
:10521000A280B380F70184A695A6A6A6B7A644AA45
:1052200055AA66AA77AAEA8DFB8DEC56FE4F8C8CA8
:105230009D8CAE8CBF8C80829182A282B382F7015A
:1052400040AB51AB62AB73AB80AF91AFA2AFB3AF2A
:10525000EA8DFB8DE856FE4F8E849F84A888B9881E
:1052600080829182A282B3828A899B89AC89BD891E
:10527000F70184AF95AFA6AFB7AFEA8DFB8DE456CB
:10528000FE4F8E809F80A884B98480829182A28202
:10529000B382EA8DFB8DE056FE4F2083EA8DFB8DB5
:1052A000EF55FE4F3083D7019996DC9299979A96E5
:1052B000CC929A979B963C9280E490E0A0E0B0E07C
:1052C000EA8DFB8DEC55FE4F80839183A283B383DF
:1052D000EA8DFB8DEE55FE4F2082EA8DFB8DED555C
:1052E000FE4FBD81B083EA8DFB8DE855FE4F8C806B
:1052F0008082EA8DFB8DE755FE4F8A859B85AC85C4
:10530000BD8580839183A283B383EA8DFB8DE355B2
:10531000FE4F9B819083D70159968D919C91863346
:10532000910509F0D2C087EA91E1EA8DFB8DEA513F
:10533000FE4F91838083EA8DFB8DE851FE4F1182F1
:10534000108289EA91E1EA8DFB8DE251FE4F918353
:105350008083EA8DFB8DE051FE4F11821082F701B0
:10536000878D90A14A97E1F48BEB91E1EA8DFB8D5B
:10537000E651FE4F91838083EA8DFB8DE451FE4F11
:10538000118210828DEB91E1EA8DFB8DEE50FE4F84
:1053900091838083EA8DFB8DEC50FE4F1182108249
:1053A000EA8DFB8DE25DFC4F8081882309F4B5C056
:1053B00089819A810E948912EA8DFB8DE15DFC4F03
:1053C0008081882309F4AEC0C8010E9489128A8DA9
:1053D0009B8D805D9C4FDC018C91882309F4A6C0D5
:1053E000C7016F960FB6F894DEBF0FBECDBFDF9139
:1053F000CF911F910F91FF90EF90DF90CF90BF90D2
:10540000AF909F908F907F906F905F904F903F9064
:105410002F900C9489128C339105D9F48BEA91E189
:10542000EA8DFB8DEE55FF4F91838083EA8DFB8DD6
:10543000EC55FF4F118210828DEA91E1EA8DFB8DD0
:10544000E655FF4F91838083EA8DFB8DE455FF4F36
:105450000CCD8E9709F00BCD8FEA91E1EA8DFB8D93
:10546000EE55FF4F91838083EA8DFB8DEC55FF4F06
:105470001182108285EB91E1E1CF8C33910589F4A3
:105480008BEA91E1EA8DFB8DEC5BFE4F918380838B
:10549000EA8DFB8DEA5BFE4F118210828DEA91E16D
:1054A000FBCD8E9709F004CE8FEA91E1EA8DFB8D5A
:1054B000EC5BFE4F91838083EA8DFB8DEA5BFE4FB0
:1054C0001182108285EB91E1E7CD8C33910589F44F
:1054D0008BEA91E1EA8DFB8DEA51FE4F9183808347
:1054E000EA8DFB8DE851FE4F118210828DEA91E129
:1054F0002ACF8E9709F033CF8FEA91E1EA8DFB8DA9
:10550000EA51FE4F91838083EA8DFB8DE851FE4F77
:105510001182108285EB91E116CF89819A810E94D8
:1055200048124ACFC8010E94481251CFC7016F9656
:105530000FB6F894DEBF0FBECDBFDF91CF911F91A4
:105540000F91FF90EF90DF90CF90BF90AF909F9022
:105550008F907F906F905F904F903F902F900C9422
:105560004812AF92BF92CF92DF92EF92FF920F93C9
:105570001F93CF93DF93EC018AE190E09AA789A76C
:105580008BE190E09CA78BA789E190E09EA78DA777
:105590008FE090E098AB8FA78EE190E09AAB89AB5B
:1055A0008EE090E09CAB8BAB85E490E09EAB8DAB46
:1055B00084E490E098AF8FABFE01EE54FF4F80E2A1
:1055C00090E0928F818F81E290E0948F838F8FE1C2
:1055D00090E0968F858F10A2178E12A211A214A2AE
:1055E00013A283E490E096A385A382E490E090A7C1
:1055F00087A3EE55FF4F83E290E0928F818F84E284
:1056000090E0948F838F82E290E0968F858F10A236
:10561000178E12A211A214A213A281E490E096A305
:1056200085A380E490E090A787A3E95BFE4F1182F9
:105630001082329611821082329611821082CE012F
:105640000E948721CE010E946320CE018A509E4F86
:1056500041E050E0FC0157A746A7DE01AA5DBD4F1F
:1056600024E030E09F963C932E939E975E01FAEAE9
:10567000AF1AFDEFBF0A28E030E0F50137A726A7F3
:105680002FEF3FEFFC013183208335832483338365
:1056900022833783268362856087638561871196BD
:1056A0003C932E9315963C932E93149713963C930C
:1056B0002E93129717963C932E9316971A966C91E9
:1056C0001A9718966C9318971B966C911B971996BE
:1056D0006C931997F50131832083358324833383B9
:1056E0002283378326836285608763856187BE0155
:1056F0006E547C4FFB01608171818E0100561C4FFE
:10570000F801C080D180E280F38006501109F801D1
:1057100000811181FC01158F048FC48AD58AE68A25
:10572000F78A6130710509F04EC0378F268FCE01A0
:105730008C549C4FFC01808191819E012C553C4FE3
:10574000F901408151816281738128503109F90149
:10575000208131815D963C932E935C9754964D93B6
:105760005D936D937C935797019781F58FEF9FEF32
:105770005F969C938E935E97DE01AA54BC4F8D91E9
:105780009C9111971E974D915D916D917C91C256A0
:10579000DC4F28813981F501358F248F448B558B5F
:1057A000668B778B0197A9F48FEF9FEF978F868F8A
:1057B000DF91CF911F910F91FF90EF90DF90CF90ED
:1057C000BF90AF900895578F468FB1CF81E090E0A2
:1057D000CFCF81E090E0EACFBF92CF92DF92EF92FD
:1057E000FF920F931F93CF93DF93EC010E94521F00
:1057F000E090920CF090930C0E94521FC090A20C6B
:10580000D090A30C0E94521FB090BA0C1091BB0C08
:105810000E94521F01E08091E20D9091E30D0197EB
:1058200009F000E02B2D312F1216130614F021E0A1
:1058300030E0A601B701CE018C5A9E4F0E9493140E
:10584000DF91CF911F910F91FF90EF90DF90CF905C
:10585000BF900895BF92CF92DF92EF92FF920F9385
:105860001F93CF93DF93EC010E94521FE0908E0CA8
:10587000F0908F0C0E94521FC0909E0CD0909F0CF5
:105880000E94521FB090B60C1091B70C0E94521F8C
:1058900001E08091DE0D9091DF0D019709F000E0AD
:1058A0002B2D312F1216130614F021E030E0A60143
:1058B000B701CE018E549F4F0E949314DF91CF9178
:1058C0001F910F91FF90EF90DF90CF90BF900895C0
:1058D000BF92CF92DF92EF92FF920F931F93CF93DD
:1058E000DF93EC010E94521FE0908A0CF0908B0C29
:1058F0000E94521FC0909A0CD0909B0C0E94521F85
:10590000B090B20C1091B30C0E94521F01E0809134
:10591000DA0D9091DB0D019709F000E02B2D312F6E
:105920001216130614F021E030E0A601B701CE01F3
:1059300040960E949314DF91CF911F910F91FF9099
:10594000EF90DF90CF90BF9008958F929F92AF928B
:10595000BF92CF92DF92EF92FF92CF93DF937B01C2
:105960000E94521FEC01F70182A093A0A4A0B5A051
:10597000C68CD78CE0A0F1A08A819B818F30F7E2A2
:105980009F070CF049C001969B838A838C819D817F
:105990008F3027E292070CF042C096012B7F2155F1
:1059A00031092330310558F096012B553109233048
:1059B000310528F02A5431092330310518F40196B5
:1059C0009D838C83C6010E948E07882359F1F601BE
:1059D000EE0FFF1FEE0FFF1FEA5BF44F80829182F4
:1059E000A282B382B501A401C6010E94851EB60140
:1059F000CE010E9412190E9440200E94102090E0C7
:105A000080E0DF91CF91FF90EF90DF90CF90BF903B
:105A1000AF909F908F9008951B821A82B7CF1D82FE
:105A20001C82D0CF8BE394E00E94C717E4CFCF93C2
:105A3000DF93EB010E94521F6E8D7F8D0E94121921
:105A400090E080E0DF91CF9108950E94521F0E9464
:105A50004C1984ED94E00E94C7170E94E7160E943B
:105A6000331890E080E008950F931F93CF93DF9356
:105A7000EC0188819981009759F02A813B81261792
:105A8000370730F081E0DF91CF911F910F9108959A
:105A90008B016F5F7F4F0E943864009759F09983A4
:105AA00088831B830A832C813D81232B59F7FC01BA
:105AB0001082E8CF80E0E7CF0F931F93CF93DF935F
:105AC000EC018B01D1DF28813981811112C02115B0
:105AD000310519F0C9010E947C5C198218821D826F
