:100000009DC10000CCC10000CAC10000C8C10000F1
:10001000C6C10000C4C10000C2C10000C0C10000D0
:10002000BEC10000BCC10000BAC10000B8C10000E0
:10003000B6C10000B4C10000B2C10000B0C10000F0
:10004000AEC100000C94A847AAC10000A8C10000DE
:100050000C94D647A4C10000A2C100000C94D44661
:100060009EC100000C949E460C94744698C10000FA
:1000700096C1000094C1000092C1000090C1000030
:100080000C947A478CC100008AC1000088C100002E
:1000900086C1000084C1000082C1000080C1000050
:1000A0007EC100007CC100000C944C4778C1000068
:1000B00076C1000074C1000072C100000C941E479C
:1000C0006EC100006CC100006AC1000068C1000080
:1000D00066C1000064C1000062C1000060C1000090
:1000E0005EC100004E414E494E495459494E46CDDD
:1000F000CCCC3D0AD7233C17B7D13877CC2B3295DF
:1001000095E6241FB14F0A000020410000C84200BC
:10011000401C4620BCBE4CCA1B0E5AAEC59D740086
:10012000407A10F35A00A0724E18090010A5D4E8C6
:100130000000E87648170000E40B54020000CA9A59
:100140003B000000E1F505000080969800000040AB
:10015000420F000000A086010000001027000000F0
:1001600000E803000000006400000000000A000036
:100170000000000100000000002C76D888DC674FEA
:100180000823DFC1DFAE59E1B1B796E5E3E453C61A
:100190003AE651997696E8E6C28426EB898C9B6212
:1001A000ED407C6FFCEFBC9C9F40F2BAA56FA5F4BC
:1001B00090055A2AF75C936B6CF9676DC11BFCE0E4
:1001C000E40D47FEF520E6B500D0ED902E03009437
:1001D0003577050080841E080000204E0A000000CC
:1001E000C80C333333330F986E12831141EF8D21D6
:1001F00014893BE65516CFFEE6DB18D1844B381B3D
:10020000F77C1D901DA4BBE424203284725E228101
:1002100000C9F124ECA1E53D2700002200250028BB
:10022000002B002E003100340002010000050108FF
:10023000010B01000020002300260029002C002FC4
:100240000032000001000003010601090100000A5C
:100250000B02090C0D0E080703040100000000004A
:10026000000000000000000000000000000000008E
:10027000000000000000000000121110000000004B
:10028000000000000000000000000000000000006E
:1002900000000000002100240027002A002D00306B
:1002A00000330001010000040107010A01010210EE
:1002B0002020080810204010204080020102010880
:1002C0000402010102040810204080804020100830
:1002D0000402018004020180402010080402010889
:1002E00004020101020408102040800102040810E9
:1002F00020408005050505070508080808020202D8
:10030000020A0A08080404040401010101010101B0
:10031000010303030303030303040707070C0C0C87
:100320000C0C0C0C0C02020202060606060606065F
:10033000060B0B0B0B0B0B0B0B00014811241FBE04
:10034000CFEFD1E2DEBFCDBF00E00CBF19E0A0E0EF
:10035000B2E0E4ECFAEB00E00BBF02C007900D92B4
:10036000A230B107D9F72EE0A2E0B9E001C01D929A
:10037000AE3EB207E1F711E0CEE9D1E000E006C001
:1003800021970109802FFE010E944B5CCD39D107D6
:1003900080E00807A9F70E9472480C94605D30CE97
:1003A0008CBD9DBD08959C01803E910508F0D1C58E
:1003B000FC018827E152FE4F8F4F0C944B5CBF022B
:1003C000CC02D502DE02E702F002A907A907A907BD
:1003D000A907A907FD020A031703A90724032D0390
:1003E000360343034C0355035E0367037003A907F9
:1003F000790382038B03A907A907A90794039D0327
:10040000A603A907A907AF03BC03A907A907A90762
:10041000C903D603E303F003FD030A041704A90785
:10042000A907A90724042D043604A907430450048E
:100430005D04A907A907A9076A0477048404910445
:100440009E04AB04B804A907A907A907C504D204F0
:10045000DF04EC04F90402050B05A907A907A907A5
:10046000B005BD05CA05A907D705E405F105A9072B
:10047000A907A907FE0507061006A907A907A907E6
:10048000A907A907A907A907190622062B06A90784
:1004900034063D064606A907A907A9074F065C06CC
:1004A0006906A907760683069006A907A907A90782
:1004B0009D06AA06B706A907C406CD06D606A90753
:1004C000A907A907DF06E806F106A907A907A907F2
:1004D000A907A907A907A907A907A907A907A9079C
:1004E000140521052E05A907A907A907A907A9072A
:1004F000A907A907A907A907A907A907A907A9077C
:100500003B0548055505A90789059605A305A907D3
:10051000A907A90762056F057C05A907A907A9070F
:10052000A907A907A907A907A907A907A907A9074B
:10053000A907A907A907A907A907A907A907A9073B
:10054000A907A907A907A907A907A907A907A9072B
:10055000FA0603071007A9071D0726073307A9078F
:10056000A907A907400749075607A90763076C07AA
:100570007907A907A907A90786078F079C0781E0C4
:1005800090E0A0E0B0E08093250A9093260AA09323
:10059000270AB093280A08951092290A10922A0A6D
:1005A00010922B0A10922C0A089510922D0A109284
:1005B0002E0A10922F0A1092300A08951092310AD2
:1005C0001092320A1092330A1092340A089510924F
:1005D000350A1092360A1092370A1092380A089596
:1005E00083E090E0A0E0B0E08093390A90933A0A6B
:1005F000A0933B0AB0933C0A089588E790E0A0E0FE
:10060000B0E08093510A9093520AA093530AB0939A
:10061000540A089588E790E0A0E0B0E08093550A7E
:100620009093560AA093570AB093580A089588E702
:1006300090E0A0E0B0E08093590A90935A0AA0930A
:100640005B0AB0935C0A08951092610A1092620AE4
:100650001092630A1092640A08951092650A10922B
:10066000660A1092670A1092680A089581E090E085
:10067000A0E0B0E08093690A90936A0AA0936B0AA5
:10068000B0936C0A089510926D0A10926E0A10923F
:100690006F0A1092700A08951092710A1092720AED
:1006A0001092730A1092740A08951092750A1092AB
:1006B000760A1092770A1092780A08951092790AB1
:1006C00010927A0A10927B0A10927C0A0895109276
:1006D0007D0A10927E0A10927F0A1092800A089575
:1006E0001092810A1092820A1092830A1092840A50
:1006F00008951092890A10928A0A10928B0A109219
:100700008C0A089510928D0A10928E0A10928F0A08
:100710001092900A08951092910A1092920A1092E3
:10072000930A1092940A08951092A10A1092A20AB4
:100730001092A30A1092A40A08951092A50A10928A
:10074000A60A1092A70A1092A80A08951092A90A60
:100750001092AA0A1092AB0A1092AC0A089581E096
:1007600090E0A0E0B0E08093B50A9093B60AA09321
:10077000B70AB093B80A089581E090E0A0E0B0E035
:100780008093B90A9093BA0AA093BB0AB093BC0AAB
:1007900008958CE291E0A0E0B0E08093C90A9093C4
:1007A000CA0AA093CB0AB093CC0A08958CE291E0D8
:1007B000A0E0B0E08093CD0A9093CE0AA093CF0A38
:1007C000B093D00A08958CE291E0A0E0B0E080936D
:1007D000D10A9093D20AA093D30AB093D40A089571
:1007E0008CE291E0A0E0B0E08093D50A9093D60A25
:1007F000A093D70AB093D80A089581E090E0A0E0D2
:10080000B0E08093D90A9093DA0AA093DB0AB09300
:10081000DC0A089581E090E0A0E0B0E08093DD0A7A
:100820009093DE0AA093DF0AB093E00A089581E076
:1008300090E0A0E0B0E08093E10A9093E20AA093F8
:10084000E30AB093E40A08951092F10A1092F20AB2
:100850001092F30A1092F40A08951092F50A109279
:10086000F60A1092F70A1092F80A089581E090E0D3
:10087000A0E0B0E08093F90A9093FA0AA093FB0AF3
:10088000B093FC0A089585E090E0A0E0B0E080938A
:10089000010B9093020BA093030BB093040B0895EC
:1008A00085E090E0A0E0B0E08093050B9093060B0C
:1008B000A093070BB093080B089589E190E0A0E0A6
:1008C000B0E08093090B90930A0BA0930B0BB093AD
:1008D0000C0B089582E390E0A0E0B0E08093190B48
:1008E00090931A0BA0931B0BB0931C0B089582E3FB
:1008F00090E0A0E0B0E080931D0B90931E0BA093BE
:100900001F0BB093200B089582E390E0A0E0B0E0CD
:100910008093210B9093220BA093230BB093240B75
:10092000089582E390E0A0E0B0E08093250B9093DF
:10093000260BA093270BB093280B089580E991E034
:10094000A0E0B0E08093290B90932A0BA0932B0B8F
:10095000B0932C0B089580E991E0A0E0B0E0809383
:100960002D0B90932E0BA0932F0BB093300B08956B
:1009700080E991E0A0E0B0E08093310B9093320BDE
:10098000A093330BB093340B089580E991E0A0E07D
:10099000B0E08093410B9093420BA093430BB09334
:1009A000440B089580E991E0A0E0B0E08093450B0E
:1009B0009093460BA093470BB093480B089580E9A2
:1009C00091E0A0E0B0E08093490B90934A0BA09394
:1009D0004B0BB0934C0B089580E991E0A0E0B0E0A0
:1009E00080934D0B90934E0BA0934F0BB093500BF5
:1009F00008951092510B1092520B1092530B1092BB
:100A0000540B08951092550B1092560B1092570BE1
:100A10001092580B08951092590B10925A0B109285
:100A20005B0B10925C0B089581E090E0A0E0B0E0D9
:100A30008093690C90936A0CA0936B0CB0936C0C30
:100A4000089581E090E0A0E0B0E080936D0C909379
:100A50006E0CA0936F0CB093700C089581E090E041
:100A6000A0E0B0E08093710C9093720CA093730C93
:100A7000B093740C089581E090E0A0E0B0E0809322
:100A8000A90C9093AA0CA093AB0CB093AC0C089556
:100A900081E090E0A0E0B0E08093AD0C9093AE0CCC
:100AA000A093AF0CB093B00C089581E090E0A0E06B
:100AB000B0E08093B10C9093B20CA093B30CB093C0
:100AC000B40C089582E390E0A0E0B0E08093D10CF4
:100AD0009093D20CA093D30CB093D40C089582E3DE
:100AE00090E0A0E0B0E08093D50C9093D60CA0935A
:100AF000D70CB093D80C08958AEF90E0A0E0B0E056
:100B00008093D90C9093DA0CA093DB0CB093DC0C9F
:100B1000089581E090E0A0E0B0E08093B90C90935C
:100B2000BA0CA093BB0CB093BC0C089581E090E08C
:100B3000A0E0B0E08093BD0C9093BE0CA093BF0CDE
:100B4000B093C00C089581E090E0A0E0B0E0809305
:100B5000C10C9093C20CA093C30CB093C40C089525
:100B600088E592E0A0E0B0E08093690B90936A0B77
:100B7000A0936B0BB0936C0B089588E592E0A0E016
:100B8000B0E080936D0B90936E0BA0936F0BB093BE
:100B9000700B089588E592E0A0E0B0E08093710BBF
:100BA0009093720BA093730BB093740B08958FE323
:100BB00090E0A0E0B0E08093790B90937A0BA09343
:100BC0007B0BB0937C0B08958FE390E0A0E0B0E046
:100BD00080937D0B90937E0BA0937F0BB093800B43
:100BE00008958FE390E0A0E0B0E08093810B9093B4
:100BF000820BA093830BB093840B08951092910BFA
:100C00001092920B1092930B1092940B08951092E5
:100C1000950B1092960B1092970B1092980B0895CB
:100C20001092990B10929A0B10929B0B10929C0BA6
:100C300008951092B90B1092BA0B1092BB0B109240
:100C4000BC0B08951092BD0B1092BE0B1092BF0BFF
:100C50001092C00B08951092C10B1092C20B10920B
:100C6000C30B1092C40B08951092C90B1092CA0BBB
:100C70001092CB0B1092CC0B08951092CD0B1092CA
:100C8000CE0B1092CF0B1092D00B08951092D10B77
:100C90001092D20B1092D30B1092D40B089585E0D2
:100CA00090E0A0E0B0E08093E10B9093E20BA09382
:100CB000E30BB093E40B089585E090E0A0E0B0E092
:100CC0008093E50B9093E60BA093E70BB093E80BB2
:100CD000089585E090E0A0E0B0E08093E90B909368
:100CE000EA0BA093EB0BB093EC0B089584EB95E12A
:100CF000A0E0B0E08093F10B9093F20BA093F30B84
:100D0000B093F40B089584EB95E1A0E0B0E08093FC
:100D1000F50B9093F60BA093F70BB093F80B089597
:100D200084EB95E1A0E0B0E08093F90B9093FA0B8F
:100D3000A093FB0BB093FC0B089585E090E0A0E03E
:100D4000B0E08093090C90930A0CA0930B0CB09325
:100D50000C0C089585E090E0A0E0B0E080930D0CCD
:100D600090930E0CA0930F0CB093100C089585E097
:100D700090E0A0E0B0E08093110C9093120CA0934F
:100D8000130CB093140C08951092190C10921A0CB5
:100D900010921B0C10921C0C089510921D0C1092B6
:100DA0001E0C10921F0C1092200C08951092210C12
:100DB0001092220C1092230C1092240C0895109281
:100DC000310C1092320C1092330C1092340C0895A6
:100DD0001092350C1092360C1092370C1092380C81
:100DE00008951092390C10923A0C10923B0C10920C
:100DF0003C0C08951092490D10924A0D10924B0D23
:100E000010924C0D08958CE390E0A0E0B0E0809348
:100E10004D0D90934E0DA0934F0DB093500D08952E
:100E200081E090E0A0E0B0E08093510D9093520DEE
:100E3000A093530DB093540D08951092590D109234
:100E40005A0D10925B0D10925C0D08958CE390E0AA
:100E5000A0E0B0E080935D0D90935E0DA0935F0DD8
:100E6000B093600D089581E090E0A0E0B0E0809341
:100E7000610D9093620DA093630DB093640D08957E
:100E80001092710D1092720D1092730D1092740DDC
:100E900008958CE390E0A0E0B0E08093750D90930E
:100EA000760DA093770DB093780D089581E090E0D2
:100EB000A0E0B0E08093790D90937A0DA0937B0D24
:100EC000B0937C0D08951092810D1092820D1092B6
:100ED000830D1092840D08958CE390E0A0E0B0E0C3
:100EE0008093850D9093860DA093870DB093880D08
:100EF000089581E090E0A0E0B0E08093890D9093A8
:100F00008A0DA0938B0DB0938C0D08951092990DBE
:100F100010929A0D10929B0D10929C0D08958CE3E7
:100F200090E0A0E0B0E080939D0D90939E0DA09383
:100F30009F0DB093A00D089581E090E0A0E0B0E097
:100F40008093A10D9093A20DA093A30DB093A40D37
:100F50000895220F331F220F331FF901EB5DF54F68
:100F6000108211821282138208958C3691050CF042
:100F70004EC089369105CCF4863391055CF58333F8
:100F800091059CF48C319105BCF4893191056CF488
:100F90008E30910564F48B3091053CF4009729F074
:100FA00097FD08C00297049728F481E008950F97F1
:100FB0000997D8F380E00895863291053CF4843295
:100FC00091059CF74F970397A8F7EFCF899707975D
:100FD00088F7EBCF8435910574F4813591052CF7B2
:100FE000843491052CF48D339105FCF6C797EBCF33
:100FF00087549109ECCF8E35910534F48B359105EA
:10100000A4F685559109DFCF85569109DCCF843A46
:1010100091051CF5813A910544F68038910584F4D8
:101020008D37910514F6863791053CF48337910589
:101030000CF0BBCF8F569109C6CF89579109C3CF0A
:10104000803991053CF48D3891050CF0AECF835872
:101050009109B9CF81599109B6CF803D91058CF4A2
:101060008D3C91050CF0A1CF8E3A91053CF48B3A62
:1010700091050CF09ACF855A9109A5CF895C910909
:10108000A2CF8A3D91053CF4873D91050CF08DCFB0
:10109000835D910998CF8D5D910995CFAF92BF92F5
:1010A000CF92DF92EF92FF920F931F93CF93DF9334
:1010B0006C017B018B01040F151FEB015E01AE1863
:1010C000BF08C017D10759F06991D601ED91FC9185
:1010D0000190F081E02DC6011995892B79F7C501A2
:1010E000DF91CF911F910F91FF90EF90DF90CF9004
:1010F000BF90AF900895FC01538D448D252F30E0B3
:10110000842F90E0821B930B541710F0CF96089514
:1011100001970895FC01918D828D981761F0A28D41
:10112000AE0FBF2FB11D5D968C91928D9F5F9F7307
:10113000928F90E008958FEF9FEF0895FC01918DBD
:10114000828D981731F0828DE80FF11D858D90E02A
:1011500008958FEF9FEF0895FC01918D228D892FC7
:1011600090E0805C9F4F821B91098F7399270895AF
:101170008AEA9DE0F1DF21E0892B09F420E0822F4B
:101180000895FC01A48DA80FB92FB11DA35ABF4F1C
:101190002C91848D90E001968F739927848FA68976
:1011A000B7892C93A089B1898C91837080648C93CA
:1011B000938D848D981306C00288F389E02D808179
:1011C0008F7D80830895EF92FF920F931F93CF93AB
:1011D000DF93EC0181E0888F9B8D8C8D98131AC072
:1011E000E889F989808185FF15C09FB7F894EE8959
:1011F000FF896083E889F9898081837080648083B6
:101200009FBF81E090E0DF91CF911F910F91FF9000
:10121000EF900895F62E0B8D10E00F5F1F4F0F73A8
:101220001127E02E8C8D8E110BC00FB607FCFACF64
:10123000E889F989808185FFF5CFCE01A2DFF2CF61
:10124000EB8DEC0FFD2FF11DE35AFF4FF0829FB79E
:10125000F8940B8FEA89FB8980818062D0CF682F58
:101260008AEA9DE0B0CFCF93DF93EC01888D88238D
:10127000B1F0AA89BB89E889F9898C9185FD03C001
:10128000808186FD0CC00FB607FCF7CF8C9185FFDF
:10129000F2CF808185FFEDCFCE0173DFEACFDF9102
:1012A000CF91089580E090E0892B21F061DF8111DA
:1012B0000E94000080E090E0892B49F080E090E0FF
:1012C000892B29F00E94000081110E94000080E01B
:1012D00090E0892B49F080E090E0892B29F00E9472
:1012E000000081110E94000080E090E0892B49F00D
:1012F00080E090E0892B29F00E94000081110C947D
:10130000000008958150823108F05AC0E82FF0E0C3
:101310008827E257F64F8F4F0C944B5CAE09B20909
:10132000A009A609AA09E009B509BB09BF09C509B1
:10133000C909CD09D309D709E009DB09E109E509A4
:10134000809180008F778093800008958091800045
:101350008F7DF9CF80918000877FF5CF84B58F771F
:1013600084BD089584B58F7DFBCF8091B0008F77C9
:101370008093B00008958091B0008F7DF9CF809167
:1013800090008F77809390000895809190008F7DDA
:10139000F9CF80919000877FF5CF8091A0008F7763
:1013A0008093A00008958091A0008F7DF9CF809157
:1013B000A000877FF5CF809120018F778093200157
:1013C0000895809120018F7DF9CF80912001877F42
:1013D000F5CFCF93DF93282F30E0F901E35BFD4F8A
:1013E0008491F901E355FD4FD491F901ED50FD4F82
:1013F000C491CC2399F0811185DFEC2FF0E0EE0F42
:10140000FF1FED5CFD4FA591B491EC91ED2381E0C0
:1014100090E009F480E0DF91CF91089580E090E0C2
:10142000FACF1F93CF93DF93282F30E0F901E35BCE
:10143000FD4F8491F901E355FD4FD491F901ED5031
:10144000FD4FC491CC23A1F0162F81115BDFEC2F4F
:10145000F0E0EE0FFF1FE75EFD4FA591B4918FB74F
:10146000F894EC91111108C0D095DE23DC938FBF66
:10147000DF91CF911F910895DE2BF8CFCF93DF93AB
:1014800090E0FC01E355FD4F24918D509D4FFC01F0
:1014900084918823C9F090E0880F991FFC01ED56D4
:1014A000FD4FA591B491FC01E75EFD4FC591D4912C
:1014B00061110DC09FB7F8948C91209582238C9375
:1014C0008881282328839FBFDF91CF9108956230C0
:1014D00051F49FB7F8943C91822F809583238C938D
:1014E000E8812E2BEFCF8FB7F894EC912E2B2C9315
:1014F0008FBFEACF8230910538F0880F991F880F8F
:10150000991F05970197F1F708953FB7F8948091D7
:10151000180990911909A0911A09B0911B0926B5D3
:10152000A89B05C02F3F19F00196A11DB11D3FBF1B
:10153000BA2FA92F982F8827BC01CD01620F711DEA
:10154000811D911D42E0660F771F881F991F4A95E4
:10155000D1F708958F929F92AF92BF92CF92DF9270
:10156000EF92FF926B017C01D0DF4B015C01C11453
:10157000D104E104F104B1F0C8DF681979098A09DE
:101580009B09683E73408105910588F321E0C21AEA
:10159000D108E108F10888EE880E83E0981EA11CAE
:1015A000B11CE5CFFF90EF90DF90CF90BF90AF9050
:1015B0009F908F9008952FB7F894609114097091BF
:1015C000150980911609909117092FBF0895CF92A0
:1015D000DF92EF92FF92CF93DF93EC01603282E0D3
:1015E0007807CCF5653B710514F064EB70E08981F8
:1015F00028E830E0281B310987FD3395220F331F7F
:10160000220F331F6901330FEE08FF088A8128E596
:1016100032E0281B310987FD3395220F331F220F3B
:10162000331F032E000C440B550B2C193D094E099A
:101630005F09DB0177FF02C0B0E0A0E00E94E05A42
:1016400024EB30E040E050E00E94BA5AC20ED31EB4
:10165000E41EF51EB601E881E03370F5298188E8C3
:1016600090E0821B910927FD9395880F991F880FA1
:10167000991F681779077CF02A8188E592E0821B20
:10168000910927FD9395880F991F880F991F681757
:1016900079070CF4CB010297880F991F4FB7F89484
:1016A0002E2F30E0F901EE0FFF1FE20FF31FE95B71
:1016B000F14F928381834FBFDF91CF91FF90EF90E5
:1016C000DF90CF9008951F93CF93DF93EC01162FF7
:1016D0008881803308F04DC061E0812FCFDE8881A2
:1016E000282F30E0F901EE0FFF1FE20FF31FE95B37
:1016F000F14F1F736081607C612B608319821A82B5
:101700002CE0622F0E942C5C829FB001112430E0FB
:1017100020E0AB01420F531FFA01EE0FFF1FE40F51
:10172000F51FE95BF14F908196FD16C02F5F3F4F8B
:101730002C30310571F7813009F51092800082E07C
:10174000809381001092850010928400B19A80915C
:101750006F00826080936F00E8818E2F90E0FC0123
:10176000EE0FFF1FE80FF91FE95BF14F80818064E6
:1017700080838881DF91CF911F910895823061F439
:101780001092900080939100109295001092940016
:1017900088BB80937100E0CF833069F41092A00081
:1017A00082E08093A1001092A5001092A40089BB52
:1017B00080937200D1CF8111CFCF1092200182E0AF
:1017C0008093210110922501109224018ABB8093FD
:1017D0007300C2CFAF92BF92CF92DF92EF92FF928F
:1017E0000F931F93CF93DF936B017A01EC01C15FDD
:1017F000D64F28813CE0389F8001399F100D11247D
:10180000A090D70EB12C27FF1FC0FB0111821082C0
:1018100088818F5F888388819801280F311D87FD1B
:101820003A95F6012A153B051CF488818C30BCF1F1
:1018300080819181049680349C4908F471C0F6013E
:101840008081918104966EC088819801280F311D96
:1018500087FD3A952A153B05DCF68881A801480FDB
:10186000511D87FD5A95FA01EE0FFF1FE40FF51F7A
:10187000E95BF14F808186FFCBCF8881F801E80FCB
:10188000F11D87FDFA95CF01EE0FFF1FE80FF91F3D
:10189000E95BF14F808160E08F73C3DDB9CF808158
:1018A00091812881A801420F511D27FD5A959A0167
:1018B000FA01EE0FFF1FE20FF31FE95BF14F2181E9
:1018C0003281820F931FF701918380838881980171
:1018D000280F311D87FD3A95F901EE0FFF1FE20F2A
:1018E000F31FE95BF14F808186FF21C08881080FDB
:1018F000111D87FD1A95F801EE0FFF1FE00FF11F74
:10190000E95BF14F808161E08F73DF91CF911F918F
:101910000F91FF90EF90DF90CF90BF90AF9081CD6F
:1019200080E49CE9F701918380838FEF8883DF91C6
:10193000CF911F910F91FF90EF90DF90CF90BF90CC
:10194000AF9008950F931F93CF93DF938B01EA011C
:10195000AB01415051094534510508F0E9C022302E
:10196000310508F0E5C046E4429FF001439FF00DC9
:101970001124E80FF91FE60FF71F81E080836C2F19
:10198000232B09F4D2C061E0802F78DD209749F441
:1019900060E0802F46DDCE01DF91CF911F910F9146
:1019A0000895CF3FD10511F461E0BFC0F801E35BBA
:1019B000FD4FE491E150E23108F0B2C0F0E0882739
:1019C000EB51F34F8F4F0C944B5CF70CFE0C030D57
:1019D0000D0D170D900D210D290D310D3B0D450DF0
:1019E0004F0D5E0D680D900D720D7C0D860D84B54A
:1019F000806884BDC7BDD0E0C0E0CDCF84B5806233
:101A000084BDC8BDF8CF809180008068809380003D
:101A1000D0938900C0938800EECF809180008062CF
:101A200080938000D0938B00C0938A00E4CF809194
:101A30008000886080938000D0938D00C0938C00DC
:101A4000DACF8091B00080688093B000C093B3007B
:101A5000D2CF8091B00080628093B000C093B40078
:101A6000CACF80919000806880939000D0939900B5
:101A7000C0939800C0CF80919000806280939000C6
:101A8000D0939B00C0939A00B6CF8091900088605D
:101A900080939000D0939D00C0939C00ACCF809128
:101AA000A00080688093A0008091A0008F7B80932D
:101AB000A000D093A900C093A8009DCF8091A00062
:101AC00080628093A000D093AB00C093AA0093CF14
:101AD0008091A00088608093A000D093AD00C09357
:101AE000AC0089CF80912001806880932001D09341
:101AF0002901C09328017FCF8091200180628093CB
:101B00002001D0932B01C0932A0175CF8091200131
:101B1000886080932001D0932D01C0932C016BCF5E
:101B200060E0C038D1050CF03FCF802F7ADC63CF66
:101B3000C1E0D0E030CFCF93DF93D0E0C0E0CE0162
:101B400014DA882319F0CE010E94D3012196C13EF8
:101B5000D105A9F7DF91CF9108958FB7F8948091BF
:101B6000A90D8FBF08954F925F926F927F928F92CF
:101B70009F92AF92BF92CF92DF92EF92FF92CF935C
:101B8000DF93EC016C897D898E899F89888899888B
:101B9000AA88BB88CE8CDF8C0D2C000CEE08FF08C9
:101BA000603127E272078105910529F016161706A4
:101BB00018061906ACF0A7019601C501B4010E94F0
:101BC0001D5CDF91CF91FF90EF90DF90CF90BF90A1
:101BD000AF909F908F907F906F905F904F900895FF
:101BE0000E948E5920E030E44CE157E40E947C5B77
:101BF0002B013C01488E598E6A8E7B8EC501B40143
:101C00000E948E59A30192010E94ED594B015C0183
:101C1000C701B6010E948E599B01AC01C501B401F8
:101C20000E94ED590E94E45BCCCFFC01118210822E
:101C300013821282158214821782168210861186F0
:101C4000128613861486158616861786108A118AC0
:101C5000128A138A108E118E128E138E158E148E88
:101C6000178E168E10A211A212A213A214A215A2F0
:101C700016A217A210A611A612A613A614A615A6A0
:101C800081E090E097A786A780E197E2A0E0B0E02E
:101C9000848B958BA68BB78B08958EBD00000DB4F9
:101CA00007FEFDCF8EB50895CF93DF93EC01188A20
:101CB000198A1A8A1B8A83E590E00E94D00160E0AD
:101CC00086E1AFDB83E090E00197F1F78EA5829586
:101CD000807FE3DF8FE090E00197F1F761E086E13C
:101CE000DF91CF919ECBCF92DF92EF92FF920F9335
:101CF0001F93CF93DF938C0183E590E00E94D00186
:101D000060E086E18EDB83E090E00197F1F7F80177
:101D100086A597A524E0880F991F2A95E1F78F6083
:101D2000BCDF8FE090E00197F1F7C4E0D0E0C12C78
:101D3000D12C7601FE2CED2CDC2CCC2481E0ADDF07
:101D4000C82A2197B9F761E086E16BDBF801C08A08
:101D5000D18AE28AF38ADF91CF911F910F91FF9090
:101D6000EF90DF90CF9008952F923F924F925F9225
:101D70006F927F928F929F92AF92BF92CF92DF929B
:101D8000EF92FF920F931F93CF93DF9300D01F9298
:101D9000CDB7DEB79C838B834B015A011901FA82C0
:101DA000E982FA01408051806280738020E030E057
:101DB000A901C301B2010E94155C181674F4F60162
:101DC0002081318142815381C301B2010E94175B9E
:101DD000F5016083718382839383F8014080518091
:101DE00062807380F401A68DB78D20893189428984
:101DF00053890E94E05A6B017C01EB81FC81EC5815
:101E0000FF4F8081882309F440C0C414D504E60440
:101E1000F7040CF440C0F801C082D182E282F38260
:101E20008B819C81865B9F4F9C838B83FC0180818F
:101E30009181A281B381F10180839183A283B383D5
:101E4000E981FA8180819181892B41F0C4018BDE87
:101E5000EB81FC8160837183828393830F900F9069
:101E60000F900F90DF91CF911F910F91FF90EF9006
:101E7000DF90CF90BF90AF909F908F907F906F90AA
:101E80005F904F903F902F9008954C145D046E0426
:101E90007F040CF0C0CFF5014080518062807380D8
:101EA00020E030E04AEF56E4C301B2010E948859B5
:101EB00087FFB1CF20E030E040E85FE3C301B2012B
:101EC0000E94185BF5016083718382839383A3CFA3
:101ED000CF93DF93EC0183B183B1E0E0F1E0808147
:101EE0008081CE0186549E4FFEDE83B183B180B1E6
:101EF00080B1CE0186519E4FF6DE83B183B180B1B1
:101F000080B1CE01865E9D4FDF91CF91ECCE889A55
:101F10000895889808958E9A08958E980895EBE014
:101F2000F1E08081886080830895EBE0F1E08081BA
:101F3000877F80830895149A08951498089560E027
:101F4000FC0183856ECA60E0FC0185816ACA61E09C
:101F5000FC01838566CA61E0FC01858162CACF937A
:101F6000DF93EC01FC01E358FF4F1082379781E0CB
:101F7000808360E08D8155DA8F859889892B29F0DF
:101F800060E08B85DF91CF914CCADF91CF910895AE
:101F9000CF93DF93EC018B891CDA2E892817190661
:101FA00021F48F89DF91CF91089580E0FBCFCF930B
:101FB000DF93EC0189890DDA2E892817190621F49F
:101FC0008F89DF91CF91089580E0FBCFCF93DF938E
:101FD000EC018F8199AD61E0911101C060E021DADF
:101FE0008D859AAD992321F09BAD61E0911101C0DF
:101FF00060E0DF91CF9115CACF93DF93EC018F8121
:1020000099AD60E0911101C061E00BDA8D859AAD68
:10201000992321F09BAD60E0911101C061E0DF9157
:10202000CF91FFC9CF93DF93EC0161E08985F9D9A6
:102030008AAD882319F061E08F85F3D9C558DF4F49
:102040001882DF91CF910895CF93DF93EC01FC01CB
:10205000E058FC4F1082EE58F1098081811103C0D5
:10206000CE014096DFDFFE01ED50FD4F80818111F2
:1020700004C0CE0182569F4FD5DFFE01EC50FD4FCC
:102080008081811104C0CE01845D9E4FCBDF64E668
:1020900070E080E090E0DF91CF915CCACF93DF9356
:1020A000EC0160E08985BDD98AAD882319F060E034
:1020B0008F85B7D9C558DF4F81E08883DF91CF91F5
:1020C0000895CF92DF92EF92FF920F931F93CF93D9
:1020D000DF93FC01DC01AA5BBF4F4D935D936D93D1
:1020E0007C93139714964D935D936D937C93139704
:1020F00014960D931D932D933C931397EC01CE5A98
:10210000DF4FE88262978881882351F090AD91116A
:1021100050C037FF54C01D921D921D921C92139700
:10212000EF01CF5BDF4F488159816A817B811416B3
:1021300015061606170644F524969881992321F171
:102140000D911D912D913C9113976801790137FFF5
:1021500007C0CC24DD247601C01AD10AE20AF30AB2
:102160004C155D056E057F057CF437FF07C0709543
:102170006095509541955F4F6F4F7F4F4D935D93A5
:102180006D937C931397892FDF01A15ABF4F1D9246
:102190001D921D921C921397ED58FF4F91E0908372
:1021A000DF91CF911F910F91FF90EF90DF90CF9033
:1021B000089510161106120613060CF4ACCF80E039
:1021C000AFCF0F931F93CF93DF93EC01062F8D8931
:1021D00081110DC0CE01EBDE182FCE01D9DE011129
:1021E000182F812FDF91CF911F910F910895CE016C
:1021F000CFDE182FCE01DBDEF2CFCF93DF93EC01E1
:10220000FC01E159FF4F80819181A281B381019648
:10221000A11DB11D80839183A283B3833E9681E08B
:102220008083AE01465B5F4FFA0180819181A2817C
:10223000B3819E012C583F4FF9012081222309F4DC
:1022400040C00196A11DB11DFA0180839183A28334
:10225000B383FE01E058FF4F20813181C90195957C
:1022600087958C0F9D1F32970190F081E02D20FF04
:1022700008C0DC012D913C91E20FF31F0190F08129
:10228000E02D19958F859889892BF9F0FE01EC577F
:10229000FF4F20813181C901959587958C0F9D1F36
:1022A000CE57DF4FE881F98120FF08C0DC012D9176
:1022B0003C91E20FF31F0190F081E02DDF91CF916F
:1022C00019940197A109B109BFCFDF91CF9108956A
:1022D0008F929F92AF92BF92CF92DF92EF92FF9236
:1022E0000F931F93CF93DF93EC01FC01E15AFF4F53
:1022F00060817181828193810E948C596B017C0184
:102300006CAD7DAD8EAD9FAD0E948E599B01AC0131
:1023100060E074E284E799E40E947C5B4B015C011D
:10232000FE01E559FF4F60817181828193810E9496
:102330008C599B01AC01C501B4010E947C5B4B012F
:102340005C018E010D591F4F20E030E040E05FE35B
:102350000E94ED59A70196010E94185B0E94E95B5B
:10236000F8016083718382839383C959DF4FA5018C
:102370009401C701B6010E94185B0E94E95B688363
:1023800079838A839B83DF91CF911F910F91FF9077
:10239000EF90DF90CF90BF90AF909F908F90089577
:1023A0000F931F93CF93DF93FC01E358FF4F2081DE
:1023B0002223B9F07E9700811181228133813896E2
:1023C0004081518162817381041715072607370701
:1023D00010F1EC01C4DDCE01DF91CF911F910F917F
:1023E00077CFFC01ED58FF4F20812223A1F0749795
:1023F0000081118122813381349640815181628133
:102400007381041715072607370728F0DF91CF914E
:102410001F910F91F2CEDF91CF911F910F910895EF
:10242000FC01ED58FF4F2081222361F074978081D9
:102430009181A281B3810196A11DB11D80839183F9
:10244000A283B38308950F931F93FC01EE5AFF4FAD
:102450002081211112C0389700811181228133819E
:1024600034964081518162817381041715072607D4
:1024700037073CF41F910F91BFCDFC0120AD211116
:10248000F9CF1F910F91A2CDFC0113821282148209
:102490008CE291E0A0E0B0E0808F918FA28FB38FAB
:1024A000848F958FA68FB78F42E350E060E070E095
:1024B00040A351A362A373A344A355A366A377A328
:1024C00040A751A762A773A784A795A7A6A7B7A7F8
:1024D00080AB91ABA2ABB3AB88E790E0A0E0B0E0FB
:1024E00084AB95ABA6ABB7AB10AE11AE12AE13AECC
:1024F00084E690E0A0E0B0E084AF95AFA6AFB7AFC0
:10250000DF01A05CBF4F1C9211961D921D921D927F
:102510001C92139714961C9211961D921D921D9257
:102520001C92139714961D921D921D921C92139744
:1025300014961D921D921D921C92139714961C9234
:1025400011961D921D921D921C92139714961D9226
:102550001D921D921C92139714961D921D921D920E
:102560001C92139714961D921D921D921C92139704
:1025700014961D921D921D921C92139714961D92F3
:102580001D921D921C92139714961D921D921D92DE
:102590001C92139714961D921D921D921C921397D4
:1025A00014961C9211961C9211961C9211961C92D4
:1025B00011961C9211961C9211961C9211961C92C7
:1025C00011961C9211961C9211961C9216821582DD
:1025D0001086178212861186148613861686158633
:1025E000108A1786128A118A148A138A11968BEA26
:1025F0009FE011969C938E93129611961C921E92B8
:10260000129687EA9FE011969C938E9312961196EC
:102610001C921E92129683EA9FE011969C938E93D1
:10262000129611961C921E9212968FE99FE08D933E
:102630009C93E457FF4F11821082089508958FEF05
:102640009FEF0895089508950895089508950895B1
:102650000895089508950895089508950895089592
:10266000089508950895089508950895089580910E
:102670000D0990910E09892B41F481E090E00E94B0
:102680000F5490930E0980930D0980910D0990913C
:102690000E0908950F931F93CF93DF938B01E7DF0C
:1026A000F801C2A1D3A1868D978D8530910529F1BE
:1026B0004CF40497B1F090E080E0DF91CF911F914E
:1026C0000F9108958630910511F10B97A1F76BE0FA
:1026D00070E081EE9EE00E94630BBE0181EE9EE001
:1026E00009C064E070E088ED9EE00E94630BBE01CB
:1026F00088ED9EE00E94E70ADECF65E070E08BED9A
:102700009EE00E94630BBE018BED9EE0F3CF66E07E
:1027100070E08EED9EE00E94630BBE018EED9EE0A8
:10272000E9CF8091090990910A09892BA9F48CE8D5
:1027300090E00E940F54FC0131969C012A5B3F4FB0
:102740001192DF01AB5BBF4F1C92E217F307C1F799
:1027500090930A09809309098091090990910A09C7
:1027600008954F925F926F927F92AF92BF92CF92F5
:10277000DF92EF92FF920F931F93CF93DF93EB01C2
:10278000D0DF8C01CAA8DBA84EA45FA468A879A8F2
:10279000AEA0BFA0EE8CFF8C4AA15BA19601B70151
:1027A000D1D8C301B2010E94AA0A9601A501B701BE
:1027B000C801C8D890E080E0DF91CF911F910F91C0
:1027C000FF90EF90DF90CF90BF90AF907F906F9091
:1027D0005F904F900895CF93DF93EB01A2DF6AA93A
:1027E0008E8D0E943E0A90E080E0DF91CF910895A7
:1027F000CF93DF93EB0195DF2AA93BA94AA15BA107
:102800006E8D7F8D9FD890E080E0DF91CF9108950D
:102810008091020990910309892BE1F585E390E00D
:102820000E940F54FC0181E090E0A0E0B0E08083C2
:102830009183A283B38384839583A683B7838087A0
:102840009187A287B3871586148616861786108A05
:10285000118A128A138A148A158A168A178A108E88
:10286000118E138E128E12A213A214A215A217A2F9
:1028700016A210A611A612A613A614A615A616A691
:1028800017A610AA11AA12AA13AA14AAF093030950
:10289000E093020980910209909103090895CF9372
:1028A000DF93B6DFEC0185E40E94E90921E0892B82
:1028B00009F420E02C8FACDFEC0184E40E94E909EC
:1028C00021E0892B09F420E02D8FA2DFEC0183E4C5
:1028D0000E94E90921E0892B09F420E02E8F98DF7E
:1028E000EC0182E40E94E90921E0892B09F420E04F
:1028F0002F8F8EDFEC0181E40E94E90921E0892B12
:1029000009F420E028A384DFEC0180E40E94E909B7
:1029100021E0892B09F420E029A3DF91CF910895CC
:1029200077DFBDCF75DFFC0114AA90E080E0089549
:10293000FC0101900020E9F73197AF01481B590BCA
:10294000BC018AEA9DE00C944E088F929F92AF9250
:10295000BF920F931F93CF93DF93CDB7DEB7A197AD
:102960000FB6F894DEBF0FBECDBF19A2423008F4F7
:102970004AE08E010F5D1F4F842E912CB12CA12CAB
:10298000A50194010E94E65AE62FB901CA01EA3076
:10299000ECF4E05DD801EE938D01232B242B252B45
:1029A00079F790E080E0109711F0CD01C1DFA1969A
:1029B0000FB6F894DEBF0FBECDBFDF91CF911F9150
:1029C0000F91BF90AF909F908F900895E95CE2CFF8
:1029D000AFCF882319F08AE598E0FACF83E598E035
:1029E000FCCFFC0180819181009711F00C94AB54D5
:1029F00008950C94AB540C94AB540C94AB540C94BD
:102A0000AB540C94AB540C94AB540C94AB540C944A
:102A1000AB540C94AB540C94AB540C94AB540C943A
:102A2000AB540C94AB540C94AB540C94AB540C942A
:102A3000AB540C94AB540C94AB540C94AB540C941A
:102A4000AB540C94AB540C94AB540C94AB54CF9249
:102A5000DF92EF92FF92CF93DF9397FF18C06B0145
:102A60007C018DE20E942F09EC0166277727CB01BC
:102A70006C197D098E099F094AE067DF8C0F9D1F45
:102A8000DF91CF91FF90EF90DF90CF9008954AE0D3
:102A9000DF91CF91FF90EF90DF90CF9056CFBC01A8
:102AA000990F880B990BD3CFCF93DF93EC018FEA6B
:102AB00093E08EDF6AA17BA18CA19DA1C8DF84EA8F
:102AC00094E0DF91CF9184CF0F931F93CF93DF9347
:102AD0008C01EB0181E993E07BDF80E497E078DF14
:102AE000F80180810E942F09CE01D9DF91DEDF91AC
:102AF000CF911F910F91D8CFEF92FF920F931F9319
:102B0000CF93DF93182F092F7B016115710569F5AC
:102B10000E94E90931E020E0019709F030E0C32F7D
:102B2000D22F82E0E816F10408F045C082EB93E072
:102B30004FDF80E497E04CDF86EB93E049DF812FA5
:102B4000902FADDF80E497E043DF8FEF98E040DF28
:102B5000CE01A5DF5DDEA8DF90E080E0DF91CF91C0
:102B60001F910F91FF90EF900895D0E0C0E0613089
:102B70007105B9F6812F163310F08AEC810F209180
:102B80007B00982F9870277F922B90937B00877003
:102B9000806480937C0080917A00806480937A00C6
:102BA00080917A0086FDFCCF80917800C0917900F9
:102BB000DC2FC82FB6CF81E090E0D0CF0F931F93CA
:102BC000CF93DF93FC012081318121153105C1F1C3
:102BD000EC01822F0E94E90921E0892B09F420E011
:102BE0002B876A85261701F11E821F821886198697
:102BF0000E811F81288539858A819B81AC81BD81A9
:102C0000081719072A073B07DCF081E0682788814D
:102C10000E94110A86DD70E060E088819981DF9171
:102C2000CF911F910F9168CF8E819F81A885B98523
:102C30000196A11DB11D8E839F83A887B987D8CF28
:102C4000DF91CF911F910F910895CF93DF93EB0107
:102C500068DD6AA97BA98E8D9F8D4EDF90E080E0B4
:102C6000DF91CF910895CF92DF92EF92FF92CF93B1
:102C7000DF93EB01CB010E94B507882351F1FE01E0
:102C8000EE0FFF1FEE0FFF1FEB5DF54FC080D180F1
:102C9000E280F38088EB93E09BDE80E497E098DEAF
:102CA00086EB93E095DECE01FADE80E497E090DEDD
:102CB0008FEF98E08DDEC701B601C9DEA9DDF4DE35
:102CC00090E080E0DF91CF91FF90EF90DF90CF9088
:102CD00008958CEB93E07CDEF3CF0F931F93CF939B
:102CE000DF938C01D0E0C0E0CE010E94B5078823BD
:102CF00019F0BE01C801B7DF2196C13ED105A1F789
:102D0000DF91CF911F910F9108958EED93E060DEDA
:102D100082E492E05DDE8AE092E05ADE83EE93E0A8
:102D200057DE76DDC1DE90E080E00895CF93DF933B
:102D3000EC018DEE93E04CDE81EF93E049DE8C8D6B
:102D400048DE85EF93E044DE8D8D43DE89EF93E02E
:102D50003FDE8E8D3EDE8DEF93E03ADE8F8D39DEE5
:102D600081E094E035DE88A134DE85E094E030DE59
:102D700089A12FDECE01DF91CF9196CE49DDD6CF4E
:102D800089E094E025DE44DD8ADD42DDCFDFC9DC69
:102D900070E060E088E090E0AFDEC3DC70E060E00F
:102DA00089E090E0A9DEBDDC70E060E08AE090E0C0
:102DB000A3DEB7DC70E060E08DE090E09DDE90E0A7
:102DC00080E008952F923F924F925F926F927F9290
:102DD0008F929F92AF92BF92CF92DF92EF92FF922B
:102DE0000F931F93CF93DF93CDB7DEB762970FB6E4
:102DF000F894DEBF0FBECDBF1C017C012AE4E20EB9
:102E0000F11CD7014D915D916D917C91FC01E25BCC
:102E1000FF4FFE87ED8780819181A281B3814101BF
:102E2000F2E58F0E911CF4012081B2966F018101B1
:102E30000B581F4F2223E1F1F10120ADF601208351
:102E400021E0F8012083411551056105710591F4D8
:102E50002081F101E559FF4F6F01F101222309F4AF
:102E60004FC044A055A066A077A0F60140825182D1
:102E70006282738291012A5B3F4F3A8B298BF90161
:102E80004080518062807380235D3F4F5901481616
:102E900059066A067B06CCF5481759076A077B076F
:102EA000F4F1D4018C9181113AC0D5011C9240C13A
:102EB00021E0481759076A077B070CF020E0F6016C
:102EC00020835A016B0177FF07C0AA24BB24650148
:102ED000A41AB50AC60AD70A2C013D01B7FF07C0DC
:102EE000442455243201481A590A6A0A7B0A21E00F
:102EF000A414B504C604D7040CF0A3CF20E0A1CFDE
:102F000040A051A062A073A0B0CF84159505A6057E
:102F1000B7053CF684179507A607B70714F6F50121
:102F20008081882311F2D4018C9181110DC0F401AC
:102F300080818111BACFD8016C9181E06827C101ED
:102F400040D98111B2CF05C060E0C1013AD98111E9
:102F5000EECFD10158962D913D914D915C915B97AB
:102F600029833A834B835C83F8018081811105C1F9
:102F7000D1019C968D919D910D90BC91A02D8D833A
:102F80009E83AF83B887D10190962D913D914D914D
:102F90005C91939729873A874B875C87ED85FE85FF
:102FA00080819181A281B381F701C080D180E280CC
:102FB000F380E989FA894081518162817381F1014D
:102FC000E958FF4F1082319610823101F9E76F0EF8
:102FD000711CF3011082910126583F4FF9011082B4
:102FE000329610824C015D01841A950AA60AB70A2E
:102FF000B7FE08C0B094A09490948094811C911C5A
:10300000A11CB11C481759076A077B070CF0C9C0FF
:10301000C41AD50AE60AF70AD501C401B595A795E1
:10302000979587958D879E87AF87B88B81010458C8
:103030001F4F8C149D04AE04BF0408F0B7C0D1012B
:1030400098960D90BC91A02DBA8BA98B81E0F901C7
:103050008083D8018C93F1018481882309F45CC0BA
:103060000E94DB0AD10112960D911C91012E000CD9
:10307000220B330B601B710B820B930B693E734069
:103080008105910508F448C00E94DB0AF1017383B1
:10309000628380E194E09CDC84E194E099DC60E070
:1030A00070E0CB01D4DC8AE194E092DCC701B60188
:1030B000CEDC80E294E08CDCC501B401C8DC86E2A1
:1030C00094E086DC4AE06D857E858F8598893DDCBD
:1030D0008DE294E07DDC6D817E818F819885B7DC07
:1030E00083E394E075DC69857A858B859C85AFDC0C
:1030F00089E394E06DDC69817A818B819C81A7DC16
:103100008FE394E065DC80E497E062DC89899A894A
:10311000C6DC84EA94E05CDCF101E559FF4F2989C3
:103120003A89C901B0E0A0E080839183A283B38390
:1031300060E0C10146D8882339F0F101E65BFF4F1A
:10314000108211821282138262960FB6F894DEBF4B
:103150000FBECDBFDF91CF911F910F91FF90EF90E8
:10316000DF90CF90BF90AF909F908F907F906F90A7
:103170005F904F903F902F900895F101848D958D31
:10318000A68DB78D29813A814B815C818217930787
:10319000A407B5070CF0ECCE89839A83AB83BC837C
:1031A000E7CEC81AD90AEA0AFB0A36CF2D853E8532
:1031B0004F8558892C153D054E055F0508F450C014
:1031C0008D819E81AF81B8858C159D05AE05BF05AB
:1031D00044F4A981BA811196BA8BA98B81E0F301DD
:1031E00037CFC701B6010E948E592B013C016D817A
:1031F0007E818F8198850E948E599B01AC01C3010D
:10320000B2010E947C5B2B013C0169817A818B8138
:103210009C8129853A854B855C85621B730B840BE9
:10322000950B0E948E599B01AC01C301B2010E9413
:10323000ED592B013C0169857A858B859C850E941F
:103240008E599B01AC01C301B2010E94185B0E9420
:10325000E45B7A8B698B81E0F101E958FF4FF8CE8E
:10326000D501C4012D813E814F815885821B930B6E
:10327000A40BB50BC816D906EA06FB065CF4498117
:103280005A814E5F5F4F5A8B498B81E0F101E758BD
:10329000FF4FDECEC501B4016C197D098E099F096F
:1032A0000E948E592B013C016D817E818F81988512
:1032B0000E948E599B01AC01C301B2010E947C5B4C
:1032C0002B013C0169817A818B819C8129853A851A
:1032D0004B855C85621B730B840B950B0E948E598A
:1032E0009B01AC01C301B2010E94ED592B013C01CD
:1032F00069857A858B859C850E948E599B01AC01DE
:10330000C301B2010E94185B0E94E45B7A8B698B57
:1033100081E0F101E858FF4F9BCE4F925F926F9290
:103320007F928F929F92AF92BF92CF92DF92EF9255
:10333000FF920F931F93CF936B017C01742EAC010E
:103340009B010E94195C882391F085E494E0CF9161
:103350001F910F91FF90EF90DF90CF90BF90AF90B3
:103360009F908F907F906F905F904F90E1CA460141
:103370005701E894B7F82FEF3FEF4FE75FE7C5013C
:10338000B4010E94195C81110DC02FEF3FEF4FE790
:103390005FE7C501B4010E94885918161CF489E43E
:1033A00094E0D5CF2FEF3FEF4FE75FE4C701B601C1
:1033B0000E94155C18161CF48DE494E0C8CF2FEF22
:1033C0003FEF4FE75FECC701B6010E94885987FDC8
:1033D000F3CF20E030E0A901C701B6010E9488596F
:1033E00010E000E087FF08C08DE20E942F098C01E9
:1033F000F7FAF094F7F8F094C0E060E070E080E055
:103400009FE37C1641F020E030E040E251E40E946E
:103410007C5BCF5FF6CFA70196010E94185B2B0162
:103420003C010E94E95B4B015C014AE08EDA7C01C1
:10343000E00EF11ECC23A9F1C501B4010E948C5904
:103440009B01AC01C301B2010E94175B4B015C01FF
:103450008EE20E942F09E80EF91EC15010F120E003
:1034600030E040E251E4C501B4010E94ED592B0166
:103470003C010E94E95B4B01B12CA12C4AE0C50143
:10348000B40163DAE80EF91EC501B4010E948C593B
:103490009B01AC01C301B2010E94175B4B015C01AF
:1034A000DCCFC701CF911F910F91FF90EF90DF907C
:1034B000CF90BF90AF909F908F907F906F905F90D4
:1034C0004F9008958F929F92AF92BF92CF92DF92CA
:1034D000EF92FF920F931F93CF93DF93EC0181E55F
:1034E00092E076DA86E694E073DA6E0186E4C81A32
:1034F0008EEFD80AC6010E94B30D0E948E594B016F
:103500005C01FE01ED5EFC4F6081718182819381DF
:103510000E948E599B01AC01C501B4010E947C5BE5
:1035200042E0FBDE86E794E053DA7E01E6E1EE1A44
:10353000EEEFFE0AC7010E94B30D0E948E594B01A7
:103540005C01FE01E95EFC4F6081718182819381A3
:103550000E948E599B01AC01C501B4010E947C5BA5
:1035600042E0DBDE86E894E033DA8E01065E1D4F32
:10357000C8010E94B30D0E948E594B015C01C55ECB
:10358000DC4F688179818A819B810E948E599B01E1
:10359000AC01C501B4010E947C5B42E0BEDE38D9BB
:1035A00083DA8DE492E014DA86E694E011DAF6012B
:1035B000A68DB78D20893189428953890E94E05AAE
:1035C00046DA86E794E004DAF701A68DB78D208904
:1035D0003189428953890E94E05A39DA86E894E0B9
:1035E000F7D9F801A68DB78D208931894289538991
:1035F0000E94E05A2CDA0CD9DF91CF911F910F91E4
:10360000FF90EF90DF90CF90BF90AF909F908F9002
:103610004BCACF92DF92EF92FF92CF93DF93EC01F0
:1036200088819981AA81BB81181619061A061B0682
:1036300044F081E090E0A0E0B0E088839983AA8321
:10364000BB838C819D81AE81BF81181619061A0635
:103650001B0644F081E090E0A0E0B0E08C839D8305
:10366000AE83BF8388859985AA85BB851816190600
:103670001A061B0644F081E090E0A0E0B0E08887E5
:103680009987AA87BB8781E594E0A2D986E694E072
:103690009FD96E857F85888999890E948E596B0193
:1036A0007C01688179818A819B810E948E599B016E
:1036B000AC01C701B6010E947C5B42E02EDE86E7CA
:1036C00094E086D96A897B898C899D890E948E596C
:1036D0006B017C016C817D818E819F810E948E595E
:1036E0009B01AC01C701B6010E947C5B42E015DE84
:1036F00086E894E06DD96E897F89888D998D0E94C6
:103700008E596B017C01688579858A859B850E942D
:103710008E599B01AC01C701B6010E947C5B42E05F
:10372000FCDDCE01DF91CF91FF90EF90DF90CF9045
:10373000BBC96ED86EDF90E080E00895CF92DF9233
:10374000EF92FF920F931F93CF93DF938C016A0147
:103750007B01EC01CC0FDD1F642FCE010E94AC5A1F
:103760009927F7FC9A958F2D7E2D6D2DCE01019610
:103770000E94AC5A0D5811090330110588F4B701A5
:10378000992777FD9095892FCE0144960E94AC5AD7
:103790006F2D772788279927CE0145960E94AC5A2E
:1037A00090E080E0DF91CF911F910F91FF90EF901B
:1037B000DF90CF9008954F925F926F927F928F9299
:1037C0009F92AF92BF92CF92DF92EF92FF920F93B0
:1037D0001F93CF93DF938C01EC01CC0FDD1FCE0143
:1037E0000E94A45A882E912CB12CA12CCE010196B6
:1037F0000E94A45AC82ED12CF12CE12C0D5811098D
:103800000330110508F05AC0CE0144960E94A45A14
:10381000482E512C712C612CCE0145960E94A45A41
:10382000082F10E030E020E08FEF481651046104CB
:10383000710429F50F3F11052105310501F58FEFC1
:1038400088169104A104B104C9F58FEFC816D104FC
:10385000E104F10499F56FEF7FEFCB01DF91CF9198
:103860001F910F91FF90EF90DF90CF90BF90AF909E
:103870009F908F907F906F905F904F900895003849
:103880001105210531053CF7FE2CED2CDC2CCC2458
:10389000C701B601680D791D8A1D9B1D3201552493
:1038A0004424640D751D861D971D302F2227112776
:1038B0000027600F711F821F931FD0CF00E010E020
:1038C0009801412C512C320180E8C816D104E10442
:1038D000F104D4F2C0CFEF92FF920F931F93CF93D6
:1038E000DF938091070990910809892B51F586E0B3
:1038F00090E00E940F547C0190E080E05CDF16169F
:10390000170654F1C7010E949B0DD0E0C0E0CE0124
:103910000E94B507882369F0FE01EE0FFF1FEE0F2E
:10392000FF1FEB5DF54F4081518162817381CE01B4
:1039300005DF2196C639D10551F7F0920809E092CA
:1039400007098091070990910809DF91CF911F9194
:103950000F91FF90EF90089583E090E02CDF6130AD
:1039600071058105910531F505E21AE0D0E0C0E06E
:10397000CE010E94B5078823B1F0CE011CDFF8010B
:1039800060837183828393836F3F7F4F8F4F9F4FFD
:1039900051F4CE010E94D301F8014081518162812E
:1039A0007381CE01CBDE21960C5F1F4FC13ED10546
:1039B000F9F6C3CFC7010E949B0DBFCFCF92DF9214
:1039C000EF92FF920F931F93CF93DF937C016B01D4
:1039D0008A01E90180DFF601EE0FFF1FEE0FFF1FE6
:1039E000EB5DF54F80819181F7019183808373DFD7
:1039F000000F111F000F111FF801EB5DF54F81E063
:103A000040815181628173814130510561057105A9
:103A100009F080E0F70182875EDFCC0FDD1FCC0F5D
:103A2000DD1FCB5DD54F88819981AA81BB81F701CC
:103A300082839383A483B5831682178210861186AE
:103A4000DF91CF911F910F91FF90EF90DF90CF907A
:103A50000895CF93DF93EC012AEC30E04BEC50E07B
:103A600069EC70E0ABDF2EEC30E04FEC50E06DEC39
:103A700070E0CE010C96A2DF24ED30E045ED50E081
:103A800063ED70E0CE01489699DF28ED30E049ED16
:103A900050E067ED70E0CE01849690DF2EED30E0CF
:103AA0004FED50E06DED70E0CE01C096DF91CF910B
:103AB00085CFCF93DF9380910B0990910C09892BCF
:103AC000A1F48CE390E00E940F54EC01198218825B
:103AD0001D861C86198E188E1DA21CA219AA18AA52
:103AE000B8DFD0930C09C0930B0980910B0990911A
:103AF0000C09DF91CF9108952F923F924F925F92E0
:103B00006F927F928F929F92AF92BF92CF92DF92ED
:103B1000EF92FF920F931F93CF93DF93EC01DBDEC5
:103B2000FE01E75BFC4F8091E10B9091E20B9183EA
:103B30008083D1DEFE01E55BFC4F8091E50B909127
:103B4000E60B91838083C7DEFE01E35BFC4F80912F
:103B5000E90B9091EA0B91838083BDDE8E01015BBE
:103B60001C4F6091090C70910A0C80910B0C909184
:103B70000C0C0E948E59F8016083718382839383B9
:103B8000AADE1E01FDEA2F1AFCEF3F0A60910D0C20
:103B900070910E0C80910F0C9091100C0E948E5918
:103BA000F101608371838283938395DE20E030E0AE
:103BB00048EC52E4F80160817181828193810E9416
:103BC0007C5B2B013C0120E030E048EC52E4F10149
:103BD00060817181828193810E947C5B4B015C01D9
:103BE0006091110C7091120C8091130C9091140C37
:103BF0000E948E5920E030E048EC52E40E947C5B49
:103C00006B017C012AE037ED43E25CE3C301B201C2
:103C10000E94155C18160CF02BC120E030E046EC39
:103C200052E4C301B2010E94885987FD06C0412CAD
:103C3000512C56EC652E52E4752EF80140825182CB
:103C4000628273822AE037ED43E25CE3C501B4018E
:103C50000E94155C18160CF014C120E030E046EC10
:103C600052E4C501B4010E94885987FD06C0812C29
:103C7000912C36ECA32E32E4B32EF1018082918296
:103C8000A282B3822AE037ED43E25CE3C701B601CA
:103C90000E94155C18160CF0FDC020E030E046ECE8
:103CA00052E4C701B6010E94885987FD06C0C12CA5
:103CB000D12C96ECE92E92E4F92EFE01E95AFC4F44
:103CC000C082D182E282F38206DE8091C90B90919C
:103CD000CA0BFE01E25AFC4F91838083FCDD809188
:103CE000CD0B9091CE0BFE01E05AFC4F9183808367
:103CF000F2DD8091D10B9091D20BFE01EE59FC4F79
:103D000091838083E8DD8091F10B9091F20BA0917B
:103D1000F30BB091F40BFE01EC59FC4F80839183BF
:103D2000A283B383D8DD8091F50B9091F60BA0911F
:103D3000F70BB091F80BFE01E859FC4F808391839B
:103D4000A283B383C8DD8091F90B9091FA0BA09107
:103D5000FB0BB091FC0BFE01E459FC4F8083918377
:103D6000A283B383B8DD8091190C90911A0CFE01E7
:103D7000E059FC4F91838083AEDD80911D0C9091C2
:103D80001E0CFE01EE58FC4F91838083A4DD8091D0
:103D9000210C9091220CFE01EC58FC4F9183808302
:103DA0009ADD8091310C9091320CFE01EA58FC4F63
:103DB0009183808390DD8091350C9091360CFE01CB
:103DC000E858FC4F9183808386DD8091390C909177
:103DD0003A0CFE01E658FC4F918380837CDD809194
:103DE000B90B9091BA0BA091BB0BB091BC0BFE012B
:103DF000E55AFC4F0197A105B10509F054C081E0D7
:103E0000808369DD8091BD0B9091BE0BA091BF0BAB
:103E1000B091C00BFE01E45AFC4F0197A105B1051A
:103E200009F043C081E0808356DD8091C10B909101
:103E3000C20BA091C30BB091C40BC35ADC4F0197C6
:103E4000A105B105A1F581E08883DF91CF911F9194
:103E50000F91FF90EF90DF90CF90BF90AF909F9029
:103E60008F907F906F905F904F903F902F9008952C
:103E70004AE0442E47ED542E43E2642E4CE3742E68
:103E8000DCCE2AE0822E27ED922E23E2A22E2CE316
:103E9000B22EF3CE8AE0C82E87EDD82E83E2E82E2C
:103EA0008CE3F82E0ACF1082ACCF1082BDCF1882DF
:103EB000CCCF2F923F924F925F926F927F928F92D0
:103EC0009F92AF92BF92CF92DF92EF92FF920F93A9
:103ED0001F93CF93DF93CDB7DEB76F970FB6F894EC
:103EE000DEBF0FBECDBF9B8F8A8FF5DCEA8DFB8DC9
:103EF000EB59FD4F81E04091F10A5091F20A609137
:103F0000F30A7091F40A452B462B472B09F480E005
:103F10008083E1DCEA8DFB8DEA59FD4F81E0409121
:103F2000F50A5091F60A6091F70A7091F80A452B4C
:103F3000462B472B09F480E08083CDDCEA8DFB8D96
:103F4000E959FD4F81E04091F90A5091FA0A6091D8
:103F5000FB0A7091FC0A452B462B472B09F480E0A5
:103F60008083B9DC8091410B9091420BA091430B6F
:103F7000B091440BEA8DFB8DE859FD4F808391830E
:103F8000A283B383A8DC8091450B9091460BA0914E
:103F9000470BB091480BEA8DFB8DE459FD4F8083B0
:103FA0009183A283B38397DC8091490B90914A0B54
:103FB000A0914B0BB0914C0BEA8DFB8DE059FD4F5E
:103FC00080839183A283B38386DC8091410B90919F
:103FD000420BA091430BB091440BEA8DFB8DEC5842
:103FE000FD4F80839183A283B38375DC8091450B61
:103FF0009091460BA091470BB091480BEA8DFB8D39
:10400000E858FD4F80839183A283B38364DC809161
:104010004D0B90914E0BA0914F0BB091500BEA8D30
:10402000FB8DE458FD4F80839183A283B38353DCDF
:104030008091190B90911A0BA0911B0BB0911C0B46
:10404000EA8DFB8DE457FD4F80839183A283B38378
:1040500042DC80911D0B90911E0BA0911F0BB09123
:10406000200BEA8DFB8DE057FD4F80839183A28367
:10407000B38331DC8091210B9091220BA091230B13
:10408000B091240BEA8DFB8DEC56FD4F808391831C
:10409000A283B38320DC8091190B90911A0BA0911D
:1040A0001B0BB0911C0BEA8DFB8DE856FD4F8083F6
:1040B0009183A283B3830FDC80911D0B90911E0B23
:1040C000A0911F0BB091200BEA8DFB8DE456FD4FA4
:1040D00080839183A283B383FEDB8091250B909133
:1040E000260BA091270BB091280BEA8DFB8DE05693
:1040F000FD4F80839183A283B383EDDB8091290BF5
:1041000090912A0BA0912B0BB0912C0BEA8DFB8D7B
:10411000EC55FD4F80839183A283B383DCDB8091D8
:104120002D0B90912E0BA0912F0BB091300BEA8D9F
:10413000FB8DE855FD4F80839183A283B383CBDB56
:104140008091310B9091320BA091330BB091340BD5
:10415000EA8DFB8DE455FD4F80839183A283B38369
:10416000BADB8091C90A9091CA0AA091CB0AB0919A
:10417000CC0AEA8DFB8DE055FD4F80839183A283AD
:10418000B383A9DB8091CD0A9091CE0AA091CF0A8A
:10419000B091D00AEA8DFB8DEC54FD4F8083918362
:1041A000A283B38398DB8091D10A9091D20AA09127
:1041B000D30AB091D40AEA8DFB8DE854FD4F808379
:1041C0009183A283B38387DB8091C90A9091CA0A45
:1041D000A091CB0AB091CC0AEA8DFB8DE454FD4F3F
:1041E00080839183A283B38376DB8091CD0A909103
:1041F000CE0AA091CF0AB091D00AEA8DFB8DE0548F
:10420000FD4F80839183A283B38365DB8091D50AC0
:104210009091D60AA091D70AB091D80AEA8DFB8D69
:10422000EC53FD4F80839183A283B38354DBEA8DEB
:10423000FB8DE853FD4F81E02091A10A3091A20A45
:104240002130310509F080E0808345DBEA8DFB8D6C
:10425000E753FD4F81E02091A50A3091A60A213055
:10426000310509F080E0808336DBEA8DFB8DE65373
:10427000FD4F81E02091A90A3091AA0A2130310531
:1042800009F080E0808327DBEA8DFB8DE250FD4F53
:1042900081E04091790A50917A0A60917B0A70918D
:1042A0007C0A452B462B472B09F480E0808313DBE7
:1042B000EA8DFB8DE150FD4F81E040917D0A5091E8
:1042C0007E0A60917F0A7091800A452B462B472B0E
:1042D00009F480E08083FFDAEA8DFB8DFD5F81E0E9
:1042E0004091810A5091820A6091830A7091840AF8
:1042F000452B462B472B09F480E08083ECDAEA8DCE
:10430000FB8DEF5FFC4F81E04091510B5091520BC0
:104310006091530B7091540B452B462B472B09F49E
:1043200080E08083D8DAEA8DFB8DEE5FFC4F81E080
:104330004091550B5091560B6091570B7091580B53
:10434000452B462B472B09F480E08083C4DAEA8DA5
:10435000FB8DED5FFC4F81E04091590B50915A0B62
:1043600060915B0B70915C0B452B462B472B09F43E
:1043700080E08083B0DAEA8DFB8DEC5FFC4F81E05A
:104380002091890A30918A0A2130310509F080E0B4
:104390008083A1DAEA8DFB8DEB5FFC4F81E02091F9
:1043A0008D0A30918E0A2130310509F080E080833A
:1043B00092DAEA8DFB8DEA5FFC4F81E02091910A51
:1043C0003091920A2130310509F080E0808383DA50
:1043D0008091510A9091520AA091530AB091540AC7
:1043E000EA8DFB8DE95FFC4F80839183A283B383C9
:1043F00072DA8091550A9091560AA091570AB091AD
:10440000580AEA8DFB8DE55FFC4F80839183A28380
:10441000B38361DA8091590A90915A0AA0915B0A9C
:10442000B0915C0AEA8DFB8DE15FFC4F8083918344
:10443000A283B38350DAEA8DFB8DEE50FD4F81E00D
:104440004091610A5091620A6091630A7091640A16
:10445000452B462B472B09F480E080833CDAEA8D1C
:10446000FB8DED50FD4F81E04091650A5091660A49
:104470006091670A7091680A452B462B472B09F417
:1044800080E0808328DAEA8DFB8DEC50FD4F81E0DF
:104490004091690A50916A0A60916B0A70916C0AA6
:1044A000452B462B472B09F480E0808314DA80915A
:1044B000590C90915A0CA0915B0CB0915C0CEA8D58
:1044C000FB8DE553FD4F80839183A283B38303DA91
:1044D00080915D0C90915E0CA0915F0CB091600C8E
:1044E000EA8DFB8DE153FD4F80839183A283B383DB
:1044F000F2D98091610C9091620CA091630CB09103
:10450000640CEA8DFB8DED52FD4F80839183A28375
:10451000B383E1D9EA8DFB8DEB50FD4F81E0209113
:10452000B90A3091BA0A2130310509F080E0808360
:10453000EA8DFB8DEA50FD4F1082EA8DFB8DE9502C
:10454000FD4F1082C8D9EA8DFB8DE850FD4F81E008
:104550002091B50A3091B60A2130310509F080E08A
:104560008083EA8DFB8DE750FD4F1082EA8DFB8D35
:10457000E650FD4F1082AFD9EA8DFB8DE550FD4F1F
:1045800081E02091D90A3091DA0A2130310509F011
:1045900080E08083A0D9EA8DFB8DE450FD4F81E05F
:1045A0002091DD0A3091DE0A2130310509F080E0EA
:1045B000808391D9EA8DFB8DE350FD4F81E02091FE
:1045C000E10A3091E20A2130310509F080E0808370
:1045D00082D9EA8DFB8DE952FD4F81E02091690C73
:1045E00030916A0C2130310509F080E0808373D965
:1045F000EA8DFB8DE852FD4F81E020916D0C3091EA
:104600006E0C2130310509F080E0808364D9EA8D99
:10461000FB8DE752FD4F81E02091710C3091720CBF
:104620002130310509F080E0808355D98091A90CB3
:104630009091AA0CA091AB0CB091AC0CEA8DFB8DC3
:10464000E652FD4F80839183A283B38344D9809146
:10465000AD0C9091AE0CA091AF0CB091B00CEA8D66
:10466000FB8DE252FD4F80839183A283B38333D9C4
:104670008091B10C9091B20CA091B30CB091B40C9C
:10468000EA8DFB8DEE51FD4F80839183A283B3832E
:1046900022D98091D90C9091DA0CA091DB0CB091C9
:1046A000DC0CEA8DFB8DEA51FD4F80839183A28360
:1046B000B38311D98091D90C9091DA0CA091DB0CC5
:1046C000B091DC0CEA8DFB8DE651FD4F8083918328
:1046D000A283B38300D98091D90C9091DA0CA09178
:1046E000DB0CB091DC0CEA8DFB8DE251FD4F808339
:1046F0009183A283B383EFD80A8D1B8D0D5E1C4F6F
:104700008091010B9091020BA091030BB091040BCF
:10471000F80180839183A283B383DDD8EA8CFB8C7C
:10472000F9EEEF1AFCEFFF0A8091050B9091060B52
:10473000A091070BB091080BF70180839183A283AE
:10474000B383C9D88091090B90910A0BA0910B0BF0
:10475000B0910C0BCA8CDB8CF5EECF1AFCEFDF0AA4
:10476000F60180839183A283B383F8014081518154
:1047700062817381141615061606170644F041E08F
:1047800050E060E070E04083518362837383F701FF
:104790004081518162817381141615061606170631
:1047A00044F041E050E060E070E040835183628378
:1047B0007383181619061A061B064CF081E090E068
:1047C000A0E0B0E0F60180839183A283B3830E94CE
:1047D0000814FC01D6018D909D90AD90BC90D7013E
:1047E0004D915D916D917C91D8010D911D912D910F
:1047F0003C910083118322833383448355836683F2
:10480000778380869186A286B386EA8DFB8D70962B
:10481000FA83E983EA8DFB8DE952FD4F80808B821C
:10482000EA8DFB8DE553FD4F40815181628173819B
:10483000EA8DFB8DE550FD4F90809D82EA8DFB8DCA
:10484000EC5FFC4FA080AC82EA8DFB8DEB50FD4FFE
:10485000B080B986EA8DFB8DE850FD4F20812A8714
:10486000EA8DFB8DEF5FFC4F80818E87EA8DFB8D9B
:10487000E250FD4F90819A8BEA8DFB8DE853FD4FFE
:104880002080EA8DFB8DEB59FD4F3080EA8DFB8D4A
:10489000E95FFC4F0081118122813381EA8DFB8D1C
:1048A000E055FD4F80819181A281B381EA8DFB8D1E
:1048B000EC55FD4FC080D180E280F380EA8DFB8D06
:1048C000E457FD4F80809180A280B380EA8DFB8DFC
:1048D000E859FD4F4080518062807380EA8DFB8DE6
:1048E00040A651A662A673A680AA91AAA2AAB3AABC
:1048F00084AF95AFA6AFB7AF44A655A666A677A678
:1049000084AA95AAA6AAB7AAE05CFF4F80839183E8
:10491000A283B383AA8DBB8DD896CD92DD92ED9202
:10492000FC92DB97FD01EC5BFF4F00831183228338
:1049300033833496308231962082EA899596EC93BF
:104940009597FE859696FC9396978C8097968C9279
:1049500080E490E0A0E0B0E0EA8DFB8DE45BFF4FE7
:1049600080839183A283B383EA8DFB8DE65BFF4F47
:104970009A849082EA8DFB8DE55BFF4FA984A0822B
:10498000EA8DFB8DE05BFF4FBD80B082EA8DFB8D31
:10499000EF5AFF4F4083518362837383EA8DFB8D0F
:1049A000EB5AFF4F2B812083AA8DBB8D55968D919D
:1049B0009C9156978633910509F096C287E89FE04F
:1049C000FD01E257FF4F918380833296118210825E
:1049D00089E89FE036969183808332961182108217
:1049E000EA8DFB8D838D948D4A97D1F48BE99FE0FE
:1049F000EE56FF4F91838083EA8DFB8DEC56FF4F7F
:104A0000118210828DE99FE0EA8DFB8DE656FF4F03
:104A100091838083EA8DFB8DE456FF4F11821082D3
:104A20000A8D1B8D02561F4FEA8DFB8DE852FD4FFC
:104A300080808B82EA8DFB8DE153FD4F80819181D7
:104A4000A281B3818D839E83AF83B887EA8DFB8D6E
:104A5000E450FD4F90819C83EA8DFB8DEB5FFC4F12
:104A6000A081A987EA8DFB8DEA50FD4FB081BA87FE
:104A7000EA8DFB8DE750FD4F80808E86EA8DFB8DA1
:104A8000EE5FFC4F2080EA8DFB8DE150FD4F3080C2
:104A9000EA8DFB8DE753FD4F3081EA8DFB8DEA599E
:104AA000FD4F2081EA8DFB8DE55FFC4FC080D180FA
:104AB000E280F380EA8DFB8DEC54FD4F8081918183
:104AC000A281B381EA8DFB8DE855FD4F80809180F6
:104AD000A280B380EA8DFB8DE057FD4F408151816C
:104AE00062817381EA8DFB8DE459FD4F40805180D6
:104AF00062807380F801408E518E628E738E40A367
:104B000051A362A373A384A795A7A6A7B7A7448EB2
:104B1000558E668E778E44A355A366A377A380AB8C
:104B200091ABA2ABB3AB80A691A6A2A6B3A6C4AA32
:104B3000D5AAE6AAF7AA20AF31AF358A268A89849A
:104B4000878A80E490E0A0E0B0E084AF95AFA6AFA4
:104B5000B7AF8E8482AE9A8493AEEA8DFB8DE2521B
:104B6000FF4FAC80A082EA8DFB8DE152FF4F8D811B
:104B70009E81AF81B88580839183A283B383EA8DC0
:104B8000FB8DED51FF4F9B819083D80115968D9140
:104B90009C918633910509F0D9C187E89FE0EA8DA1
:104BA000FB8DE45EFE4F91838083EA8DFB8DE25E98
:104BB000FE4F1182108289E89FE0EA8DFB8DEC5D4B
:104BC000FE4F91838083EA8DFB8DEA5DFE4F11825B
:104BD0001082F801838594854A97E1F48BE99FE080
:104BE000EA8DFB8DE05EFE4F91838083EA8DFB8D25
:104BF000EE5DFE4F118210828DE99FE0EA8DFB8D04
:104C0000E85DFE4F91838083EA8DFB8DE65DFE4F6C
:104C100011821082EA8CFB8CF4EDEF1AFEEFFF0A92
:104C2000EA8DFB8DE752FD4F80808B82EA8DFB8DF4
:104C3000ED52FD4F80819181A281B3818D839E834E
:104C4000AF83B887EA8DFB8DE350FD4F90819C8345
:104C5000EA8DFB8DEA5FFC4F3080EA8DFB8DE950D9
:104C6000FD4FA081A987EA8DFB8DE650FD4F208086
:104C7000EA8DFB8DED5FFC4FC080EA8DFB8DFD5F03
:104C8000D080EA8DFB8DE653FD4F3081EA8DFB8DA0
:104C9000E959FD4F2081EA8DFB8DE15FFC4F80805B
:104CA0009180A280B3808A869B86AC86BD86EA8D81
:104CB000FB8DEC53FD4F80819181A281B3818E8762
:104CC0009F87A88BB98BEA8DFB8DE854FD4F8080C0
:104CD0009180A280B3808C8E9D8EAE8EBF8EEA8D29
:104CE000FB8DE455FD4F80819181A281B3818A8B38
:104CF0009B8BAC8BBD8BEA8DFB8DE056FD4F80818D
:104D00009181A281B381EA8DFB8DEC56FD4F4080ED
:104D1000518062807380EA8DFB8DE458FD4F4081A5
:104D2000518162817381EA8DFB8DE059FD4F808056
:104D30009180A280B380F701808E918EA28EB38E77
:104D400040A251A262A273A28C8C9D8CAE8CBF8CAF
:104D500084A695A6A6A6B7A6448F558F668F778F93
:104D600084A395A3A6A3B7A38E849F84A888B9889B
:104D700080AA91AAA2AAB3AA8A889B88AC88BD8877
:104D800080A691A6A2A6B3A68A849B84AC84BD8487
:104D900084AA95AAA6AAB7AA20AF31AFD58AC68A97
:104DA000378A80E490E0A0E0B0E084AF95AFA6AF92
:104DB000B7AF22AE898483AEEA8DFB8DE459FE4FF6
:104DC0009C809082EA8DFB8DE359FE4F8D819E8100
:104DD000AF81B88580839183A283B383EA8DFB8DF5
:104DE000EF58FE4F9B819083D70115968D919C9132
:104DF0008633910509F0D2C087E89FE0EA8DFB8DEC
:104E0000E655FE4F91838083EA8DFB8DE455FE4F7E
:104E10001182108289E89FE0EA8DFB8DEE54FE4FEF
:104E200091838083EA8DFB8DEC54FE4F11821082BA
:104E3000F701838594854A97E1F48BE99FE0EA8D39
:104E4000FB8DE255FE4F91838083EA8DFB8DE0550B
:104E5000FE4F118210828DE99FE0EA8DFB8DEA54AE
:104E6000FE4F91838083EA8DFB8DE854FE4F1182C3
:104E70001082EA8DFB8DEE50FD4F8081882309F46E
:104E8000B5C089819A810E944E10EA8DFB8DED504C
:104E9000FD4F8081882309F4AEC0C8010E944E10E6
:104EA0008A8D9B8D8C509D4FDC018C91882309F459
:104EB000A6C0C7016F960FB6F894DEBF0FBECDBF78
:104EC000DF91CF911F910F91FF90EF90DF90CF90E6
:104ED000BF90AF909F908F907F906F905F904F901A
:104EE0003F902F900C944E108C339105D9F48BE8A1
:104EF0009FE0EA8DFB8DE257FF4F91838083EA8D1F
:104F0000FB8DE057FF4F118210828DE89FE0EA8D04
:104F1000FB8DEA56FF4F91838083EA8DFB8DE85627
:104F2000FF4F5CCD8E9709F05BCD8FE89FE0EA8D57
:104F3000FB8DE257FF4F91838083EA8DFB8DE05715
:104F4000FF4F1182108285E99FE0E1CF8C339105FC
:104F500089F48BE89FE0EA8DFB8DE45EFE4F918340
:104F60008083EA8DFB8DE25EFE4F118210828DE818
:104F70009FE023CE8E9709F02CCE8FE89FE0EA8D3C
:104F8000FB8DE45EFE4F91838083EA8DFB8DE25EB4
:104F9000FE4F1182108285E99FE00FCE8C33910580
:104FA00089F48BE89FE0EA8DFB8DE655FE4F9183F7
:104FB0008083EA8DFB8DE455FE4F118210828DE8CF
:104FC0009FE02ACF8E9709F033CF8FE89FE0EA8DDC
:104FD000FB8DE655FE4F91838083EA8DFB8DE45572
:104FE000FE4F1182108285E99FE016CF89819A8158
:104FF0000E9412104ACFC8010E94121051CFC7015F
:105000006F960FB6F894DEBF0FBECDBFDF91CF9184
:105010001F910F91FF90EF90DF90CF90BF90AF90D6
:105020009F908F907F906F905F904F903F902F90C8
:105030000C941210AF92BF92CF92DF92EF92FF9238
:105040000F931F93CF93DF93EC018AE190E09E8B47
:105050008D8B8BE190E0988F8F8B89E190E09A8F18
:10506000898F8FE090E09C8F8B8F8EE190E09E8FF8
:105070008D8F8EE090E098A38F8F85E490E09AA3C7
:1050800089A384E490E09CA38BA3FE01E256FF4F2A
:1050900080E290E09683858381E290E09087878329
:1050A0008FE190E092878187148613861686158695
:1050B000108A178683E490E0928B818B82E490E0E3
:1050C000948B838BE257FF4F83E290E09683858336
:1050D00084E290E09087878382E290E092878187E4
:1050E0001486138616861586108A178681E490E04A
:1050F000928B818B80E490E0948B838BED5CFE4FF0
:1051000011821082329611821082329611821082A0
:10511000CE010E94591FCE010E947C1DCE018654F3
:105120009E4F41E050E0FC0157A746A7DE01A65183
:10513000BE4F24E030E09F963C932E939E975E01F5
:10514000F6EEAF1AFDEFBF0A28E030E0F50137A711
:1051500026A720E130E0FC013183208321E130E00B
:10516000358324832FEF3FEF3383228337832683D6
:10517000628560876385618767E170E011967C9343
:105180006E9368E170E015967C936E931497139676
:105190003C932E93129717963C932E9316971A963C
:1051A0006C911A9718966C9318971B966C911B9795
:1051B00019966C9319976DE170E0F5017183608326
:1051C0006CE170E0758364833383228337832683A5
:1051D0006285608763856187BE016A587C4FFB01E9
:1051E000608171818E010C591C4FF801C080D18003
:1051F000E280F38006501109F80100811181FC0161
:10520000158F048FC48AD58AE68AF78A61307105C2
:1052100009F04EC0378F268FCE0188589C4FFC0175
:10522000808191819E0128593C4FF9014081518133
:105230006281738128503109F901208131815D96A5
:105240003C932E935C9754964D935D936D937C9312
:105250005797019781F58FEF9FEF5F969C938E9301
:105260005E97DE01A658BC4F8D919C9111971E97B9
:105270004D915D916D917C91CE59DC4F28813981A2
:10528000F501358F248F448B558B668B778B019777
:10529000A9F48FEF9FEF978F868FDF91CF911F91AA
:1052A0000F91FF90EF90DF90CF90BF90AF90089557
:1052B000578F468FB1CF81E090E0CFCF81E090E073
:1052C000EACF8F929F92AF92BF92CF92DF92EF92EE
:1052D000FF92CF93DF937B010E946B1CEC01F701DF
:1052E00082A093A0A4A0B5A0C68CD78CE0A0F1A00A
:1052F0008A819B818F30F7E29F070CF049C00196AD
:105300009B838A838C819D818F3027E292070CF0EA
:1053100042C096012B7F215531092330310558F0C9
:1053200096012B5531092330310528F02A543109D3
:105330002330310518F401969D838C83C6010E94A9
:10534000B507882359F1F601EE0FFF1FEE0FFF1F7F
:10535000EB5DF54F80829182A282B382B501A401F8
:10536000C6010E949E1BB601CE010E9433160E9408
:10537000591D0E94291D90E080E0DF91CF91FF90A0
:10538000EF90DF90CF90BF90AF909F908F90089557
:105390001B821A82B7CF1D821C82D0CF8CEB93E088
:1053A0000E94E814E4CFCF93DF93EB010E946B1CC3
:1053B0006E8D7F8D0E94331690E080E0DF91CF915B
:1053C00008950E946B1C0E946D1685E594E00E9472
:1053D000E8140E9408140E94541590E080E008959B
:1053E0000F931F93CF93DF93EC01888199810097EE
:1053F00059F02A813B812617370730F081E0DF9191
:10540000CF911F910F9108958B016F5F7F4F0E9485
:10541000675C009759F0998388831B830A832C81EA
:105420003D81232B59F7FC011082E8CF80E0E7CFC4
:105430000F931F93CF93DF93EC018B01D1DF288172
:105440003981811112C02115310519F0C9010E945D
:10545000AB54198218821D821C821B821A82CE01D3
:10546000DF91CF911F910F9108951D830C8366EA00
:1054700074E0C9010E94595DF2CFCF93DF93FC0124
:10548000E25BFD4F408151814115510501F1EC0175
:10549000CE5ADD4F28813981865B9D4F2417350711
:1054A000E8F4FC01808191810097A1F0820F931FA5
:1054B000FC0180818A3031F08D3069F484EA94E017
:1054C0000E94E81488819981019699838883DF91ED
:1054D000CF91089580E00E942F09F4CF70E060E042
:1054E000A7DF19821882F3CF0F931F93CF93DF9317
:1054F000EC018C01025B1D4FF80180819181892BA9
:1055000019F0CE01BADFF8CFDF91CF911F910F9143
:1055100008952F923F924F925F926F927F928F9257
:105520009F92AF92BF92CF92DF92EF92FF920F9332
:105530001F93CF93DF93CDB7DEB7CE58D1090FB607
:10554000F894DEBF0FBECDBF8C01FC01108211822A
:105550001282138214821582168217821086118697
:105560001286138614861586168617864C01F0E17E
:105570008F0E911CC4010E94441268018EE9C80E6E
:10558000D11CC6010E9444127801E4EDEE1AEEEF40
:10559000FE0AC7010E9444125801F6E4AF1AFEEF5A
:1055A000BF0AC5010E94150E380186E1681A8EEF08
:1055B000780AC3010E94150E2801E6EE4E1AEDEF9F
:1055C0005E0AC2010E94150EF801E65BFD4F1182D2
:1055D0001082138212821582148270E060E0CF0183
:1055E00027DFF801E05BFD4F1182108232961182B5
:1055F0001082329611821082329611821082329677
:105600001082118212821382349610823196108297
:105610003196108231961182108232961182108258
:105620003296118210823296108231961082319613
:105630001082319610821182128213823496108267
:105640001182128213823496108211821282138286
:105650003496108211821282138234961082118243
:10566000128213823496108211821282138234962F
:105670001082118212821382349610821182128259
:105680001382349610821182128213823496108211
:105690001182128213823496108211821282138236
:1056A00034961082118212821382349610821182F3
:1056B00012821382349610821182128213823496DF
:1056C0001082118212821382349610821182128209
:1056D00013823496108211821282138234961082C1
:1056E00011821282138234961082118212821382E6
:1056F00034961082118212821382349610821182A3
:10570000128213823496108211821282138234968E
:1057100010821182128213823496108211821282B8
:10572000138234961082319610823196108231960F
:105730001082118212821382349610821182128298
:105740001382349610821182128213823496108250
:105750003196108231961082D801A652BD4F8CE04E
:10576000E9E1F2E001900D928A95E1F7D801AA51A2
:10577000BD4F8CE0E5E2F2E001900D928A95E1F7F1
:10578000F801EE50FD4F1082319610823196108252
:1057900031961082319610823196108231961082A5
:1057A0003196108231961082319610823196108295
:1057B0003196108231961082319610823196108285
:1057C0003196108231961082319610823196108275
:1057D0003196108231961082319610821182128297
:1057E00013823496108211821282138234961082B0
:1057F000118212821382D801AD5EBC4F8CE0E1E3CE
:10580000F2E001900D928A95E1F7F801E15EFC4F1C
:1058100010821182128213823496108211821282B7
:10582000138234961082118212821382349611826E
:105830001082329611821082329611821082329634
:105840001082118212821382349610821182128287
:10585000138234961082118212821382349610823F
:105860001182128213823496108211821282138264
:105870003496108211821282138234961182108221
:1058800032961182108232961182108232961082E4
:105890001182128213823496108211821282138234
:1058A00034961082118212821382349610823196BD
:1058B00010823196108231961182108232961182B6
:1058C00010823296118210823296108211821282D8
:1058D00013823496108211821282138234961082BF
:1058E00011821282138234961182108232961182B2
:1058F0001082329611821082329611821082329674
:105900001182108232961182108232961182108298
:105910003296118210821801F0E82F1AFCEF3F0A2C
:10592000F10110823196118210823296118210821A
:10593000CE0101960E9444128EE8FE013196D401F8
:1059400001900D928A95E1F7CE0101960E944412D2
:105950008EE8FE013196D60101900D928A95E1F70D
:10596000CE0101960E9444128EE8FE013196D701C5
:1059700001900D928A95E1F788E5F801808B89E521
:10598000F60180838AE5F7018083CE0101960E94AB
:10599000150E80E3FE013196D50101900D928A9596
:1059A000E1F7CE0101960E94150E80E3FE013196CB
:1059B000D30101900D928A95E1F7CE0101960E94E4
:1059C000150E80E3FE013196D20101900D928A9569
:1059D000E1F7C8012FDBF1011082C257DF4F0FB68C
:1059E000F894DEBF0FBECDBFDF91CF911F910F9115
:1059F000FF90EF90DF90CF90BF90AF909F908F90EF
:105A00007F906F905F904F903F902F900895CF932D
:105A1000DF938091050990910609892B51F485E85F
:105A200093E00E940F54EC0174DDD0930609C093FB
:105A300005098091050990910609DF91CF9108959C
:105A4000CF93DF9380910409811121C081E080937D
:105A50000409DDDFEC0140960E941012CE0182564F
:105A60009F4F0E941012CE01845D9E4F0E94101223
:105A7000C85ADD4F88819981AA81BB810196A11DF9
:105A8000B11D88839983AA83BB8310920409DF9197
:105A9000CF910895CF93DF93EB0120E030E040E811
:105AA0005FE36A817B818C819D810E94885981118D
:105AB00010C089E594E00E94E814A9DFFC01E65AD1
:105AC000FF4F108211821282138286549E4F0E94D1
:105AD000540E20E030E040E85FE36E817F818885EE
