:100000009DC10000CCC10000CAC10000C8C10000F1
:10001000C6C10000C4C10000C2C10000C0C10000D0
:10002000BEC10000BCC10000BAC10000B8C10000E0
:10003000B6C10000B4C10000B2C10000B0C10000F0
:10004000AEC100000C94324CAAC10000A8C100004F
:100050000C94604CA4C10000A2C100000C945E4B43
:100060009EC100000C94284B0C94FE4A98C10000DD
:1000700096C1000094C1000092C1000090C1000030
:100080000C94044C8CC100008AC1000088C100009F
:1000900086C1000084C1000082C1000080C1000050
:1000A0007EC100007CC100000C94D64B78C10000DA
:1000B00076C1000074C1000072C100000C94A84B0E
:1000C0006EC100006CC100006AC1000068C1000080
:1000D00066C1000064C1000062C1000060C1000090
:1000E0005EC100004E414E494E495459494E46CDDD
:1000F000CCCC3D0AD7233C17B7D13877CC2B3295DF
:1001000095E6241FB14F0A000020410000C84200BC
:10011000401C4620BCBE4CCA1B0E5AAEC59D740086
:10012000407A10F35A00A0724E18090010A5D4E8C6
:100130000000E87648170000E40B54020000CA9A59
:100140003B000000E1F505000080969800000040AB
:10015000420F000000A086010000001027000000F0
:1001600000E803000000006400000000000A000036
:100170000000000100000000002C76D888DC674FEA
:100180000823DFC1DFAE59E1B1B796E5E3E453C61A
:100190003AE651997696E8E6C28426EB898C9B6212
:1001A000ED407C6FFCEFBC9C9F40F2BAA56FA5F4BC
:1001B00090055A2AF75C936B6CF9676DC11BFCE0E4
:1001C000E40D47FEF520E6B500D0ED902E03009437
:1001D0003577050080841E080000204E0A000000CC
:1001E000C80C333333330F986E12831141EF8D21D6
:1001F00014893BE65516CFFEE6DB18D1844B381B3D
:10020000F77C1D901DA4BBE424203284725E228101
:1002100000C9F124ECA1E53D2700002100240027BE
:10022000002A002D00300033000101000004010706
:10023000010A0100002200250028002B002E0031B9
:1002400000340002010000050108010B010000203C
:10025000002300260029002C002F0032000001009E
:100260000003010601090105050505070508080841
:1002700008020202020A0A08080404040401010137
:10028000010101010103030303030303030407073F
:10029000070C0C0C0C0C0C0C0C02020202060606DD
:1002A00006060606060B0B0B0B0B0B0B0B010210C5
:1002B0002020080810204010204080020102010880
:1002C0000402010102040810204080804020100830
:1002D0000402018004020180402010080402010889
:1002E00004020101020408102040800102040810E9
:1002F00020408000000A0B02090C0D0E08070304C1
:1003000001000000000000000000000000000000EC
:1003100000000000000000000000000000000012CB
:1003200011100000000000000000000000000000AC
:10033000000000000000000000008B4C11241FBED4
:10034000CFEFD1E2DEBFCDBF00E00CBF19E0A0E0EF
:10035000B2E0EEE8F9EC00E00BBF02C007900D92AE
:10036000A03DB107D9F723E1A0EDB9E001C01D928E
:10037000AE3DB207E1F711E0CEE9D1E000E006C002
:1003800021970109802FFE010E94B063CD39D1076A
:1003900080E00807A9F70E94614F0C94C56430CE35
:1003A0008CBD9DBD08959C01803E910508F0ADC5B2
:1003B000FC018827E152FE4F8F4F0C94B063BF02BF
:1003C000CC02D502DE02E702F00285078507850729
:1003D00085078507FD020A031703850724032D03FC
:1003E000360343034C0355035E036703700385071D
:1003F000790382038B0385078507850794039D0393
:10040000A60385078507AF03BC0385078507850716
:10041000C903D603E303F003FD0306040F048507B5
:1004200085078507180421042A0485073704440436
:1004300051048507850785075E046B0478048504ED
:1004400092049F04AC04850785078507B904C60498
:10045000D304E004ED04F604FF048507850785074F
:100460008C059905A6058507B305C005CD0585074B
:1004700085078507DA05E305EC0585078507850708
:100480008507850785078507F505FE0507068507A6
:100490001006190622068507850785072B063806EC
:1004A0004506850752065F066C06850785078507A2
:1004B0007906860693068507A006A906B206850773
:1004C00085078507BB06C406CD0685078507850712
:1004D00085078507850785078507850785078507BC
:1004E000080511051A05850785078507850785070E
:1004F000850785078507850785078507850785079C
:10050000230530053D05850771057A0583058507B7
:10051000850785074A05570564058507850785070B
:10052000850785078507850785078507850785076B
:10053000850785078507850785078507850785075B
:10054000850785078507850785078507850785074B
:10055000D606DF06EC068507F90602070F078507B2
:10056000850785071C072507320785073F074807CA
:10057000550785078507850762076B07780781E0C0
:1005800090E0A0E0B0E08093F50A9093F60AA09383
:10059000F70AB093F80A08951092F90A1092FA0A2D
:1005A0001092FB0A1092FC0A08951092FD0A109214
:1005B000FE0A1092FF0A1092000B08951092010B90
:1005C0001092020B1092030B1092040B08951092DC
:1005D000050B1092060B1092070B1092080B089552
:1005E00083E090E0A0E0B0E08093090B90930A0BC9
:1005F000A0930B0BB0930C0B089588E790E0A0E05C
:10060000B0E08093210B9093220BA093230BB09327
:10061000240B089588E790E0A0E0B0E08093250BDC
:100620009093260BA093270BB093280B089588E78F
:1006300090E0A0E0B0E08093290B90932A0BA09368
:100640002B0BB0932C0B08951092310B1092320BA0
:100650001092330B1092340B08951092350B1092B8
:10066000360B1092370B1092380B089581E090E012
:10067000A0E0B0E08093390B90933A0BA0933B0B32
:10068000B0933C0B089510923D0B10923E0B1092CC
:100690003F0B1092400B08951092410B1092420BA9
:1006A0001092430B1092440B08951092450B109238
:1006B000460B1092470B1092480B08951092490B6D
:1006C00010924A0B10924B0B10924C0B0895109203
:1006D0004D0B10924E0B10924F0B1092500B089531
:1006E0001092510B1092520B1092530B1092540B0C
:1006F00008951092590B10925A0B10925B0B1092A6
:100700005C0B089510925D0B10925E0B10925F0BC4
:100710001092600B08951092610B1092620B109270
:10072000630B1092640B08951092710B1092720B70
:100730001092730B1092740B08951092750B109217
:10074000760B1092770B1092780B08951092790B1C
:1007500010927A0B10927B0B10927C0B089581E023
:1007600090E0A0E0B0E08093850B9093860BA0937F
:10077000870BB093880B089581E090E0A0E0B0E093
:100780008093890B90938A0BA0938B0BB0938C0B67
:1007900008958CE291E0A0E0B0E08093990B9093F3
:1007A0009A0BA0939B0BB0939C0B08958CE291E065
:1007B000A0E0B0E080939D0B90939E0BA0939F0BC5
:1007C000B093A00B08958CE291E0A0E0B0E080939C
:1007D000A10B9093A20BA093A30BB093A40B08952D
:1007E0008CE291E0A0E0B0E08093A50B9093A60B83
:1007F000A093A70BB093A80B08951092A90B109289
:10080000AA0B1092AB0B1092AC0B08951092AD0B8B
:100810001092AE0B1092AF0B1092B00B0895109285
:10082000B10B1092B20B1092B30B1092B40B08954F
:100830001092C10B1092C20B1092C30B1092C40BFA
:1008400008951092C50B1092C60B1092C70B109210
:10085000C80B089581E090E0A0E0B0E08093C90B60
:100860009093CA0BA093CB0BB093CC0B089585E06B
:1008700090E0A0E0B0E08093D10B9093D20BA093D6
:10088000D30BB093D40B089585E090E0A0E0B0E0E6
:100890008093D50B9093D60BA093D70BB093D80B26
:1008A000089589E190E0A0E0B0E08093D90B9093A7
:1008B000DA0BA093DB0BB093DC0B089582E390E09E
:1008C000A0E0B0E08093E90B9093EA0BA093EB0BD0
:1008D000B093EC0B089582E390E0A0E0B0E0809349
:1008E000ED0B9093EE0BA093EF0BB093F00B0895EC
:1008F00082E390E0A0E0B0E08093F10B9093F20BE4
:10090000A093F30BB093F40B089582E390E0A0E082
:10091000B0E08093F50B9093F60BA093F70BB09398
:10092000F80B089582E390E0A0E0B0E08093F90B2B
:100930009093FA0BA093FB0BB093FC0B089582E30A
:1009400090E0A0E0B0E08093FD0B9093FE0BA093AD
:10095000FF0BB093000C089582E390E0A0E0B0E0BC
:100960008093010C9093020CA093030CB093040CA1
:10097000089580E991E0A0E0B0E08093110C90939D
:10098000120CA093130CB093140C089580E991E01D
:10099000A0E0B0E08093150C9093160CA093170C78
:1009A000B093180C089580E991E0A0E0B0E0809346
:1009B000190C90931A0CA0931B0CB0931C0C089567
:1009C00080E991E0A0E0B0E080931D0C90931E0CB4
:1009D000A0931F0CB093200C08951092210C10923C
:1009E000220C1092230C1092240C08951092250CC6
:1009F0001092260C1092270C1092280C0895109239
:100A0000290C10922A0C10922B0C10922C0C089589
:100A10001092390D10923A0D10923B0D10923C0D30
:100A2000089510923D0D10923E0D10923F0D1092C0
:100A3000400D08951092410D1092420D1092430DF9
:100A40001092440D089583E090E0A0E0B0E0809320
:100A5000790D90937A0DA0937B0DB0937C0D089542
:100A600083E090E0A0E0B0E080937D0D90937E0D58
:100A7000A0937F0DB093800D089583E090E0A0E0F7
:100A8000B0E08093810D9093820DA093830DB0937D
:100A9000840D08958AE090E0A0E0B0E08093A10D7D
:100AA0009093A20DA093A30DB093A40D08958AE096
:100AB00090E0A0E0B0E08093A50D9093A60DA093E8
:100AC000A70DB093A80D08958AE090E0A0E0B0E0F3
:100AD0008093A90D9093AA0DA093AB0DB093AC0D8C
:100AE00008951092890D10928A0D10928B0D10921C
:100AF0008C0D089510928D0D10928E0D10928F0D09
:100B00001092900D08951092910D1092920D1092E6
:100B1000930D1092940D089588E592E0A0E0B0E066
:100B20008093390C90933A0CA0933B0CB0933C0CFF
:100B3000089588E592E0A0E0B0E080933D0C9093AA
:100B40003E0CA0933F0CB093400C089588E592E0D2
:100B5000A0E0B0E08093410C9093420CA093430C32
:100B6000B093440C08958EE190E0A0E0B0E0809353
:100B7000490C90934A0CA0934B0CB0934C0C0895E5
:100B80008EE190E0A0E0B0E080934D0C90934E0C8D
:100B9000A0934F0CB093500C08958EE190E0A0E02C
:100BA000B0E08093510C9093520CA093530CB093EF
:100BB000540C08951092610C1092620C1092630C08
:100BC0001092640C08951092650C1092660C1092AD
:100BD000670C1092680C08951092690C10926A0CC0
:100BE00010926B0C10926C0C08951092890C10925C
:100BF0008A0C10928B0C10928C0C089510928D0C14
:100C000010928E0C10928F0C1092900C08951092EE
:100C1000910C1092920C1092930C1092940C0895D7
:100C20001092990C10929A0C10929B0C10929C0CA2
:100C3000089510929D0C10929E0C10929F0C109291
:100C4000A00C08951092A10C1092A20C1092A30C6B
:100C50001092A40C089585E090E0A0E0B0E08093AD
:100C6000B10C9093B20CA093B30CB093B40C089554
:100C700085E090E0A0E0B0E08093B50C9093B60CD6
:100C8000A093B70CB093B80C089585E090E0A0E075
:100C9000B0E08093B90C9093BA0CA093BB0CB093C6
:100CA000BC0C089584EB95E1A0E0B0E08093C10C0A
:100CB0009093C20CA093C30CB093C40C089584EB22
:100CC00095E1A0E0B0E08093C50C9093C60CA09392
:100CD000C70CB093C80C089584EB95E1A0E0B0E098
:100CE0008093C90C9093CA0CA093CB0CB093CC0CFE
:100CF000089585E090E0A0E0B0E08093D90C909357
:100D0000DA0CA093DB0CB093DC0C089585E090E046
:100D1000A0E0B0E08093DD0C9093DE0CA093DF0C9C
:100D2000B093E00C089585E090E0A0E0B0E08093FF
:100D3000E10C9093E20CA093E30CB093E40C0895C3
:100D40001092E90C1092EA0C1092EB0C1092EC0C41
:100D500008951092ED0C1092EE0C1092EF0C109280
:100D6000F00C08951092F10C1092F20C1092F30C0A
:100D70001092F40C08951092010D1092020D109231
:100D8000030D1092040D08951092050D1092060D9A
:100D90001092070D1092080D08951092090D1092EF
:100DA0000A0D10920B0D10920C0D08951092190E51
:100DB00010921A0E10921B0E10921C0E08958CE3C6
:100DC00090E0A0E0B0E080931D0E90931E0EA093E3
:100DD0001F0EB093200E089581E090E0A0E0B0E0F7
:100DE0008093210E9093220EA093230EB093240E95
:100DF00008951092290E10922A0E10922B0E109226
:100E00002C0E08958CE390E0A0E0B0E080932D0ECE
:100E100090932E0EA0932F0EB093300E089581E084
:100E200090E0A0E0B0E08093310E9093320EA0935A
:100E3000330EB093340E08951092410E1092420E6C
:100E40001092430E1092440E08958CE390E0A0E0BF
:100E5000B0E08093450E9093460EA093470EB0935A
:100E6000480E089581E090E0A0E0B0E08093490E44
:100E700090934A0EA0934B0EB0934C0E089510928F
:100E8000510E1092520E1092530E1092540E08955D
:100E90008CE390E0A0E0B0E08093550E9093560E66
:100EA000A093570EB093580E089581E090E0A0E013
:100EB000B0E08093590E90935A0EA0935B0EB093BE
:100EC0005C0E08951092690E10926A0E10926B0ECD
:100ED00010926C0E08958CE390E0A0E0B0E0809357
:100EE0006D0E90936E0EA0936F0EB093700E0895DA
:100EF00081E090E0A0E0B0E08093710E9093720EDC
:100F0000A093730EB093740E0895220F331F220F17
:100F1000331FF901EB50F54F1082118212821382B8
:100F200008958C3691050CF04EC089369105CCF4AD
:100F3000863391055CF5833391059CF48C319105E2
:100F4000BCF4893191056CF48E30910564F48B30DA
:100F500091053CF4009729F097FD08C0029704978B
:100F600028F481E008950F970997D8F380E0089559
:100F7000863291053CF4843291059CF74F97039794
:100F8000A8F7EFCF8997079788F7EBCF84359105BE
:100F900074F4813591052CF7843491052CF48D334C
:100FA0009105FCF6C797EBCF87549109ECCF8E35AE
:100FB000910534F48B359105A4F685559109DFCF61
:100FC00085569109DCCF843A91051CF5813A91054B
:100FD00044F68038910584F48D37910514F68637F0
:100FE00091053CF4833791050CF0BBCF8F569109E6
:100FF000C6CF89579109C3CF803991053CF48D380C
:1010000091050CF0AECF83589109B9CF8159910960
:10101000B6CF803D91058CF48D3C91050CF0A1CFAD
:101020008E3A91053CF48B3A91050CF09ACF855A93
:101030009109A5CF895C9109A2CF8A3D91053CF425
:10104000873D91050CF08DCF835D910998CF8D5D23
:10105000910995CF8CB58C7F8CBD8DB58E7F8DBD64
:101060000895AF92BF92CF92DF92EF92FF920F93CB
:101070001F93CF93DF936C017B018B01040F151F2E
:10108000EB015E01AE18BF08C017D10759F0699196
:10109000D601ED91FC910190F081E02DC6011995EA
:1010A000892B79F7C501DF91CF911F910F91FF90A7
:1010B000EF90DF90CF90BF90AF900895FC01538DDB
:1010C000448D252F30E0842F90E0821B930B541722
:1010D00010F0CF96089501970895FC01918D828DAF
:1010E000981761F0A28DAE0FBF2FB11D5D968C9148
:1010F000928D9F5F9F73928F90E008958FEF9FEF87
:101100000895FC01918D828D981731F0828DE80F42
:10111000F11D858D90E008958FEF9FEF0895FC01FC
:10112000918D228D892F90E0805C9F4F821B9109C9
:101130008F73992708958AE79EE0F1DF21E0892BDC
:1011400009F420E0822F0895FC01A48DA80FB92F87
:10115000B11DA35ABF4F2C91848D90E001968F73DF
:101160009927848FA689B7892C93A089B1898C91FE
:10117000837080648C93938D848D981306C002884D
:10118000F389E02D80818F7D80830895EF92FF9217
:101190000F931F93CF93DF93EC0181E0888F9B8D9A
:1011A0008C8D98131AC0E889F989808185FF15C054
:1011B0009FB7F894EE89FF896083E889F989808177
:1011C0008370806480839FBF81E090E0DF91CF9146
:1011D0001F910F91FF90EF900895F62E0B8D10E068
:1011E0000F5F1F4F0F731127E02E8C8D8E110BC0D8
:1011F0000FB607FCFACFE889F989808185FFF5CF22
:10120000CE01A2DFF2CFEB8DEC0FFD2FF11DE35AE3
:10121000FF4FF0829FB7F8940B8FEA89FB8980819A
:101220008062D0CF682F8AE79EE0B0CFCF93DF9364
:10123000EC01888D8823B1F0AA89BB89E889F989F6
:101240008C9185FD03C0808186FD0CC00FB607FC24
:10125000F7CF8C9185FFF2CF808185FFEDCFCE0156
:1012600073DFEACFDF91CF91089580E090E0892B82
:1012700021F061DF81110E94000080E090E0892B65
:1012800049F080E090E0892B29F00E940000811154
:101290000E94000080E090E0892B49F080E090E01F
:1012A000892B29F00E94000081110E94000080E03B
:1012B00090E0892B49F080E090E0892B29F00E9492
:1012C000000081110C94000008958150823108F0D3
:1012D0005AC0E82FF0E08827EF58F64F8F4F0C9454
:1012E000B06391099509830989098D09C309980992
:1012F0009E09A209A809AC09B009B609BA09C3092F
:10130000BE09C409C809809180008F77809380004E
:101310000895809180008F7DF9CF80918000877F34
:10132000F5CF84B58F7784BD089584B58F7DFBCFCD
:101330008091B0008F778093B00008958091B000C5
:101340008F7DF9CF809190008F77809390000895E2
:10135000809190008F7DF9CF80919000877FF5CFAD
:101360008091A0008F778093A00008958091A000C5
:101370008F7DF9CF8091A000877FF5CF80912001EC
:101380008F77809320010895809120018F7DF9CF80
:1013900080912001877FF5CFCF93DF93282F30E016
:1013A000F901ED50FD4F8491F901E355FD4FD491C2
:1013B000F901E959FD4FC491CC2399F0811185DFE2
:1013C000EC2FF0E0EE0FFF1FE35BFD4FA591B49112
:1013D000EC91ED2381E090E009F480E0DF91CF9182
:1013E000089580E090E0FACF1F93CF93DF93282FEA
:1013F00030E0F901ED50FD4F8491F901E355FD4FC7
:10140000D491F901E959FD4FC491CC23A1F0162FD5
:1014100081115BDFEC2FF0E0EE0FFF1FED5CFD4F65
:10142000A591B4918FB7F894EC91111108C0D095A3
:10143000DE23DC938FBFDF91CF911F910895DE2BC8
:10144000F8CFCF93DF9390E0FC01E355FD4F24915B
:1014500089599D4FFC0184918823C9F090E0880F41
:10146000991FFC01E75EFD4FA591B491FC01ED5C75
:10147000FD4FC591D49161110DC09FB7F8948C9127
:10148000209582238C938881282328839FBFDF9116
:10149000CF910895623051F49FB7F8943C91822F18
:1014A000809583238C93E8812E2BEFCF8FB7F89410
:1014B000EC912E2B2C938FBFEACF8230910538F020
:1014C000880F991F880F991F05970197F1F70895C5
:1014D0003FB7F8948091E7099091E809A091E90954
:1014E000B091EA0926B5A89B05C02F3F19F00196D7
:1014F000A11DB11D3FBFBA2FA92F982F8827BC016E
:10150000CD01620F711D811D911D42E0660F771F95
:10151000881F991F4A95D1F708958F929F92AF9295
:10152000BF92CF92DF92EF92FF926B017C01D0DFEE
:101530004B015C01C114D104E104F104B1F0C8DF36
:10154000681979098A099B09683E734081059105EC
:1015500088F321E0C21AD108E108F10888EE880E6C
:1015600083E0981EA11CB11CE5CFFF90EF90DF90A7
:10157000CF90BF90AF909F908F9008952FB7F89421
:101580006091E3097091E4098091E5099091E60981
:101590002FBF0895CF92DF92EF92FF92CF93DF9308
:1015A000EC01603282E07807CCF5653B710514F000
:1015B00064EB70E0898128E830E0281B310987FD61
:1015C0003395220F331F220F331F6901330FEE08AB
:1015D000FF088A8128E532E0281B310987FD339511
:1015E000220F331F220F331F032E000C440B550B09
:1015F0002C193D094E095F09DB0177FF02C0B0E0FD
:10160000A0E00E94456224EB30E040E050E00E9400
:101610001F62C20ED31EE41EF51EB601E881E03340
:1016200070F5298188E890E0821B910927FD939548
:10163000880F991F880F991F681779077CF02A81F6
:1016400088E592E0821B910927FD9395880F991FE9
:10165000880F991F681779070CF4CB010297880F40
:10166000991F4FB7F8942E2F30E0F901EE0FFF1FAE
:10167000E20FF31FE159F04F928381834FBFDF9157
:10168000CF91FF90EF90DF90CF9008951F93CF936D
:10169000DF93EC01162F8881803308F04DC061E0A4
:1016A000812FCFDE8881282F30E0F901EE0FFF1F58
:1016B000E20FF31FE159F04F1F736081607C612BD3
:1016C000608319821A822CE0622F0E949163829FAC
:1016D000B001112430E020E0AB01420F531FFA01AA
:1016E000EE0FFF1FE40FF51FE159F04F908196FDBB
:1016F00016C02F5F3F4F2C30310571F7813009F54F
:101700001092800082E080938100109285001092F8
:101710008400B19A80916F00826080936F00E881AD
:101720008E2F90E0FC01EE0FFF1FE80FF91FE1592B
:10173000F04F8081806480838881DF91CF911F91F9
:101740000895823061F4109290008093910010927D
:1017500095001092940088BB80937100E0CF833095
:1017600069F41092A00082E08093A1001092A5007D
:101770001092A40089BB80937200D1CF8111CFCF8A
:101780001092200182E08093210110922501109295
:1017900024018ABB80937300C2CFAF92BF92CF92D5
:1017A000DF92EF92FF920F931F93CF93DF936B0122
:1017B0007A01EC01C252D64F28813CE0389F80016B
:1017C000399F100D1124A090FF0FB12C27FF1FC0CF
:1017D000FB011182108288818F5F88838881980144
:1017E000280F311D87FD3A95F6012A153B051CF49B
:1017F00088818C30BCF180819181049680349C4931
:1018000008F471C0F6018081918104966EC08881D0
:101810009801280F311D87FD3A952A153B05DCF606
:101820008881A801480F511D87FD5A95FA01EE0FD6
:10183000FF1FE40FF51FE159F04F808186FFCBCFEA
:101840008881F801E80FF11D87FDFA95CF01EE0FB1
:10185000FF1FE80FF91FE159F04F808160E08F739F
:10186000C3DDB9CF808191812881A801420F511D2C
:1018700027FD5A959A01FA01EE0FFF1FE20FF31FA1
:10188000E159F04F21813281820F931FF70191833B
:10189000808388819801280F311D87FD3A95F901D1
:1018A000EE0FFF1FE20FF31FE159F04F808186FF1B
:1018B00021C08881080F111D87FD1A95F801EE0FD0
:1018C000FF1FE00FF11FE159F04F808161E08F733E
:1018D000DF91CF911F910F91FF90EF90DF90CF900C
:1018E000BF90AF9081CD80E49CE9F7019183808324
:1018F0008FEF8883DF91CF911F910F91FF90EF9031
:10190000DF90CF90BF90AF900895CF93CFB7F8946A
:101910008091DD09811123C0ECE9F2E08491E2EECF
:10192000F2E09491E82FF0E0EE0FFF1FE75EFD4F2D
:10193000A591B491EC91E92319F461E085E354DDBC
:1019400061E085E37EDD8CB580618CBD8CB5806403
:101950008CBD61E084E375DD61E083E372DD80913D
:10196000DD098F5F8093DD09CFBFCF9108958CB5DE
:101970008C608CBD8CB58F7D8CBD6CDBC6CF0F931E
:101980001F93CF93DF938B01EA01AB0141505109C3
:101990004534510508F0E9C02230310508F0E5C0B2
:1019A00046E4429FF001439FF00D1124E80FF91F18
:1019B000E60FF71F81E080836C2F232B09F4D2C040
:1019C00061E0802F3EDD209749F460E0802F0CDD40
:1019D000CE01DF91CF911F910F910895CF3FD10597
:1019E00011F461E0BFC0F801ED50FD4FE491E1500A
:1019F000E23108F0B2C0F0E08827EE5FF24F8F4F7F
:101A00000C94B063140D1B0D200D2A0D340DAD0D7B
:101A10003E0D460D4E0D580D620D6C0D7B0D850D66
:101A2000AD0D8F0D990DA30D84B5806884BDC7BD24
:101A3000D0E0C0E0CDCF84B5806284BDC8BDF8CF12
:101A400080918000806880938000D0938900C0934B
:101A50008800EECF80918000806280938000D093D8
:101A60008B00C0938A00E4CF8091800088608093CF
:101A70008000D0938D00C0938C00DACF8091B000AD
:101A800080688093B000C093B300D2CF8091B00043
:101A900080628093B000C093B400CACF8091900060
:101AA000806880939000D0939900C0939800C0CF35
:101AB00080919000806280939000D0939B00C093AF
:101AC0009A00B6CF80919000886080939000D09368
:101AD0009D00C0939C00ACCF8091A0008068809353
:101AE000A0008091A0008F7B8093A000D093A900DC
:101AF000C093A8009DCF8091A00080628093A00039
:101B0000D093AB00C093AA0093CF8091A0008860CF
:101B10008093A000D093AD00C093AC0089CF80919A
:101B20002001806880932001D0932901C09328016F
:101B30007FCF80912001806280932001D0932B0180
:101B4000C0932A0175CF8091200188608093200185
:101B5000D0932D01C0932C016BCF60E0C038D1052C
:101B60000CF03FCF802F40DC63CFC1E0D0E030CF1E
:101B7000CF93DF93D0E0C0E0CE01D3D9882319F012
:101B8000CE010E94D3012196C13ED105A9F7DF9174
:101B9000CF9108958FB7F8948091790E8FBF0895F3
:101BA0004F925F926F927F928F929F92AF92BF926D
:101BB000CF92DF92EF92FF92CF93DF93EC016C898B
:101BC0007D898E899F8988889988AA88BB88CE8CD0
:101BD000DF8C0D2C000CEE08FF08603127E2720745
:101BE0008105910529F01616170618061906ACF09E
:101BF000A7019601C501B4010E948263DF91CF91D4
:101C0000FF90EF90DF90CF90BF90AF909F908F901C
:101C10007F906F905F904F9008950E94F36020E056
:101C200030E44CE157E40E94E1622B013C01488E14
:101C3000598E6A8E7B8EC501B4010E94F360A301A8
:101C400092010E9452614B015C01C701B6010E94E2
:101C5000F3609B01AC01C501B4010E9452610E9476
:101C60004963CCCFFC01118210821382128215824B
:101C700014821782168210861186128613861486A5
:101C8000158616861786108A118A128A138A108E74
:101C9000118E128E138E158E148E178E168E10A224
:101CA00011A212A213A214A215A216A217A210A684
:101CB00011A612A613A614A615A681E090E097A778
:101CC00086A780E197E2A0E0B0E0848B958BA68B9D
:101CD000B78B08958EBD00000DB407FEFDCF8EB505
:101CE0000895DF92EF92FF920F931F93CF93DF93AC
:101CF000EC01D62E122F032FF42EE52E60E08885FE
:101D000073DB8D2D8068E6DF89878E2DE3DF8F2DD5
:101D1000E1DF802FDFDF812FDDDF61E0888564DB9D
:101D20008985DF91CF911F910F91FF90EF90DF9008
:101D300008953F924F925F926F927F928F929F92FF
:101D4000AF92BF92CF92DF92EF92FF920F931F93C9
:101D5000CF93DF9300D000D0CDB7DEB79E838D83C5
:101D6000362E49015A012701380101DE60E0ED817C
:101D7000FE81808539DB832DADDFED81FE8181879A
:101D800080E0A8DF80E0A6DF80E0A4DF80E0A2DFC3
:101D900061E0ED81FE81808527DB60E0ED81FE81E1
:101DA000808522DB832D96DFED81FE81818780E0B7
:101DB00091DFF82E80E08EDF082F80E08BDF182F78
:101DC00080E088DF202F30E050E040E03F296901CB
:101DD0007A01FE2CED2CDC2CCC24C12AFE2CED2C1F
:101DE000DC2CCC24C82A61E0ED81FE818085FCDA00
:101DF0008C249D24AE24BF24482059206A207B20B7
:101E0000A30192012C253D254E255F25632D8D8153
:101E10009E8167DFED81FE81818526960FB6F8945D
:101E2000DEBF0FBECDBFDF91CF911F910F91FF900D
:101E3000EF90DF90CF90BF90AF909F908F907F906A
:101E40006F905F904F903F900895EF92FF920F93A5
:101E50001F93CF93DF93EC0184E0689FF00111247E
:101E6000EE57FD4FE080F18002811381062E04C001
:101E7000EE0CFF1C001F111F0A94D2F7242F30E034
:101E800050E040E004C0220F331F441F551F6A95E5
:101E9000D2F76CE6CE014DDF8985DF91CF911F919E
:101EA0000F91FF90EF900895EF92FF920F931F9381
:101EB000CF93DF93EC01E12CF12C8701E394062E04
:101EC00004C0EE0CFF1C001F111F0A94D2F7242F30
:101ED00030E050E040E004C0220F331F441F551F84
:101EE0006A95D2F760E0CE0124DF8985DF91CF913A
:101EF0001F910F91FF90EF900895CF93DF93EC0126
:101F000061E088859EDA61E088856EDA30DD60E028
:101F100088856ADA80E0DEDE898780E0DBDE80E0CB
:101F2000D9DE80E0D7DE80E0D5DE61E08885DF9114
:101F3000CF915ACA8F929F92AF92BF92DF92EF9247
:101F4000FF920F931F93CF93DF93EC017B015A0114
:101F5000D22ED3DF45E088E0E816F10439F17CF4B5
:101F600047E082E0E816F10409F146E084E0E81673
:101F7000F104E1F0EA94EF2869F448E017C043E087
:101F800080E2E816F10491F03CF444E080E1E816C8
:101F9000F10461F040E00AC042E080E4E816F10498
:101FA00029F041E080E8E816F104A1F768E1CE01EC
:101FB0004CDFB50190E080E00E94F16025ED34E057
:101FC00045E352E40E94526120E030E04AE754E4E5
:101FD0000E94E16228EB3EE145E05EE30E9452612F
:101FE0004B015C0126E636E646EA5EE30E94E162CA
:101FF00020E030E040E85FE30E947C620E944E6394
:10200000603180F42CEE31E548E35EE3C501B401B4
:102010000E94E16220E030E040E85FE30E947C62E1
:102020000E944E63862F8F71262F30E050E040E0F3
:10203000542F432F322F222722273F714427552721
:10204000282B60E1CE014DDE01117DC041E060E052
:10205000CE012ADF43E060E0CE01F7DE44E064E039
:10206000CE01F3DE41E067E0CE01EFDE42E06FE05B
:10207000CE01EBDE40E06EE0CE01E7DE41E060E065
:10208000CE01E3DE42E068E0CE01DFDE41E06DE05C
:10209000CE01DBDE2FEF3FEFA90163E1CE0121DEB0
:1020A0002FEF3FEF4FE050E064E1CE011ADE20E178
:1020B00037E240E050E065E1CE0113DE41E063E14C
:1020C000CE01C3DE41E062E1CE01BFDE48E060E068
:1020D000CE01BBDEE12CF12C8701EA9424E630E04E
:1020E00040E050E06EE6CE0124DEE12CF12C0FEF53
:1020F00013E020E030E048E050E06EE6CE0119DE6B
:1021000020E137E240E050E065E1CE01EADD41E068
:1021100065E0CE01C9DE41E06BE0CE01C5DE4D2DAC
:1021200060E1CE0192DE64E670E080E090E0DF9155
:10213000CF911F910F91FF90EF90DF90BF90AF90E4
:102140009F908F90EAC943E060E0CE017EDE41E0DF
:102150006FE0CE017ADE40E064E0CE0176DE40E062
:1021600067E0CE0172DE41E06CE1CE016EDE40E060
:102170006EE0CE016ADE40E060E0CE0195DE40E038
:1021800063E1CE0162DE40E062E1CE015EDEE12C81
:10219000F12C870120E030E044E050E060E7CE0120
:1021A000C8DD20E030E0A90160E7CE01C2DDE12C0E
:1021B000FF24FA940FEF1FEF20E031E040E050E001
:1021C00060E7CE01B6DDE12CF12C8701EA9420E82E
:1021D00030E040E050E060E7CE01ABDD41E062E09E
:1021E000CE0162DE40E065E0CE015EDE40E06BE005
:1021F000CE015ADE40E094CFCF93DF93EC01188AF2
:10220000198A1A8A1B8A83E590E00E94D00160E057
:1022100086E1EAD883E090E00197F1F78EA58295F8
:10222000807F58DD8FE090E00197F1F761E086E173
:10223000DF91CF91D9C8CF92DF92EF92FF920F93A7
:102240001F93CF93DF938C0183E590E00E94D00130
:1022500060E086E1C9D883E090E00197F1F7F801EA
:1022600086A597A524E0880F991F2A95E1F78F602E
:1022700031DD8FE090E00197F1F7C4E0D0E0C12CB0
:10228000D12C7601FE2CED2CDC2CCC2481E022DD3F
:10229000C82A2197B9F761E086E1A6D8F801C08A7B
:1022A000D18AE28AF38ADF91CF911F910F91FF903B
:1022B000EF90DF90CF9008952F923F924F925F92D0
:1022C0006F927F928F929F92AF92BF92CF92DF9246
:1022D000EF92FF920F931F93CF93DF9300D01F9243
:1022E000CDB7DEB79C838B834B015A011901FA826B
:1022F000E982FA01408051806280738020E030E002
:10230000A901C301B2010E947A63181674F4F601A0
:102310002081318142815381C301B2010E947C62DC
:10232000F5016083718382839383F801408051803B
:1023300062807380F401A68DB78D2089318942892E
:1023400053890E9445626B017C01EB81FC81E85757
:10235000FF4F8081882309F440C0C414D504E604EB
:10236000F7040CF440C0F801C082D182E282F3820B
:102370008B819C81825A9F4F9C838B83FC0180813F
:102380009181A281B381F10180839183A283B38380
:10239000E981FA8180819181892B41F0C40100DCBF
:1023A000EB81FC8160837183828393830F900F9014
:1023B0000F900F90DF91CF911F910F91FF90EF90B1
:1023C000DF90CF90BF90AF909F908F907F906F9055
:1023D0005F904F903F902F9008954C145D046E04D1
:1023E0007F040CF0C0CFF501408051806280738083
:1023F00020E030E04AEF56E4C301B2010E94ED60F4
:1024000087FFB1CF20E030E040E85FE3C301B201D5
:102410000E947D62F5016083718382839383A3CFE1
:10242000CF93DF93EC0183B183B183B183B1CE014C
:102430008A509E4F00DF83B183B183B183B1CE0157
:102440008A5D9D4FF8DE83B183B183B183B1CE0144
:102450008A5A9D4FDF91CF91EECE889A0895889841
:1024600008958E9A08958E980895EBE0F1E08081AA
:10247000886080830895EBE0F1E08081877F80832E
:102480000895149A08951498089560E0FC01878DCA
:102490000C94F40960E0FC01818D0C94F40961E076
:1024A000FC01878D0C94F40961E0FC01818D0C9492
:1024B000F409CF93DF93EC01FC01EF56FF4F10823C
:1024C000379781E0808360E0898D0E94F4098BA1B9
:1024D0009CA1892B31F060E08F8DDF91CF910C941E
:1024E000F409DF91CF910895CF93DF93EC018FA191
:1024F0000E94CC092AA52817190621F48BA5DF9183
:10250000CF91089580E0FBCFCF93DF93EC018DA1B5
:102510000E94CC092AA52817190621F48BA5DF9162
:10252000CF91089580E0FBCFCF93DF93EC018B8DAB
:10253000FE01E35BFF4F908161E0911101C060E01B
:102540000E94F40989A1FE01E25BFF4F908199236B
:1025500031F0C15BDF4F988161E0911101C060E013
:10256000DF91CF910C94F409CF93DF93EC018B8D25
:10257000FE01E35BFF4F908160E0911101C061E0DB
:102580000E94F40989A1FE01E25BFF4F908199232B
:1025900031F0C15BDF4F988160E0911101C061E0D3
:1025A000DF91CF910C94F409CF93DF93EC0161E0BC
:1025B0008D8D0E94F409FE01E25BFF4F808188232C
:1025C00021F061E08BA10E94F409C157DF4F18820E
:1025D000DF91CF910895CF93DF93EC01FC01E45498
:1025E000FC4F1082EE58F1098081811103C0CE01A9
:1025F0004096DADFFE01E15DFC4F8081811104C06D
:10260000CE018E549F4FD0DFFE01E05DFC4F8081F4
:10261000811104C0CE018C5A9E4FC6DF64E670E083
:1026200080E090E0DF91CF910C948D0ACF93DF93FF
:10263000EC0160E08D8D0E94F409FE01E25BFF4F2A
:102640008081882321F060E08BA10E94F409C157AA
:10265000DF4F81E08883DF91CF9108958F929F9221
:10266000AF92BF92CF92DF92EF92FF920F931F93A0
:10267000CF93FC01E65AFF4F4083518362837383FB
:10268000349640835183628373833496008311832D
:1026900022833383DC01AA59BF4FEC925297CC912D
:1026A000CC2351F018974C91411152C037FF56C0BE
:1026B0001082118212821382DC01AB5ABF4F4D91FE
:1026C0005D916D917C9113971416150616061706E9
:1026D00034F514963C91332311F1C080D180E2800F
:1026E000F38046015701F7FE07C08824992454015E
:1026F0008C189D08AE08BF08481559056A057B056A
:1027000074F4F7FE07C070956095509541955F4F42
:102710006F4F7F4F4083518362837383C32FFC01CC
:10272000ED58FF4F108211821282138289579F4FFA
:1027300031E0FC0130838C2FCF911F910F91FF90DE
:10274000EF90DF90CF90BF90AF909F908F900895C3
:1027500010161106120613060CF4AACFC0E0ACCF77
:102760000F931F93CF93DF93EC01062F89A581115F
:102770000DC0CE01C9DE182FCE01B6DE0111182F13
:10278000812FDF91CF911F910F910895CE01ACDE83
:10279000182FCE01B9DEF2CFCF93DF93EC01FC010D
:1027A000ED57FF4F80819181A281B3810196A11DD8
:1027B000B11D80839183A283B3833E9681E08083A1
:1027C000AE01425A5F4FFA0180819181A281B381AB
:1027D0009E0128573F4FF9012081222309F440C070
:1027E0000196A11DB11DFA0180839183A283B38359
:1027F000FE01EC56FF4F20813181C90195958795E7
:102800008C0F9D1F32970190F081E02D20FF08C0B2
:10281000DC012D913C91E20FF31F0190F081E02D3E
:1028200019958BA19CA1892BF9F0FE01E856FF4F69
:1028300020813181C901959587958C0F9D1FCA56BE
:10284000DF4FE881F98120FF08C0DC012D913C9128
:10285000E20FF31F0190F081E02DDF91CF911994E9
:102860000197A109B109BFCFDF91CF9108958F9250
:102870009F92AF92BF92CF92DF92EF92FF920F930F
:102880001F93CF93DF93EC01FC01ED58FF4F608164
:102890007181828193810E94F1606B017C01FE0154
:1028A000E05BFF4F60817181828193810E94F360C0
:1028B0009B01AC0160E074E284E799E40E94E1626C
:1028C0004B015C01FE01E158FF4F60817181828103
:1028D00093810E94F1609B01AC01C501B4010E948B
:1028E000E1624B015C018E0109581F4F20E030E08E
:1028F00040E05FE30E945261A70196010E947D6261
:102900000E944E63F8016083718382839383C5586C
:10291000DF4FA5019401C701B6010E947D620E94AC
:102920004E63688379838A839B83DF91CF911F9164
:102930000F91FF90EF90DF90CF90BF90AF909F905E
:102940008F9008950F931F93CF93DF93FC01EF5661
:10295000FF4F20812223B9F07E97008111812281CF
:102960003381389640815181628173810417150744
:102970002607370710F1EC019CDDCE01DF91CF91E6
:102980001F910F9174CFFC01E957FF4F2081222343
:10299000A1F07497008111812281338134964081A6
:1029A000518162817381041715072607370728F0C4
:1029B000DF91CF911F910F91EFCEDF91CF911F91BA
:1029C0000F910895FC01E957FF4F2081222361F008
:1029D000749780819181A281B3810196A11DB11D5F
:1029E00080839183A283B38308950F931F93FC0187
:1029F000EA59FF4F2081211112C0389700811181BF
:102A00002281338134964081518162817381041720
:102A10001507260737074CF41F910F91A5CDFC0130
:102A2000E45BFF4F20812111F7CF1F910F917CCDE7
:102A3000AF92BF92CF92DF92EF92FF920F931F93CC
:102A4000CF93DF93EC016B015A0179019A01AB013D
:102A5000B701888199816EDA8C81883531F49501CE
:102A6000A601B7018A819B8165DADF91CF911F9121
:102A70000F91FF90EF90DF90CF90BF90AF900895AF
:102A8000CF93DF93EC018C818835A9F585E890E13F
:102A90009983888384E690E19B838A8384E592E12D
:102AA000FE01EE56FF4F9183808332961182108291
:102AB0008FE492E132969183808332961182108264
:102AC0008AE492E132969183808332961182108259
:102AD00085E492E13296918380833296118210824E
:102AE000888199810ADA8C81883589F48A819B8171
:102AF000DF91CF9102CA893529F48AE790E1998361
:102B00008883CCCF8A3551F68FE690E1F8CFDF91FC
:102B1000CF910895CF93DF93FC01DC0116968AE0F4
:102B2000ED0119928A95E9F781E0808B818B138AF8
:102B3000128A148A158A168A178A108E8CE291E0FE
:102B4000A0E0B0E084A795A7A6A7B7A780AB91ABFC
:102B5000A2ABB3AB42E350E060E070E044AB55ABF6
:102B600066AB77AB40AF51AF62AF73AF44AF55AF19
:102B700066AF77AFEF01C05CDF4F88839983AA838C
:102B8000BB83249688839983AA83BB83DF01A85BD8
:102B9000BF4F48E750E060E070E04D935D936D9368
:102BA0007C93139714961C9211961C9211961C926A
:102BB00011961C92119644E650E060E070E04D934F
:102BC0005D936D937C93139714961C9211961D92AE
:102BD0001D921D921C92139714961C9211961D9291
:102BE0001D921D921C92139714961D921D921D9278
:102BF0001C92139714961D921D921D921C9213976E
:102C000014961C9211961D921D921D921C92139760
:102C100014961D921D921D921C92139714961D924C
:102C20001D921D921C92139714961D921D921D9237
:102C30001C92139714961D921D921D921C9213972D
:102C400014961D921D921D921C92139714961D921C
:102C50001D921D921C92139714961D921D921D9207
:102C60001C92139714961C9211961C9211961C920A
:102C700011961C9211961C9211961C9211961C9200
:102C800011961C9211961C9211961C9211961C92F0
:102C9000128E118E148E138E168E158E10A2178E14
:102CA00012A211A214A213A216A215A210A617A274
:102CB000119684E592E111969C938E93129611964B
:102CC0001C921E9212968FE492E111969C938E9321
:102CD000129611961C921E9212968AE492E1119617
:102CE0009C938E93129611961C921E92129685E4D6
:102CF00092E18D939C93E056FF4F11821082DF91F9
:102D0000CF91089508958FEF9FEF08950895089546
:102D100008950895089508950895089508950895CB
:102D200008950895089508950895089508950895BB
:102D30000895089508958091DB099091DC09892B0D
:102D400041F481E090E00E94745B9093DC098093F1
:102D5000DB098091DB099091DC0908950F931F93A3
:102D6000CF93DF938B01E7DFF801C2A1D3A1868D5A
:102D7000978D8530910529F14CF40497B1F090E0DE
:102D800080E0DF91CF911F910F91089586309105DA
:102D900011F10B97A1F76BE070E089E090E10E94E0
:102DA000460BBE0189E090E109C064E070E080E07C
:102DB00090E10E94460BBE0180E090E10E94CA0AA9
:102DC000DECF65E070E083E090E10E94460BBE013B
:102DD00083E090E1F3CF66E070E086E090E10E944E
:102DE000460BBE0186E090E1E9CF8091D709909132
:102DF000D809892BA9F48CE890E00E94745BFC014F
:102E000031969C012A5B3F4F1192DF01AB5BBF4FB4
:102E10001C92E217F307C1F79093D8098093D70962
:102E20008091D7099091D80908954F925F926F923F
:102E30007F92AF92BF92CF92DF92EF92FF920F9369
:102E40001F93CF93DF93EB01D0DF8C01CAA8DBA8DF
:102E50004EA45FA468A879A8AEA0BFA0EE8CFF8C9A
:102E60004AA15BA19601B7010E94BF0CC301B20148
:102E70000E948D0A9601A501B701C8010E94BF0CEE
:102E800090E080E0DF91CF911F910F91FF90EF9044
:102E9000DF90CF90BF90AF907F906F905F904F90FA
:102EA0000895CF93DF93EB01A0DF6AA98E8D0E9476
:102EB000210A90E080E0DF91CF910895CF93DF93D6
:102EC000EB0193DF2AA93BA94AA15BA16E8D7F8DFF
:102ED0000E94BF0C90E080E0DF91CF910895809137
:102EE000D0099091D109892BE1F585E390E00E940A
:102EF000745BFC0181E090E0A0E0B0E0808391830E
:102F0000A283B38384839583A683B78380879187C5
:102F1000A287B3871586148616861786108A118AAB
:102F2000128A138A148A158A168A178A108E118EAD
:102F3000138E128E12A213A214A215A217A216A209
:102F400010A611A612A613A614A615A616A617A6B5
:102F500010AA11AA12AA13AA14AAF093D109E093F5
:102F6000D0098091D0099091D1090895CF93DF9332
:102F7000B6DFEC0185E40E94CC0921E0892B09F43D
:102F800020E02C8FACDFEC0184E40E94CC0921E02E
:102F9000892B09F420E02D8FA2DFEC0183E40E944D
:102FA000CC0921E0892B09F420E02E8F98DFEC0179
:102FB00082E40E94CC0921E0892B09F420E02F8FC4
:102FC0008EDFEC0181E40E94CC0921E0892B09F419
:102FD00020E028A384DFEC0180E40E94CC0921E0FA
:102FE000892B09F420E029A3DF91CF91089577DFA1
:102FF000BDCF75DFFC0114AA90E080E00895FC01CC
:1030000001900020E9F73197AF01481B590BBC0133
:103010008AE79EE00C9431088F929F92AF92BF9204
:103020000F931F93CF93DF93CDB7DEB7A1970FB662
:10303000F894DEBF0FBECDBF19A2423008F44AE0BB
:103040008E010F5D1F4F842E912CB12CA12CA50158
:1030500094010E944B62E62FB901CA01EA30ECF4F8
:10306000E05DD801EE938D01232B242B252B79F7DE
:1030700090E080E0109711F0CD01C1DFA1960FB66E
:10308000F894DEBF0FBECDBFDF91CF911F910F919E
:10309000BF90AF909F908F900895E95CE2CFAFCF43
:1030A000882319F089E299E0FACF82E299E0FCCF17
:1030B000FC0180819181009711F00C94105C0895BF
:1030C0000C94105C0C94105C0C94105C0C94105CD0
:1030D0000C94105C0C94105C0C94105C0C94105CC0
:1030E0000C94105C0C94105C0C94105C0C94105CB0
:1030F0000C94105C0C94105C0C94105C0C94105CA0
:103100000C94105C0C94105C0C94105C0C94105C8F
:103110000C94105C0C94105C0C94105CCF92DF92B9
:10312000EF92FF92CF93DF9397FF18C06B017C0162
:103130008DE20E941209EC0166277727CB016C19FA
:103140007D098E099F094AE067DF8C0F9D1FDF9183
:10315000CF91FF90EF90DF90CF9008954AE0DF91FC
:10316000CF91FF90EF90DF90CF9056CFBC01990F99
:10317000880B990BD3CFCF93DF93EC0180E394E0DE
:103180008EDF6AA17BA18CA19DA1C8DF85E295E0BD
:10319000DF91CF9184CF0F931F93CF93DF938C0157
:1031A000EB0182E194E07BDF81EC97E078DFF801CE
:1031B00084810E941209CE01D9DF91DEDF91CF9187
:1031C0001F910F91D8CFEF92FF920F931F93CF9340
:1031D000DF93182F092F7B016115710569F50E9496
:1031E000CC0931E020E0019709F030E0C32FD22F65
:1031F00082E0E816F10408F045C083E394E04FDF75
:1032000081EC97E04CDF87E394E049DF812F902F3A
:10321000ADDF81EC97E043DF8EEC99E040DFCE013B
:10322000A5DF5DDEA8DF90E080E0DF91CF911F9108
:103230000F91FF90EF900895D0E0C0E061307105EC
:10324000B9F6812F163310F08AEC810F20917B00A4
:10325000982F9870277F922B90937B0087708064C3
:1032600080937C0080917A00806480937A008091C2
:103270007A0086FDFCCF80917800C0917900DC2F28
:10328000C82FB6CF81E090E0D0CF0F931F93CF939C
:10329000DF93FC012081318121153105C1F1EC0161
:1032A000822F0E94CC0921E0892B09F420E02B8792
:1032B0006A85261701F11E821F82188619860E81E3
:1032C0001F81288539858A819B81AC81BD81081742
:1032D00019072A073B07DCF081E0682788810E94F4
:1032E000F40983DD70E060E088819981DF91CF91FE
:1032F0001F910F9168CF8E819F81A885B985019616
:10330000A11DB11D8E839F83A887B987D8CFDF9178
:10331000CF911F910F910895CF93DF93EB0165DD5E
:103320006AA97BA98E8D9F8D4EDF90E080E0DF91B2
:10333000CF910895CF92DF92EF92FF92CF93DF93D8
:10334000EB01CB010E949107882351F1FE01EE0FA2
:10335000FF1FEE0FFF1FEB50F54FC080D180E280C2
:10336000F38089E394E09BDE81EC97E098DE87E3CD
:1033700094E095DECE01FADE81EC97E090DE8EECF3
:1033800099E08DDEC701B601C9DEA9DDF4DE90E06B
:1033900080E0DF91CF91FF90EF90DF90CF90089584
:1033A0008DE394E07CDEF3CF0F931F93CF93DF93F5
:1033B0008C01D0E0C0E0CE010E949107882319F073
:1033C000BE01C801B7DF2196C13ED105A1F7DF914B
:1033D000CF911F910F9108958FE594E060DE82E414
:1033E00092E05DDE8AE092E05ADE84E694E057DE09
:1033F00076DDC1DE90E080E00895CF93DF93EC01AD
:103400008EE694E04CDE82E794E049DE8C8D48DE67
:1034100086E794E044DE8D8D43DE8AE794E03FDE6C
:103420008E8D3EDE8EE794E03ADE8F8D39DE82E8C7
:1034300094E035DE88A134DE86E894E030DE89A1B0
:103440002FDECE01DF91CF9196CE49DDD6CF8AE82F
:1034500094E025DE44DD8ADD42DDCFDFC6DC70E0AE
:1034600060E088E090E0AFDEC0DC70E060E089E022
:1034700090E0A9DEBADC70E060E08AE090E0A3DED4
:10348000B4DC70E060E08DE090E09DDE90E080E0F4
:1034900008952F923F924F925F926F927F928F92F8
:1034A0009F92AF92BF92CF92DF92EF92FF920F93D3
:1034B0001F93CF93DF93CDB7DEB762970FB6F89423
:1034C000DEBF0FBECDBF1C017C012EE5E20EF11C5C
:1034D000D7014D915D916D917C91FC01EE59FF4FAB
:1034E000FE87ED8780819181A281B3814101F6E65B
:1034F0008F0E911CF4012081B2965F018101075764
:103500001F4F222309F440C06101FCE4CF0ED11CFF
:10351000F6012081F501208321E0F8012083411587
:1035200051056105710591F42081F101E158FF4FCA
:103530006F01F101222309F44FC040AC51AC62ACE1
:1035400073ACF60140825182628273829101265AE5
:103550003F4F3A8B298BF901408051806280738004
:10356000235D3F4F5901481659066A067B06CCF584
:10357000481759076A077B07F4F1D4018C91811130
:103580003AC0D5011C9240C121E0481759076A078B
:103590007B070CF020E0F50120835A016B0177FFD7
:1035A00007C0AA24BB246501A41AB50AC60AD70A13
:1035B0002C013D01B7FF07C0442455243201481AAD
:1035C000590A6A0A7B0A21E0A414B504C604D70488
:1035D0000CF0A3CF20E0A1CF44A855A866A877A8F7
:1035E000B0CF84159505A605B7053CF68417950759
:1035F000A607B70714F6F5018081882311F2D401DC
:103600008C9181110DC0F40180818111BACFD80154
:103610006C9181E06827C101A3D88111B2CF05C0A8
:1036200060E0C1019DD88111EECFD1019C962D9112
:103630003D914D915C919F9729833A834B835C83A5
:10364000F8018081811106C1F101E05CFF4F8081AA
:103650009181A281B3818D839E83AF83B887D1018D
:10366000D4962D913D914D915C91D79729873A87BA
:103670004B875C87ED85FE8580819181A281B38136
:10368000F701C080D180E280F380E989FA89408126
:10369000518162817381F101E557FF4F10823196AC
:1036A00010823101FDE86F0E711CF301108291014F
:1036B00022573F4FF9011082329610824C015D0172
:1036C000841A950AA60AB70AB7FE08C0B094A09457
:1036D00090948094811C911CA11CB11C481759071F
:1036E0006A077B070CF0CAC0C41AD50AE60AF70AB3
:1036F000D501C401B595A795979587958D879E8728
:10370000AF87B88B810100571F4F8C149D04AE0406
:10371000BF0408F0B8C0D101DC960D90BC91A02D7B
:10372000BA8BA98B81E0F9018083D8018C93F101D8
:103730008489882309F45CC00E94BE0AD101529694
:103740000D911C91012E000C220B330B601B710B91
:10375000820B930B693E73408105910508F448C0C4
:103760000E94BE0AF101738B628B81E994E097DCC1
:1037700085E994E094DC60E070E0CB01CFDC8BE97C
:1037800094E08DDCC701B601C9DC81EA94E087DCF6
:10379000C501B401C3DC87EA94E081DC4AE06D85B1
:1037A0007E858F85988938DC8EEA94E078DC6D819F
:1037B0007E818F819885B2DC84EB94E070DC698532
:1037C0007A858B859C85AADC8AEB94E068DC69812C
:1037D0007A818B819C81A2DC80EC94E060DC81ECBE
:1037E00097E05DDC89899A89C1DC85E295E057DC48
:1037F000F101E158FF4F29893A89C901B0E0A0E001
:1038000080839183A283B38360E0C1010E94B013DF
:10381000882339F0F101E25AFF4F1082118212829F
:10382000138262960FB6F894DEBF0FBECDBFDF9154
:10383000CF911F910F91FF90EF90DF90CF90BF90AD
:10384000AF909F908F907F906F905F904F903F9040
:103850002F900895F10180A991A9A2A9B3A9298166
:103860003A814B815C8182179307A407B5070CF05E
:10387000EBCE89839A83AB83BC83E6CEC81AD90A80
:10388000EA0AFB0A35CF2D853E854F8558892C15D0
:103890003D054E055F0508F450C08D819E81AF81C6
:1038A000B8858C159D05AE05BF0544F4A981BA8184
:1038B0001196BA8BA98B81E0F30136CFC701B6010F
:1038C0000E94F3602B013C016D817E818F81988580
:1038D0000E94F3609B01AC01C301B2010E94E1624E
:1038E0002B013C0169817A818B819C8129853A85F4
:1038F0004B855C85621B730B840B950B0E94F360F8
:103900009B01AC01C301B2010E9452612B013C0139
:1039100069857A858B859C850E94F3609B01AC014B
:10392000C301B2010E947D620E9449637A8B698B58
:1039300081E0F101E557FF4FF7CED501C4012D819C
:103940003E814F815885821B930BA40BB50BC81683
:10395000D906EA06FB065CF449815A814E5F5F4F47
:103960005A8B498B81E0F101E357FF4FDDCEC50152
:10397000B4016C197D098E099F090E94F3602B0127
:103980003C016D817E818F8198850E94F3609B014F
:10399000AC01C301B2010E94E1622B013C016981CB
:1039A0007A818B819C8129853A854B855C85621B58
:1039B000730B840B950B0E94F3609B01AC01C30158
:1039C000B2010E9452612B013C0169857A858B8589
:1039D0009C850E94F3609B01AC01C301B2010E946F
:1039E0007D620E9449637A8B698B81E0F101E45723
:1039F000FF4F9ACE4F925F926F927F928F929F92DB
:103A0000AF92BF92CF92DF92EF92FF920F931F93EC
:103A1000CF936B017C01742EAC019B010E947E63ED
:103A2000882391F086EC94E0CF911F910F91FF9045
:103A3000EF90DF90CF90BF90AF909F908F907F904E
:103A40006F905F904F90DBCA46015701E894B7F83A
:103A50002FEF3FEF4FE75FE7C501B4010E947E63A0
:103A600081110DC02FEF3FEF4FE75FE7C501B401B4
:103A70000E94ED6018161CF48AEC94E0D5CF2FEF6D
:103A80003FEF4FE75FE4C701B6010E947A63181663
:103A90001CF48EEC94E0C8CF2FEF3FEF4FE75FECC4
:103AA000C701B6010E94ED6087FDF3CF20E030E052
:103AB000A901C701B6010E94ED6010E000E087FF98
:103AC00008C08DE20E9412098C01F7FAF094F7F811
:103AD000F094C0E060E070E080E09FE37C1641F08D
:103AE00020E030E040E251E40E94E162CF5FF6CF97
:103AF000A70196010E947D622B013C010E944E634A
:103B00004B015C014AE088DA7C01E00EF11ECC2317
:103B1000A9F1C501B4010E94F1609B01AC01C30190
:103B2000B2010E947C624B015C018EE20E9412098C
:103B3000E80EF91EC15010F120E030E040E251E4FF
:103B4000C501B4010E9452612B013C010E944E63E9
:103B50004B01B12CA12C4AE0C501B4015DDAE80E9D
:103B6000F91EC501B4010E94F1609B01AC01C301C3
:103B7000B2010E947C624B015C01DCCFC701CF9196
:103B80001F910F91FF90EF90DF90CF90BF90AF907B
:103B90009F908F907F906F905F904F9008958F923D
:103BA0009F92AF92BF92CF92DF92EF92FF920F93CC
:103BB0001F93CF93DF93EC0182E592E070DA87EEFA
:103BC00094E06DDA6E018AE0C81A8EEFD80AC60159
:103BD0000E94D00D0E94F3604B015C01FE01E15B8D
:103BE000FC4F60817181828193810E94F3609B010F
:103BF000AC01C501B4010E94E16242E0FBDE87EF47
:103C000094E04DDA7E01EAEDEE1AEDEFFE0AC7010F
:103C10000E94D00D0E94F3604B015C01FE01ED5A41
:103C2000FC4F60817181828193810E94F3609B01CE
:103C3000AC01C501B4010E94E16242E0DBDE87E035
:103C400095E02DDA8E010A5A1D4FC8010E94D00D51
:103C50000E94F3604B015C01C95ADC4F6881798195
:103C60008A819B810E94F3609B01AC01C501B40174
:103C70000E94E16242E0BEDE32D97DDA8EE492E05B
:103C80000EDA87EE94E00BDAF601A68DB78D208967
:103C90003189428953890E94456240DA87EF94E076
:103CA000FED9F701A68DB78D2089318942895389C4
:103CB0000E94456233DA87E095E0F1D9F801A68DDC
:103CC000B78D20893189428953890E94456226DA5D
:103CD00006D9DF91CF911F910F91FF90EF90DF9068
:103CE000CF90BF90AF909F908F9045CACF92DF92B8
:103CF000EF92FF92CF93DF93EC0188819981AA81A3
:103D0000BB81181619061A061B0644F081E090E0E4
:103D1000A0E0B0E088839983AA83BB838C819D81D6
:103D2000AE81BF81181619061A061B0644F081E001
:103D300090E0A0E0B0E08C839D83AE83BF83888554
:103D40009985AA85BB85181619061A061B0644F024
:103D500081E090E0A0E0B0E088879987AA87BB87E0
:103D600082ED94E09CD987EE94E099D96E857F85A9
:103D7000888999890E94F3606B017C01688179814F
:103D80008A819B810E94F3609B01AC01C701B6014F
:103D90000E94E16242E02EDE87EF94E080D96A89DA
:103DA0007B898C899D890E94F3606B017C016C8109
:103DB0007D818E819F810E94F3609B01AC01C701D0
:103DC000B6010E94E16242E015DE87E095E067D926
:103DD0006E897F89888D998D0E94F3606B017C01CB
:103DE000688579858A859B850E94F3609B01AC017B
:103DF000C701B6010E94E16242E0FCDDCE01DF9125
:103E0000CF91FF90EF90DF90CF90B5C968D86EDF6B
:103E100090E080E00895CF92DF92EF92FF920F93AF
:103E20001F93CF93DF938C016A017B01EC01CC0FD0
:103E3000DD1F642FCE010E9411629927F7FC9A952D
:103E40008F2D7E2D6D2DCE0101960E9411620D5891
:103E500011090330110588F4B701992777FD909572
:103E6000892FCE0144960E9411626F2D77278827F3
:103E70009927CE0145960E94116290E080E0DF9183
:103E8000CF911F910F91FF90EF90DF90CF90089509
:103E90004F925F926F927F928F929F92AF92BF925A
:103EA000CF92DF92EF92FF920F931F93CF93DF9306
:103EB0008C01EC01CC0FDD1FCE010E940962882E1F
:103EC000912CB12CA12CCE0101960E940962C82E22
:103ED000D12CF12CE12C0D5811090330110508F0FB
:103EE0005AC0CE0144960E940962482E512C712C72
:103EF000612CCE0145960E940962082F10E030E047
:103F000020E08FEF481651046104710429F50F3F3A
:103F100011052105310501F58FEF88169104A104E3
:103F2000B104C9F58FEFC816D104E104F10499F585
:103F30006FEF7FEFCB01DF91CF911F910F91FF903A
:103F4000EF90DF90CF90BF90AF909F908F907F9039
:103F50006F905F904F90089500381105210531054D
:103F60003CF7FE2CED2CDC2CCC24C701B601680DEF
:103F7000791D8A1D9B1D320155244424640D751D35
:103F8000861D971D302F222711270027600F711FD4
:103F9000821F931FD0CF00E010E09801412C512CDC
:103FA000320180E8C816D104E104F104D4F2C0CF94
:103FB000EF92FF920F931F93CF93DF938091D509D8
:103FC0009091D609892B51F586E090E00E94745BB0
:103FD0007C0190E080E05CDF1616170654F1C70103
:103FE0000E94B80DD0E0C0E0CE010E949107882366
:103FF00069F0FE01EE0FFF1FEE0FFF1FEB50F54FB4
:104000004081518162817381CE0105DF2196C639DD
:10401000D10551F7F092D609E092D5098091D509E2
:104020009091D609DF91CF911F910F91FF90EF9062
:10403000089583E090E02CDF6130710581059105E2
:1040400031F505EF1AE0D0E0C0E0CE010E94910703
:104050008823B1F0CE011CDFF80160837183828375
:1040600093836F3F7F4F8F4F9F4F51F4CE010E943C
:10407000D301F8014081518162817381CE01CBDE91
:1040800021960C5F1F4FC13ED105F9F6C3CFC70182
:104090000E94B80DBFCFCF92DF92EF92FF920F93A5
:1040A0001F93CF93DF937C016B018A01E90180DFCD
:1040B000F601EE0FFF1FEE0FFF1FEB50F54F808153
:1040C0009181F7019183808373DF000F111F000F2F
:1040D000111FF801EB50F54F81E040815181628161
:1040E0007381413051056105710509F080E0F701E8
:1040F00082875EDFCC0FDD1FCC0FDD1FCB50D54F8D
:1041000088819981AA81BB81F70182839383A483EB
:10411000B5831682178210861186DF91CF911F9189
:104120000F91FF90EF90DF90CF900895CF93DF93A2
:10413000EC012AEC30E04BEC50E069EC70E0ABDFD6
:104140002EEC30E04FEC50E06DEC70E0CE010C96C0
:10415000A2DF24ED30E045ED50E063ED70E0CE01EC
:10416000489699DF28ED30E049ED50E067ED70E0CA
:10417000CE01849690DF2EED30E04FED50E06DEDF6
:1041800070E0CE01C096DF91CF9185CFCF93DF93C2
:104190008091D9099091DA09892BA1F48CE390E000
:1041A0000E94745BEC01198218821D861C86198E90
:1041B000188E1DA21CA219AA18AAB8DFD093DA097A
:1041C000C093D9098091D9099091DA09DF91CF91F3
:1041D00008952F923F924F925F926F927F928F92AB
:1041E0009F92AF92BF92CF92DF92EF92FF920F9386
:1041F0001F93CF93DF93EC01DBDEFE01EB57FC4F07
:104200008091B10C9091B20C91838083D1DEFE013C
:10421000E957FC4F8091B50C9091B60C9183808347
:10422000C7DEFE01E757FC4F8091B90C9091BA0CA4
:1042300091838083BDDE8E0105571C4F6091D90CA0
:104240007091DA0C8091DB0C9091DC0C0E94F36091
:10425000F8016083718382839383AADE1E01F1E7F4
:104260002F1AFCEF3F0A6091DD0C7091DE0C8091FB
:10427000DF0C9091E00C0E94F360F1016083718388
:104280008283938395DE20E030E048EC52E4F8012D
:1042900060817181828193810E94E1622B013C01E6
:1042A00020E030E048EC52E4F101608171818281CC
:1042B00093810E94E1624B015C016091E10C70917D
:1042C000E20C8091E30C9091E40C0E94F36020E0FA
:1042D00030E048EC52E40E94E1626B017C012AE08C
:1042E00037ED43E25CE3C301B2010E947A63181622
:1042F0000CF02BC120E030E046EC52E4C301B201E7
:104300000E94ED6087FD06C0412C512C56EC652EB5
:1043100052E4752EF80140825182628273822AE053
:1043200037ED43E25CE3C501B4010E947A631816DD
:104330000CF014C120E030E046EC52E4C501B401B9
:104340000E94ED6087FD06C0812C912C36ECA32ED7
:1043500032E4B32EF10180829182A282B3822AE0FC
:1043600037ED43E25CE3C701B6010E947A63181699
:104370000CF0FDC020E030E046EC52E4C701B6018D
:104380000E94ED6087FD06C0C12CD12C96ECE92E71
:1043900092E4F92EFE01ED56FC4FC082D182E282FA
:1043A000F38206DE8091990C90919A0CFE01E656FC
:1043B000FC4F91838083FCDD80919D0C90919E0C3D
:1043C000FE01E456FC4F91838083F2DD8091A10CC5
:1043D0009091A20CFE01E256FC4F91838083E8DDB0
:1043E0008091C10C9091C20CA091C30CB091C40CEF
:1043F000FE01E056FC4F80839183A283B383D8DD16
:104400008091C50C9091C60CA091C70CB091C80CBE
:10441000FE01EC55FC4F80839183A283B383C8DDFA
:104420008091C90C9091CA0CA091CB0CB091CC0C8E
:10443000FE01E855FC4F80839183A283B383B8DDEE
:104440008091E90C9091EA0CFE01E455FC4F9183B8
:104450008083AEDD8091ED0C9091EE0CFE01E25573
:10446000FC4F91838083A4DD8091F10C9091F20C3C
:10447000FE01E055FC4F918380839ADD8091010D10
:104480009091020DFE01EE54FC4F9183808390DDEC
:104490008091050D9091060DFE01EC54FC4F918327
:1044A000808386DD8091090D90910A0DFE01EA540A
:1044B000FC4F918380837CDD8091890C90918A0CE4
:1044C000A0918B0CB0918C0CFE01E956FC4F01972A
:1044D000A105B10509F054C081E0808369DD8091B8
:1044E0008D0C90918E0CA0918F0CB091900CFE01D0
:1044F000E856FC4F0197A105B10509F043C081E0E2
:10450000808356DD8091910C9091920CA091930C38
:10451000B091940CC756DC4F0197A105B105A1F5E8
:1045200081E08883DF91CF911F910F91FF90EF90F1
:10453000DF90CF90BF90AF909F908F907F906F90C3
:104540005F904F903F902F9008954AE0442E47EDA2
:10455000542E43E2642E4CE3742EDCCE2AE0822EED
:1045600027ED922E23E2A22E2CE3B22EF3CE8AE088
:10457000C82E87EDD82E83E2E82E8CE3F82E0ACFE2
:104580001082ACCF1082BDCF1882CCCF2F923F9239
:104590004F925F926F927F928F929F92AF92BF9253
:1045A000CF92DF92EF92FF920F931F93CF93DF93FF
:1045B000CDB7DEB76F970FB6F894DEBF0FBECDBF95
:1045C0009B8F8A8FF5DCEA8DFB8DEF55FD4F81E0E7
:1045D0004091C10B5091C20B6091C30B7091C40B01
:1045E000452B462B472B09F480E08083E1DCEA8DE4
:1045F000FB8DEE55FD4F81E04091C50B5091C60BF0
:104600006091C70B7091C80B452B462B472B09F4C3
:1046100080E08083CDDCEA8DFB8DED55FD4F81E0A0
:104620004091C90B5091CA0B6091CB0B7091CC0B90
:10463000452B462B472B09F480E08083B9DC809121
:10464000110C9091120CA091130CB091140CEA8DE6
:10465000FB8DEC55FD4F80839183A283B383A8DC4F
:104660008091150C9091160CA091170CB091180C1C
:10467000EA8DFB8DE855FD4F80839183A283B38340
:1046800097DC8091190C90911A0CA0911B0CB091A1
:104690001C0CEA8DFB8DE455FD4F80839183A28332
:1046A000B38386DC8091110C9091120CA091130CB5
:1046B000B091140CEA8DFB8DE055FD4F8083918302
:1046C000A283B38375DC8091150C9091160CA09198
:1046D000170CB091180CEA8DFB8DEC54FD4F8083C4
:1046E0009183A283B38364DC80911D0C90911E0C96
:1046F000A0911F0CB091200CEA8DFB8DE854FD4F6A
:1047000080839183A283B38353DC8091E90B9091E2
:10471000EA0BA091EB0BB091EC0BEA8DFB8DE8530B
:10472000FD4F80839183A283B38342DC8091ED0BA4
:104730009091EE0BA091EF0BB091F00BEA8DFB8DF9
:10474000E453FD4F80839183A283B38331DC809156
:10475000F10B9091F20BA091F30BB091F40BEA8D59
:10476000FB8DE053FD4F80839183A283B38320DCD4
:104770008091E90B9091EA0BA091EB0BB091EC0BBF
:10478000EA8DFB8DEC52FD4F80839183A283B3832E
:104790000FDC8091ED0B9091EE0BA091EF0BB0919F
:1047A000F00BEA8DFB8DE852FD4F80839183A2834D
:1047B000B383FEDB8091F50B9091F60BA091F70B84
:1047C000B091F80BEA8DFB8DE452FD4F808391830D
:1047D000A283B383EDDB8091F90B9091FA0BA0914A
:1047E000FB0BB091FC0BEA8DFB8DE052FD4F8083FB
:1047F0009183A283B383DCDB8091FD0B9091FE0B50
:10480000A091FF0BB091000CEA8DFB8DEC51FD4F98
:1048100080839183A283B383CBDB8091010C909141
:10482000020CA091030CB091040CEA8DFB8DE851B1
:10483000FD4F80839183A283B383BADB8091990B70
:1048400090919A0BA0919B0BB0919C0BEA8DFB8DE4
:10485000E451FD4F80839183A283B383A9DB8091D0
:104860009D0B90919E0BA0919F0BB091A00BEA8D98
:10487000FB8DE051FD4F80839183A283B38398DB4E
:104880008091A10B9091A20BA091A30BB091A40BCE
:10489000EA8DFB8DEC50FD4F80839183A283B3831F
:1048A00087DB8091990B90919A0BA0919B0BB09113
:1048B0009C0BEA8DFB8DE850FD4F80839183A28392
:1048C000B38376DB80919D0B90919E0BA0919F0B03
:1048D000B091A00BEA8DFB8DE450FD4F8083918356
:1048E000A283B38365DB8091A50B9091A60BA09169
:1048F000A70BB091A80BEA8DFB8DFD5F80839183A0
:10490000A283B38355DBEA8DFB8DEC5FFC4F81E026
:104910002091710B3091720B2130310509F080E04C
:10492000808346DBEA8DFB8DEB5FFC4F81E02091BD
:10493000750B3091760B2130310509F080E08083D2
:1049400037DBEA8DFB8DEA5FFC4F81E02091790B2C
:1049500030917A0B2130310509F080E0808328DB2B
:10496000EA8DFB8DE65CFC4F81E04091490B509154
:104970004A0B60914B0B70914C0B452B462B472BF0
:1049800009F480E0808314DBEA8DFB8DE55CFC4F4D
:1049900081E040914D0B50914E0B60914F0B709107
:1049A000500B452B462B472B09F480E0808300DB1E
:1049B000EA8DFB8DE45CFC4F81E04091510B5091FE
:1049C000520B6091530B7091540B452B462B472B88
:1049D00009F480E08083ECDAEA8DFB8DE35CFC4F28
:1049E00081E04091210C5091220C6091230C709138
:1049F000240C452B462B472B09F480E08083D8DA22
:104A0000EA8DFB8DE25CFC4F81E04091250C5091DA
:104A1000260C6091270C7091280C452B462B472BB8
:104A200009F480E08083C4DAEA8DFB8DE15CFC4F01
:104A300081E04091290C50912A0C60912B0C7091CF
:104A40002C0C452B462B472B09F480E08083B0DAF1
:104A5000EA8DFB8DE05CFC4F81E02091590B309199
:104A60005A0B2130310509F080E08083A1DAEA8D0C
:104A7000FB8DEF5BFC4F81E020915D0B30915E0B75
:104A80002130310509F080E0808392DAEA8DFB8DD8
:104A9000EE5BFC4F81E02091610B3091620B213085
:104AA000310509F080E0808383DA8091210B9091B9
:104AB000220BA091230BB091240BEA8DFB8DED5BB3
:104AC000FC4F80839183A283B38372DA8091250B9C
:104AD0009091260BA091270BB091280BEA8DFB8DAE
:104AE000E95BFC4F80839183A283B38361DA809179
:104AF000290B90912A0BA0912B0BB0912C0BEA8DD6
:104B0000FB8DE55BFC4F80839183A283B38350DAF6
:104B1000EA8DFB8DE25DFC4F81E04091310B5091BD
:104B2000320B6091330B7091340B452B462B472B86
:104B300009F480E080833CDAEA8DFB8DE15DFC4F77
:104B400081E04091350B5091360B6091370B70919D
:104B5000380B452B462B472B09F480E0808328DA5D
:104B6000EA8DFB8DE05DFC4F81E04091390B509167
:104B70003A0B60913B0B70913C0B452B462B472B1E
:104B800009F480E0808314DA8091290D90912A0D38
:104B9000A0912B0DB0912C0DEA8DFB8DE95FFC4FA0
:104BA00080839183A283B38303DA80912D0D90914A
:104BB0002E0DA0912F0DB091300DEA8DFB8DE55F8C
:104BC000FC4F80839183A283B383F2D98091310D0E
:104BD0009091320DA091330DB091340DEA8DFB8D83
:104BE000E15FFC4F80839183A283B383E1D9EA8D97
:104BF000FB8DEF5CFC4F81E02091890B30918A0B9B
:104C00002130310509F080E08083EA8DFB8DEE5C78
:104C1000FC4F1082EA8DFB8DED5CFC4F1082C8D9F1
:104C2000EA8DFB8DEC5CFC4F81E02091850B30918F
:104C3000860B2130310509F080E08083EA8DFB8D01
:104C4000EB5CFC4F1082EA8DFB8DEA5CFC4F10821E
:104C5000AFD9EA8DFB8DE95CFC4F81E02091A90B77
:104C60003091AA0B2130310509F080E08083A0D972
:104C7000EA8DFB8DE85CFC4F81E02091AD0B30911B
:104C8000AE0B2130310509F080E0808391D9EA8DA7
:104C9000FB8DE75CFC4F81E02091B10B3091B20BB2
:104CA0002130310509F080E0808382D9EA8DFB8DC7
:104CB000ED5EFC4F81E02091390D30913A0D2130AD
:104CC000310509F080E0808373D9EA8DFB8DEC5EBD
:104CD000FC4F81E020913D0D30913E0D213031059A
:104CE00009F080E0808364D9EA8DFB8DEB5EFC4F98
:104CF00081E02091410D3091420D2130310509F0C4
:104D000080E0808355D98091790D90917A0DA091A2
:104D10007B0DB0917C0DEA8DFB8DEA5EFC4F8083AC
:104D20009183A283B38344D980917D0D90917E0DB0
:104D3000A0917F0DB091800DEA8DFB8DE65EFC4F5A
:104D400080839183A283B38333D98091810D909125
:104D5000820DA091830DB091840DEA8DFB8DE25EF2
:104D6000FC4F80839183A283B38322D98091A90DC4
:104D70009091AA0DA091AB0DB091AC0DEA8DFB8D79
:104D8000EE5DFC4F80839183A283B38311D9809120
:104D9000A90D9091AA0DA091AB0DB091AC0DEA8D2B
:104DA000FB8DEA5DFC4F80839183A283B38300D99E
:104DB0008091A90D9091AA0DA091AB0DB091AC0D71
:104DC000EA8DFB8DE65DFC4F80839183A283B383E4
:104DD000EFD80A8D1B8D015B1C4F8091D10B9091F8
:104DE000D20BA091D30BB091D40BF80180839183A7
:104DF000A283B383DDD8EA8CFB8CFDEAEF1AFCEFCB
:104E0000FF0A8091D50B9091D60BA091D70BB09152
:104E1000D80BF70180839183A283B383C9D8809193
:104E2000D90B9091DA0BA091DB0BB091DC0BCA8C03
:104E3000DB8CF9EACF1AFCEFDF0AF601808391835D
:104E4000A283B383F801408151816281738114167A
:104E500015061606170644F041E050E060E070E0E9
:104E60004083518362837383F70140815181628162
:104E70007381141615061606170644F041E050E03B
:104E800060E070E0408351836283738318161906D3
:104E90001A061B064CF081E090E0A0E0B0E0F601BD
:104EA00080839183A283B3830E946F17FC01D60194
:104EB0008D909D90AD90BC90D7014D915D916D917D
:104EC0007C91D8010D911D912D913C91008311830E
:104ED00022833383448355836683778380869186D8
:104EE000A286B386EA8DFB8D7096FA83E983EA8DFC
:104EF000FB8DED5EFC4F80808B82EA8DFB8DE95F40
:104F0000FC4F4080518062807380EA8DFB8DE95CAC
:104F1000FC4F90809A86EA8DFB8DE05CFC4FA08070
:104F2000AC82EA8DFB8DEF5CFC4FB080BD82EA8DD8
:104F3000FB8DEC5CFC4F20812E83EA8DFB8DE35CC6
:104F4000FC4F80818E87EA8DFB8DE65CFC4F908163
:104F50009A8BEA8DFB8DEC5FFC4F2080EA8DFB8DF8
:104F6000EF55FD4F3080EA8DFB8DED5BFC4F80806F
:104F70009180A280B380EA8DFB8DE451FD4F80814A
:104F80009181A281B381EA8DFB8DE052FD4FC080FB
:104F9000D180E280F380EA8DFB8DE853FD4F4081A4
:104FA000518162817381EA8DFB8DEC55FD4F00814B
:104FB000118122813381EA8DFB8D04AF15AF26AFBD
:104FC00037AFEC5BFF4F4083518362837383EA8D7D
:104FD000FB8DE05BFF4F80839183A283B383EA8DD7
:104FE000FB8DE05CFF4F0083118322833383EA8DC6
:104FF000FB8DE85BFF4F4083518362837383EA8DAF
:10500000FB8DEC5AFF4F80839183A283B383EA8D9B
:10501000FB8DE45BFF4FC082D182E282F382EA8D96
:10502000FB8DE85AFF4F80829182A282B382EA8D83
:10503000FB8DE45AFF4F3082EA8DFB8DE35AFF4F20
:105040002082EA89AA8DBB8DD996EC93D997FE85EB
:10505000DA96FC93DA978C80DB968C9280E490E071
:10506000A0E0B0E0EA8DFB8DE05AFF4F8083918392
:10507000A283B383EA8DFB8DE25AFF4F9E8090821C
:10508000EA8DFB8DE15AFF4FAD80A082EA8DFB8D4A
:10509000EC59FF4FBA84B082EA8DFB8DEB59FF4F7C
:1050A0004082518262827382EA8DFB8DE759FF4F05
:1050B0002B812083AA8DBB8D99968D919C919A9777
:1050C0008633910509F0E6C28DE292E1FD01EE55CD
:1050D000FF4F918380833296118210828FE292E19A
:1050E000369691838083329611821082EA8DFB8DF1
:1050F00087A590A94A97D1F481E492E1EA55FF4F40
:1051000091838083EA8DFB8DE855FF4F11821082D9
:1051100083E492E1EA8DFB8DE255FF4F918380831A
:10512000EA8DFB8DE055FF4F118210820A8D1B8D99
:105130000E541F4FEA8DFB8DEC5EFC4F80808B82FE
:10514000EA8DFB8DE55FFC4F80819181A281B38167
:105150008A879B87AC87BD87EA8DFB8DE85CFC4F17
:1051600090819C83EA8DFB8DEF5BFC4FA081AD832A
:10517000EA8DFB8DEE5CFC4FB081BE83EA8DFB8D2A
:10518000EB5CFC4F80808E86EA8DFB8DE25CFC4FF1
:105190002080EA8DFB8DE55CFC4F3080EA8DFB8D35
:1051A000EB5FFC4F3081EA8DFB8DEE55FD4F20818A
:1051B000EA8DFB8DE95BFC4F4081518162817381F7
:1051C000EA8DFB8DE051FD4F80819181A281B381F9
:1051D000EA8DFB8DEC51FD4FC080D180E280F380E1
:1051E000EA8DFB8DE453FD4F80809180A280B380D7
:1051F000EA8DFB8DE855FD4F4080518062807380C1
:10520000F80144A655A666A677A684AA95AAA6AADA
:10521000B7AAEA8DFB8DEE50FF4F80839183A28366
:10522000B383F80140AA51AA62AA73AA80AE91AED4
:10523000A2AEB3AEEA8DFB8DEA50FF4F808391831F
:10524000A283B383D801DC96CD92DD92ED92FC92DD
:10525000DF97EA8DFB8DE650FF4F408351836283D9
:105260007383EA8DFB8DE250FF4F2083EA8DFB8D27
:10527000E150FF4F308399963C9299979A962C92E1
:105280009A97ED819B96EC9380E490E0A0E0B0E0EB
:10529000EA8DFB8DEE5FFE4F80839183A283B38303
:1052A000EA8DFB8DF3958E848082EA8DFB8DEF5F16
:1052B000FE4F9E809082EA8DFB8DEA5FFE4FAC80B0
:1052C000A082EA8DFB8DE95FFE4F8A859B85AC85C8
:1052D000BD8580839183A283B383EA8DFB8DE55FD7
:1052E000FE4F9B819083D80159968D919C91863376
:1052F000910509F001C28DE292E1EA8DFB8DEC5B34
:10530000FE4F91838083EA8DFB8DEA5BFE4F118215
:1053100010828FE292E1EA8DFB8DE45BFE4F918378
:105320008083EA8DFB8DE25BFE4F11821082F801D3
:10533000878D90A14A97E1F481E492E1EA8DFB8D9B
:10534000E85BFE4F91838083EA8DFB8DE65BFE4F29
:105350001182108283E492E1EA8DFB8DE05BFE4FC7
:1053600091838083EA8DFB8DEE5AFE4F118210826D
:10537000EA8CFB8CFCEAEF1AFEEFFF0AEA8DFB8D4C
:10538000EB5EFC4F80808B82EA8DFB8DE15FFC4FF2
:1053900080819181A281B3818A879B87AC87BD87F9
:1053A000EA8DFB8DE75CFC4F90819C83EA8DFB8D41
:1053B000EE5BFC4F3080EA8DFB8DED5CFC4FA081F5
:1053C000AD83EA8DFB8DEA5CFC4F2080EA8DFB8D7E
:1053D000E15CFC4FC080EA8DFB8DE45CFC4FD0802B
:1053E000EA8DFB8DEA5FFC4F3081EA8DFB8DED5538
:1053F000FD4F2081EA8DFB8DE55BFC4F8080918025
:10540000A280B3808E829F82A886B986EA8DFB8DAA
:10541000FD5F80819181A281B3818E879F87A88B58
:10542000B98BEA8DFB8DEC50FD4F80809180A2807E
:10543000B3808C8E9D8EAE8EBF8EEA8DFB8DE85133
:10544000FD4F80819181A281B3818A8B9B8BAC8B34
:10545000BD8BEA8DFB8DE452FD4F80819181A2814D
:10546000B381EA8DFB8DE053FD4F40805180628017
:105470007380EA8DFB8DE854FD4F4081518162813C
:105480007381EA8DFB8DE455FD4F80809180A28071
:10549000B380F70184A695A6A6A6B7A644AA55AAE6
:1054A00066AA77AAEA8DFB8DEC56FE4F8C8C9D8CFC
:1054B000AE8CBF8C80829182A282B382F70140AB16
:1054C00051AB62AB73AB80AF91AFA2AFB3AFEA8D1C
:1054D000FB8DE856FE4F8E849F84A888B988808211
:1054E0009182A282B3828A899B89AC89BD89F701A6
:1054F00084AF95AFA6AFB7AFEA8DFB8DE456FE4FF4
:105500008E809F80A884B98480829182A282B38297
:10551000EA8DFB8DE056FE4F2083EA8DFB8DEF5523
:10552000FE4F3083D7019996DC9299979A96CC9248
:105530009A979B963C9280E490E0A0E0B0E0EA8DE0
:10554000FB8DEC55FE4F80839183A283B383EA8D5C
:10555000FB8DEE55FE4F2082EA8DFB8DED55FE4F03
:10556000BD81B083EA8DFB8DE855FE4F8C80808233
:10557000EA8DFB8DE755FE4F8A859B85AC85BD8501
:1055800080839183A283B383EA8DFB8DE355FE4F25
:105590009B819083D70159968D919C91863391057B
:1055A00009F0D2C08DE292E1EA8DFB8DEA51FE4F07
:1055B00091838083EA8DFB8DE851FE4F118210822A
:1055C0008FE292E1EA8DFB8DE251FE4F9183808361
:1055D000EA8DFB8DE051FE4F11821082F701878D1D
:1055E00090A14A97E1F481E492E1EA8DFB8DE651C6
:1055F000FE4F91838083EA8DFB8DE451FE4F118233
:10560000108283E492E1EA8DFB8DEE50FE4F918390
:105610008083EA8DFB8DEC50FE4F11821082EA8D63
:10562000FB8DE25DFC4F8081882309F4B5C0898140
:105630009A810E941613EA8DFB8DE15DFC4F8081FB
:10564000882309F4AEC0C8010E9416138A8D9B8D71
:10565000805D9C4FDC018C91882309F4A6C0C701B2
:105660006F960FB6F894DEBF0FBECDBFDF91CF911E
:105670001F910F91FF90EF90DF90CF90BF90AF9070
:105680009F908F907F906F905F904F903F902F9062
:105690000C9416138C339105D9F481E392E1EA8DD1
:1056A000FB8DEE55FF4F91838083EA8DFB8DEC558A
:1056B000FF4F1182108283E392E1EA8DFB8DE65564
:1056C000FF4F91838083EA8DFB8DE455FF4F0CCD16
:1056D0008E9709F00BCD85E392E1EA8DFB8DEE55B7
:1056E000FF4F91838083EA8DFB8DEC55FF4F118234
:1056F00010828BE392E1E1CF8C33910589F481E351
:1057000092E1EA8DFB8DEC5BFE4F91838083EA8D05
:10571000FB8DEA5BFE4F1182108283E392E1FBCDA9
:105720008E9709F004CE85E392E1EA8DFB8DEC5B68
:10573000FE4F91838083EA8DFB8DEA5BFE4F1182E1
:1057400010828BE392E1E7CD8C33910589F481E3FC
:1057500092E1EA8DFB8DEA51FE4F91838083EA8DC1
:10576000FB8DE851FE4F1182108283E392E12ACF34
:105770008E9709F033CF85E392E1EA8DFB8DEA51F4
:10578000FE4F91838083EA8DFB8DE851FE4F11829D
:1057900010828BE392E116CF89819A810E94D41204
:1057A0004ACFC8010E94D41251CFC7016F960FB6DD
:1057B000F894DEBF0FBECDBFDF91CF911F910F9147
:1057C000FF90EF90DF90CF90BF90AF909F908F9021
:1057D0007F906F905F904F903F902F900C94D412D9
:1057E000AF92BF92CF92DF92EF92FF920F931F93EF
:1057F000CF93DF93EC018AE190E09AA789A78BE130
:1058000090E09CA78BA789E190E09EA78DA78FE0F1
:1058100090E098AB8FA78EE190E09AAB89AB8EE0D9
:1058200090E09CAB8BAB85E490E09EAB8DAB84E4C9
:1058300090E098AF8FABFE01EE54FF4F80E290E016
:10584000928F818F81E290E0948F838F8FE190E03F
:10585000968F858F10A2178E12A211A214A213A2E6
:1058600083E490E096A385A382E490E090A787A3C9
:10587000EE55FF4F83E290E0928F818F84E290E0BB
:10588000948F838F82E290E0968F858F10A2178E7F
:1058900012A211A214A213A281E490E096A385A300
:1058A00080E490E090A787A3E95BFE4F118210820D
:1058B000329611821082329611821082CE010E949D
:1058C000C622CE010E94E920CE018A509E4F41E0BF
:1058D00050E0FC0157A746A7DE01AA5DBD4F24E0BA
:1058E00030E09F963C932E939E975E01FAEAAF1AA2
:1058F000FDEFBF0A28E030E0F50137A726A72FEF1C
:105900003FEFFC013183208335832483338322835B
:1059100037832683628560876385618711963C9310
:105920002E9315963C932E93149713963C932E9397
:10593000129717963C932E9316971A966C911A9776
:1059400018966C9318971B966C911B9719966C93ED
:105950001997F50131832083358324833383228390
:10596000378326836285608763856187BE016E54B5
:105970007C4FFB01608171818E0100561C4FF80144
:10598000C080D180E280F38006501109F8010081C7
:105990001181FC01158F048FC48AD58AE68AF78AA3
:1059A0006130710509F04EC0378F268FCE018C54BF
:1059B0009C4FFC01808191819E012C553C4FF90147
:1059C000408151816281738128503109F901208120
:1059D00031815D963C932E935C9754964D935D93E5
:1059E0006D937C935797019781F58FEF9FEF5F96AB
:1059F0009C938E935E97DE01AA54BC4F8D919C912F
:105A000011971E974D915D916D917C91C256DC4F1F
:105A100028813981F501358F248F448B558B668B16
:105A2000778B0197A9F48FEF9FEF978F868FDF9188
:105A3000CF911F910F91FF90EF90DF90CF90BF908B
:105A4000AF900895578F468FB1CF81E090E0CFCFD0
:105A500081E090E0EACFBF92CF92DF92EF92FF9287
:105A60000F931F93CF93DF93EC010E94D81FE09018
:105A7000410CF090420C0E94D81FC090510CD09065
:105A8000520C0E94D81FB090690C10916A0C0E94B1
:105A9000D81F01E08091910D9091920D019709F02E
:105AA00000E02B2D312F1216130614F021E030E008
:105AB000A601B701CE018C5A9E4F0E941815DF91A6
:105AC000CF911F910F91FF90EF90DF90CF90BF90FB
:105AD0000895BF92CF92DF92EF92FF920F931F93A0
